{
	"contracts/random.sol": {
		"RandomNumberGenerator": {
			"abi": [
				{
					"inputs": [
						{
							"internalType": "uint256",
							"name": "",
							"type": "uint256"
						}
					],
					"name": "allIds",
					"outputs": [
						{
							"internalType": "uint256",
							"name": "",
							"type": "uint256"
						}
					],
					"stateMutability": "view",
					"type": "function"
				},
				{
					"inputs": [],
					"name": "currentId",
					"outputs": [
						{
							"internalType": "uint256",
							"name": "",
							"type": "uint256"
						}
					],
					"stateMutability": "view",
					"type": "function"
				},
				{
					"inputs": [],
					"name": "generateRandomNumber",
					"outputs": [
						{
							"internalType": "uint256",
							"name": "id",
							"type": "uint256"
						},
						{
							"internalType": "uint256",
							"name": "random",
							"type": "uint256"
						}
					],
					"stateMutability": "nonpayable",
					"type": "function"
				},
				{
					"inputs": [],
					"name": "getAllIdsAndRandomNumbers",
					"outputs": [
						{
							"internalType": "uint256[]",
							"name": "ids",
							"type": "uint256[]"
						},
						{
							"internalType": "uint256[]",
							"name": "numbers",
							"type": "uint256[]"
						}
					],
					"stateMutability": "view",
					"type": "function"
				},
				{
					"inputs": [
						{
							"internalType": "uint256",
							"name": "_id",
							"type": "uint256"
						}
					],
					"name": "getRandomNumberById",
					"outputs": [
						{
							"internalType": "uint256",
							"name": "",
							"type": "uint256"
						}
					],
					"stateMutability": "view",
					"type": "function"
				},
				{
					"inputs": [
						{
							"internalType": "uint256",
							"name": "",
							"type": "uint256"
						}
					],
					"name": "randomNumbers",
					"outputs": [
						{
							"internalType": "uint256",
							"name": "",
							"type": "uint256"
						}
					],
					"stateMutability": "view",
					"type": "function"
				}
			],
			"devdoc": {
				"kind": "dev",
				"methods": {},
				"version": 1
			},
			"evm": {
				"assembly": "    /* \"contracts/random.sol\":60:1541  contract RandomNumberGenerator {... */\n  mstore(0x40, 0x80)\n    /* \"contracts/random.sol\":316:317  1 */\n  0x01\n    /* \"contracts/random.sol\":289:317  uint256 public currentId = 1 */\n  0x02\n  sstore\n    /* \"contracts/random.sol\":60:1541  contract RandomNumberGenerator {... */\n  callvalue\n  dup1\n  iszero\n  tag_1\n  jumpi\n  0x00\n  dup1\n  revert\ntag_1:\n  pop\n  dataSize(sub_0)\n  dup1\n  dataOffset(sub_0)\n  0x00\n  codecopy\n  0x00\n  return\nstop\n\nsub_0: assembly {\n        /* \"contracts/random.sol\":60:1541  contract RandomNumberGenerator {... */\n      mstore(0x40, 0x80)\n      callvalue\n      dup1\n      iszero\n      tag_1\n      jumpi\n      0x00\n      dup1\n      revert\n    tag_1:\n      pop\n      jumpi(tag_2, lt(calldatasize, 0x04))\n      shr(0xe0, calldataload(0x00))\n      dup1\n      0x12764ec1\n      eq\n      tag_3\n      jumpi\n      dup1\n      0x2de6ca0b\n      eq\n      tag_4\n      jumpi\n      dup1\n      0x5257cd90\n      eq\n      tag_5\n      jumpi\n      dup1\n      0x692776ea\n      eq\n      tag_6\n      jumpi\n      dup1\n      0x773a1154\n      eq\n      tag_7\n      jumpi\n      dup1\n      0xe00dd161\n      eq\n      tag_8\n      jumpi\n    tag_2:\n      0x00\n      dup1\n      revert\n        /* \"contracts/random.sol\":1032:1538  function getAllIdsAndRandomNumbers() external view returns (uint256[] memory ids, uint256[] memory numbers) {... */\n    tag_3:\n      tag_9\n      tag_10\n      jump\t// in\n    tag_9:\n      mload(0x40)\n      tag_11\n      swap3\n      swap2\n      swap1\n      tag_12\n      jump\t// in\n    tag_11:\n      mload(0x40)\n      dup1\n      swap2\n      sub\n      swap1\n      return\n        /* \"contracts/random.sol\":863:981  function getRandomNumberById(uint256 _id) external view returns (uint256) {... */\n    tag_4:\n      tag_13\n      0x04\n      dup1\n      calldatasize\n      sub\n      dup2\n      add\n      swap1\n      tag_14\n      swap2\n      swap1\n      tag_15\n      jump\t// in\n    tag_14:\n      tag_16\n      jump\t// in\n    tag_13:\n      mload(0x40)\n      tag_17\n      swap2\n      swap1\n      tag_18\n      jump\t// in\n    tag_17:\n      mload(0x40)\n      dup1\n      swap2\n      sub\n      swap1\n      return\n        /* \"contracts/random.sol\":149:197  mapping(uint256 => uint256) public randomNumbers */\n    tag_5:\n      tag_19\n      0x04\n      dup1\n      calldatasize\n      sub\n      dup2\n      add\n      swap1\n      tag_20\n      swap2\n      swap1\n      tag_15\n      jump\t// in\n    tag_20:\n      tag_21\n      jump\t// in\n    tag_19:\n      mload(0x40)\n      tag_22\n      swap2\n      swap1\n      tag_18\n      jump\t// in\n    tag_22:\n      mload(0x40)\n      dup1\n      swap2\n      sub\n      swap1\n      return\n        /* \"contracts/random.sol\":238:261  uint256[] public allIds */\n    tag_6:\n      tag_23\n      0x04\n      dup1\n      calldatasize\n      sub\n      dup2\n      add\n      swap1\n      tag_24\n      swap2\n      swap1\n      tag_15\n      jump\t// in\n    tag_24:\n      tag_25\n      jump\t// in\n    tag_23:\n      mload(0x40)\n      tag_26\n      swap2\n      swap1\n      tag_18\n      jump\t// in\n    tag_26:\n      mload(0x40)\n      dup1\n      swap2\n      sub\n      swap1\n      return\n        /* \"contracts/random.sol\":359:821  function generateRandomNumber() external returns (uint256 id, uint256 random) {... */\n    tag_7:\n      tag_27\n      tag_28\n      jump\t// in\n    tag_27:\n      mload(0x40)\n      tag_29\n      swap3\n      swap2\n      swap1\n      tag_30\n      jump\t// in\n    tag_29:\n      mload(0x40)\n      dup1\n      swap2\n      sub\n      swap1\n      return\n        /* \"contracts/random.sol\":289:317  uint256 public currentId = 1 */\n    tag_8:\n      tag_31\n      tag_32\n      jump\t// in\n    tag_31:\n      mload(0x40)\n      tag_33\n      swap2\n      swap1\n      tag_18\n      jump\t// in\n    tag_33:\n      mload(0x40)\n      dup1\n      swap2\n      sub\n      swap1\n      return\n        /* \"contracts/random.sol\":1032:1538  function getAllIdsAndRandomNumbers() external view returns (uint256[] memory ids, uint256[] memory numbers) {... */\n    tag_10:\n        /* \"contracts/random.sol\":1092:1112  uint256[] memory ids */\n      0x60\n        /* \"contracts/random.sol\":1114:1138  uint256[] memory numbers */\n      dup1\n        /* \"contracts/random.sol\":1151:1165  uint256 length */\n      0x00\n        /* \"contracts/random.sol\":1168:1174  allIds */\n      0x01\n        /* \"contracts/random.sol\":1168:1181  allIds.length */\n      dup1\n      sload\n      swap1\n      pop\n        /* \"contracts/random.sol\":1151:1181  uint256 length = allIds.length */\n      swap1\n      pop\n        /* \"contracts/random.sol\":1192:1218  uint256[] memory resultIds */\n      0x00\n        /* \"contracts/random.sol\":1235:1241  length */\n      dup2\n        /* \"contracts/random.sol\":1221:1242  new uint256[](length) */\n      0xffffffffffffffff\n      dup2\n      gt\n      iszero\n      tag_35\n      jumpi\n      tag_36\n      tag_37\n      jump\t// in\n    tag_36:\n    tag_35:\n      mload(0x40)\n      swap1\n      dup1\n      dup3\n      mstore\n      dup1\n      0x20\n      mul\n      0x20\n      add\n      dup3\n      add\n      0x40\n      mstore\n      dup1\n      iszero\n      tag_38\n      jumpi\n      dup2\n      0x20\n      add\n      0x20\n      dup3\n      mul\n      dup1\n      calldatasize\n      dup4\n      calldatacopy\n      dup1\n      dup3\n      add\n      swap2\n      pop\n      pop\n      swap1\n      pop\n    tag_38:\n      pop\n        /* \"contracts/random.sol\":1192:1242  uint256[] memory resultIds = new uint256[](length) */\n      swap1\n      pop\n        /* \"contracts/random.sol\":1253:1283  uint256[] memory resultNumbers */\n      0x00\n        /* \"contracts/random.sol\":1300:1306  length */\n      dup3\n        /* \"contracts/random.sol\":1286:1307  new uint256[](length) */\n      0xffffffffffffffff\n      dup2\n      gt\n      iszero\n      tag_39\n      jumpi\n      tag_40\n      tag_37\n      jump\t// in\n    tag_40:\n    tag_39:\n      mload(0x40)\n      swap1\n      dup1\n      dup3\n      mstore\n      dup1\n      0x20\n      mul\n      0x20\n      add\n      dup3\n      add\n      0x40\n      mstore\n      dup1\n      iszero\n      tag_41\n      jumpi\n      dup2\n      0x20\n      add\n      0x20\n      dup3\n      mul\n      dup1\n      calldatasize\n      dup4\n      calldatacopy\n      dup1\n      dup3\n      add\n      swap2\n      pop\n      pop\n      swap1\n      pop\n    tag_41:\n      pop\n        /* \"contracts/random.sol\":1253:1307  uint256[] memory resultNumbers = new uint256[](length) */\n      swap1\n      pop\n        /* \"contracts/random.sol\":1323:1332  uint256 i */\n      0x00\n        /* \"contracts/random.sol\":1318:1487  for (uint256 i = 0; i < length; i++) {... */\n    tag_42:\n        /* \"contracts/random.sol\":1342:1348  length */\n      dup4\n        /* \"contracts/random.sol\":1338:1339  i */\n      dup2\n        /* \"contracts/random.sol\":1338:1348  i < length */\n      lt\n        /* \"contracts/random.sol\":1318:1487  for (uint256 i = 0; i < length; i++) {... */\n      iszero\n      tag_43\n      jumpi\n        /* \"contracts/random.sol\":1370:1380  uint256 id */\n      0x00\n        /* \"contracts/random.sol\":1383:1389  allIds */\n      0x01\n        /* \"contracts/random.sol\":1390:1391  i */\n      dup3\n        /* \"contracts/random.sol\":1383:1392  allIds[i] */\n      dup2\n      sload\n      dup2\n      lt\n      tag_45\n      jumpi\n      tag_46\n      tag_47\n      jump\t// in\n    tag_46:\n    tag_45:\n      swap1\n      0x00\n      mstore\n      keccak256(0x00, 0x20)\n      add\n      sload\n        /* \"contracts/random.sol\":1370:1392  uint256 id = allIds[i] */\n      swap1\n      pop\n        /* \"contracts/random.sol\":1422:1424  id */\n      dup1\n        /* \"contracts/random.sol\":1407:1416  resultIds */\n      dup5\n        /* \"contracts/random.sol\":1417:1418  i */\n      dup4\n        /* \"contracts/random.sol\":1407:1419  resultIds[i] */\n      dup2\n      mload\n      dup2\n      lt\n      tag_49\n      jumpi\n      tag_50\n      tag_47\n      jump\t// in\n    tag_50:\n    tag_49:\n      0x20\n      mul\n      0x20\n      add\n      add\n        /* \"contracts/random.sol\":1407:1424  resultIds[i] = id */\n      dup2\n      dup2\n      mstore\n      pop\n      pop\n        /* \"contracts/random.sol\":1458:1471  randomNumbers */\n      0x00\n        /* \"contracts/random.sol\":1458:1475  randomNumbers[id] */\n      dup1\n        /* \"contracts/random.sol\":1472:1474  id */\n      dup3\n        /* \"contracts/random.sol\":1458:1475  randomNumbers[id] */\n      dup2\n      mstore\n      0x20\n      add\n      swap1\n      dup2\n      mstore\n      0x20\n      add\n      0x00\n      keccak256\n      sload\n        /* \"contracts/random.sol\":1439:1452  resultNumbers */\n      dup4\n        /* \"contracts/random.sol\":1453:1454  i */\n      dup4\n        /* \"contracts/random.sol\":1439:1455  resultNumbers[i] */\n      dup2\n      mload\n      dup2\n      lt\n      tag_51\n      jumpi\n      tag_52\n      tag_47\n      jump\t// in\n    tag_52:\n    tag_51:\n      0x20\n      mul\n      0x20\n      add\n      add\n        /* \"contracts/random.sol\":1439:1475  resultNumbers[i] = randomNumbers[id] */\n      dup2\n      dup2\n      mstore\n      pop\n      pop\n        /* \"contracts/random.sol\":1355:1487  {... */\n      pop\n        /* \"contracts/random.sol\":1350:1353  i++ */\n      dup1\n      dup1\n      0x01\n      add\n      swap2\n      pop\n      pop\n        /* \"contracts/random.sol\":1318:1487  for (uint256 i = 0; i < length; i++) {... */\n      jump(tag_42)\n    tag_43:\n      pop\n        /* \"contracts/random.sol\":1505:1514  resultIds */\n      dup2\n        /* \"contracts/random.sol\":1516:1529  resultNumbers */\n      dup2\n        /* \"contracts/random.sol\":1497:1530  return (resultIds, resultNumbers) */\n      swap5\n      pop\n      swap5\n      pop\n      pop\n      pop\n      pop\n        /* \"contracts/random.sol\":1032:1538  function getAllIdsAndRandomNumbers() external view returns (uint256[] memory ids, uint256[] memory numbers) {... */\n      swap1\n      swap2\n      jump\t// out\n        /* \"contracts/random.sol\":863:981  function getRandomNumberById(uint256 _id) external view returns (uint256) {... */\n    tag_16:\n        /* \"contracts/random.sol\":928:935  uint256 */\n      0x00\n        /* \"contracts/random.sol\":955:968  randomNumbers */\n      dup1\n        /* \"contracts/random.sol\":955:973  randomNumbers[_id] */\n      0x00\n        /* \"contracts/random.sol\":969:972  _id */\n      dup4\n        /* \"contracts/random.sol\":955:973  randomNumbers[_id] */\n      dup2\n      mstore\n      0x20\n      add\n      swap1\n      dup2\n      mstore\n      0x20\n      add\n      0x00\n      keccak256\n      sload\n        /* \"contracts/random.sol\":948:973  return randomNumbers[_id] */\n      swap1\n      pop\n        /* \"contracts/random.sol\":863:981  function getRandomNumberById(uint256 _id) external view returns (uint256) {... */\n      swap2\n      swap1\n      pop\n      jump\t// out\n        /* \"contracts/random.sol\":149:197  mapping(uint256 => uint256) public randomNumbers */\n    tag_21:\n      mstore(0x20, 0x00)\n      dup1\n      0x00\n      mstore\n      keccak256(0x00, 0x40)\n      0x00\n      swap2\n      pop\n      swap1\n      pop\n      sload\n      dup2\n      jump\t// out\n        /* \"contracts/random.sol\":238:261  uint256[] public allIds */\n    tag_25:\n      0x01\n      dup2\n      dup2\n      sload\n      dup2\n      lt\n      tag_54\n      jumpi\n      0x00\n      dup1\n      revert\n    tag_54:\n      swap1\n      0x00\n      mstore\n      keccak256(0x00, 0x20)\n      add\n      0x00\n      swap2\n      pop\n      swap1\n      pop\n      sload\n      dup2\n      jump\t// out\n        /* \"contracts/random.sol\":359:821  function generateRandomNumber() external returns (uint256 id, uint256 random) {... */\n    tag_28:\n        /* \"contracts/random.sol\":409:419  uint256 id */\n      0x00\n        /* \"contracts/random.sol\":421:435  uint256 random */\n      dup1\n        /* \"contracts/random.sol\":548:565  uint256 randomNum */\n      0x00\n        /* \"contracts/random.sol\":603:618  block.timestamp */\n      timestamp\n        /* \"contracts/random.sol\":620:630  msg.sender */\n      caller\n        /* \"contracts/random.sol\":586:631  abi.encodePacked(block.timestamp, msg.sender) */\n      add(0x20, mload(0x40))\n      tag_57\n      swap3\n      swap2\n      swap1\n      tag_58\n      jump\t// in\n    tag_57:\n      mload(0x40)\n      0x20\n      dup2\n      dup4\n      sub\n      sub\n      dup2\n      mstore\n      swap1\n      0x40\n      mstore\n        /* \"contracts/random.sol\":576:632  keccak256(abi.encodePacked(block.timestamp, msg.sender)) */\n      dup1\n      mload\n      swap1\n      0x20\n      add\n      keccak256\n        /* \"contracts/random.sol\":568:633  uint256(keccak256(abi.encodePacked(block.timestamp, msg.sender))) */\n      0x00\n      shr\n        /* \"contracts/random.sol\":548:633  uint256 randomNum = uint256(keccak256(abi.encodePacked(block.timestamp, msg.sender))) */\n      swap1\n      pop\n        /* \"contracts/random.sol\":671:680  randomNum */\n      dup1\n        /* \"contracts/random.sol\":644:657  randomNumbers */\n      0x00\n        /* \"contracts/random.sol\":644:668  randomNumbers[currentId] */\n      dup1\n        /* \"contracts/random.sol\":658:667  currentId */\n      sload(0x02)\n        /* \"contracts/random.sol\":644:668  randomNumbers[currentId] */\n      dup2\n      mstore\n      0x20\n      add\n      swap1\n      dup2\n      mstore\n      0x20\n      add\n      0x00\n      keccak256\n        /* \"contracts/random.sol\":644:680  randomNumbers[currentId] = randomNum */\n      dup2\n      swap1\n      sstore\n      pop\n        /* \"contracts/random.sol\":691:697  allIds */\n      0x01\n        /* \"contracts/random.sol\":703:712  currentId */\n      sload(0x02)\n        /* \"contracts/random.sol\":691:713  allIds.push(currentId) */\n      swap1\n      dup1\n      0x01\n      dup2\n      sload\n      add\n      dup1\n      dup3\n      sstore\n      dup1\n      swap2\n      pop\n      pop\n      0x01\n      swap1\n      sub\n      swap1\n      0x00\n      mstore\n      keccak256(0x00, 0x20)\n      add\n      0x00\n      swap1\n      swap2\n      swap1\n      swap2\n      swap1\n      swap2\n      pop\n      sstore\n        /* \"contracts/random.sol\":724:740  uint256 resultId */\n      0x00\n        /* \"contracts/random.sol\":743:752  currentId */\n      sload(0x02)\n        /* \"contracts/random.sol\":724:752  uint256 resultId = currentId */\n      swap1\n      pop\n        /* \"contracts/random.sol\":763:772  currentId */\n      0x02\n      0x00\n        /* \"contracts/random.sol\":763:774  currentId++ */\n      dup2\n      sload\n      dup1\n      swap3\n      swap2\n      swap1\n      tag_60\n      swap1\n      tag_61\n      jump\t// in\n    tag_60:\n      swap2\n      swap1\n      pop\n      sstore\n      pop\n        /* \"contracts/random.sol\":793:801  resultId */\n      dup1\n        /* \"contracts/random.sol\":803:812  randomNum */\n      dup3\n        /* \"contracts/random.sol\":785:813  return (resultId, randomNum) */\n      swap4\n      pop\n      swap4\n      pop\n      pop\n      pop\n        /* \"contracts/random.sol\":359:821  function generateRandomNumber() external returns (uint256 id, uint256 random) {... */\n      swap1\n      swap2\n      jump\t// out\n        /* \"contracts/random.sol\":289:317  uint256 public currentId = 1 */\n    tag_32:\n      sload(0x02)\n      dup2\n      jump\t// out\n        /* \"#utility.yul\":7:121   */\n    tag_62:\n        /* \"#utility.yul\":74:80   */\n      0x00\n        /* \"#utility.yul\":108:113   */\n      dup2\n        /* \"#utility.yul\":102:114   */\n      mload\n        /* \"#utility.yul\":92:114   */\n      swap1\n      pop\n        /* \"#utility.yul\":7:121   */\n      swap2\n      swap1\n      pop\n      jump\t// out\n        /* \"#utility.yul\":127:311   */\n    tag_63:\n        /* \"#utility.yul\":226:237   */\n      0x00\n        /* \"#utility.yul\":260:266   */\n      dup3\n        /* \"#utility.yul\":255:258   */\n      dup3\n        /* \"#utility.yul\":248:267   */\n      mstore\n        /* \"#utility.yul\":300:304   */\n      0x20\n        /* \"#utility.yul\":295:298   */\n      dup3\n        /* \"#utility.yul\":291:305   */\n      add\n        /* \"#utility.yul\":276:305   */\n      swap1\n      pop\n        /* \"#utility.yul\":127:311   */\n      swap3\n      swap2\n      pop\n      pop\n      jump\t// out\n        /* \"#utility.yul\":317:449   */\n    tag_64:\n        /* \"#utility.yul\":384:388   */\n      0x00\n        /* \"#utility.yul\":407:410   */\n      dup2\n        /* \"#utility.yul\":399:410   */\n      swap1\n      pop\n        /* \"#utility.yul\":437:441   */\n      0x20\n        /* \"#utility.yul\":432:435   */\n      dup3\n        /* \"#utility.yul\":428:442   */\n      add\n        /* \"#utility.yul\":420:442   */\n      swap1\n      pop\n        /* \"#utility.yul\":317:449   */\n      swap2\n      swap1\n      pop\n      jump\t// out\n        /* \"#utility.yul\":455:532   */\n    tag_65:\n        /* \"#utility.yul\":492:499   */\n      0x00\n        /* \"#utility.yul\":521:526   */\n      dup2\n        /* \"#utility.yul\":510:526   */\n      swap1\n      pop\n        /* \"#utility.yul\":455:532   */\n      swap2\n      swap1\n      pop\n      jump\t// out\n        /* \"#utility.yul\":538:646   */\n    tag_66:\n        /* \"#utility.yul\":615:639   */\n      tag_91\n        /* \"#utility.yul\":633:638   */\n      dup2\n        /* \"#utility.yul\":615:639   */\n      tag_65\n      jump\t// in\n    tag_91:\n        /* \"#utility.yul\":610:613   */\n      dup3\n        /* \"#utility.yul\":603:640   */\n      mstore\n        /* \"#utility.yul\":538:646   */\n      pop\n      pop\n      jump\t// out\n        /* \"#utility.yul\":652:831   */\n    tag_67:\n        /* \"#utility.yul\":721:731   */\n      0x00\n        /* \"#utility.yul\":742:788   */\n      tag_93\n        /* \"#utility.yul\":784:787   */\n      dup4\n        /* \"#utility.yul\":776:782   */\n      dup4\n        /* \"#utility.yul\":742:788   */\n      tag_66\n      jump\t// in\n    tag_93:\n        /* \"#utility.yul\":820:824   */\n      0x20\n        /* \"#utility.yul\":815:818   */\n      dup4\n        /* \"#utility.yul\":811:825   */\n      add\n        /* \"#utility.yul\":797:825   */\n      swap1\n      pop\n        /* \"#utility.yul\":652:831   */\n      swap3\n      swap2\n      pop\n      pop\n      jump\t// out\n        /* \"#utility.yul\":837:950   */\n    tag_68:\n        /* \"#utility.yul\":907:911   */\n      0x00\n        /* \"#utility.yul\":939:943   */\n      0x20\n        /* \"#utility.yul\":934:937   */\n      dup3\n        /* \"#utility.yul\":930:944   */\n      add\n        /* \"#utility.yul\":922:944   */\n      swap1\n      pop\n        /* \"#utility.yul\":837:950   */\n      swap2\n      swap1\n      pop\n      jump\t// out\n        /* \"#utility.yul\":986:1718   */\n    tag_69:\n        /* \"#utility.yul\":1105:1108   */\n      0x00\n        /* \"#utility.yul\":1134:1188   */\n      tag_96\n        /* \"#utility.yul\":1182:1187   */\n      dup3\n        /* \"#utility.yul\":1134:1188   */\n      tag_62\n      jump\t// in\n    tag_96:\n        /* \"#utility.yul\":1204:1290   */\n      tag_97\n        /* \"#utility.yul\":1283:1289   */\n      dup2\n        /* \"#utility.yul\":1278:1281   */\n      dup6\n        /* \"#utility.yul\":1204:1290   */\n      tag_63\n      jump\t// in\n    tag_97:\n        /* \"#utility.yul\":1197:1290   */\n      swap4\n      pop\n        /* \"#utility.yul\":1314:1370   */\n      tag_98\n        /* \"#utility.yul\":1364:1369   */\n      dup4\n        /* \"#utility.yul\":1314:1370   */\n      tag_64\n      jump\t// in\n    tag_98:\n        /* \"#utility.yul\":1393:1400   */\n      dup1\n        /* \"#utility.yul\":1424:1425   */\n      0x00\n        /* \"#utility.yul\":1409:1693   */\n    tag_99:\n        /* \"#utility.yul\":1434:1440   */\n      dup4\n        /* \"#utility.yul\":1431:1432   */\n      dup2\n        /* \"#utility.yul\":1428:1441   */\n      lt\n        /* \"#utility.yul\":1409:1693   */\n      iszero\n      tag_101\n      jumpi\n        /* \"#utility.yul\":1510:1516   */\n      dup2\n        /* \"#utility.yul\":1504:1517   */\n      mload\n        /* \"#utility.yul\":1537:1600   */\n      tag_102\n        /* \"#utility.yul\":1596:1599   */\n      dup9\n        /* \"#utility.yul\":1581:1594   */\n      dup3\n        /* \"#utility.yul\":1537:1600   */\n      tag_67\n      jump\t// in\n    tag_102:\n        /* \"#utility.yul\":1530:1600   */\n      swap8\n      pop\n        /* \"#utility.yul\":1623:1683   */\n      tag_103\n        /* \"#utility.yul\":1676:1682   */\n      dup4\n        /* \"#utility.yul\":1623:1683   */\n      tag_68\n      jump\t// in\n    tag_103:\n        /* \"#utility.yul\":1613:1683   */\n      swap3\n      pop\n        /* \"#utility.yul\":1469:1693   */\n      pop\n        /* \"#utility.yul\":1456:1457   */\n      0x01\n        /* \"#utility.yul\":1453:1454   */\n      dup2\n        /* \"#utility.yul\":1449:1458   */\n      add\n        /* \"#utility.yul\":1444:1458   */\n      swap1\n      pop\n        /* \"#utility.yul\":1409:1693   */\n      jump(tag_99)\n    tag_101:\n        /* \"#utility.yul\":1413:1427   */\n      pop\n        /* \"#utility.yul\":1709:1712   */\n      dup6\n        /* \"#utility.yul\":1702:1712   */\n      swap4\n      pop\n        /* \"#utility.yul\":1110:1718   */\n      pop\n      pop\n      pop\n        /* \"#utility.yul\":986:1718   */\n      swap3\n      swap2\n      pop\n      pop\n      jump\t// out\n        /* \"#utility.yul\":1724:2358   */\n    tag_12:\n        /* \"#utility.yul\":1945:1949   */\n      0x00\n        /* \"#utility.yul\":1983:1985   */\n      0x40\n        /* \"#utility.yul\":1972:1981   */\n      dup3\n        /* \"#utility.yul\":1968:1986   */\n      add\n        /* \"#utility.yul\":1960:1986   */\n      swap1\n      pop\n        /* \"#utility.yul\":2032:2041   */\n      dup2\n        /* \"#utility.yul\":2026:2030   */\n      dup2\n        /* \"#utility.yul\":2022:2042   */\n      sub\n        /* \"#utility.yul\":2018:2019   */\n      0x00\n        /* \"#utility.yul\":2007:2016   */\n      dup4\n        /* \"#utility.yul\":2003:2020   */\n      add\n        /* \"#utility.yul\":1996:2043   */\n      mstore\n        /* \"#utility.yul\":2060:2168   */\n      tag_105\n        /* \"#utility.yul\":2163:2167   */\n      dup2\n        /* \"#utility.yul\":2154:2160   */\n      dup6\n        /* \"#utility.yul\":2060:2168   */\n      tag_69\n      jump\t// in\n    tag_105:\n        /* \"#utility.yul\":2052:2168   */\n      swap1\n      pop\n        /* \"#utility.yul\":2215:2224   */\n      dup2\n        /* \"#utility.yul\":2209:2213   */\n      dup2\n        /* \"#utility.yul\":2205:2225   */\n      sub\n        /* \"#utility.yul\":2200:2202   */\n      0x20\n        /* \"#utility.yul\":2189:2198   */\n      dup4\n        /* \"#utility.yul\":2185:2203   */\n      add\n        /* \"#utility.yul\":2178:2226   */\n      mstore\n        /* \"#utility.yul\":2243:2351   */\n      tag_106\n        /* \"#utility.yul\":2346:2350   */\n      dup2\n        /* \"#utility.yul\":2337:2343   */\n      dup5\n        /* \"#utility.yul\":2243:2351   */\n      tag_69\n      jump\t// in\n    tag_106:\n        /* \"#utility.yul\":2235:2351   */\n      swap1\n      pop\n        /* \"#utility.yul\":1724:2358   */\n      swap4\n      swap3\n      pop\n      pop\n      pop\n      jump\t// out\n        /* \"#utility.yul\":2445:2562   */\n    tag_71:\n        /* \"#utility.yul\":2554:2555   */\n      0x00\n        /* \"#utility.yul\":2551:2552   */\n      dup1\n        /* \"#utility.yul\":2544:2556   */\n      revert\n        /* \"#utility.yul\":2691:2813   */\n    tag_73:\n        /* \"#utility.yul\":2764:2788   */\n      tag_111\n        /* \"#utility.yul\":2782:2787   */\n      dup2\n        /* \"#utility.yul\":2764:2788   */\n      tag_65\n      jump\t// in\n    tag_111:\n        /* \"#utility.yul\":2757:2762   */\n      dup2\n        /* \"#utility.yul\":2754:2789   */\n      eq\n        /* \"#utility.yul\":2744:2807   */\n      tag_112\n      jumpi\n        /* \"#utility.yul\":2803:2804   */\n      0x00\n        /* \"#utility.yul\":2800:2801   */\n      dup1\n        /* \"#utility.yul\":2793:2805   */\n      revert\n        /* \"#utility.yul\":2744:2807   */\n    tag_112:\n        /* \"#utility.yul\":2691:2813   */\n      pop\n      jump\t// out\n        /* \"#utility.yul\":2819:2958   */\n    tag_74:\n        /* \"#utility.yul\":2865:2870   */\n      0x00\n        /* \"#utility.yul\":2903:2909   */\n      dup2\n        /* \"#utility.yul\":2890:2910   */\n      calldataload\n        /* \"#utility.yul\":2881:2910   */\n      swap1\n      pop\n        /* \"#utility.yul\":2919:2952   */\n      tag_114\n        /* \"#utility.yul\":2946:2951   */\n      dup2\n        /* \"#utility.yul\":2919:2952   */\n      tag_73\n      jump\t// in\n    tag_114:\n        /* \"#utility.yul\":2819:2958   */\n      swap3\n      swap2\n      pop\n      pop\n      jump\t// out\n        /* \"#utility.yul\":2964:3293   */\n    tag_15:\n        /* \"#utility.yul\":3023:3029   */\n      0x00\n        /* \"#utility.yul\":3072:3074   */\n      0x20\n        /* \"#utility.yul\":3060:3069   */\n      dup3\n        /* \"#utility.yul\":3051:3058   */\n      dup5\n        /* \"#utility.yul\":3047:3070   */\n      sub\n        /* \"#utility.yul\":3043:3075   */\n      slt\n        /* \"#utility.yul\":3040:3159   */\n      iszero\n      tag_116\n      jumpi\n        /* \"#utility.yul\":3078:3157   */\n      tag_117\n      tag_71\n      jump\t// in\n    tag_117:\n        /* \"#utility.yul\":3040:3159   */\n    tag_116:\n        /* \"#utility.yul\":3198:3199   */\n      0x00\n        /* \"#utility.yul\":3223:3276   */\n      tag_118\n        /* \"#utility.yul\":3268:3275   */\n      dup5\n        /* \"#utility.yul\":3259:3265   */\n      dup3\n        /* \"#utility.yul\":3248:3257   */\n      dup6\n        /* \"#utility.yul\":3244:3266   */\n      add\n        /* \"#utility.yul\":3223:3276   */\n      tag_74\n      jump\t// in\n    tag_118:\n        /* \"#utility.yul\":3213:3276   */\n      swap2\n      pop\n        /* \"#utility.yul\":3169:3286   */\n      pop\n        /* \"#utility.yul\":2964:3293   */\n      swap3\n      swap2\n      pop\n      pop\n      jump\t// out\n        /* \"#utility.yul\":3299:3417   */\n    tag_75:\n        /* \"#utility.yul\":3386:3410   */\n      tag_120\n        /* \"#utility.yul\":3404:3409   */\n      dup2\n        /* \"#utility.yul\":3386:3410   */\n      tag_65\n      jump\t// in\n    tag_120:\n        /* \"#utility.yul\":3381:3384   */\n      dup3\n        /* \"#utility.yul\":3374:3411   */\n      mstore\n        /* \"#utility.yul\":3299:3417   */\n      pop\n      pop\n      jump\t// out\n        /* \"#utility.yul\":3423:3645   */\n    tag_18:\n        /* \"#utility.yul\":3516:3520   */\n      0x00\n        /* \"#utility.yul\":3554:3556   */\n      0x20\n        /* \"#utility.yul\":3543:3552   */\n      dup3\n        /* \"#utility.yul\":3539:3557   */\n      add\n        /* \"#utility.yul\":3531:3557   */\n      swap1\n      pop\n        /* \"#utility.yul\":3567:3638   */\n      tag_122\n        /* \"#utility.yul\":3635:3636   */\n      0x00\n        /* \"#utility.yul\":3624:3633   */\n      dup4\n        /* \"#utility.yul\":3620:3637   */\n      add\n        /* \"#utility.yul\":3611:3617   */\n      dup5\n        /* \"#utility.yul\":3567:3638   */\n      tag_75\n      jump\t// in\n    tag_122:\n        /* \"#utility.yul\":3423:3645   */\n      swap3\n      swap2\n      pop\n      pop\n      jump\t// out\n        /* \"#utility.yul\":3651:3983   */\n    tag_30:\n        /* \"#utility.yul\":3772:3776   */\n      0x00\n        /* \"#utility.yul\":3810:3812   */\n      0x40\n        /* \"#utility.yul\":3799:3808   */\n      dup3\n        /* \"#utility.yul\":3795:3813   */\n      add\n        /* \"#utility.yul\":3787:3813   */\n      swap1\n      pop\n        /* \"#utility.yul\":3823:3894   */\n      tag_124\n        /* \"#utility.yul\":3891:3892   */\n      0x00\n        /* \"#utility.yul\":3880:3889   */\n      dup4\n        /* \"#utility.yul\":3876:3893   */\n      add\n        /* \"#utility.yul\":3867:3873   */\n      dup6\n        /* \"#utility.yul\":3823:3894   */\n      tag_75\n      jump\t// in\n    tag_124:\n        /* \"#utility.yul\":3904:3976   */\n      tag_125\n        /* \"#utility.yul\":3972:3974   */\n      0x20\n        /* \"#utility.yul\":3961:3970   */\n      dup4\n        /* \"#utility.yul\":3957:3975   */\n      add\n        /* \"#utility.yul\":3948:3954   */\n      dup5\n        /* \"#utility.yul\":3904:3976   */\n      tag_75\n      jump\t// in\n    tag_125:\n        /* \"#utility.yul\":3651:3983   */\n      swap4\n      swap3\n      pop\n      pop\n      pop\n      jump\t// out\n        /* \"#utility.yul\":3989:4169   */\n    tag_37:\n        /* \"#utility.yul\":4037:4114   */\n      0x4e487b7100000000000000000000000000000000000000000000000000000000\n        /* \"#utility.yul\":4034:4035   */\n      0x00\n        /* \"#utility.yul\":4027:4115   */\n      mstore\n        /* \"#utility.yul\":4134:4138   */\n      0x41\n        /* \"#utility.yul\":4131:4132   */\n      0x04\n        /* \"#utility.yul\":4124:4139   */\n      mstore\n        /* \"#utility.yul\":4158:4162   */\n      0x24\n        /* \"#utility.yul\":4155:4156   */\n      0x00\n        /* \"#utility.yul\":4148:4163   */\n      revert\n        /* \"#utility.yul\":4175:4355   */\n    tag_47:\n        /* \"#utility.yul\":4223:4300   */\n      0x4e487b7100000000000000000000000000000000000000000000000000000000\n        /* \"#utility.yul\":4220:4221   */\n      0x00\n        /* \"#utility.yul\":4213:4301   */\n      mstore\n        /* \"#utility.yul\":4320:4324   */\n      0x32\n        /* \"#utility.yul\":4317:4318   */\n      0x04\n        /* \"#utility.yul\":4310:4325   */\n      mstore\n        /* \"#utility.yul\":4344:4348   */\n      0x24\n        /* \"#utility.yul\":4341:4342   */\n      0x00\n        /* \"#utility.yul\":4334:4349   */\n      revert\n        /* \"#utility.yul\":4361:4440   */\n    tag_76:\n        /* \"#utility.yul\":4400:4407   */\n      0x00\n        /* \"#utility.yul\":4429:4434   */\n      dup2\n        /* \"#utility.yul\":4418:4434   */\n      swap1\n      pop\n        /* \"#utility.yul\":4361:4440   */\n      swap2\n      swap1\n      pop\n      jump\t// out\n        /* \"#utility.yul\":4446:4603   */\n    tag_77:\n        /* \"#utility.yul\":4551:4596   */\n      tag_130\n        /* \"#utility.yul\":4571:4595   */\n      tag_131\n        /* \"#utility.yul\":4589:4594   */\n      dup3\n        /* \"#utility.yul\":4571:4595   */\n      tag_65\n      jump\t// in\n    tag_131:\n        /* \"#utility.yul\":4551:4596   */\n      tag_76\n      jump\t// in\n    tag_130:\n        /* \"#utility.yul\":4546:4549   */\n      dup3\n        /* \"#utility.yul\":4539:4597   */\n      mstore\n        /* \"#utility.yul\":4446:4603   */\n      pop\n      pop\n      jump\t// out\n        /* \"#utility.yul\":4609:4735   */\n    tag_78:\n        /* \"#utility.yul\":4646:4653   */\n      0x00\n        /* \"#utility.yul\":4686:4728   */\n      0xffffffffffffffffffffffffffffffffffffffff\n        /* \"#utility.yul\":4679:4684   */\n      dup3\n        /* \"#utility.yul\":4675:4729   */\n      and\n        /* \"#utility.yul\":4664:4729   */\n      swap1\n      pop\n        /* \"#utility.yul\":4609:4735   */\n      swap2\n      swap1\n      pop\n      jump\t// out\n        /* \"#utility.yul\":4741:4837   */\n    tag_79:\n        /* \"#utility.yul\":4778:4785   */\n      0x00\n        /* \"#utility.yul\":4807:4831   */\n      tag_134\n        /* \"#utility.yul\":4825:4830   */\n      dup3\n        /* \"#utility.yul\":4807:4831   */\n      tag_78\n      jump\t// in\n    tag_134:\n        /* \"#utility.yul\":4796:4831   */\n      swap1\n      pop\n        /* \"#utility.yul\":4741:4837   */\n      swap2\n      swap1\n      pop\n      jump\t// out\n        /* \"#utility.yul\":4843:4937   */\n    tag_80:\n        /* \"#utility.yul\":4876:4884   */\n      0x00\n        /* \"#utility.yul\":4924:4929   */\n      dup2\n        /* \"#utility.yul\":4920:4922   */\n      0x60\n        /* \"#utility.yul\":4916:4930   */\n      shl\n        /* \"#utility.yul\":4895:4930   */\n      swap1\n      pop\n        /* \"#utility.yul\":4843:4937   */\n      swap2\n      swap1\n      pop\n      jump\t// out\n        /* \"#utility.yul\":4943:5037   */\n    tag_81:\n        /* \"#utility.yul\":4982:4989   */\n      0x00\n        /* \"#utility.yul\":5011:5031   */\n      tag_137\n        /* \"#utility.yul\":5025:5030   */\n      dup3\n        /* \"#utility.yul\":5011:5031   */\n      tag_80\n      jump\t// in\n    tag_137:\n        /* \"#utility.yul\":5000:5031   */\n      swap1\n      pop\n        /* \"#utility.yul\":4943:5037   */\n      swap2\n      swap1\n      pop\n      jump\t// out\n        /* \"#utility.yul\":5043:5143   */\n    tag_82:\n        /* \"#utility.yul\":5082:5089   */\n      0x00\n        /* \"#utility.yul\":5111:5137   */\n      tag_139\n        /* \"#utility.yul\":5131:5136   */\n      dup3\n        /* \"#utility.yul\":5111:5137   */\n      tag_81\n      jump\t// in\n    tag_139:\n        /* \"#utility.yul\":5100:5137   */\n      swap1\n      pop\n        /* \"#utility.yul\":5043:5143   */\n      swap2\n      swap1\n      pop\n      jump\t// out\n        /* \"#utility.yul\":5149:5306   */\n    tag_83:\n        /* \"#utility.yul\":5254:5299   */\n      tag_141\n        /* \"#utility.yul\":5274:5298   */\n      tag_142\n        /* \"#utility.yul\":5292:5297   */\n      dup3\n        /* \"#utility.yul\":5274:5298   */\n      tag_79\n      jump\t// in\n    tag_142:\n        /* \"#utility.yul\":5254:5299   */\n      tag_82\n      jump\t// in\n    tag_141:\n        /* \"#utility.yul\":5249:5252   */\n      dup3\n        /* \"#utility.yul\":5242:5300   */\n      mstore\n        /* \"#utility.yul\":5149:5306   */\n      pop\n      pop\n      jump\t// out\n        /* \"#utility.yul\":5312:5709   */\n    tag_58:\n        /* \"#utility.yul\":5452:5455   */\n      0x00\n        /* \"#utility.yul\":5467:5542   */\n      tag_144\n        /* \"#utility.yul\":5538:5541   */\n      dup3\n        /* \"#utility.yul\":5529:5535   */\n      dup6\n        /* \"#utility.yul\":5467:5542   */\n      tag_77\n      jump\t// in\n    tag_144:\n        /* \"#utility.yul\":5567:5569   */\n      0x20\n        /* \"#utility.yul\":5562:5565   */\n      dup3\n        /* \"#utility.yul\":5558:5570   */\n      add\n        /* \"#utility.yul\":5551:5570   */\n      swap2\n      pop\n        /* \"#utility.yul\":5580:5655   */\n      tag_145\n        /* \"#utility.yul\":5651:5654   */\n      dup3\n        /* \"#utility.yul\":5642:5648   */\n      dup5\n        /* \"#utility.yul\":5580:5655   */\n      tag_83\n      jump\t// in\n    tag_145:\n        /* \"#utility.yul\":5680:5682   */\n      0x14\n        /* \"#utility.yul\":5675:5678   */\n      dup3\n        /* \"#utility.yul\":5671:5683   */\n      add\n        /* \"#utility.yul\":5664:5683   */\n      swap2\n      pop\n        /* \"#utility.yul\":5700:5703   */\n      dup2\n        /* \"#utility.yul\":5693:5703   */\n      swap1\n      pop\n        /* \"#utility.yul\":5312:5709   */\n      swap4\n      swap3\n      pop\n      pop\n      pop\n      jump\t// out\n        /* \"#utility.yul\":5715:5895   */\n    tag_84:\n        /* \"#utility.yul\":5763:5840   */\n      0x4e487b7100000000000000000000000000000000000000000000000000000000\n        /* \"#utility.yul\":5760:5761   */\n      0x00\n        /* \"#utility.yul\":5753:5841   */\n      mstore\n        /* \"#utility.yul\":5860:5864   */\n      0x11\n        /* \"#utility.yul\":5857:5858   */\n      0x04\n        /* \"#utility.yul\":5850:5865   */\n      mstore\n        /* \"#utility.yul\":5884:5888   */\n      0x24\n        /* \"#utility.yul\":5881:5882   */\n      0x00\n        /* \"#utility.yul\":5874:5889   */\n      revert\n        /* \"#utility.yul\":5901:6134   */\n    tag_61:\n        /* \"#utility.yul\":5940:5943   */\n      0x00\n        /* \"#utility.yul\":5963:5987   */\n      tag_148\n        /* \"#utility.yul\":5981:5986   */\n      dup3\n        /* \"#utility.yul\":5963:5987   */\n      tag_65\n      jump\t// in\n    tag_148:\n        /* \"#utility.yul\":5954:5987   */\n      swap2\n      pop\n        /* \"#utility.yul\":6009:6075   */\n      0xffffffffffffffffffffffffffffffffffffffffffffffffffffffffffffffff\n        /* \"#utility.yul\":6002:6007   */\n      dup3\n        /* \"#utility.yul\":5999:6076   */\n      sub\n        /* \"#utility.yul\":5996:6099   */\n      tag_149\n      jumpi\n        /* \"#utility.yul\":6079:6097   */\n      tag_150\n      tag_84\n      jump\t// in\n    tag_150:\n        /* \"#utility.yul\":5996:6099   */\n    tag_149:\n        /* \"#utility.yul\":6126:6127   */\n      0x01\n        /* \"#utility.yul\":6119:6124   */\n      dup3\n        /* \"#utility.yul\":6115:6128   */\n      add\n        /* \"#utility.yul\":6108:6128   */\n      swap1\n      pop\n        /* \"#utility.yul\":5901:6134   */\n      swap2\n      swap1\n      pop\n      jump\t// out\n\n    auxdata: 0xa26469706673582212207c51837b43e9eab6891ff2b4ab8b9091ba0d69d5bd2fe05597a9a3e60c18527564736f6c634300081a0033\n}\n",
				"bytecode": {
					"linkReferences": {},
					"object": "608060405260016002553480156013575f80fd5b506106d6806100215f395ff3fe608060405234801561000f575f80fd5b5060043610610060575f3560e01c806312764ec1146100645780632de6ca0b146100835780635257cd90146100b3578063692776ea146100e3578063773a115414610113578063e00dd16114610132575b5f80fd5b61006c610150565b60405161007a929190610435565b60405180910390f35b61009d60048036038101906100989190610498565b61028a565b6040516100aa91906104d2565b60405180910390f35b6100cd60048036038101906100c89190610498565b6102a3565b6040516100da91906104d2565b60405180910390f35b6100fd60048036038101906100f89190610498565b6102b7565b60405161010a91906104d2565b60405180910390f35b61011b6102d7565b6040516101299291906104eb565b60405180910390f35b61013a61036f565b60405161014791906104d2565b60405180910390f35b6060805f60018054905090505f8167ffffffffffffffff81111561017757610176610512565b5b6040519080825280602002602001820160405280156101a55781602001602082028036833780820191505090505b5090505f8267ffffffffffffffff8111156101c3576101c2610512565b5b6040519080825280602002602001820160405280156101f15781602001602082028036833780820191505090505b5090505f5b8381101561027c575f600182815481106102135761021261053f565b5b905f5260205f2001549050808483815181106102325761023161053f565b5b6020026020010181815250505f808281526020019081526020015f20548383815181106102625761026161053f565b5b6020026020010181815250505080806001019150506101f6565b508181945094505050509091565b5f805f8381526020019081526020015f20549050919050565b5f602052805f5260405f205f915090505481565b600181815481106102c6575f80fd5b905f5260205f20015f915090505481565b5f805f42336040516020016102ed929190610601565b604051602081830303815290604052805190602001205f1c9050805f8060025481526020019081526020015f20819055506001600254908060018154018082558091505060019003905f5260205f20015f90919091909150555f600254905060025f81548092919061035e90610659565b919050555080829350935050509091565b60025481565b5f81519050919050565b5f82825260208201905092915050565b5f819050602082019050919050565b5f819050919050565b6103b08161039e565b82525050565b5f6103c183836103a7565b60208301905092915050565b5f602082019050919050565b5f6103e382610375565b6103ed818561037f565b93506103f88361038f565b805f5b8381101561042857815161040f88826103b6565b975061041a836103cd565b9250506001810190506103fb565b5085935050505092915050565b5f6040820190508181035f83015261044d81856103d9565b9050818103602083015261046181846103d9565b90509392505050565b5f80fd5b6104778161039e565b8114610481575f80fd5b50565b5f813590506104928161046e565b92915050565b5f602082840312156104ad576104ac61046a565b5b5f6104ba84828501610484565b91505092915050565b6104cc8161039e565b82525050565b5f6020820190506104e55f8301846104c3565b92915050565b5f6040820190506104fe5f8301856104c3565b61050b60208301846104c3565b9392505050565b7f4e487b71000000000000000000000000000000000000000000000000000000005f52604160045260245ffd5b7f4e487b71000000000000000000000000000000000000000000000000000000005f52603260045260245ffd5b5f819050919050565b6105866105818261039e565b61056c565b82525050565b5f73ffffffffffffffffffffffffffffffffffffffff82169050919050565b5f6105b58261058c565b9050919050565b5f8160601b9050919050565b5f6105d2826105bc565b9050919050565b5f6105e3826105c8565b9050919050565b6105fb6105f6826105ab565b6105d9565b82525050565b5f61060c8285610575565b60208201915061061c82846105ea565b6014820191508190509392505050565b7f4e487b71000000000000000000000000000000000000000000000000000000005f52601160045260245ffd5b5f6106638261039e565b91507fffffffffffffffffffffffffffffffffffffffffffffffffffffffffffffffff82036106955761069461062c565b5b60018201905091905056fea26469706673582212207c51837b43e9eab6891ff2b4ab8b9091ba0d69d5bd2fe05597a9a3e60c18527564736f6c634300081a0033",
					"opcodes": "PUSH1 0x80 PUSH1 0x40 MSTORE PUSH1 0x1 PUSH1 0x2 SSTORE CALLVALUE DUP1 ISZERO PUSH1 0x13 JUMPI PUSH0 DUP1 REVERT JUMPDEST POP PUSH2 0x6D6 DUP1 PUSH2 0x21 PUSH0 CODECOPY PUSH0 RETURN INVALID PUSH1 0x80 PUSH1 0x40 MSTORE CALLVALUE DUP1 ISZERO PUSH2 0xF JUMPI PUSH0 DUP1 REVERT JUMPDEST POP PUSH1 0x4 CALLDATASIZE LT PUSH2 0x60 JUMPI PUSH0 CALLDATALOAD PUSH1 0xE0 SHR DUP1 PUSH4 0x12764EC1 EQ PUSH2 0x64 JUMPI DUP1 PUSH4 0x2DE6CA0B EQ PUSH2 0x83 JUMPI DUP1 PUSH4 0x5257CD90 EQ PUSH2 0xB3 JUMPI DUP1 PUSH4 0x692776EA EQ PUSH2 0xE3 JUMPI DUP1 PUSH4 0x773A1154 EQ PUSH2 0x113 JUMPI DUP1 PUSH4 0xE00DD161 EQ PUSH2 0x132 JUMPI JUMPDEST PUSH0 DUP1 REVERT JUMPDEST PUSH2 0x6C PUSH2 0x150 JUMP JUMPDEST PUSH1 0x40 MLOAD PUSH2 0x7A SWAP3 SWAP2 SWAP1 PUSH2 0x435 JUMP JUMPDEST PUSH1 0x40 MLOAD DUP1 SWAP2 SUB SWAP1 RETURN JUMPDEST PUSH2 0x9D PUSH1 0x4 DUP1 CALLDATASIZE SUB DUP2 ADD SWAP1 PUSH2 0x98 SWAP2 SWAP1 PUSH2 0x498 JUMP JUMPDEST PUSH2 0x28A JUMP JUMPDEST PUSH1 0x40 MLOAD PUSH2 0xAA SWAP2 SWAP1 PUSH2 0x4D2 JUMP JUMPDEST PUSH1 0x40 MLOAD DUP1 SWAP2 SUB SWAP1 RETURN JUMPDEST PUSH2 0xCD PUSH1 0x4 DUP1 CALLDATASIZE SUB DUP2 ADD SWAP1 PUSH2 0xC8 SWAP2 SWAP1 PUSH2 0x498 JUMP JUMPDEST PUSH2 0x2A3 JUMP JUMPDEST PUSH1 0x40 MLOAD PUSH2 0xDA SWAP2 SWAP1 PUSH2 0x4D2 JUMP JUMPDEST PUSH1 0x40 MLOAD DUP1 SWAP2 SUB SWAP1 RETURN JUMPDEST PUSH2 0xFD PUSH1 0x4 DUP1 CALLDATASIZE SUB DUP2 ADD SWAP1 PUSH2 0xF8 SWAP2 SWAP1 PUSH2 0x498 JUMP JUMPDEST PUSH2 0x2B7 JUMP JUMPDEST PUSH1 0x40 MLOAD PUSH2 0x10A SWAP2 SWAP1 PUSH2 0x4D2 JUMP JUMPDEST PUSH1 0x40 MLOAD DUP1 SWAP2 SUB SWAP1 RETURN JUMPDEST PUSH2 0x11B PUSH2 0x2D7 JUMP JUMPDEST PUSH1 0x40 MLOAD PUSH2 0x129 SWAP3 SWAP2 SWAP1 PUSH2 0x4EB JUMP JUMPDEST PUSH1 0x40 MLOAD DUP1 SWAP2 SUB SWAP1 RETURN JUMPDEST PUSH2 0x13A PUSH2 0x36F JUMP JUMPDEST PUSH1 0x40 MLOAD PUSH2 0x147 SWAP2 SWAP1 PUSH2 0x4D2 JUMP JUMPDEST PUSH1 0x40 MLOAD DUP1 SWAP2 SUB SWAP1 RETURN JUMPDEST PUSH1 0x60 DUP1 PUSH0 PUSH1 0x1 DUP1 SLOAD SWAP1 POP SWAP1 POP PUSH0 DUP2 PUSH8 0xFFFFFFFFFFFFFFFF DUP2 GT ISZERO PUSH2 0x177 JUMPI PUSH2 0x176 PUSH2 0x512 JUMP JUMPDEST JUMPDEST PUSH1 0x40 MLOAD SWAP1 DUP1 DUP3 MSTORE DUP1 PUSH1 0x20 MUL PUSH1 0x20 ADD DUP3 ADD PUSH1 0x40 MSTORE DUP1 ISZERO PUSH2 0x1A5 JUMPI DUP2 PUSH1 0x20 ADD PUSH1 0x20 DUP3 MUL DUP1 CALLDATASIZE DUP4 CALLDATACOPY DUP1 DUP3 ADD SWAP2 POP POP SWAP1 POP JUMPDEST POP SWAP1 POP PUSH0 DUP3 PUSH8 0xFFFFFFFFFFFFFFFF DUP2 GT ISZERO PUSH2 0x1C3 JUMPI PUSH2 0x1C2 PUSH2 0x512 JUMP JUMPDEST JUMPDEST PUSH1 0x40 MLOAD SWAP1 DUP1 DUP3 MSTORE DUP1 PUSH1 0x20 MUL PUSH1 0x20 ADD DUP3 ADD PUSH1 0x40 MSTORE DUP1 ISZERO PUSH2 0x1F1 JUMPI DUP2 PUSH1 0x20 ADD PUSH1 0x20 DUP3 MUL DUP1 CALLDATASIZE DUP4 CALLDATACOPY DUP1 DUP3 ADD SWAP2 POP POP SWAP1 POP JUMPDEST POP SWAP1 POP PUSH0 JUMPDEST DUP4 DUP2 LT ISZERO PUSH2 0x27C JUMPI PUSH0 PUSH1 0x1 DUP3 DUP2 SLOAD DUP2 LT PUSH2 0x213 JUMPI PUSH2 0x212 PUSH2 0x53F JUMP JUMPDEST JUMPDEST SWAP1 PUSH0 MSTORE PUSH1 0x20 PUSH0 KECCAK256 ADD SLOAD SWAP1 POP DUP1 DUP5 DUP4 DUP2 MLOAD DUP2 LT PUSH2 0x232 JUMPI PUSH2 0x231 PUSH2 0x53F JUMP JUMPDEST JUMPDEST PUSH1 0x20 MUL PUSH1 0x20 ADD ADD DUP2 DUP2 MSTORE POP POP PUSH0 DUP1 DUP3 DUP2 MSTORE PUSH1 0x20 ADD SWAP1 DUP2 MSTORE PUSH1 0x20 ADD PUSH0 KECCAK256 SLOAD DUP4 DUP4 DUP2 MLOAD DUP2 LT PUSH2 0x262 JUMPI PUSH2 0x261 PUSH2 0x53F JUMP JUMPDEST JUMPDEST PUSH1 0x20 MUL PUSH1 0x20 ADD ADD DUP2 DUP2 MSTORE POP POP POP DUP1 DUP1 PUSH1 0x1 ADD SWAP2 POP POP PUSH2 0x1F6 JUMP JUMPDEST POP DUP2 DUP2 SWAP5 POP SWAP5 POP POP POP POP SWAP1 SWAP2 JUMP JUMPDEST PUSH0 DUP1 PUSH0 DUP4 DUP2 MSTORE PUSH1 0x20 ADD SWAP1 DUP2 MSTORE PUSH1 0x20 ADD PUSH0 KECCAK256 SLOAD SWAP1 POP SWAP2 SWAP1 POP JUMP JUMPDEST PUSH0 PUSH1 0x20 MSTORE DUP1 PUSH0 MSTORE PUSH1 0x40 PUSH0 KECCAK256 PUSH0 SWAP2 POP SWAP1 POP SLOAD DUP2 JUMP JUMPDEST PUSH1 0x1 DUP2 DUP2 SLOAD DUP2 LT PUSH2 0x2C6 JUMPI PUSH0 DUP1 REVERT JUMPDEST SWAP1 PUSH0 MSTORE PUSH1 0x20 PUSH0 KECCAK256 ADD PUSH0 SWAP2 POP SWAP1 POP SLOAD DUP2 JUMP JUMPDEST PUSH0 DUP1 PUSH0 TIMESTAMP CALLER PUSH1 0x40 MLOAD PUSH1 0x20 ADD PUSH2 0x2ED SWAP3 SWAP2 SWAP1 PUSH2 0x601 JUMP JUMPDEST PUSH1 0x40 MLOAD PUSH1 0x20 DUP2 DUP4 SUB SUB DUP2 MSTORE SWAP1 PUSH1 0x40 MSTORE DUP1 MLOAD SWAP1 PUSH1 0x20 ADD KECCAK256 PUSH0 SHR SWAP1 POP DUP1 PUSH0 DUP1 PUSH1 0x2 SLOAD DUP2 MSTORE PUSH1 0x20 ADD SWAP1 DUP2 MSTORE PUSH1 0x20 ADD PUSH0 KECCAK256 DUP2 SWAP1 SSTORE POP PUSH1 0x1 PUSH1 0x2 SLOAD SWAP1 DUP1 PUSH1 0x1 DUP2 SLOAD ADD DUP1 DUP3 SSTORE DUP1 SWAP2 POP POP PUSH1 0x1 SWAP1 SUB SWAP1 PUSH0 MSTORE PUSH1 0x20 PUSH0 KECCAK256 ADD PUSH0 SWAP1 SWAP2 SWAP1 SWAP2 SWAP1 SWAP2 POP SSTORE PUSH0 PUSH1 0x2 SLOAD SWAP1 POP PUSH1 0x2 PUSH0 DUP2 SLOAD DUP1 SWAP3 SWAP2 SWAP1 PUSH2 0x35E SWAP1 PUSH2 0x659 JUMP JUMPDEST SWAP2 SWAP1 POP SSTORE POP DUP1 DUP3 SWAP4 POP SWAP4 POP POP POP SWAP1 SWAP2 JUMP JUMPDEST PUSH1 0x2 SLOAD DUP2 JUMP JUMPDEST PUSH0 DUP2 MLOAD SWAP1 POP SWAP2 SWAP1 POP JUMP JUMPDEST PUSH0 DUP3 DUP3 MSTORE PUSH1 0x20 DUP3 ADD SWAP1 POP SWAP3 SWAP2 POP POP JUMP JUMPDEST PUSH0 DUP2 SWAP1 POP PUSH1 0x20 DUP3 ADD SWAP1 POP SWAP2 SWAP1 POP JUMP JUMPDEST PUSH0 DUP2 SWAP1 POP SWAP2 SWAP1 POP JUMP JUMPDEST PUSH2 0x3B0 DUP2 PUSH2 0x39E JUMP JUMPDEST DUP3 MSTORE POP POP JUMP JUMPDEST PUSH0 PUSH2 0x3C1 DUP4 DUP4 PUSH2 0x3A7 JUMP JUMPDEST PUSH1 0x20 DUP4 ADD SWAP1 POP SWAP3 SWAP2 POP POP JUMP JUMPDEST PUSH0 PUSH1 0x20 DUP3 ADD SWAP1 POP SWAP2 SWAP1 POP JUMP JUMPDEST PUSH0 PUSH2 0x3E3 DUP3 PUSH2 0x375 JUMP JUMPDEST PUSH2 0x3ED DUP2 DUP6 PUSH2 0x37F JUMP JUMPDEST SWAP4 POP PUSH2 0x3F8 DUP4 PUSH2 0x38F JUMP JUMPDEST DUP1 PUSH0 JUMPDEST DUP4 DUP2 LT ISZERO PUSH2 0x428 JUMPI DUP2 MLOAD PUSH2 0x40F DUP9 DUP3 PUSH2 0x3B6 JUMP JUMPDEST SWAP8 POP PUSH2 0x41A DUP4 PUSH2 0x3CD JUMP JUMPDEST SWAP3 POP POP PUSH1 0x1 DUP2 ADD SWAP1 POP PUSH2 0x3FB JUMP JUMPDEST POP DUP6 SWAP4 POP POP POP POP SWAP3 SWAP2 POP POP JUMP JUMPDEST PUSH0 PUSH1 0x40 DUP3 ADD SWAP1 POP DUP2 DUP2 SUB PUSH0 DUP4 ADD MSTORE PUSH2 0x44D DUP2 DUP6 PUSH2 0x3D9 JUMP JUMPDEST SWAP1 POP DUP2 DUP2 SUB PUSH1 0x20 DUP4 ADD MSTORE PUSH2 0x461 DUP2 DUP5 PUSH2 0x3D9 JUMP JUMPDEST SWAP1 POP SWAP4 SWAP3 POP POP POP JUMP JUMPDEST PUSH0 DUP1 REVERT JUMPDEST PUSH2 0x477 DUP2 PUSH2 0x39E JUMP JUMPDEST DUP2 EQ PUSH2 0x481 JUMPI PUSH0 DUP1 REVERT JUMPDEST POP JUMP JUMPDEST PUSH0 DUP2 CALLDATALOAD SWAP1 POP PUSH2 0x492 DUP2 PUSH2 0x46E JUMP JUMPDEST SWAP3 SWAP2 POP POP JUMP JUMPDEST PUSH0 PUSH1 0x20 DUP3 DUP5 SUB SLT ISZERO PUSH2 0x4AD JUMPI PUSH2 0x4AC PUSH2 0x46A JUMP JUMPDEST JUMPDEST PUSH0 PUSH2 0x4BA DUP5 DUP3 DUP6 ADD PUSH2 0x484 JUMP JUMPDEST SWAP2 POP POP SWAP3 SWAP2 POP POP JUMP JUMPDEST PUSH2 0x4CC DUP2 PUSH2 0x39E JUMP JUMPDEST DUP3 MSTORE POP POP JUMP JUMPDEST PUSH0 PUSH1 0x20 DUP3 ADD SWAP1 POP PUSH2 0x4E5 PUSH0 DUP4 ADD DUP5 PUSH2 0x4C3 JUMP JUMPDEST SWAP3 SWAP2 POP POP JUMP JUMPDEST PUSH0 PUSH1 0x40 DUP3 ADD SWAP1 POP PUSH2 0x4FE PUSH0 DUP4 ADD DUP6 PUSH2 0x4C3 JUMP JUMPDEST PUSH2 0x50B PUSH1 0x20 DUP4 ADD DUP5 PUSH2 0x4C3 JUMP JUMPDEST SWAP4 SWAP3 POP POP POP JUMP JUMPDEST PUSH32 0x4E487B7100000000000000000000000000000000000000000000000000000000 PUSH0 MSTORE PUSH1 0x41 PUSH1 0x4 MSTORE PUSH1 0x24 PUSH0 REVERT JUMPDEST PUSH32 0x4E487B7100000000000000000000000000000000000000000000000000000000 PUSH0 MSTORE PUSH1 0x32 PUSH1 0x4 MSTORE PUSH1 0x24 PUSH0 REVERT JUMPDEST PUSH0 DUP2 SWAP1 POP SWAP2 SWAP1 POP JUMP JUMPDEST PUSH2 0x586 PUSH2 0x581 DUP3 PUSH2 0x39E JUMP JUMPDEST PUSH2 0x56C JUMP JUMPDEST DUP3 MSTORE POP POP JUMP JUMPDEST PUSH0 PUSH20 0xFFFFFFFFFFFFFFFFFFFFFFFFFFFFFFFFFFFFFFFF DUP3 AND SWAP1 POP SWAP2 SWAP1 POP JUMP JUMPDEST PUSH0 PUSH2 0x5B5 DUP3 PUSH2 0x58C JUMP JUMPDEST SWAP1 POP SWAP2 SWAP1 POP JUMP JUMPDEST PUSH0 DUP2 PUSH1 0x60 SHL SWAP1 POP SWAP2 SWAP1 POP JUMP JUMPDEST PUSH0 PUSH2 0x5D2 DUP3 PUSH2 0x5BC JUMP JUMPDEST SWAP1 POP SWAP2 SWAP1 POP JUMP JUMPDEST PUSH0 PUSH2 0x5E3 DUP3 PUSH2 0x5C8 JUMP JUMPDEST SWAP1 POP SWAP2 SWAP1 POP JUMP JUMPDEST PUSH2 0x5FB PUSH2 0x5F6 DUP3 PUSH2 0x5AB JUMP JUMPDEST PUSH2 0x5D9 JUMP JUMPDEST DUP3 MSTORE POP POP JUMP JUMPDEST PUSH0 PUSH2 0x60C DUP3 DUP6 PUSH2 0x575 JUMP JUMPDEST PUSH1 0x20 DUP3 ADD SWAP2 POP PUSH2 0x61C DUP3 DUP5 PUSH2 0x5EA JUMP JUMPDEST PUSH1 0x14 DUP3 ADD SWAP2 POP DUP2 SWAP1 POP SWAP4 SWAP3 POP POP POP JUMP JUMPDEST PUSH32 0x4E487B7100000000000000000000000000000000000000000000000000000000 PUSH0 MSTORE PUSH1 0x11 PUSH1 0x4 MSTORE PUSH1 0x24 PUSH0 REVERT JUMPDEST PUSH0 PUSH2 0x663 DUP3 PUSH2 0x39E JUMP JUMPDEST SWAP2 POP PUSH32 0xFFFFFFFFFFFFFFFFFFFFFFFFFFFFFFFFFFFFFFFFFFFFFFFFFFFFFFFFFFFFFFFF DUP3 SUB PUSH2 0x695 JUMPI PUSH2 0x694 PUSH2 0x62C JUMP JUMPDEST JUMPDEST PUSH1 0x1 DUP3 ADD SWAP1 POP SWAP2 SWAP1 POP JUMP INVALID LOG2 PUSH5 0x6970667358 0x22 SLT KECCAK256 PUSH29 0x51837B43E9EAB6891FF2B4AB8B9091BA0D69D5BD2FE05597A9A3E60C18 MSTORE PUSH22 0x64736F6C634300081A00330000000000000000000000 "
				},
				"gasEstimates": {
					"creation": {
						"codeDepositCost": "350000",
						"executionCost": "22490",
						"totalCost": "372490"
					},
					"external": {
						"allIds(uint256)": "infinite",
						"currentId()": "2513",
						"generateRandomNumber()": "infinite",
						"getAllIdsAndRandomNumbers()": "infinite",
						"getRandomNumberById(uint256)": "infinite",
						"randomNumbers(uint256)": "infinite"
					}
				},
				"methodIdentifiers": {
					"allIds(uint256)": "692776ea",
					"currentId()": "e00dd161",
					"generateRandomNumber()": "773a1154",
					"getAllIdsAndRandomNumbers()": "12764ec1",
					"getRandomNumberById(uint256)": "2de6ca0b",
					"randomNumbers(uint256)": "5257cd90"
				}
			},
			"storageLayout": {
				"storage": [
					{
						"astId": 5,
						"contract": "contracts/random.sol:RandomNumberGenerator",
						"label": "randomNumbers",
						"offset": 0,
						"slot": "0",
						"type": "t_mapping(t_uint256,t_uint256)"
					},
					{
						"astId": 8,
						"contract": "contracts/random.sol:RandomNumberGenerator",
						"label": "allIds",
						"offset": 0,
						"slot": "1",
						"type": "t_array(t_uint256)dyn_storage"
					},
					{
						"astId": 11,
						"contract": "contracts/random.sol:RandomNumberGenerator",
						"label": "currentId",
						"offset": 0,
						"slot": "2",
						"type": "t_uint256"
					}
				],
				"types": {
					"t_array(t_uint256)dyn_storage": {
						"base": "t_uint256",
						"encoding": "dynamic_array",
						"label": "uint256[]",
						"numberOfBytes": "32"
					},
					"t_mapping(t_uint256,t_uint256)": {
						"encoding": "mapping",
						"key": "t_uint256",
						"label": "mapping(uint256 => uint256)",
						"numberOfBytes": "32",
						"value": "t_uint256"
					},
					"t_uint256": {
						"encoding": "inplace",
						"label": "uint256",
						"numberOfBytes": "32"
					}
				}
			},
			"userdoc": {
				"kind": "user",
				"methods": {},
				"version": 1
			}
		}
	}
}