{
	"contracts/KeyManagement.sol": {
		"KeyManagement": {
			"abi": [
				{
					"inputs": [],
					"stateMutability": "nonpayable",
					"type": "constructor"
				},
				{
					"inputs": [],
					"name": "admin",
					"outputs": [
						{
							"internalType": "address",
							"name": "",
							"type": "address"
						}
					],
					"stateMutability": "view",
					"type": "function"
				},
				{
					"inputs": [
						{
							"internalType": "address",
							"name": "user",
							"type": "address"
						}
					],
					"name": "getPublicKey",
					"outputs": [
						{
							"internalType": "bytes",
							"name": "",
							"type": "bytes"
						}
					],
					"stateMutability": "view",
					"type": "function"
				},
				{
					"inputs": [
						{
							"internalType": "address",
							"name": "",
							"type": "address"
						}
					],
					"name": "publicKeys",
					"outputs": [
						{
							"internalType": "bytes",
							"name": "",
							"type": "bytes"
						}
					],
					"stateMutability": "view",
					"type": "function"
				},
				{
					"inputs": [
						{
							"internalType": "bytes",
							"name": "publicKey",
							"type": "bytes"
						}
					],
					"name": "registerPublicKey",
					"outputs": [],
					"stateMutability": "nonpayable",
					"type": "function"
				}
			],
			"devdoc": {
				"kind": "dev",
				"methods": {},
				"version": 1
			},
			"evm": {
				"assembly": "    /* \"contracts/KeyManagement.sol\":60:888  contract KeyManagement {... */\n  mstore(0x40, 0x80)\n    /* \"contracts/KeyManagement.sol\":289:340  constructor() {... */\n  callvalue\n  dup1\n  iszero\n  tag_1\n  jumpi\n  0x00\n  dup1\n  revert\ntag_1:\n  pop\n    /* \"contracts/KeyManagement.sol\":322:332  msg.sender */\n  caller\n    /* \"contracts/KeyManagement.sol\":314:319  admin */\n  0x01\n  0x00\n    /* \"contracts/KeyManagement.sol\":314:332  admin = msg.sender */\n  0x0100\n  exp\n  dup2\n  sload\n  dup2\n  0xffffffffffffffffffffffffffffffffffffffff\n  mul\n  not\n  and\n  swap1\n  dup4\n  0xffffffffffffffffffffffffffffffffffffffff\n  and\n  mul\n  or\n  swap1\n  sstore\n  pop\n    /* \"contracts/KeyManagement.sol\":60:888  contract KeyManagement {... */\n  dataSize(sub_0)\n  dup1\n  dataOffset(sub_0)\n  0x00\n  codecopy\n  0x00\n  return\nstop\n\nsub_0: assembly {\n        /* \"contracts/KeyManagement.sol\":60:888  contract KeyManagement {... */\n      mstore(0x40, 0x80)\n      callvalue\n      dup1\n      iszero\n      tag_1\n      jumpi\n      0x00\n      dup1\n      revert\n    tag_1:\n      pop\n      jumpi(tag_2, lt(calldatasize, 0x04))\n      shr(0xe0, calldataload(0x00))\n      dup1\n      0x85623594\n      eq\n      tag_3\n      jumpi\n      dup1\n      0x857cdbb8\n      eq\n      tag_4\n      jumpi\n      dup1\n      0xa3d6f9a9\n      eq\n      tag_5\n      jumpi\n      dup1\n      0xf851a440\n      eq\n      tag_6\n      jumpi\n    tag_2:\n      0x00\n      dup1\n      revert\n        /* \"contracts/KeyManagement.sol\":616:741  function registerPublicKey(bytes calldata publicKey) external onlyAdmin {... */\n    tag_3:\n      tag_7\n      0x04\n      dup1\n      calldatasize\n      sub\n      dup2\n      add\n      swap1\n      tag_8\n      swap2\n      swap1\n      tag_9\n      jump\t// in\n    tag_8:\n      tag_10\n      jump\t// in\n    tag_7:\n      stop\n        /* \"contracts/KeyManagement.sol\":770:885  function getPublicKey(address user) external view returns (bytes memory) {... */\n    tag_4:\n      tag_11\n      0x04\n      dup1\n      calldatasize\n      sub\n      dup2\n      add\n      swap1\n      tag_12\n      swap2\n      swap1\n      tag_13\n      jump\t// in\n    tag_12:\n      tag_14\n      jump\t// in\n    tag_11:\n      mload(0x40)\n      tag_15\n      swap2\n      swap1\n      tag_16\n      jump\t// in\n    tag_15:\n      mload(0x40)\n      dup1\n      swap2\n      sub\n      swap1\n      return\n        /* \"contracts/KeyManagement.sol\":111:154  mapping(address => bytes) public publicKeys */\n    tag_5:\n      tag_17\n      0x04\n      dup1\n      calldatasize\n      sub\n      dup2\n      add\n      swap1\n      tag_18\n      swap2\n      swap1\n      tag_13\n      jump\t// in\n    tag_18:\n      tag_19\n      jump\t// in\n    tag_17:\n      mload(0x40)\n      tag_20\n      swap2\n      swap1\n      tag_16\n      jump\t// in\n    tag_20:\n      mload(0x40)\n      dup1\n      swap2\n      sub\n      swap1\n      return\n        /* \"contracts/KeyManagement.sol\":185:205  address public admin */\n    tag_6:\n      tag_21\n      tag_22\n      jump\t// in\n    tag_21:\n      mload(0x40)\n      tag_23\n      swap2\n      swap1\n      tag_24\n      jump\t// in\n    tag_23:\n      mload(0x40)\n      dup1\n      swap2\n      sub\n      swap1\n      return\n        /* \"contracts/KeyManagement.sol\":616:741  function registerPublicKey(bytes calldata publicKey) external onlyAdmin {... */\n    tag_10:\n        /* \"contracts/KeyManagement.sol\":462:467  admin */\n      0x01\n      0x00\n      swap1\n      sload\n      swap1\n      0x0100\n      exp\n      swap1\n      div\n      0xffffffffffffffffffffffffffffffffffffffff\n      and\n        /* \"contracts/KeyManagement.sol\":448:467  msg.sender == admin */\n      0xffffffffffffffffffffffffffffffffffffffff\n      and\n        /* \"contracts/KeyManagement.sol\":448:458  msg.sender */\n      caller\n        /* \"contracts/KeyManagement.sol\":448:467  msg.sender == admin */\n      0xffffffffffffffffffffffffffffffffffffffff\n      and\n      eq\n        /* \"contracts/KeyManagement.sol\":440:505  require(msg.sender == admin, \"Only admin can call this function\") */\n      tag_26\n      jumpi\n      mload(0x40)\n      0x08c379a000000000000000000000000000000000000000000000000000000000\n      dup2\n      mstore\n      0x04\n      add\n      tag_27\n      swap1\n      tag_28\n      jump\t// in\n    tag_27:\n      mload(0x40)\n      dup1\n      swap2\n      sub\n      swap1\n      revert\n    tag_26:\n        /* \"contracts/KeyManagement.sol\":724:733  publicKey */\n      dup2\n      dup2\n        /* \"contracts/KeyManagement.sol\":699:709  publicKeys */\n      0x00\n        /* \"contracts/KeyManagement.sol\":699:721  publicKeys[msg.sender] */\n      dup1\n        /* \"contracts/KeyManagement.sol\":710:720  msg.sender */\n      caller\n        /* \"contracts/KeyManagement.sol\":699:721  publicKeys[msg.sender] */\n      0xffffffffffffffffffffffffffffffffffffffff\n      and\n      0xffffffffffffffffffffffffffffffffffffffff\n      and\n      dup2\n      mstore\n      0x20\n      add\n      swap1\n      dup2\n      mstore\n      0x20\n      add\n      0x00\n      keccak256\n        /* \"contracts/KeyManagement.sol\":699:733  publicKeys[msg.sender] = publicKey */\n      swap2\n      dup3\n      tag_30\n      swap3\n      swap2\n      swap1\n      tag_31\n      jump\t// in\n    tag_30:\n      pop\n        /* \"contracts/KeyManagement.sol\":616:741  function registerPublicKey(bytes calldata publicKey) external onlyAdmin {... */\n      pop\n      pop\n      jump\t// out\n        /* \"contracts/KeyManagement.sol\":770:885  function getPublicKey(address user) external view returns (bytes memory) {... */\n    tag_14:\n        /* \"contracts/KeyManagement.sol\":829:841  bytes memory */\n      0x60\n        /* \"contracts/KeyManagement.sol\":861:871  publicKeys */\n      0x00\n        /* \"contracts/KeyManagement.sol\":861:877  publicKeys[user] */\n      dup1\n        /* \"contracts/KeyManagement.sol\":872:876  user */\n      dup4\n        /* \"contracts/KeyManagement.sol\":861:877  publicKeys[user] */\n      0xffffffffffffffffffffffffffffffffffffffff\n      and\n      0xffffffffffffffffffffffffffffffffffffffff\n      and\n      dup2\n      mstore\n      0x20\n      add\n      swap1\n      dup2\n      mstore\n      0x20\n      add\n      0x00\n      keccak256\n        /* \"contracts/KeyManagement.sol\":854:877  return publicKeys[user] */\n      dup1\n      sload\n      tag_33\n      swap1\n      tag_34\n      jump\t// in\n    tag_33:\n      dup1\n      0x1f\n      add\n      0x20\n      dup1\n      swap2\n      div\n      mul\n      0x20\n      add\n      mload(0x40)\n      swap1\n      dup2\n      add\n      0x40\n      mstore\n      dup1\n      swap3\n      swap2\n      swap1\n      dup2\n      dup2\n      mstore\n      0x20\n      add\n      dup3\n      dup1\n      sload\n      tag_35\n      swap1\n      tag_34\n      jump\t// in\n    tag_35:\n      dup1\n      iszero\n      tag_36\n      jumpi\n      dup1\n      0x1f\n      lt\n      tag_37\n      jumpi\n      0x0100\n      dup1\n      dup4\n      sload\n      div\n      mul\n      dup4\n      mstore\n      swap2\n      0x20\n      add\n      swap2\n      jump(tag_36)\n    tag_37:\n      dup3\n      add\n      swap2\n      swap1\n      0x00\n      mstore\n      keccak256(0x00, 0x20)\n      swap1\n    tag_38:\n      dup2\n      sload\n      dup2\n      mstore\n      swap1\n      0x01\n      add\n      swap1\n      0x20\n      add\n      dup1\n      dup4\n      gt\n      tag_38\n      jumpi\n      dup3\n      swap1\n      sub\n      0x1f\n      and\n      dup3\n      add\n      swap2\n    tag_36:\n      pop\n      pop\n      pop\n      pop\n      pop\n      swap1\n      pop\n        /* \"contracts/KeyManagement.sol\":770:885  function getPublicKey(address user) external view returns (bytes memory) {... */\n      swap2\n      swap1\n      pop\n      jump\t// out\n        /* \"contracts/KeyManagement.sol\":111:154  mapping(address => bytes) public publicKeys */\n    tag_19:\n      mstore(0x20, 0x00)\n      dup1\n      0x00\n      mstore\n      keccak256(0x00, 0x40)\n      0x00\n      swap2\n      pop\n      swap1\n      pop\n      dup1\n      sload\n      tag_39\n      swap1\n      tag_34\n      jump\t// in\n    tag_39:\n      dup1\n      0x1f\n      add\n      0x20\n      dup1\n      swap2\n      div\n      mul\n      0x20\n      add\n      mload(0x40)\n      swap1\n      dup2\n      add\n      0x40\n      mstore\n      dup1\n      swap3\n      swap2\n      swap1\n      dup2\n      dup2\n      mstore\n      0x20\n      add\n      dup3\n      dup1\n      sload\n      tag_40\n      swap1\n      tag_34\n      jump\t// in\n    tag_40:\n      dup1\n      iszero\n      tag_41\n      jumpi\n      dup1\n      0x1f\n      lt\n      tag_42\n      jumpi\n      0x0100\n      dup1\n      dup4\n      sload\n      div\n      mul\n      dup4\n      mstore\n      swap2\n      0x20\n      add\n      swap2\n      jump(tag_41)\n    tag_42:\n      dup3\n      add\n      swap2\n      swap1\n      0x00\n      mstore\n      keccak256(0x00, 0x20)\n      swap1\n    tag_43:\n      dup2\n      sload\n      dup2\n      mstore\n      swap1\n      0x01\n      add\n      swap1\n      0x20\n      add\n      dup1\n      dup4\n      gt\n      tag_43\n      jumpi\n      dup3\n      swap1\n      sub\n      0x1f\n      and\n      dup3\n      add\n      swap2\n    tag_41:\n      pop\n      pop\n      pop\n      pop\n      pop\n      dup2\n      jump\t// out\n        /* \"contracts/KeyManagement.sol\":185:205  address public admin */\n    tag_22:\n      0x01\n      0x00\n      swap1\n      sload\n      swap1\n      0x0100\n      exp\n      swap1\n      div\n      0xffffffffffffffffffffffffffffffffffffffff\n      and\n      dup2\n      jump\t// out\n        /* \"#utility.yul\":88:205   */\n    tag_45:\n        /* \"#utility.yul\":197:198   */\n      0x00\n        /* \"#utility.yul\":194:195   */\n      dup1\n        /* \"#utility.yul\":187:199   */\n      revert\n        /* \"#utility.yul\":211:328   */\n    tag_46:\n        /* \"#utility.yul\":320:321   */\n      0x00\n        /* \"#utility.yul\":317:318   */\n      dup1\n        /* \"#utility.yul\":310:322   */\n      revert\n        /* \"#utility.yul\":334:451   */\n    tag_47:\n        /* \"#utility.yul\":443:444   */\n      0x00\n        /* \"#utility.yul\":440:441   */\n      dup1\n        /* \"#utility.yul\":433:445   */\n      revert\n        /* \"#utility.yul\":457:574   */\n    tag_48:\n        /* \"#utility.yul\":566:567   */\n      0x00\n        /* \"#utility.yul\":563:564   */\n      dup1\n        /* \"#utility.yul\":556:568   */\n      revert\n        /* \"#utility.yul\":580:697   */\n    tag_49:\n        /* \"#utility.yul\":689:690   */\n      0x00\n        /* \"#utility.yul\":686:687   */\n      dup1\n        /* \"#utility.yul\":679:691   */\n      revert\n        /* \"#utility.yul\":716:1268   */\n    tag_50:\n        /* \"#utility.yul\":773:781   */\n      0x00\n        /* \"#utility.yul\":783:789   */\n      dup1\n        /* \"#utility.yul\":833:836   */\n      dup4\n        /* \"#utility.yul\":826:830   */\n      0x1f\n        /* \"#utility.yul\":818:824   */\n      dup5\n        /* \"#utility.yul\":814:831   */\n      add\n        /* \"#utility.yul\":810:837   */\n      slt\n        /* \"#utility.yul\":800:922   */\n      tag_91\n      jumpi\n        /* \"#utility.yul\":841:920   */\n      tag_92\n      tag_47\n      jump\t// in\n    tag_92:\n        /* \"#utility.yul\":800:922   */\n    tag_91:\n        /* \"#utility.yul\":954:960   */\n      dup3\n        /* \"#utility.yul\":941:961   */\n      calldataload\n        /* \"#utility.yul\":931:961   */\n      swap1\n      pop\n        /* \"#utility.yul\":984:1002   */\n      0xffffffffffffffff\n        /* \"#utility.yul\":976:982   */\n      dup2\n        /* \"#utility.yul\":973:1003   */\n      gt\n        /* \"#utility.yul\":970:1087   */\n      iszero\n      tag_93\n      jumpi\n        /* \"#utility.yul\":1006:1085   */\n      tag_94\n      tag_48\n      jump\t// in\n    tag_94:\n        /* \"#utility.yul\":970:1087   */\n    tag_93:\n        /* \"#utility.yul\":1120:1124   */\n      0x20\n        /* \"#utility.yul\":1112:1118   */\n      dup4\n        /* \"#utility.yul\":1108:1125   */\n      add\n        /* \"#utility.yul\":1096:1125   */\n      swap2\n      pop\n        /* \"#utility.yul\":1174:1177   */\n      dup4\n        /* \"#utility.yul\":1166:1170   */\n      0x01\n        /* \"#utility.yul\":1158:1164   */\n      dup3\n        /* \"#utility.yul\":1154:1171   */\n      mul\n        /* \"#utility.yul\":1144:1152   */\n      dup4\n        /* \"#utility.yul\":1140:1172   */\n      add\n        /* \"#utility.yul\":1137:1178   */\n      gt\n        /* \"#utility.yul\":1134:1262   */\n      iszero\n      tag_95\n      jumpi\n        /* \"#utility.yul\":1181:1260   */\n      tag_96\n      tag_49\n      jump\t// in\n    tag_96:\n        /* \"#utility.yul\":1134:1262   */\n    tag_95:\n        /* \"#utility.yul\":716:1268   */\n      swap3\n      pop\n      swap3\n      swap1\n      pop\n      jump\t// out\n        /* \"#utility.yul\":1274:1801   */\n    tag_9:\n        /* \"#utility.yul\":1344:1350   */\n      0x00\n        /* \"#utility.yul\":1352:1358   */\n      dup1\n        /* \"#utility.yul\":1401:1403   */\n      0x20\n        /* \"#utility.yul\":1389:1398   */\n      dup4\n        /* \"#utility.yul\":1380:1387   */\n      dup6\n        /* \"#utility.yul\":1376:1399   */\n      sub\n        /* \"#utility.yul\":1372:1404   */\n      slt\n        /* \"#utility.yul\":1369:1488   */\n      iszero\n      tag_98\n      jumpi\n        /* \"#utility.yul\":1407:1486   */\n      tag_99\n      tag_45\n      jump\t// in\n    tag_99:\n        /* \"#utility.yul\":1369:1488   */\n    tag_98:\n        /* \"#utility.yul\":1555:1556   */\n      0x00\n        /* \"#utility.yul\":1544:1553   */\n      dup4\n        /* \"#utility.yul\":1540:1557   */\n      add\n        /* \"#utility.yul\":1527:1558   */\n      calldataload\n        /* \"#utility.yul\":1585:1603   */\n      0xffffffffffffffff\n        /* \"#utility.yul\":1577:1583   */\n      dup2\n        /* \"#utility.yul\":1574:1604   */\n      gt\n        /* \"#utility.yul\":1571:1688   */\n      iszero\n      tag_100\n      jumpi\n        /* \"#utility.yul\":1607:1686   */\n      tag_101\n      tag_46\n      jump\t// in\n    tag_101:\n        /* \"#utility.yul\":1571:1688   */\n    tag_100:\n        /* \"#utility.yul\":1720:1784   */\n      tag_102\n        /* \"#utility.yul\":1776:1783   */\n      dup6\n        /* \"#utility.yul\":1767:1773   */\n      dup3\n        /* \"#utility.yul\":1756:1765   */\n      dup7\n        /* \"#utility.yul\":1752:1774   */\n      add\n        /* \"#utility.yul\":1720:1784   */\n      tag_50\n      jump\t// in\n    tag_102:\n        /* \"#utility.yul\":1702:1784   */\n      swap3\n      pop\n      swap3\n      pop\n        /* \"#utility.yul\":1498:1794   */\n      pop\n        /* \"#utility.yul\":1274:1801   */\n      swap3\n      pop\n      swap3\n      swap1\n      pop\n      jump\t// out\n        /* \"#utility.yul\":1807:1933   */\n    tag_51:\n        /* \"#utility.yul\":1844:1851   */\n      0x00\n        /* \"#utility.yul\":1884:1926   */\n      0xffffffffffffffffffffffffffffffffffffffff\n        /* \"#utility.yul\":1877:1882   */\n      dup3\n        /* \"#utility.yul\":1873:1927   */\n      and\n        /* \"#utility.yul\":1862:1927   */\n      swap1\n      pop\n        /* \"#utility.yul\":1807:1933   */\n      swap2\n      swap1\n      pop\n      jump\t// out\n        /* \"#utility.yul\":1939:2035   */\n    tag_52:\n        /* \"#utility.yul\":1976:1983   */\n      0x00\n        /* \"#utility.yul\":2005:2029   */\n      tag_105\n        /* \"#utility.yul\":2023:2028   */\n      dup3\n        /* \"#utility.yul\":2005:2029   */\n      tag_51\n      jump\t// in\n    tag_105:\n        /* \"#utility.yul\":1994:2029   */\n      swap1\n      pop\n        /* \"#utility.yul\":1939:2035   */\n      swap2\n      swap1\n      pop\n      jump\t// out\n        /* \"#utility.yul\":2041:2163   */\n    tag_53:\n        /* \"#utility.yul\":2114:2138   */\n      tag_107\n        /* \"#utility.yul\":2132:2137   */\n      dup2\n        /* \"#utility.yul\":2114:2138   */\n      tag_52\n      jump\t// in\n    tag_107:\n        /* \"#utility.yul\":2107:2112   */\n      dup2\n        /* \"#utility.yul\":2104:2139   */\n      eq\n        /* \"#utility.yul\":2094:2157   */\n      tag_108\n      jumpi\n        /* \"#utility.yul\":2153:2154   */\n      0x00\n        /* \"#utility.yul\":2150:2151   */\n      dup1\n        /* \"#utility.yul\":2143:2155   */\n      revert\n        /* \"#utility.yul\":2094:2157   */\n    tag_108:\n        /* \"#utility.yul\":2041:2163   */\n      pop\n      jump\t// out\n        /* \"#utility.yul\":2169:2308   */\n    tag_54:\n        /* \"#utility.yul\":2215:2220   */\n      0x00\n        /* \"#utility.yul\":2253:2259   */\n      dup2\n        /* \"#utility.yul\":2240:2260   */\n      calldataload\n        /* \"#utility.yul\":2231:2260   */\n      swap1\n      pop\n        /* \"#utility.yul\":2269:2302   */\n      tag_110\n        /* \"#utility.yul\":2296:2301   */\n      dup2\n        /* \"#utility.yul\":2269:2302   */\n      tag_53\n      jump\t// in\n    tag_110:\n        /* \"#utility.yul\":2169:2308   */\n      swap3\n      swap2\n      pop\n      pop\n      jump\t// out\n        /* \"#utility.yul\":2314:2643   */\n    tag_13:\n        /* \"#utility.yul\":2373:2379   */\n      0x00\n        /* \"#utility.yul\":2422:2424   */\n      0x20\n        /* \"#utility.yul\":2410:2419   */\n      dup3\n        /* \"#utility.yul\":2401:2408   */\n      dup5\n        /* \"#utility.yul\":2397:2420   */\n      sub\n        /* \"#utility.yul\":2393:2425   */\n      slt\n        /* \"#utility.yul\":2390:2509   */\n      iszero\n      tag_112\n      jumpi\n        /* \"#utility.yul\":2428:2507   */\n      tag_113\n      tag_45\n      jump\t// in\n    tag_113:\n        /* \"#utility.yul\":2390:2509   */\n    tag_112:\n        /* \"#utility.yul\":2548:2549   */\n      0x00\n        /* \"#utility.yul\":2573:2626   */\n      tag_114\n        /* \"#utility.yul\":2618:2625   */\n      dup5\n        /* \"#utility.yul\":2609:2615   */\n      dup3\n        /* \"#utility.yul\":2598:2607   */\n      dup6\n        /* \"#utility.yul\":2594:2616   */\n      add\n        /* \"#utility.yul\":2573:2626   */\n      tag_54\n      jump\t// in\n    tag_114:\n        /* \"#utility.yul\":2563:2626   */\n      swap2\n      pop\n        /* \"#utility.yul\":2519:2636   */\n      pop\n        /* \"#utility.yul\":2314:2643   */\n      swap3\n      swap2\n      pop\n      pop\n      jump\t// out\n        /* \"#utility.yul\":2649:2747   */\n    tag_55:\n        /* \"#utility.yul\":2700:2706   */\n      0x00\n        /* \"#utility.yul\":2734:2739   */\n      dup2\n        /* \"#utility.yul\":2728:2740   */\n      mload\n        /* \"#utility.yul\":2718:2740   */\n      swap1\n      pop\n        /* \"#utility.yul\":2649:2747   */\n      swap2\n      swap1\n      pop\n      jump\t// out\n        /* \"#utility.yul\":2753:2921   */\n    tag_56:\n        /* \"#utility.yul\":2836:2847   */\n      0x00\n        /* \"#utility.yul\":2870:2876   */\n      dup3\n        /* \"#utility.yul\":2865:2868   */\n      dup3\n        /* \"#utility.yul\":2858:2877   */\n      mstore\n        /* \"#utility.yul\":2910:2914   */\n      0x20\n        /* \"#utility.yul\":2905:2908   */\n      dup3\n        /* \"#utility.yul\":2901:2915   */\n      add\n        /* \"#utility.yul\":2886:2915   */\n      swap1\n      pop\n        /* \"#utility.yul\":2753:2921   */\n      swap3\n      swap2\n      pop\n      pop\n      jump\t// out\n        /* \"#utility.yul\":2927:3066   */\n    tag_57:\n        /* \"#utility.yul\":3016:3022   */\n      dup3\n        /* \"#utility.yul\":3011:3014   */\n      dup2\n        /* \"#utility.yul\":3006:3009   */\n      dup4\n        /* \"#utility.yul\":3000:3023   */\n      mcopy\n        /* \"#utility.yul\":3057:3058   */\n      0x00\n        /* \"#utility.yul\":3048:3054   */\n      dup4\n        /* \"#utility.yul\":3043:3046   */\n      dup4\n        /* \"#utility.yul\":3039:3055   */\n      add\n        /* \"#utility.yul\":3032:3059   */\n      mstore\n        /* \"#utility.yul\":2927:3066   */\n      pop\n      pop\n      pop\n      jump\t// out\n        /* \"#utility.yul\":3072:3174   */\n    tag_58:\n        /* \"#utility.yul\":3113:3119   */\n      0x00\n        /* \"#utility.yul\":3164:3166   */\n      0x1f\n        /* \"#utility.yul\":3160:3167   */\n      not\n        /* \"#utility.yul\":3155:3157   */\n      0x1f\n        /* \"#utility.yul\":3148:3153   */\n      dup4\n        /* \"#utility.yul\":3144:3158   */\n      add\n        /* \"#utility.yul\":3140:3168   */\n      and\n        /* \"#utility.yul\":3130:3168   */\n      swap1\n      pop\n        /* \"#utility.yul\":3072:3174   */\n      swap2\n      swap1\n      pop\n      jump\t// out\n        /* \"#utility.yul\":3180:3553   */\n    tag_59:\n        /* \"#utility.yul\":3266:3269   */\n      0x00\n        /* \"#utility.yul\":3294:3332   */\n      tag_120\n        /* \"#utility.yul\":3326:3331   */\n      dup3\n        /* \"#utility.yul\":3294:3332   */\n      tag_55\n      jump\t// in\n    tag_120:\n        /* \"#utility.yul\":3348:3418   */\n      tag_121\n        /* \"#utility.yul\":3411:3417   */\n      dup2\n        /* \"#utility.yul\":3406:3409   */\n      dup6\n        /* \"#utility.yul\":3348:3418   */\n      tag_56\n      jump\t// in\n    tag_121:\n        /* \"#utility.yul\":3341:3418   */\n      swap4\n      pop\n        /* \"#utility.yul\":3427:3492   */\n      tag_122\n        /* \"#utility.yul\":3485:3491   */\n      dup2\n        /* \"#utility.yul\":3480:3483   */\n      dup6\n        /* \"#utility.yul\":3473:3477   */\n      0x20\n        /* \"#utility.yul\":3466:3471   */\n      dup7\n        /* \"#utility.yul\":3462:3478   */\n      add\n        /* \"#utility.yul\":3427:3492   */\n      tag_57\n      jump\t// in\n    tag_122:\n        /* \"#utility.yul\":3517:3546   */\n      tag_123\n        /* \"#utility.yul\":3539:3545   */\n      dup2\n        /* \"#utility.yul\":3517:3546   */\n      tag_58\n      jump\t// in\n    tag_123:\n        /* \"#utility.yul\":3512:3515   */\n      dup5\n        /* \"#utility.yul\":3508:3547   */\n      add\n        /* \"#utility.yul\":3501:3547   */\n      swap2\n      pop\n        /* \"#utility.yul\":3270:3553   */\n      pop\n        /* \"#utility.yul\":3180:3553   */\n      swap3\n      swap2\n      pop\n      pop\n      jump\t// out\n        /* \"#utility.yul\":3559:3868   */\n    tag_16:\n        /* \"#utility.yul\":3670:3674   */\n      0x00\n        /* \"#utility.yul\":3708:3710   */\n      0x20\n        /* \"#utility.yul\":3697:3706   */\n      dup3\n        /* \"#utility.yul\":3693:3711   */\n      add\n        /* \"#utility.yul\":3685:3711   */\n      swap1\n      pop\n        /* \"#utility.yul\":3757:3766   */\n      dup2\n        /* \"#utility.yul\":3751:3755   */\n      dup2\n        /* \"#utility.yul\":3747:3767   */\n      sub\n        /* \"#utility.yul\":3743:3744   */\n      0x00\n        /* \"#utility.yul\":3732:3741   */\n      dup4\n        /* \"#utility.yul\":3728:3745   */\n      add\n        /* \"#utility.yul\":3721:3768   */\n      mstore\n        /* \"#utility.yul\":3785:3861   */\n      tag_125\n        /* \"#utility.yul\":3856:3860   */\n      dup2\n        /* \"#utility.yul\":3847:3853   */\n      dup5\n        /* \"#utility.yul\":3785:3861   */\n      tag_59\n      jump\t// in\n    tag_125:\n        /* \"#utility.yul\":3777:3861   */\n      swap1\n      pop\n        /* \"#utility.yul\":3559:3868   */\n      swap3\n      swap2\n      pop\n      pop\n      jump\t// out\n        /* \"#utility.yul\":3874:3992   */\n    tag_60:\n        /* \"#utility.yul\":3961:3985   */\n      tag_127\n        /* \"#utility.yul\":3979:3984   */\n      dup2\n        /* \"#utility.yul\":3961:3985   */\n      tag_52\n      jump\t// in\n    tag_127:\n        /* \"#utility.yul\":3956:3959   */\n      dup3\n        /* \"#utility.yul\":3949:3986   */\n      mstore\n        /* \"#utility.yul\":3874:3992   */\n      pop\n      pop\n      jump\t// out\n        /* \"#utility.yul\":3998:4220   */\n    tag_24:\n        /* \"#utility.yul\":4091:4095   */\n      0x00\n        /* \"#utility.yul\":4129:4131   */\n      0x20\n        /* \"#utility.yul\":4118:4127   */\n      dup3\n        /* \"#utility.yul\":4114:4132   */\n      add\n        /* \"#utility.yul\":4106:4132   */\n      swap1\n      pop\n        /* \"#utility.yul\":4142:4213   */\n      tag_129\n        /* \"#utility.yul\":4210:4211   */\n      0x00\n        /* \"#utility.yul\":4199:4208   */\n      dup4\n        /* \"#utility.yul\":4195:4212   */\n      add\n        /* \"#utility.yul\":4186:4192   */\n      dup5\n        /* \"#utility.yul\":4142:4213   */\n      tag_60\n      jump\t// in\n    tag_129:\n        /* \"#utility.yul\":3998:4220   */\n      swap3\n      swap2\n      pop\n      pop\n      jump\t// out\n        /* \"#utility.yul\":4226:4395   */\n    tag_61:\n        /* \"#utility.yul\":4310:4321   */\n      0x00\n        /* \"#utility.yul\":4344:4350   */\n      dup3\n        /* \"#utility.yul\":4339:4342   */\n      dup3\n        /* \"#utility.yul\":4332:4351   */\n      mstore\n        /* \"#utility.yul\":4384:4388   */\n      0x20\n        /* \"#utility.yul\":4379:4382   */\n      dup3\n        /* \"#utility.yul\":4375:4389   */\n      add\n        /* \"#utility.yul\":4360:4389   */\n      swap1\n      pop\n        /* \"#utility.yul\":4226:4395   */\n      swap3\n      swap2\n      pop\n      pop\n      jump\t// out\n        /* \"#utility.yul\":4401:4621   */\n    tag_62:\n        /* \"#utility.yul\":4541:4575   */\n      0x4f6e6c792061646d696e2063616e2063616c6c20746869732066756e6374696f\n        /* \"#utility.yul\":4537:4538   */\n      0x00\n        /* \"#utility.yul\":4529:4535   */\n      dup3\n        /* \"#utility.yul\":4525:4539   */\n      add\n        /* \"#utility.yul\":4518:4576   */\n      mstore\n        /* \"#utility.yul\":4610:4613   */\n      0x6e00000000000000000000000000000000000000000000000000000000000000\n        /* \"#utility.yul\":4605:4607   */\n      0x20\n        /* \"#utility.yul\":4597:4603   */\n      dup3\n        /* \"#utility.yul\":4593:4608   */\n      add\n        /* \"#utility.yul\":4586:4614   */\n      mstore\n        /* \"#utility.yul\":4401:4621   */\n      pop\n      jump\t// out\n        /* \"#utility.yul\":4627:4993   */\n    tag_63:\n        /* \"#utility.yul\":4769:4772   */\n      0x00\n        /* \"#utility.yul\":4790:4857   */\n      tag_133\n        /* \"#utility.yul\":4854:4856   */\n      0x21\n        /* \"#utility.yul\":4849:4852   */\n      dup4\n        /* \"#utility.yul\":4790:4857   */\n      tag_61\n      jump\t// in\n    tag_133:\n        /* \"#utility.yul\":4783:4857   */\n      swap2\n      pop\n        /* \"#utility.yul\":4866:4959   */\n      tag_134\n        /* \"#utility.yul\":4955:4958   */\n      dup3\n        /* \"#utility.yul\":4866:4959   */\n      tag_62\n      jump\t// in\n    tag_134:\n        /* \"#utility.yul\":4984:4986   */\n      0x40\n        /* \"#utility.yul\":4979:4982   */\n      dup3\n        /* \"#utility.yul\":4975:4987   */\n      add\n        /* \"#utility.yul\":4968:4987   */\n      swap1\n      pop\n        /* \"#utility.yul\":4627:4993   */\n      swap2\n      swap1\n      pop\n      jump\t// out\n        /* \"#utility.yul\":4999:5418   */\n    tag_28:\n        /* \"#utility.yul\":5165:5169   */\n      0x00\n        /* \"#utility.yul\":5203:5205   */\n      0x20\n        /* \"#utility.yul\":5192:5201   */\n      dup3\n        /* \"#utility.yul\":5188:5206   */\n      add\n        /* \"#utility.yul\":5180:5206   */\n      swap1\n      pop\n        /* \"#utility.yul\":5252:5261   */\n      dup2\n        /* \"#utility.yul\":5246:5250   */\n      dup2\n        /* \"#utility.yul\":5242:5262   */\n      sub\n        /* \"#utility.yul\":5238:5239   */\n      0x00\n        /* \"#utility.yul\":5227:5236   */\n      dup4\n        /* \"#utility.yul\":5223:5240   */\n      add\n        /* \"#utility.yul\":5216:5263   */\n      mstore\n        /* \"#utility.yul\":5280:5411   */\n      tag_136\n        /* \"#utility.yul\":5406:5410   */\n      dup2\n        /* \"#utility.yul\":5280:5411   */\n      tag_63\n      jump\t// in\n    tag_136:\n        /* \"#utility.yul\":5272:5411   */\n      swap1\n      pop\n        /* \"#utility.yul\":4999:5418   */\n      swap2\n      swap1\n      pop\n      jump\t// out\n        /* \"#utility.yul\":5424:5520   */\n    tag_64:\n        /* \"#utility.yul\":5482:5488   */\n      0x00\n        /* \"#utility.yul\":5510:5513   */\n      dup3\n        /* \"#utility.yul\":5500:5513   */\n      swap1\n      pop\n        /* \"#utility.yul\":5424:5520   */\n      swap3\n      swap2\n      pop\n      pop\n      jump\t// out\n        /* \"#utility.yul\":5526:5706   */\n    tag_65:\n        /* \"#utility.yul\":5574:5651   */\n      0x4e487b7100000000000000000000000000000000000000000000000000000000\n        /* \"#utility.yul\":5571:5572   */\n      0x00\n        /* \"#utility.yul\":5564:5652   */\n      mstore\n        /* \"#utility.yul\":5671:5675   */\n      0x41\n        /* \"#utility.yul\":5668:5669   */\n      0x04\n        /* \"#utility.yul\":5661:5676   */\n      mstore\n        /* \"#utility.yul\":5695:5699   */\n      0x24\n        /* \"#utility.yul\":5692:5693   */\n      0x00\n        /* \"#utility.yul\":5685:5700   */\n      revert\n        /* \"#utility.yul\":5712:5892   */\n    tag_66:\n        /* \"#utility.yul\":5760:5837   */\n      0x4e487b7100000000000000000000000000000000000000000000000000000000\n        /* \"#utility.yul\":5757:5758   */\n      0x00\n        /* \"#utility.yul\":5750:5838   */\n      mstore\n        /* \"#utility.yul\":5857:5861   */\n      0x22\n        /* \"#utility.yul\":5854:5855   */\n      0x04\n        /* \"#utility.yul\":5847:5862   */\n      mstore\n        /* \"#utility.yul\":5881:5885   */\n      0x24\n        /* \"#utility.yul\":5878:5879   */\n      0x00\n        /* \"#utility.yul\":5871:5886   */\n      revert\n        /* \"#utility.yul\":5898:6218   */\n    tag_34:\n        /* \"#utility.yul\":5942:5948   */\n      0x00\n        /* \"#utility.yul\":5979:5980   */\n      0x02\n        /* \"#utility.yul\":5973:5977   */\n      dup3\n        /* \"#utility.yul\":5969:5981   */\n      div\n        /* \"#utility.yul\":5959:5981   */\n      swap1\n      pop\n        /* \"#utility.yul\":6026:6027   */\n      0x01\n        /* \"#utility.yul\":6020:6024   */\n      dup3\n        /* \"#utility.yul\":6016:6028   */\n      and\n        /* \"#utility.yul\":6047:6065   */\n      dup1\n        /* \"#utility.yul\":6037:6118   */\n      tag_141\n      jumpi\n        /* \"#utility.yul\":6103:6107   */\n      0x7f\n        /* \"#utility.yul\":6095:6101   */\n      dup3\n        /* \"#utility.yul\":6091:6108   */\n      and\n        /* \"#utility.yul\":6081:6108   */\n      swap2\n      pop\n        /* \"#utility.yul\":6037:6118   */\n    tag_141:\n        /* \"#utility.yul\":6165:6167   */\n      0x20\n        /* \"#utility.yul\":6157:6163   */\n      dup3\n        /* \"#utility.yul\":6154:6168   */\n      lt\n        /* \"#utility.yul\":6134:6152   */\n      dup2\n        /* \"#utility.yul\":6131:6169   */\n      sub\n        /* \"#utility.yul\":6128:6212   */\n      tag_142\n      jumpi\n        /* \"#utility.yul\":6184:6202   */\n      tag_143\n      tag_66\n      jump\t// in\n    tag_143:\n        /* \"#utility.yul\":6128:6212   */\n    tag_142:\n        /* \"#utility.yul\":5949:6218   */\n      pop\n        /* \"#utility.yul\":5898:6218   */\n      swap2\n      swap1\n      pop\n      jump\t// out\n        /* \"#utility.yul\":6224:6364   */\n    tag_67:\n        /* \"#utility.yul\":6272:6276   */\n      0x00\n        /* \"#utility.yul\":6295:6298   */\n      dup2\n        /* \"#utility.yul\":6287:6298   */\n      swap1\n      pop\n        /* \"#utility.yul\":6318:6321   */\n      dup2\n        /* \"#utility.yul\":6315:6316   */\n      0x00\n        /* \"#utility.yul\":6308:6322   */\n      mstore\n        /* \"#utility.yul\":6352:6356   */\n      0x20\n        /* \"#utility.yul\":6349:6350   */\n      0x00\n        /* \"#utility.yul\":6339:6357   */\n      keccak256\n        /* \"#utility.yul\":6331:6357   */\n      swap1\n      pop\n        /* \"#utility.yul\":6224:6364   */\n      swap2\n      swap1\n      pop\n      jump\t// out\n        /* \"#utility.yul\":6370:6463   */\n    tag_68:\n        /* \"#utility.yul\":6407:6413   */\n      0x00\n        /* \"#utility.yul\":6454:6456   */\n      0x20\n        /* \"#utility.yul\":6449:6451   */\n      0x1f\n        /* \"#utility.yul\":6442:6447   */\n      dup4\n        /* \"#utility.yul\":6438:6452   */\n      add\n        /* \"#utility.yul\":6434:6457   */\n      div\n        /* \"#utility.yul\":6424:6457   */\n      swap1\n      pop\n        /* \"#utility.yul\":6370:6463   */\n      swap2\n      swap1\n      pop\n      jump\t// out\n        /* \"#utility.yul\":6469:6576   */\n    tag_69:\n        /* \"#utility.yul\":6513:6521   */\n      0x00\n        /* \"#utility.yul\":6563:6568   */\n      dup3\n        /* \"#utility.yul\":6557:6561   */\n      dup3\n        /* \"#utility.yul\":6553:6569   */\n      shl\n        /* \"#utility.yul\":6532:6569   */\n      swap1\n      pop\n        /* \"#utility.yul\":6469:6576   */\n      swap3\n      swap2\n      pop\n      pop\n      jump\t// out\n        /* \"#utility.yul\":6582:6975   */\n    tag_70:\n        /* \"#utility.yul\":6651:6657   */\n      0x00\n        /* \"#utility.yul\":6701:6702   */\n      0x08\n        /* \"#utility.yul\":6689:6699   */\n      dup4\n        /* \"#utility.yul\":6685:6703   */\n      mul\n        /* \"#utility.yul\":6724:6821   */\n      tag_148\n        /* \"#utility.yul\":6754:6820   */\n      0xffffffffffffffffffffffffffffffffffffffffffffffffffffffffffffffff\n        /* \"#utility.yul\":6743:6752   */\n      dup3\n        /* \"#utility.yul\":6724:6821   */\n      tag_69\n      jump\t// in\n    tag_148:\n        /* \"#utility.yul\":6842:6881   */\n      tag_149\n        /* \"#utility.yul\":6872:6880   */\n      dup7\n        /* \"#utility.yul\":6861:6870   */\n      dup4\n        /* \"#utility.yul\":6842:6881   */\n      tag_69\n      jump\t// in\n    tag_149:\n        /* \"#utility.yul\":6830:6881   */\n      swap6\n      pop\n        /* \"#utility.yul\":6914:6918   */\n      dup1\n        /* \"#utility.yul\":6910:6919   */\n      not\n        /* \"#utility.yul\":6903:6908   */\n      dup5\n        /* \"#utility.yul\":6899:6920   */\n      and\n        /* \"#utility.yul\":6890:6920   */\n      swap4\n      pop\n        /* \"#utility.yul\":6963:6967   */\n      dup1\n        /* \"#utility.yul\":6953:6961   */\n      dup7\n        /* \"#utility.yul\":6949:6968   */\n      and\n        /* \"#utility.yul\":6942:6947   */\n      dup5\n        /* \"#utility.yul\":6939:6969   */\n      or\n        /* \"#utility.yul\":6929:6969   */\n      swap3\n      pop\n        /* \"#utility.yul\":6658:6975   */\n      pop\n      pop\n        /* \"#utility.yul\":6582:6975   */\n      swap4\n      swap3\n      pop\n      pop\n      pop\n      jump\t// out\n        /* \"#utility.yul\":6981:7058   */\n    tag_71:\n        /* \"#utility.yul\":7018:7025   */\n      0x00\n        /* \"#utility.yul\":7047:7052   */\n      dup2\n        /* \"#utility.yul\":7036:7052   */\n      swap1\n      pop\n        /* \"#utility.yul\":6981:7058   */\n      swap2\n      swap1\n      pop\n      jump\t// out\n        /* \"#utility.yul\":7064:7124   */\n    tag_72:\n        /* \"#utility.yul\":7092:7095   */\n      0x00\n        /* \"#utility.yul\":7113:7118   */\n      dup2\n        /* \"#utility.yul\":7106:7118   */\n      swap1\n      pop\n        /* \"#utility.yul\":7064:7124   */\n      swap2\n      swap1\n      pop\n      jump\t// out\n        /* \"#utility.yul\":7130:7272   */\n    tag_73:\n        /* \"#utility.yul\":7180:7189   */\n      0x00\n        /* \"#utility.yul\":7213:7266   */\n      tag_153\n        /* \"#utility.yul\":7231:7265   */\n      tag_154\n        /* \"#utility.yul\":7240:7264   */\n      tag_155\n        /* \"#utility.yul\":7258:7263   */\n      dup5\n        /* \"#utility.yul\":7240:7264   */\n      tag_71\n      jump\t// in\n    tag_155:\n        /* \"#utility.yul\":7231:7265   */\n      tag_72\n      jump\t// in\n    tag_154:\n        /* \"#utility.yul\":7213:7266   */\n      tag_71\n      jump\t// in\n    tag_153:\n        /* \"#utility.yul\":7200:7266   */\n      swap1\n      pop\n        /* \"#utility.yul\":7130:7272   */\n      swap2\n      swap1\n      pop\n      jump\t// out\n        /* \"#utility.yul\":7278:7353   */\n    tag_74:\n        /* \"#utility.yul\":7321:7324   */\n      0x00\n        /* \"#utility.yul\":7342:7347   */\n      dup2\n        /* \"#utility.yul\":7335:7347   */\n      swap1\n      pop\n        /* \"#utility.yul\":7278:7353   */\n      swap2\n      swap1\n      pop\n      jump\t// out\n        /* \"#utility.yul\":7359:7628   */\n    tag_75:\n        /* \"#utility.yul\":7469:7508   */\n      tag_158\n        /* \"#utility.yul\":7500:7507   */\n      dup4\n        /* \"#utility.yul\":7469:7508   */\n      tag_73\n      jump\t// in\n    tag_158:\n        /* \"#utility.yul\":7530:7621   */\n      tag_159\n        /* \"#utility.yul\":7579:7620   */\n      tag_160\n        /* \"#utility.yul\":7603:7619   */\n      dup3\n        /* \"#utility.yul\":7579:7620   */\n      tag_74\n      jump\t// in\n    tag_160:\n        /* \"#utility.yul\":7571:7577   */\n      dup5\n        /* \"#utility.yul\":7564:7568   */\n      dup5\n        /* \"#utility.yul\":7558:7569   */\n      sload\n        /* \"#utility.yul\":7530:7621   */\n      tag_70\n      jump\t// in\n    tag_159:\n        /* \"#utility.yul\":7524:7528   */\n      dup3\n        /* \"#utility.yul\":7517:7622   */\n      sstore\n        /* \"#utility.yul\":7435:7628   */\n      pop\n        /* \"#utility.yul\":7359:7628   */\n      pop\n      pop\n      pop\n      jump\t// out\n        /* \"#utility.yul\":7634:7707   */\n    tag_76:\n        /* \"#utility.yul\":7679:7682   */\n      0x00\n        /* \"#utility.yul\":7634:7707   */\n      swap1\n      jump\t// out\n        /* \"#utility.yul\":7713:7902   */\n    tag_77:\n        /* \"#utility.yul\":7790:7822   */\n      tag_163\n      tag_76\n      jump\t// in\n    tag_163:\n        /* \"#utility.yul\":7831:7896   */\n      tag_164\n        /* \"#utility.yul\":7889:7895   */\n      dup2\n        /* \"#utility.yul\":7881:7887   */\n      dup5\n        /* \"#utility.yul\":7875:7879   */\n      dup5\n        /* \"#utility.yul\":7831:7896   */\n      tag_75\n      jump\t// in\n    tag_164:\n        /* \"#utility.yul\":7766:7902   */\n      pop\n        /* \"#utility.yul\":7713:7902   */\n      pop\n      pop\n      jump\t// out\n        /* \"#utility.yul\":7908:8094   */\n    tag_78:\n        /* \"#utility.yul\":7968:8088   */\n    tag_166:\n        /* \"#utility.yul\":7985:7988   */\n      dup2\n        /* \"#utility.yul\":7978:7983   */\n      dup2\n        /* \"#utility.yul\":7975:7989   */\n      lt\n        /* \"#utility.yul\":7968:8088   */\n      iszero\n      tag_168\n      jumpi\n        /* \"#utility.yul\":8039:8078   */\n      tag_169\n        /* \"#utility.yul\":8076:8077   */\n      0x00\n        /* \"#utility.yul\":8069:8074   */\n      dup3\n        /* \"#utility.yul\":8039:8078   */\n      tag_77\n      jump\t// in\n    tag_169:\n        /* \"#utility.yul\":8012:8013   */\n      0x01\n        /* \"#utility.yul\":8005:8010   */\n      dup2\n        /* \"#utility.yul\":8001:8014   */\n      add\n        /* \"#utility.yul\":7992:8014   */\n      swap1\n      pop\n        /* \"#utility.yul\":7968:8088   */\n      jump(tag_166)\n    tag_168:\n        /* \"#utility.yul\":7908:8094   */\n      pop\n      pop\n      jump\t// out\n        /* \"#utility.yul\":8100:8641   */\n    tag_79:\n        /* \"#utility.yul\":8200:8202   */\n      0x1f\n        /* \"#utility.yul\":8195:8198   */\n      dup3\n        /* \"#utility.yul\":8192:8203   */\n      gt\n        /* \"#utility.yul\":8189:8634   */\n      iszero\n      tag_171\n      jumpi\n        /* \"#utility.yul\":8234:8271   */\n      tag_172\n        /* \"#utility.yul\":8265:8270   */\n      dup2\n        /* \"#utility.yul\":8234:8271   */\n      tag_67\n      jump\t// in\n    tag_172:\n        /* \"#utility.yul\":8317:8346   */\n      tag_173\n        /* \"#utility.yul\":8335:8345   */\n      dup5\n        /* \"#utility.yul\":8317:8346   */\n      tag_68\n      jump\t// in\n    tag_173:\n        /* \"#utility.yul\":8307:8315   */\n      dup2\n        /* \"#utility.yul\":8303:8347   */\n      add\n        /* \"#utility.yul\":8500:8502   */\n      0x20\n        /* \"#utility.yul\":8488:8498   */\n      dup6\n        /* \"#utility.yul\":8485:8503   */\n      lt\n        /* \"#utility.yul\":8482:8531   */\n      iszero\n      tag_174\n      jumpi\n        /* \"#utility.yul\":8521:8529   */\n      dup2\n        /* \"#utility.yul\":8506:8529   */\n      swap1\n      pop\n        /* \"#utility.yul\":8482:8531   */\n    tag_174:\n        /* \"#utility.yul\":8544:8624   */\n      tag_175\n        /* \"#utility.yul\":8600:8622   */\n      tag_176\n        /* \"#utility.yul\":8618:8621   */\n      dup6\n        /* \"#utility.yul\":8600:8622   */\n      tag_68\n      jump\t// in\n    tag_176:\n        /* \"#utility.yul\":8590:8598   */\n      dup4\n        /* \"#utility.yul\":8586:8623   */\n      add\n        /* \"#utility.yul\":8573:8584   */\n      dup3\n        /* \"#utility.yul\":8544:8624   */\n      tag_78\n      jump\t// in\n    tag_175:\n        /* \"#utility.yul\":8204:8634   */\n      pop\n      pop\n        /* \"#utility.yul\":8189:8634   */\n    tag_171:\n        /* \"#utility.yul\":8100:8641   */\n      pop\n      pop\n      pop\n      jump\t// out\n        /* \"#utility.yul\":8647:8764   */\n    tag_80:\n        /* \"#utility.yul\":8701:8709   */\n      0x00\n        /* \"#utility.yul\":8751:8756   */\n      dup3\n        /* \"#utility.yul\":8745:8749   */\n      dup3\n        /* \"#utility.yul\":8741:8757   */\n      shr\n        /* \"#utility.yul\":8720:8757   */\n      swap1\n      pop\n        /* \"#utility.yul\":8647:8764   */\n      swap3\n      swap2\n      pop\n      pop\n      jump\t// out\n        /* \"#utility.yul\":8770:8939   */\n    tag_81:\n        /* \"#utility.yul\":8814:8820   */\n      0x00\n        /* \"#utility.yul\":8847:8898   */\n      tag_179\n        /* \"#utility.yul\":8895:8896   */\n      0x00\n        /* \"#utility.yul\":8891:8897   */\n      not\n        /* \"#utility.yul\":8883:8888   */\n      dup5\n        /* \"#utility.yul\":8880:8881   */\n      0x08\n        /* \"#utility.yul\":8876:8889   */\n      mul\n        /* \"#utility.yul\":8847:8898   */\n      tag_80\n      jump\t// in\n    tag_179:\n        /* \"#utility.yul\":8843:8899   */\n      not\n        /* \"#utility.yul\":8928:8932   */\n      dup1\n        /* \"#utility.yul\":8922:8926   */\n      dup4\n        /* \"#utility.yul\":8918:8933   */\n      and\n        /* \"#utility.yul\":8908:8933   */\n      swap2\n      pop\n        /* \"#utility.yul\":8821:8939   */\n      pop\n        /* \"#utility.yul\":8770:8939   */\n      swap3\n      swap2\n      pop\n      pop\n      jump\t// out\n        /* \"#utility.yul\":8944:9239   */\n    tag_82:\n        /* \"#utility.yul\":9020:9024   */\n      0x00\n        /* \"#utility.yul\":9166:9195   */\n      tag_181\n        /* \"#utility.yul\":9191:9194   */\n      dup4\n        /* \"#utility.yul\":9185:9189   */\n      dup4\n        /* \"#utility.yul\":9166:9195   */\n      tag_81\n      jump\t// in\n    tag_181:\n        /* \"#utility.yul\":9158:9195   */\n      swap2\n      pop\n        /* \"#utility.yul\":9228:9231   */\n      dup3\n        /* \"#utility.yul\":9225:9226   */\n      0x02\n        /* \"#utility.yul\":9221:9232   */\n      mul\n        /* \"#utility.yul\":9215:9219   */\n      dup3\n        /* \"#utility.yul\":9212:9233   */\n      or\n        /* \"#utility.yul\":9204:9233   */\n      swap1\n      pop\n        /* \"#utility.yul\":8944:9239   */\n      swap3\n      swap2\n      pop\n      pop\n      jump\t// out\n        /* \"#utility.yul\":9244:10642   */\n    tag_31:\n        /* \"#utility.yul\":9366:9409   */\n      tag_183\n        /* \"#utility.yul\":9405:9408   */\n      dup4\n        /* \"#utility.yul\":9400:9403   */\n      dup4\n        /* \"#utility.yul\":9366:9409   */\n      tag_64\n      jump\t// in\n    tag_183:\n        /* \"#utility.yul\":9474:9492   */\n      0xffffffffffffffff\n        /* \"#utility.yul\":9466:9472   */\n      dup2\n        /* \"#utility.yul\":9463:9493   */\n      gt\n        /* \"#utility.yul\":9460:9516   */\n      iszero\n      tag_184\n      jumpi\n        /* \"#utility.yul\":9496:9514   */\n      tag_185\n      tag_65\n      jump\t// in\n    tag_185:\n        /* \"#utility.yul\":9460:9516   */\n    tag_184:\n        /* \"#utility.yul\":9540:9578   */\n      tag_186\n        /* \"#utility.yul\":9572:9576   */\n      dup3\n        /* \"#utility.yul\":9566:9577   */\n      sload\n        /* \"#utility.yul\":9540:9578   */\n      tag_34\n      jump\t// in\n    tag_186:\n        /* \"#utility.yul\":9625:9691   */\n      tag_187\n        /* \"#utility.yul\":9684:9690   */\n      dup3\n        /* \"#utility.yul\":9676:9682   */\n      dup3\n        /* \"#utility.yul\":9670:9674   */\n      dup6\n        /* \"#utility.yul\":9625:9691   */\n      tag_79\n      jump\t// in\n    tag_187:\n        /* \"#utility.yul\":9718:9719   */\n      0x00\n        /* \"#utility.yul\":9747:9749   */\n      0x1f\n        /* \"#utility.yul\":9739:9745   */\n      dup4\n        /* \"#utility.yul\":9736:9750   */\n      gt\n        /* \"#utility.yul\":9764:9765   */\n      0x01\n        /* \"#utility.yul\":9759:10390   */\n      dup2\n      eq\n      tag_189\n      jumpi\n        /* \"#utility.yul\":10434:10435   */\n      0x00\n        /* \"#utility.yul\":10451:10457   */\n      dup5\n        /* \"#utility.yul\":10448:10532   */\n      iszero\n      tag_190\n      jumpi\n        /* \"#utility.yul\":10507:10516   */\n      dup3\n        /* \"#utility.yul\":10502:10505   */\n      dup8\n        /* \"#utility.yul\":10498:10517   */\n      add\n        /* \"#utility.yul\":10485:10518   */\n      calldataload\n        /* \"#utility.yul\":10476:10518   */\n      swap1\n      pop\n        /* \"#utility.yul\":10448:10532   */\n    tag_190:\n        /* \"#utility.yul\":10558:10625   */\n      tag_191\n        /* \"#utility.yul\":10618:10624   */\n      dup6\n        /* \"#utility.yul\":10611:10616   */\n      dup3\n        /* \"#utility.yul\":10558:10625   */\n      tag_82\n      jump\t// in\n    tag_191:\n        /* \"#utility.yul\":10552:10556   */\n      dup7\n        /* \"#utility.yul\":10545:10626   */\n      sstore\n        /* \"#utility.yul\":10407:10636   */\n      pop\n        /* \"#utility.yul\":9729:10636   */\n      jump(tag_188)\n        /* \"#utility.yul\":9759:10390   */\n    tag_189:\n        /* \"#utility.yul\":9811:9815   */\n      0x1f\n        /* \"#utility.yul\":9807:9816   */\n      not\n        /* \"#utility.yul\":9799:9805   */\n      dup5\n        /* \"#utility.yul\":9795:9817   */\n      and\n        /* \"#utility.yul\":9845:9881   */\n      tag_192\n        /* \"#utility.yul\":9876:9880   */\n      dup7\n        /* \"#utility.yul\":9845:9881   */\n      tag_67\n      jump\t// in\n    tag_192:\n        /* \"#utility.yul\":9903:9904   */\n      0x00\n        /* \"#utility.yul\":9917:10132   */\n    tag_193:\n        /* \"#utility.yul\":9931:9938   */\n      dup3\n        /* \"#utility.yul\":9928:9929   */\n      dup2\n        /* \"#utility.yul\":9925:9939   */\n      lt\n        /* \"#utility.yul\":9917:10132   */\n      iszero\n      tag_195\n      jumpi\n        /* \"#utility.yul\":10017:10026   */\n      dup5\n        /* \"#utility.yul\":10012:10015   */\n      dup10\n        /* \"#utility.yul\":10008:10027   */\n      add\n        /* \"#utility.yul\":9995:10028   */\n      calldataload\n        /* \"#utility.yul\":9987:9993   */\n      dup3\n        /* \"#utility.yul\":9980:10029   */\n      sstore\n        /* \"#utility.yul\":10068:10069   */\n      0x01\n        /* \"#utility.yul\":10060:10066   */\n      dup3\n        /* \"#utility.yul\":10056:10070   */\n      add\n        /* \"#utility.yul\":10046:10070   */\n      swap2\n      pop\n        /* \"#utility.yul\":10115:10117   */\n      0x20\n        /* \"#utility.yul\":10104:10113   */\n      dup6\n        /* \"#utility.yul\":10100:10118   */\n      add\n        /* \"#utility.yul\":10087:10118   */\n      swap5\n      pop\n        /* \"#utility.yul\":9954:9958   */\n      0x20\n        /* \"#utility.yul\":9951:9952   */\n      dup2\n        /* \"#utility.yul\":9947:9959   */\n      add\n        /* \"#utility.yul\":9942:9959   */\n      swap1\n      pop\n        /* \"#utility.yul\":9917:10132   */\n      jump(tag_193)\n    tag_195:\n        /* \"#utility.yul\":10160:10166   */\n      dup7\n        /* \"#utility.yul\":10151:10158   */\n      dup4\n        /* \"#utility.yul\":10148:10167   */\n      lt\n        /* \"#utility.yul\":10145:10331   */\n      iszero\n      tag_196\n      jumpi\n        /* \"#utility.yul\":10225:10234   */\n      dup5\n        /* \"#utility.yul\":10220:10223   */\n      dup10\n        /* \"#utility.yul\":10216:10235   */\n      add\n        /* \"#utility.yul\":10203:10236   */\n      calldataload\n        /* \"#utility.yul\":10268:10316   */\n      tag_197\n        /* \"#utility.yul\":10310:10314   */\n      0x1f\n        /* \"#utility.yul\":10302:10308   */\n      dup10\n        /* \"#utility.yul\":10298:10315   */\n      and\n        /* \"#utility.yul\":10287:10296   */\n      dup3\n        /* \"#utility.yul\":10268:10316   */\n      tag_81\n      jump\t// in\n    tag_197:\n        /* \"#utility.yul\":10260:10266   */\n      dup4\n        /* \"#utility.yul\":10253:10317   */\n      sstore\n        /* \"#utility.yul\":10168:10331   */\n      pop\n        /* \"#utility.yul\":10145:10331   */\n    tag_196:\n        /* \"#utility.yul\":10377:10378   */\n      0x01\n        /* \"#utility.yul\":10373:10374   */\n      0x02\n        /* \"#utility.yul\":10365:10371   */\n      dup9\n        /* \"#utility.yul\":10361:10375   */\n      mul\n        /* \"#utility.yul\":10357:10379   */\n      add\n        /* \"#utility.yul\":10351:10355   */\n      dup9\n        /* \"#utility.yul\":10344:10380   */\n      sstore\n        /* \"#utility.yul\":9766:10390   */\n      pop\n      pop\n      pop\n        /* \"#utility.yul\":9729:10636   */\n    tag_188:\n      pop\n        /* \"#utility.yul\":9341:10642   */\n      pop\n      pop\n      pop\n        /* \"#utility.yul\":9244:10642   */\n      pop\n      pop\n      pop\n      jump\t// out\n\n    auxdata: 0xa2646970667358221220e6cc4f6d27539980c4dc58335dd2e7a6e113874c47d0d5c9cde20fbe13bef44064736f6c634300081a0033\n}\n",
				"bytecode": {
					"linkReferences": {},
					"object": "6080604052348015600e575f80fd5b503360015f6101000a81548173ffffffffffffffffffffffffffffffffffffffff021916908373ffffffffffffffffffffffffffffffffffffffff16021790555061091e8061005c5f395ff3fe608060405234801561000f575f80fd5b506004361061004a575f3560e01c8063856235941461004e578063857cdbb81461006a578063a3d6f9a91461009a578063f851a440146100ca575b5f80fd5b610068600480360381019061006391906103bb565b6100e8565b005b610084600480360381019061007f9190610460565b6101c7565b60405161009191906104fb565b60405180910390f35b6100b460048036038101906100af9190610460565b610293565b6040516100c191906104fb565b60405180910390f35b6100d261032d565b6040516100df919061052a565b60405180910390f35b60015f9054906101000a900473ffffffffffffffffffffffffffffffffffffffff1673ffffffffffffffffffffffffffffffffffffffff163373ffffffffffffffffffffffffffffffffffffffff1614610177576040517f08c379a000000000000000000000000000000000000000000000000000000000815260040161016e906105c3565b60405180910390fd5b81815f803373ffffffffffffffffffffffffffffffffffffffff1673ffffffffffffffffffffffffffffffffffffffff1681526020019081526020015f2091826101c292919061081b565b505050565b60605f808373ffffffffffffffffffffffffffffffffffffffff1673ffffffffffffffffffffffffffffffffffffffff1681526020019081526020015f20805461021090610645565b80601f016020809104026020016040519081016040528092919081815260200182805461023c90610645565b80156102875780601f1061025e57610100808354040283529160200191610287565b820191905f5260205f20905b81548152906001019060200180831161026a57829003601f168201915b50505050509050919050565b5f602052805f5260405f205f9150905080546102ae90610645565b80601f01602080910402602001604051908101604052809291908181526020018280546102da90610645565b80156103255780601f106102fc57610100808354040283529160200191610325565b820191905f5260205f20905b81548152906001019060200180831161030857829003601f168201915b505050505081565b60015f9054906101000a900473ffffffffffffffffffffffffffffffffffffffff1681565b5f80fd5b5f80fd5b5f80fd5b5f80fd5b5f80fd5b5f8083601f84011261037b5761037a61035a565b5b8235905067ffffffffffffffff8111156103985761039761035e565b5b6020830191508360018202830111156103b4576103b3610362565b5b9250929050565b5f80602083850312156103d1576103d0610352565b5b5f83013567ffffffffffffffff8111156103ee576103ed610356565b5b6103fa85828601610366565b92509250509250929050565b5f73ffffffffffffffffffffffffffffffffffffffff82169050919050565b5f61042f82610406565b9050919050565b61043f81610425565b8114610449575f80fd5b50565b5f8135905061045a81610436565b92915050565b5f6020828403121561047557610474610352565b5b5f6104828482850161044c565b91505092915050565b5f81519050919050565b5f82825260208201905092915050565b8281835e5f83830152505050565b5f601f19601f8301169050919050565b5f6104cd8261048b565b6104d78185610495565b93506104e78185602086016104a5565b6104f0816104b3565b840191505092915050565b5f6020820190508181035f83015261051381846104c3565b905092915050565b61052481610425565b82525050565b5f60208201905061053d5f83018461051b565b92915050565b5f82825260208201905092915050565b7f4f6e6c792061646d696e2063616e2063616c6c20746869732066756e6374696f5f8201527f6e00000000000000000000000000000000000000000000000000000000000000602082015250565b5f6105ad602183610543565b91506105b882610553565b604082019050919050565b5f6020820190508181035f8301526105da816105a1565b9050919050565b5f82905092915050565b7f4e487b71000000000000000000000000000000000000000000000000000000005f52604160045260245ffd5b7f4e487b71000000000000000000000000000000000000000000000000000000005f52602260045260245ffd5b5f600282049050600182168061065c57607f821691505b60208210810361066f5761066e610618565b5b50919050565b5f819050815f5260205f209050919050565b5f6020601f8301049050919050565b5f82821b905092915050565b5f600883026106d17fffffffffffffffffffffffffffffffffffffffffffffffffffffffffffffffff82610696565b6106db8683610696565b95508019841693508086168417925050509392505050565b5f819050919050565b5f819050919050565b5f61071f61071a610715846106f3565b6106fc565b6106f3565b9050919050565b5f819050919050565b61073883610705565b61074c61074482610726565b8484546106a2565b825550505050565b5f90565b610760610754565b61076b81848461072f565b505050565b5b8181101561078e576107835f82610758565b600181019050610771565b5050565b601f8211156107d3576107a481610675565b6107ad84610687565b810160208510156107bc578190505b6107d06107c885610687565b830182610770565b50505b505050565b5f82821c905092915050565b5f6107f35f19846008026107d8565b1980831691505092915050565b5f61080b83836107e4565b9150826002028217905092915050565b61082583836105e1565b67ffffffffffffffff81111561083e5761083d6105eb565b5b6108488254610645565b610853828285610792565b5f601f831160018114610880575f841561086e578287013590505b6108788582610800565b8655506108df565b601f19841661088e86610675565b5f5b828110156108b557848901358255600182019150602085019450602081019050610890565b868310156108d257848901356108ce601f8916826107e4565b8355505b6001600288020188555050505b5050505050505056fea2646970667358221220e6cc4f6d27539980c4dc58335dd2e7a6e113874c47d0d5c9cde20fbe13bef44064736f6c634300081a0033",
					"opcodes": "PUSH1 0x80 PUSH1 0x40 MSTORE CALLVALUE DUP1 ISZERO PUSH1 0xE JUMPI PUSH0 DUP1 REVERT JUMPDEST POP CALLER PUSH1 0x1 PUSH0 PUSH2 0x100 EXP DUP2 SLOAD DUP2 PUSH20 0xFFFFFFFFFFFFFFFFFFFFFFFFFFFFFFFFFFFFFFFF MUL NOT AND SWAP1 DUP4 PUSH20 0xFFFFFFFFFFFFFFFFFFFFFFFFFFFFFFFFFFFFFFFF AND MUL OR SWAP1 SSTORE POP PUSH2 0x91E DUP1 PUSH2 0x5C PUSH0 CODECOPY PUSH0 RETURN INVALID PUSH1 0x80 PUSH1 0x40 MSTORE CALLVALUE DUP1 ISZERO PUSH2 0xF JUMPI PUSH0 DUP1 REVERT JUMPDEST POP PUSH1 0x4 CALLDATASIZE LT PUSH2 0x4A JUMPI PUSH0 CALLDATALOAD PUSH1 0xE0 SHR DUP1 PUSH4 0x85623594 EQ PUSH2 0x4E JUMPI DUP1 PUSH4 0x857CDBB8 EQ PUSH2 0x6A JUMPI DUP1 PUSH4 0xA3D6F9A9 EQ PUSH2 0x9A JUMPI DUP1 PUSH4 0xF851A440 EQ PUSH2 0xCA JUMPI JUMPDEST PUSH0 DUP1 REVERT JUMPDEST PUSH2 0x68 PUSH1 0x4 DUP1 CALLDATASIZE SUB DUP2 ADD SWAP1 PUSH2 0x63 SWAP2 SWAP1 PUSH2 0x3BB JUMP JUMPDEST PUSH2 0xE8 JUMP JUMPDEST STOP JUMPDEST PUSH2 0x84 PUSH1 0x4 DUP1 CALLDATASIZE SUB DUP2 ADD SWAP1 PUSH2 0x7F SWAP2 SWAP1 PUSH2 0x460 JUMP JUMPDEST PUSH2 0x1C7 JUMP JUMPDEST PUSH1 0x40 MLOAD PUSH2 0x91 SWAP2 SWAP1 PUSH2 0x4FB JUMP JUMPDEST PUSH1 0x40 MLOAD DUP1 SWAP2 SUB SWAP1 RETURN JUMPDEST PUSH2 0xB4 PUSH1 0x4 DUP1 CALLDATASIZE SUB DUP2 ADD SWAP1 PUSH2 0xAF SWAP2 SWAP1 PUSH2 0x460 JUMP JUMPDEST PUSH2 0x293 JUMP JUMPDEST PUSH1 0x40 MLOAD PUSH2 0xC1 SWAP2 SWAP1 PUSH2 0x4FB JUMP JUMPDEST PUSH1 0x40 MLOAD DUP1 SWAP2 SUB SWAP1 RETURN JUMPDEST PUSH2 0xD2 PUSH2 0x32D JUMP JUMPDEST PUSH1 0x40 MLOAD PUSH2 0xDF SWAP2 SWAP1 PUSH2 0x52A JUMP JUMPDEST PUSH1 0x40 MLOAD DUP1 SWAP2 SUB SWAP1 RETURN JUMPDEST PUSH1 0x1 PUSH0 SWAP1 SLOAD SWAP1 PUSH2 0x100 EXP SWAP1 DIV PUSH20 0xFFFFFFFFFFFFFFFFFFFFFFFFFFFFFFFFFFFFFFFF AND PUSH20 0xFFFFFFFFFFFFFFFFFFFFFFFFFFFFFFFFFFFFFFFF AND CALLER PUSH20 0xFFFFFFFFFFFFFFFFFFFFFFFFFFFFFFFFFFFFFFFF AND EQ PUSH2 0x177 JUMPI PUSH1 0x40 MLOAD PUSH32 0x8C379A000000000000000000000000000000000000000000000000000000000 DUP2 MSTORE PUSH1 0x4 ADD PUSH2 0x16E SWAP1 PUSH2 0x5C3 JUMP JUMPDEST PUSH1 0x40 MLOAD DUP1 SWAP2 SUB SWAP1 REVERT JUMPDEST DUP2 DUP2 PUSH0 DUP1 CALLER PUSH20 0xFFFFFFFFFFFFFFFFFFFFFFFFFFFFFFFFFFFFFFFF AND PUSH20 0xFFFFFFFFFFFFFFFFFFFFFFFFFFFFFFFFFFFFFFFF AND DUP2 MSTORE PUSH1 0x20 ADD SWAP1 DUP2 MSTORE PUSH1 0x20 ADD PUSH0 KECCAK256 SWAP2 DUP3 PUSH2 0x1C2 SWAP3 SWAP2 SWAP1 PUSH2 0x81B JUMP JUMPDEST POP POP POP JUMP JUMPDEST PUSH1 0x60 PUSH0 DUP1 DUP4 PUSH20 0xFFFFFFFFFFFFFFFFFFFFFFFFFFFFFFFFFFFFFFFF AND PUSH20 0xFFFFFFFFFFFFFFFFFFFFFFFFFFFFFFFFFFFFFFFF AND DUP2 MSTORE PUSH1 0x20 ADD SWAP1 DUP2 MSTORE PUSH1 0x20 ADD PUSH0 KECCAK256 DUP1 SLOAD PUSH2 0x210 SWAP1 PUSH2 0x645 JUMP JUMPDEST DUP1 PUSH1 0x1F ADD PUSH1 0x20 DUP1 SWAP2 DIV MUL PUSH1 0x20 ADD PUSH1 0x40 MLOAD SWAP1 DUP2 ADD PUSH1 0x40 MSTORE DUP1 SWAP3 SWAP2 SWAP1 DUP2 DUP2 MSTORE PUSH1 0x20 ADD DUP3 DUP1 SLOAD PUSH2 0x23C SWAP1 PUSH2 0x645 JUMP JUMPDEST DUP1 ISZERO PUSH2 0x287 JUMPI DUP1 PUSH1 0x1F LT PUSH2 0x25E JUMPI PUSH2 0x100 DUP1 DUP4 SLOAD DIV MUL DUP4 MSTORE SWAP2 PUSH1 0x20 ADD SWAP2 PUSH2 0x287 JUMP JUMPDEST DUP3 ADD SWAP2 SWAP1 PUSH0 MSTORE PUSH1 0x20 PUSH0 KECCAK256 SWAP1 JUMPDEST DUP2 SLOAD DUP2 MSTORE SWAP1 PUSH1 0x1 ADD SWAP1 PUSH1 0x20 ADD DUP1 DUP4 GT PUSH2 0x26A JUMPI DUP3 SWAP1 SUB PUSH1 0x1F AND DUP3 ADD SWAP2 JUMPDEST POP POP POP POP POP SWAP1 POP SWAP2 SWAP1 POP JUMP JUMPDEST PUSH0 PUSH1 0x20 MSTORE DUP1 PUSH0 MSTORE PUSH1 0x40 PUSH0 KECCAK256 PUSH0 SWAP2 POP SWAP1 POP DUP1 SLOAD PUSH2 0x2AE SWAP1 PUSH2 0x645 JUMP JUMPDEST DUP1 PUSH1 0x1F ADD PUSH1 0x20 DUP1 SWAP2 DIV MUL PUSH1 0x20 ADD PUSH1 0x40 MLOAD SWAP1 DUP2 ADD PUSH1 0x40 MSTORE DUP1 SWAP3 SWAP2 SWAP1 DUP2 DUP2 MSTORE PUSH1 0x20 ADD DUP3 DUP1 SLOAD PUSH2 0x2DA SWAP1 PUSH2 0x645 JUMP JUMPDEST DUP1 ISZERO PUSH2 0x325 JUMPI DUP1 PUSH1 0x1F LT PUSH2 0x2FC JUMPI PUSH2 0x100 DUP1 DUP4 SLOAD DIV MUL DUP4 MSTORE SWAP2 PUSH1 0x20 ADD SWAP2 PUSH2 0x325 JUMP JUMPDEST DUP3 ADD SWAP2 SWAP1 PUSH0 MSTORE PUSH1 0x20 PUSH0 KECCAK256 SWAP1 JUMPDEST DUP2 SLOAD DUP2 MSTORE SWAP1 PUSH1 0x1 ADD SWAP1 PUSH1 0x20 ADD DUP1 DUP4 GT PUSH2 0x308 JUMPI DUP3 SWAP1 SUB PUSH1 0x1F AND DUP3 ADD SWAP2 JUMPDEST POP POP POP POP POP DUP2 JUMP JUMPDEST PUSH1 0x1 PUSH0 SWAP1 SLOAD SWAP1 PUSH2 0x100 EXP SWAP1 DIV PUSH20 0xFFFFFFFFFFFFFFFFFFFFFFFFFFFFFFFFFFFFFFFF AND DUP2 JUMP JUMPDEST PUSH0 DUP1 REVERT JUMPDEST PUSH0 DUP1 REVERT JUMPDEST PUSH0 DUP1 REVERT JUMPDEST PUSH0 DUP1 REVERT JUMPDEST PUSH0 DUP1 REVERT JUMPDEST PUSH0 DUP1 DUP4 PUSH1 0x1F DUP5 ADD SLT PUSH2 0x37B JUMPI PUSH2 0x37A PUSH2 0x35A JUMP JUMPDEST JUMPDEST DUP3 CALLDATALOAD SWAP1 POP PUSH8 0xFFFFFFFFFFFFFFFF DUP2 GT ISZERO PUSH2 0x398 JUMPI PUSH2 0x397 PUSH2 0x35E JUMP JUMPDEST JUMPDEST PUSH1 0x20 DUP4 ADD SWAP2 POP DUP4 PUSH1 0x1 DUP3 MUL DUP4 ADD GT ISZERO PUSH2 0x3B4 JUMPI PUSH2 0x3B3 PUSH2 0x362 JUMP JUMPDEST JUMPDEST SWAP3 POP SWAP3 SWAP1 POP JUMP JUMPDEST PUSH0 DUP1 PUSH1 0x20 DUP4 DUP6 SUB SLT ISZERO PUSH2 0x3D1 JUMPI PUSH2 0x3D0 PUSH2 0x352 JUMP JUMPDEST JUMPDEST PUSH0 DUP4 ADD CALLDATALOAD PUSH8 0xFFFFFFFFFFFFFFFF DUP2 GT ISZERO PUSH2 0x3EE JUMPI PUSH2 0x3ED PUSH2 0x356 JUMP JUMPDEST JUMPDEST PUSH2 0x3FA DUP6 DUP3 DUP7 ADD PUSH2 0x366 JUMP JUMPDEST SWAP3 POP SWAP3 POP POP SWAP3 POP SWAP3 SWAP1 POP JUMP JUMPDEST PUSH0 PUSH20 0xFFFFFFFFFFFFFFFFFFFFFFFFFFFFFFFFFFFFFFFF DUP3 AND SWAP1 POP SWAP2 SWAP1 POP JUMP JUMPDEST PUSH0 PUSH2 0x42F DUP3 PUSH2 0x406 JUMP JUMPDEST SWAP1 POP SWAP2 SWAP1 POP JUMP JUMPDEST PUSH2 0x43F DUP2 PUSH2 0x425 JUMP JUMPDEST DUP2 EQ PUSH2 0x449 JUMPI PUSH0 DUP1 REVERT JUMPDEST POP JUMP JUMPDEST PUSH0 DUP2 CALLDATALOAD SWAP1 POP PUSH2 0x45A DUP2 PUSH2 0x436 JUMP JUMPDEST SWAP3 SWAP2 POP POP JUMP JUMPDEST PUSH0 PUSH1 0x20 DUP3 DUP5 SUB SLT ISZERO PUSH2 0x475 JUMPI PUSH2 0x474 PUSH2 0x352 JUMP JUMPDEST JUMPDEST PUSH0 PUSH2 0x482 DUP5 DUP3 DUP6 ADD PUSH2 0x44C JUMP JUMPDEST SWAP2 POP POP SWAP3 SWAP2 POP POP JUMP JUMPDEST PUSH0 DUP2 MLOAD SWAP1 POP SWAP2 SWAP1 POP JUMP JUMPDEST PUSH0 DUP3 DUP3 MSTORE PUSH1 0x20 DUP3 ADD SWAP1 POP SWAP3 SWAP2 POP POP JUMP JUMPDEST DUP3 DUP2 DUP4 MCOPY PUSH0 DUP4 DUP4 ADD MSTORE POP POP POP JUMP JUMPDEST PUSH0 PUSH1 0x1F NOT PUSH1 0x1F DUP4 ADD AND SWAP1 POP SWAP2 SWAP1 POP JUMP JUMPDEST PUSH0 PUSH2 0x4CD DUP3 PUSH2 0x48B JUMP JUMPDEST PUSH2 0x4D7 DUP2 DUP6 PUSH2 0x495 JUMP JUMPDEST SWAP4 POP PUSH2 0x4E7 DUP2 DUP6 PUSH1 0x20 DUP7 ADD PUSH2 0x4A5 JUMP JUMPDEST PUSH2 0x4F0 DUP2 PUSH2 0x4B3 JUMP JUMPDEST DUP5 ADD SWAP2 POP POP SWAP3 SWAP2 POP POP JUMP JUMPDEST PUSH0 PUSH1 0x20 DUP3 ADD SWAP1 POP DUP2 DUP2 SUB PUSH0 DUP4 ADD MSTORE PUSH2 0x513 DUP2 DUP5 PUSH2 0x4C3 JUMP JUMPDEST SWAP1 POP SWAP3 SWAP2 POP POP JUMP JUMPDEST PUSH2 0x524 DUP2 PUSH2 0x425 JUMP JUMPDEST DUP3 MSTORE POP POP JUMP JUMPDEST PUSH0 PUSH1 0x20 DUP3 ADD SWAP1 POP PUSH2 0x53D PUSH0 DUP4 ADD DUP5 PUSH2 0x51B JUMP JUMPDEST SWAP3 SWAP2 POP POP JUMP JUMPDEST PUSH0 DUP3 DUP3 MSTORE PUSH1 0x20 DUP3 ADD SWAP1 POP SWAP3 SWAP2 POP POP JUMP JUMPDEST PUSH32 0x4F6E6C792061646D696E2063616E2063616C6C20746869732066756E6374696F PUSH0 DUP3 ADD MSTORE PUSH32 0x6E00000000000000000000000000000000000000000000000000000000000000 PUSH1 0x20 DUP3 ADD MSTORE POP JUMP JUMPDEST PUSH0 PUSH2 0x5AD PUSH1 0x21 DUP4 PUSH2 0x543 JUMP JUMPDEST SWAP2 POP PUSH2 0x5B8 DUP3 PUSH2 0x553 JUMP JUMPDEST PUSH1 0x40 DUP3 ADD SWAP1 POP SWAP2 SWAP1 POP JUMP JUMPDEST PUSH0 PUSH1 0x20 DUP3 ADD SWAP1 POP DUP2 DUP2 SUB PUSH0 DUP4 ADD MSTORE PUSH2 0x5DA DUP2 PUSH2 0x5A1 JUMP JUMPDEST SWAP1 POP SWAP2 SWAP1 POP JUMP JUMPDEST PUSH0 DUP3 SWAP1 POP SWAP3 SWAP2 POP POP JUMP JUMPDEST PUSH32 0x4E487B7100000000000000000000000000000000000000000000000000000000 PUSH0 MSTORE PUSH1 0x41 PUSH1 0x4 MSTORE PUSH1 0x24 PUSH0 REVERT JUMPDEST PUSH32 0x4E487B7100000000000000000000000000000000000000000000000000000000 PUSH0 MSTORE PUSH1 0x22 PUSH1 0x4 MSTORE PUSH1 0x24 PUSH0 REVERT JUMPDEST PUSH0 PUSH1 0x2 DUP3 DIV SWAP1 POP PUSH1 0x1 DUP3 AND DUP1 PUSH2 0x65C JUMPI PUSH1 0x7F DUP3 AND SWAP2 POP JUMPDEST PUSH1 0x20 DUP3 LT DUP2 SUB PUSH2 0x66F JUMPI PUSH2 0x66E PUSH2 0x618 JUMP JUMPDEST JUMPDEST POP SWAP2 SWAP1 POP JUMP JUMPDEST PUSH0 DUP2 SWAP1 POP DUP2 PUSH0 MSTORE PUSH1 0x20 PUSH0 KECCAK256 SWAP1 POP SWAP2 SWAP1 POP JUMP JUMPDEST PUSH0 PUSH1 0x20 PUSH1 0x1F DUP4 ADD DIV SWAP1 POP SWAP2 SWAP1 POP JUMP JUMPDEST PUSH0 DUP3 DUP3 SHL SWAP1 POP SWAP3 SWAP2 POP POP JUMP JUMPDEST PUSH0 PUSH1 0x8 DUP4 MUL PUSH2 0x6D1 PUSH32 0xFFFFFFFFFFFFFFFFFFFFFFFFFFFFFFFFFFFFFFFFFFFFFFFFFFFFFFFFFFFFFFFF DUP3 PUSH2 0x696 JUMP JUMPDEST PUSH2 0x6DB DUP7 DUP4 PUSH2 0x696 JUMP JUMPDEST SWAP6 POP DUP1 NOT DUP5 AND SWAP4 POP DUP1 DUP7 AND DUP5 OR SWAP3 POP POP POP SWAP4 SWAP3 POP POP POP JUMP JUMPDEST PUSH0 DUP2 SWAP1 POP SWAP2 SWAP1 POP JUMP JUMPDEST PUSH0 DUP2 SWAP1 POP SWAP2 SWAP1 POP JUMP JUMPDEST PUSH0 PUSH2 0x71F PUSH2 0x71A PUSH2 0x715 DUP5 PUSH2 0x6F3 JUMP JUMPDEST PUSH2 0x6FC JUMP JUMPDEST PUSH2 0x6F3 JUMP JUMPDEST SWAP1 POP SWAP2 SWAP1 POP JUMP JUMPDEST PUSH0 DUP2 SWAP1 POP SWAP2 SWAP1 POP JUMP JUMPDEST PUSH2 0x738 DUP4 PUSH2 0x705 JUMP JUMPDEST PUSH2 0x74C PUSH2 0x744 DUP3 PUSH2 0x726 JUMP JUMPDEST DUP5 DUP5 SLOAD PUSH2 0x6A2 JUMP JUMPDEST DUP3 SSTORE POP POP POP POP JUMP JUMPDEST PUSH0 SWAP1 JUMP JUMPDEST PUSH2 0x760 PUSH2 0x754 JUMP JUMPDEST PUSH2 0x76B DUP2 DUP5 DUP5 PUSH2 0x72F JUMP JUMPDEST POP POP POP JUMP JUMPDEST JUMPDEST DUP2 DUP2 LT ISZERO PUSH2 0x78E JUMPI PUSH2 0x783 PUSH0 DUP3 PUSH2 0x758 JUMP JUMPDEST PUSH1 0x1 DUP2 ADD SWAP1 POP PUSH2 0x771 JUMP JUMPDEST POP POP JUMP JUMPDEST PUSH1 0x1F DUP3 GT ISZERO PUSH2 0x7D3 JUMPI PUSH2 0x7A4 DUP2 PUSH2 0x675 JUMP JUMPDEST PUSH2 0x7AD DUP5 PUSH2 0x687 JUMP JUMPDEST DUP2 ADD PUSH1 0x20 DUP6 LT ISZERO PUSH2 0x7BC JUMPI DUP2 SWAP1 POP JUMPDEST PUSH2 0x7D0 PUSH2 0x7C8 DUP6 PUSH2 0x687 JUMP JUMPDEST DUP4 ADD DUP3 PUSH2 0x770 JUMP JUMPDEST POP POP JUMPDEST POP POP POP JUMP JUMPDEST PUSH0 DUP3 DUP3 SHR SWAP1 POP SWAP3 SWAP2 POP POP JUMP JUMPDEST PUSH0 PUSH2 0x7F3 PUSH0 NOT DUP5 PUSH1 0x8 MUL PUSH2 0x7D8 JUMP JUMPDEST NOT DUP1 DUP4 AND SWAP2 POP POP SWAP3 SWAP2 POP POP JUMP JUMPDEST PUSH0 PUSH2 0x80B DUP4 DUP4 PUSH2 0x7E4 JUMP JUMPDEST SWAP2 POP DUP3 PUSH1 0x2 MUL DUP3 OR SWAP1 POP SWAP3 SWAP2 POP POP JUMP JUMPDEST PUSH2 0x825 DUP4 DUP4 PUSH2 0x5E1 JUMP JUMPDEST PUSH8 0xFFFFFFFFFFFFFFFF DUP2 GT ISZERO PUSH2 0x83E JUMPI PUSH2 0x83D PUSH2 0x5EB JUMP JUMPDEST JUMPDEST PUSH2 0x848 DUP3 SLOAD PUSH2 0x645 JUMP JUMPDEST PUSH2 0x853 DUP3 DUP3 DUP6 PUSH2 0x792 JUMP JUMPDEST PUSH0 PUSH1 0x1F DUP4 GT PUSH1 0x1 DUP2 EQ PUSH2 0x880 JUMPI PUSH0 DUP5 ISZERO PUSH2 0x86E JUMPI DUP3 DUP8 ADD CALLDATALOAD SWAP1 POP JUMPDEST PUSH2 0x878 DUP6 DUP3 PUSH2 0x800 JUMP JUMPDEST DUP7 SSTORE POP PUSH2 0x8DF JUMP JUMPDEST PUSH1 0x1F NOT DUP5 AND PUSH2 0x88E DUP7 PUSH2 0x675 JUMP JUMPDEST PUSH0 JUMPDEST DUP3 DUP2 LT ISZERO PUSH2 0x8B5 JUMPI DUP5 DUP10 ADD CALLDATALOAD DUP3 SSTORE PUSH1 0x1 DUP3 ADD SWAP2 POP PUSH1 0x20 DUP6 ADD SWAP5 POP PUSH1 0x20 DUP2 ADD SWAP1 POP PUSH2 0x890 JUMP JUMPDEST DUP7 DUP4 LT ISZERO PUSH2 0x8D2 JUMPI DUP5 DUP10 ADD CALLDATALOAD PUSH2 0x8CE PUSH1 0x1F DUP10 AND DUP3 PUSH2 0x7E4 JUMP JUMPDEST DUP4 SSTORE POP JUMPDEST PUSH1 0x1 PUSH1 0x2 DUP9 MUL ADD DUP9 SSTORE POP POP POP JUMPDEST POP POP POP POP POP POP POP JUMP INVALID LOG2 PUSH5 0x6970667358 0x22 SLT KECCAK256 0xE6 0xCC 0x4F PUSH14 0x27539980C4DC58335DD2E7A6E113 DUP8 0x4C SELFBALANCE 0xD0 0xD5 0xC9 0xCD 0xE2 0xF 0xBE SGT 0xBE DELEGATECALL BLOCKHASH PUSH5 0x736F6C6343 STOP ADDMOD BYTE STOP CALLER "
				},
				"gasEstimates": {
					"creation": {
						"codeDepositCost": "466800",
						"executionCost": "24762",
						"totalCost": "491562"
					},
					"external": {
						"admin()": "2552",
						"getPublicKey(address)": "infinite",
						"publicKeys(address)": "infinite",
						"registerPublicKey(bytes)": "infinite"
					}
				},
				"methodIdentifiers": {
					"admin()": "f851a440",
					"getPublicKey(address)": "857cdbb8",
					"publicKeys(address)": "a3d6f9a9",
					"registerPublicKey(bytes)": "85623594"
				}
			},
			"storageLayout": {
				"storage": [
					{
						"astId": 5,
						"contract": "contracts/KeyManagement.sol:KeyManagement",
						"label": "publicKeys",
						"offset": 0,
						"slot": "0",
						"type": "t_mapping(t_address,t_bytes_storage)"
					},
					{
						"astId": 7,
						"contract": "contracts/KeyManagement.sol:KeyManagement",
						"label": "admin",
						"offset": 0,
						"slot": "1",
						"type": "t_address"
					}
				],
				"types": {
					"t_address": {
						"encoding": "inplace",
						"label": "address",
						"numberOfBytes": "20"
					},
					"t_bytes_storage": {
						"encoding": "bytes",
						"label": "bytes",
						"numberOfBytes": "32"
					},
					"t_mapping(t_address,t_bytes_storage)": {
						"encoding": "mapping",
						"key": "t_address",
						"label": "mapping(address => bytes)",
						"numberOfBytes": "32",
						"value": "t_bytes_storage"
					}
				}
			},
			"userdoc": {
				"kind": "user",
				"methods": {},
				"version": 1
			}
		}
	}
}