{
	"contracts/encrypte_data.sol": {
		"EncryptedDataStorage": {
			"abi": [
				{
					"inputs": [
						{
							"internalType": "uint256",
							"name": "",
							"type": "uint256"
						}
					],
					"name": "aesEncryptedData",
					"outputs": [
						{
							"internalType": "bytes",
							"name": "",
							"type": "bytes"
						}
					],
					"stateMutability": "view",
					"type": "function"
				},
				{
					"inputs": [],
					"name": "currentAesId",
					"outputs": [
						{
							"internalType": "uint256",
							"name": "",
							"type": "uint256"
						}
					],
					"stateMutability": "view",
					"type": "function"
				},
				{
					"inputs": [],
					"name": "currentMlKemId",
					"outputs": [
						{
							"internalType": "uint256",
							"name": "",
							"type": "uint256"
						}
					],
					"stateMutability": "view",
					"type": "function"
				},
				{
					"inputs": [
						{
							"internalType": "uint256",
							"name": "_id",
							"type": "uint256"
						}
					],
					"name": "getAesEncryptedData",
					"outputs": [
						{
							"internalType": "bytes",
							"name": "",
							"type": "bytes"
						}
					],
					"stateMutability": "view",
					"type": "function"
				},
				{
					"inputs": [
						{
							"internalType": "uint256",
							"name": "_id",
							"type": "uint256"
						}
					],
					"name": "getMlKemEncryptedData",
					"outputs": [
						{
							"internalType": "bytes",
							"name": "",
							"type": "bytes"
						}
					],
					"stateMutability": "view",
					"type": "function"
				},
				{
					"inputs": [
						{
							"internalType": "uint256",
							"name": "",
							"type": "uint256"
						}
					],
					"name": "mlKemEncryptedData",
					"outputs": [
						{
							"internalType": "bytes",
							"name": "",
							"type": "bytes"
						}
					],
					"stateMutability": "view",
					"type": "function"
				},
				{
					"inputs": [
						{
							"internalType": "bytes",
							"name": "_encryptedData",
							"type": "bytes"
						}
					],
					"name": "storeAesEncryptedData",
					"outputs": [
						{
							"internalType": "uint256",
							"name": "id",
							"type": "uint256"
						}
					],
					"stateMutability": "nonpayable",
					"type": "function"
				},
				{
					"inputs": [
						{
							"internalType": "bytes",
							"name": "_encryptedData",
							"type": "bytes"
						}
					],
					"name": "storeMlKemEncryptedData",
					"outputs": [
						{
							"internalType": "uint256",
							"name": "id",
							"type": "uint256"
						}
					],
					"stateMutability": "nonpayable",
					"type": "function"
				}
			],
			"devdoc": {
				"kind": "dev",
				"methods": {},
				"version": 1
			},
			"evm": {
				"assembly": "    /* \"contracts/encrypte_data.sol\":60:1450  contract EncryptedDataStorage {... */\n  mstore(0x40, 0x80)\n    /* \"contracts/encrypte_data.sol\":408:409  1 */\n  0x01\n    /* \"contracts/encrypte_data.sol\":378:409  uint256 public currentAesId = 1 */\n  0x02\n  sstore\n    /* \"contracts/encrypte_data.sol\":491:492  1 */\n  0x01\n    /* \"contracts/encrypte_data.sol\":459:492  uint256 public currentMlKemId = 1 */\n  0x03\n  sstore\n    /* \"contracts/encrypte_data.sol\":60:1450  contract EncryptedDataStorage {... */\n  callvalue\n  dup1\n  iszero\n  tag_1\n  jumpi\n  0x00\n  dup1\n  revert\ntag_1:\n  pop\n  dataSize(sub_0)\n  dup1\n  dataOffset(sub_0)\n  0x00\n  codecopy\n  0x00\n  return\nstop\n\nsub_0: assembly {\n        /* \"contracts/encrypte_data.sol\":60:1450  contract EncryptedDataStorage {... */\n      mstore(0x40, 0x80)\n      callvalue\n      dup1\n      iszero\n      tag_1\n      jumpi\n      0x00\n      dup1\n      revert\n    tag_1:\n      pop\n      jumpi(tag_2, lt(calldatasize, 0x04))\n      shr(0xe0, calldataload(0x00))\n      dup1\n      0x8b0a7d9c\n      gt\n      tag_11\n      jumpi\n      dup1\n      0x8b0a7d9c\n      eq\n      tag_7\n      jumpi\n      dup1\n      0xb2a78fa3\n      eq\n      tag_8\n      jumpi\n      dup1\n      0xb6c58e0a\n      eq\n      tag_9\n      jumpi\n      dup1\n      0xf089a0ad\n      eq\n      tag_10\n      jumpi\n      jump(tag_2)\n    tag_11:\n      dup1\n      0x1421c764\n      eq\n      tag_3\n      jumpi\n      dup1\n      0x1cbdf910\n      eq\n      tag_4\n      jumpi\n      dup1\n      0x6a2a642d\n      eq\n      tag_5\n      jumpi\n      dup1\n      0x77431ba0\n      eq\n      tag_6\n      jumpi\n    tag_2:\n      0x00\n      dup1\n      revert\n        /* \"contracts/encrypte_data.sol\":282:333  mapping(uint256 => bytes) public mlKemEncryptedData */\n    tag_3:\n      tag_12\n      0x04\n      dup1\n      calldatasize\n      sub\n      dup2\n      add\n      swap1\n      tag_13\n      swap2\n      swap1\n      tag_14\n      jump\t// in\n    tag_13:\n      tag_15\n      jump\t// in\n    tag_12:\n      mload(0x40)\n      tag_16\n      swap2\n      swap1\n      tag_17\n      jump\t// in\n    tag_16:\n      mload(0x40)\n      dup1\n      swap2\n      sub\n      swap1\n      return\n        /* \"contracts/encrypte_data.sol\":459:492  uint256 public currentMlKemId = 1 */\n    tag_4:\n      tag_18\n      tag_19\n      jump\t// in\n    tag_18:\n      mload(0x40)\n      tag_20\n      swap2\n      swap1\n      tag_21\n      jump\t// in\n    tag_20:\n      mload(0x40)\n      dup1\n      swap2\n      sub\n      swap1\n      return\n        /* \"contracts/encrypte_data.sol\":827:1086  function storeMlKemEncryptedData(bytes memory _encryptedData) external returns (uint256 id) {... */\n    tag_5:\n      tag_22\n      0x04\n      dup1\n      calldatasize\n      sub\n      dup2\n      add\n      swap1\n      tag_23\n      swap2\n      swap1\n      tag_24\n      jump\t// in\n    tag_23:\n      tag_25\n      jump\t// in\n    tag_22:\n      mload(0x40)\n      tag_26\n      swap2\n      swap1\n      tag_21\n      jump\t// in\n    tag_26:\n      mload(0x40)\n      dup1\n      swap2\n      sub\n      swap1\n      return\n        /* \"contracts/encrypte_data.sol\":1317:1447  function getMlKemEncryptedData(uint256 _id) external view returns (bytes memory) {... */\n    tag_6:\n      tag_27\n      0x04\n      dup1\n      calldatasize\n      sub\n      dup2\n      add\n      swap1\n      tag_28\n      swap2\n      swap1\n      tag_14\n      jump\t// in\n    tag_28:\n      tag_29\n      jump\t// in\n    tag_27:\n      mload(0x40)\n      tag_30\n      swap2\n      swap1\n      tag_17\n      jump\t// in\n    tag_30:\n      mload(0x40)\n      dup1\n      swap2\n      sub\n      swap1\n      return\n        /* \"contracts/encrypte_data.sol\":1136:1262  function getAesEncryptedData(uint256 _id) external view returns (bytes memory) {... */\n    tag_7:\n      tag_31\n      0x04\n      dup1\n      calldatasize\n      sub\n      dup2\n      add\n      swap1\n      tag_32\n      swap2\n      swap1\n      tag_14\n      jump\t// in\n    tag_32:\n      tag_33\n      jump\t// in\n    tag_31:\n      mload(0x40)\n      tag_34\n      swap2\n      swap1\n      tag_17\n      jump\t// in\n    tag_34:\n      mload(0x40)\n      dup1\n      swap2\n      sub\n      swap1\n      return\n        /* \"contracts/encrypte_data.sol\":378:409  uint256 public currentAesId = 1 */\n    tag_8:\n      tag_35\n      tag_36\n      jump\t// in\n    tag_35:\n      mload(0x40)\n      tag_37\n      swap2\n      swap1\n      tag_21\n      jump\t// in\n    tag_37:\n      mload(0x40)\n      dup1\n      swap2\n      sub\n      swap1\n      return\n        /* \"contracts/encrypte_data.sol\":533:782  function storeAesEncryptedData(bytes memory _encryptedData) external returns (uint256 id) {... */\n    tag_9:\n      tag_38\n      0x04\n      dup1\n      calldatasize\n      sub\n      dup2\n      add\n      swap1\n      tag_39\n      swap2\n      swap1\n      tag_24\n      jump\t// in\n    tag_39:\n      tag_40\n      jump\t// in\n    tag_38:\n      mload(0x40)\n      tag_41\n      swap2\n      swap1\n      tag_21\n      jump\t// in\n    tag_41:\n      mload(0x40)\n      dup1\n      swap2\n      sub\n      swap1\n      return\n        /* \"contracts/encrypte_data.sol\":159:208  mapping(uint256 => bytes) public aesEncryptedData */\n    tag_10:\n      tag_42\n      0x04\n      dup1\n      calldatasize\n      sub\n      dup2\n      add\n      swap1\n      tag_43\n      swap2\n      swap1\n      tag_14\n      jump\t// in\n    tag_43:\n      tag_44\n      jump\t// in\n    tag_42:\n      mload(0x40)\n      tag_45\n      swap2\n      swap1\n      tag_17\n      jump\t// in\n    tag_45:\n      mload(0x40)\n      dup1\n      swap2\n      sub\n      swap1\n      return\n        /* \"contracts/encrypte_data.sol\":282:333  mapping(uint256 => bytes) public mlKemEncryptedData */\n    tag_15:\n      mstore(0x20, 0x01)\n      dup1\n      0x00\n      mstore\n      keccak256(0x00, 0x40)\n      0x00\n      swap2\n      pop\n      swap1\n      pop\n      dup1\n      sload\n      tag_46\n      swap1\n      tag_47\n      jump\t// in\n    tag_46:\n      dup1\n      0x1f\n      add\n      0x20\n      dup1\n      swap2\n      div\n      mul\n      0x20\n      add\n      mload(0x40)\n      swap1\n      dup2\n      add\n      0x40\n      mstore\n      dup1\n      swap3\n      swap2\n      swap1\n      dup2\n      dup2\n      mstore\n      0x20\n      add\n      dup3\n      dup1\n      sload\n      tag_48\n      swap1\n      tag_47\n      jump\t// in\n    tag_48:\n      dup1\n      iszero\n      tag_49\n      jumpi\n      dup1\n      0x1f\n      lt\n      tag_50\n      jumpi\n      0x0100\n      dup1\n      dup4\n      sload\n      div\n      mul\n      dup4\n      mstore\n      swap2\n      0x20\n      add\n      swap2\n      jump(tag_49)\n    tag_50:\n      dup3\n      add\n      swap2\n      swap1\n      0x00\n      mstore\n      keccak256(0x00, 0x20)\n      swap1\n    tag_51:\n      dup2\n      sload\n      dup2\n      mstore\n      swap1\n      0x01\n      add\n      swap1\n      0x20\n      add\n      dup1\n      dup4\n      gt\n      tag_51\n      jumpi\n      dup3\n      swap1\n      sub\n      0x1f\n      and\n      dup3\n      add\n      swap2\n    tag_49:\n      pop\n      pop\n      pop\n      pop\n      pop\n      dup2\n      jump\t// out\n        /* \"contracts/encrypte_data.sol\":459:492  uint256 public currentMlKemId = 1 */\n    tag_19:\n      sload(0x03)\n      dup2\n      jump\t// out\n        /* \"contracts/encrypte_data.sol\":827:1086  function storeMlKemEncryptedData(bytes memory _encryptedData) external returns (uint256 id) {... */\n    tag_25:\n        /* \"contracts/encrypte_data.sol\":907:917  uint256 id */\n      0x00\n        /* \"contracts/encrypte_data.sol\":967:981  _encryptedData */\n      dup2\n        /* \"contracts/encrypte_data.sol\":930:948  mlKemEncryptedData */\n      0x01\n        /* \"contracts/encrypte_data.sol\":930:964  mlKemEncryptedData[currentMlKemId] */\n      0x00\n        /* \"contracts/encrypte_data.sol\":949:963  currentMlKemId */\n      sload(0x03)\n        /* \"contracts/encrypte_data.sol\":930:964  mlKemEncryptedData[currentMlKemId] */\n      dup2\n      mstore\n      0x20\n      add\n      swap1\n      dup2\n      mstore\n      0x20\n      add\n      0x00\n      keccak256\n        /* \"contracts/encrypte_data.sol\":930:981  mlKemEncryptedData[currentMlKemId] = _encryptedData */\n      swap1\n      dup2\n      tag_53\n      swap2\n      swap1\n      tag_54\n      jump\t// in\n    tag_53:\n      pop\n        /* \"contracts/encrypte_data.sol\":992:1008  uint256 resultId */\n      0x00\n        /* \"contracts/encrypte_data.sol\":1011:1025  currentMlKemId */\n      sload(0x03)\n        /* \"contracts/encrypte_data.sol\":992:1025  uint256 resultId = currentMlKemId */\n      swap1\n      pop\n        /* \"contracts/encrypte_data.sol\":1036:1050  currentMlKemId */\n      0x03\n      0x00\n        /* \"contracts/encrypte_data.sol\":1036:1052  currentMlKemId++ */\n      dup2\n      sload\n      dup1\n      swap3\n      swap2\n      swap1\n      tag_55\n      swap1\n      tag_56\n      jump\t// in\n    tag_55:\n      swap2\n      swap1\n      pop\n      sstore\n      pop\n        /* \"contracts/encrypte_data.sol\":1070:1078  resultId */\n      dup1\n        /* \"contracts/encrypte_data.sol\":1063:1078  return resultId */\n      swap2\n      pop\n      pop\n        /* \"contracts/encrypte_data.sol\":827:1086  function storeMlKemEncryptedData(bytes memory _encryptedData) external returns (uint256 id) {... */\n      swap2\n      swap1\n      pop\n      jump\t// out\n        /* \"contracts/encrypte_data.sol\":1317:1447  function getMlKemEncryptedData(uint256 _id) external view returns (bytes memory) {... */\n    tag_29:\n        /* \"contracts/encrypte_data.sol\":1384:1396  bytes memory */\n      0x60\n        /* \"contracts/encrypte_data.sol\":1416:1434  mlKemEncryptedData */\n      0x01\n        /* \"contracts/encrypte_data.sol\":1416:1439  mlKemEncryptedData[_id] */\n      0x00\n        /* \"contracts/encrypte_data.sol\":1435:1438  _id */\n      dup4\n        /* \"contracts/encrypte_data.sol\":1416:1439  mlKemEncryptedData[_id] */\n      dup2\n      mstore\n      0x20\n      add\n      swap1\n      dup2\n      mstore\n      0x20\n      add\n      0x00\n      keccak256\n        /* \"contracts/encrypte_data.sol\":1409:1439  return mlKemEncryptedData[_id] */\n      dup1\n      sload\n      tag_58\n      swap1\n      tag_47\n      jump\t// in\n    tag_58:\n      dup1\n      0x1f\n      add\n      0x20\n      dup1\n      swap2\n      div\n      mul\n      0x20\n      add\n      mload(0x40)\n      swap1\n      dup2\n      add\n      0x40\n      mstore\n      dup1\n      swap3\n      swap2\n      swap1\n      dup2\n      dup2\n      mstore\n      0x20\n      add\n      dup3\n      dup1\n      sload\n      tag_59\n      swap1\n      tag_47\n      jump\t// in\n    tag_59:\n      dup1\n      iszero\n      tag_60\n      jumpi\n      dup1\n      0x1f\n      lt\n      tag_61\n      jumpi\n      0x0100\n      dup1\n      dup4\n      sload\n      div\n      mul\n      dup4\n      mstore\n      swap2\n      0x20\n      add\n      swap2\n      jump(tag_60)\n    tag_61:\n      dup3\n      add\n      swap2\n      swap1\n      0x00\n      mstore\n      keccak256(0x00, 0x20)\n      swap1\n    tag_62:\n      dup2\n      sload\n      dup2\n      mstore\n      swap1\n      0x01\n      add\n      swap1\n      0x20\n      add\n      dup1\n      dup4\n      gt\n      tag_62\n      jumpi\n      dup3\n      swap1\n      sub\n      0x1f\n      and\n      dup3\n      add\n      swap2\n    tag_60:\n      pop\n      pop\n      pop\n      pop\n      pop\n      swap1\n      pop\n        /* \"contracts/encrypte_data.sol\":1317:1447  function getMlKemEncryptedData(uint256 _id) external view returns (bytes memory) {... */\n      swap2\n      swap1\n      pop\n      jump\t// out\n        /* \"contracts/encrypte_data.sol\":1136:1262  function getAesEncryptedData(uint256 _id) external view returns (bytes memory) {... */\n    tag_33:\n        /* \"contracts/encrypte_data.sol\":1201:1213  bytes memory */\n      0x60\n        /* \"contracts/encrypte_data.sol\":1233:1249  aesEncryptedData */\n      0x00\n        /* \"contracts/encrypte_data.sol\":1233:1254  aesEncryptedData[_id] */\n      dup1\n        /* \"contracts/encrypte_data.sol\":1250:1253  _id */\n      dup4\n        /* \"contracts/encrypte_data.sol\":1233:1254  aesEncryptedData[_id] */\n      dup2\n      mstore\n      0x20\n      add\n      swap1\n      dup2\n      mstore\n      0x20\n      add\n      0x00\n      keccak256\n        /* \"contracts/encrypte_data.sol\":1226:1254  return aesEncryptedData[_id] */\n      dup1\n      sload\n      tag_64\n      swap1\n      tag_47\n      jump\t// in\n    tag_64:\n      dup1\n      0x1f\n      add\n      0x20\n      dup1\n      swap2\n      div\n      mul\n      0x20\n      add\n      mload(0x40)\n      swap1\n      dup2\n      add\n      0x40\n      mstore\n      dup1\n      swap3\n      swap2\n      swap1\n      dup2\n      dup2\n      mstore\n      0x20\n      add\n      dup3\n      dup1\n      sload\n      tag_65\n      swap1\n      tag_47\n      jump\t// in\n    tag_65:\n      dup1\n      iszero\n      tag_66\n      jumpi\n      dup1\n      0x1f\n      lt\n      tag_67\n      jumpi\n      0x0100\n      dup1\n      dup4\n      sload\n      div\n      mul\n      dup4\n      mstore\n      swap2\n      0x20\n      add\n      swap2\n      jump(tag_66)\n    tag_67:\n      dup3\n      add\n      swap2\n      swap1\n      0x00\n      mstore\n      keccak256(0x00, 0x20)\n      swap1\n    tag_68:\n      dup2\n      sload\n      dup2\n      mstore\n      swap1\n      0x01\n      add\n      swap1\n      0x20\n      add\n      dup1\n      dup4\n      gt\n      tag_68\n      jumpi\n      dup3\n      swap1\n      sub\n      0x1f\n      and\n      dup3\n      add\n      swap2\n    tag_66:\n      pop\n      pop\n      pop\n      pop\n      pop\n      swap1\n      pop\n        /* \"contracts/encrypte_data.sol\":1136:1262  function getAesEncryptedData(uint256 _id) external view returns (bytes memory) {... */\n      swap2\n      swap1\n      pop\n      jump\t// out\n        /* \"contracts/encrypte_data.sol\":378:409  uint256 public currentAesId = 1 */\n    tag_36:\n      sload(0x02)\n      dup2\n      jump\t// out\n        /* \"contracts/encrypte_data.sol\":533:782  function storeAesEncryptedData(bytes memory _encryptedData) external returns (uint256 id) {... */\n    tag_40:\n        /* \"contracts/encrypte_data.sol\":611:621  uint256 id */\n      0x00\n        /* \"contracts/encrypte_data.sol\":667:681  _encryptedData */\n      dup2\n        /* \"contracts/encrypte_data.sol\":634:650  aesEncryptedData */\n      0x00\n        /* \"contracts/encrypte_data.sol\":634:664  aesEncryptedData[currentAesId] */\n      dup1\n        /* \"contracts/encrypte_data.sol\":651:663  currentAesId */\n      sload(0x02)\n        /* \"contracts/encrypte_data.sol\":634:664  aesEncryptedData[currentAesId] */\n      dup2\n      mstore\n      0x20\n      add\n      swap1\n      dup2\n      mstore\n      0x20\n      add\n      0x00\n      keccak256\n        /* \"contracts/encrypte_data.sol\":634:681  aesEncryptedData[currentAesId] = _encryptedData */\n      swap1\n      dup2\n      tag_70\n      swap2\n      swap1\n      tag_54\n      jump\t// in\n    tag_70:\n      pop\n        /* \"contracts/encrypte_data.sol\":692:708  uint256 resultId */\n      0x00\n        /* \"contracts/encrypte_data.sol\":711:723  currentAesId */\n      sload(0x02)\n        /* \"contracts/encrypte_data.sol\":692:723  uint256 resultId = currentAesId */\n      swap1\n      pop\n        /* \"contracts/encrypte_data.sol\":734:746  currentAesId */\n      0x02\n      0x00\n        /* \"contracts/encrypte_data.sol\":734:748  currentAesId++ */\n      dup2\n      sload\n      dup1\n      swap3\n      swap2\n      swap1\n      tag_71\n      swap1\n      tag_56\n      jump\t// in\n    tag_71:\n      swap2\n      swap1\n      pop\n      sstore\n      pop\n        /* \"contracts/encrypte_data.sol\":766:774  resultId */\n      dup1\n        /* \"contracts/encrypte_data.sol\":759:774  return resultId */\n      swap2\n      pop\n      pop\n        /* \"contracts/encrypte_data.sol\":533:782  function storeAesEncryptedData(bytes memory _encryptedData) external returns (uint256 id) {... */\n      swap2\n      swap1\n      pop\n      jump\t// out\n        /* \"contracts/encrypte_data.sol\":159:208  mapping(uint256 => bytes) public aesEncryptedData */\n    tag_44:\n      mstore(0x20, 0x00)\n      dup1\n      0x00\n      mstore\n      keccak256(0x00, 0x40)\n      0x00\n      swap2\n      pop\n      swap1\n      pop\n      dup1\n      sload\n      tag_72\n      swap1\n      tag_47\n      jump\t// in\n    tag_72:\n      dup1\n      0x1f\n      add\n      0x20\n      dup1\n      swap2\n      div\n      mul\n      0x20\n      add\n      mload(0x40)\n      swap1\n      dup2\n      add\n      0x40\n      mstore\n      dup1\n      swap3\n      swap2\n      swap1\n      dup2\n      dup2\n      mstore\n      0x20\n      add\n      dup3\n      dup1\n      sload\n      tag_73\n      swap1\n      tag_47\n      jump\t// in\n    tag_73:\n      dup1\n      iszero\n      tag_74\n      jumpi\n      dup1\n      0x1f\n      lt\n      tag_75\n      jumpi\n      0x0100\n      dup1\n      dup4\n      sload\n      div\n      mul\n      dup4\n      mstore\n      swap2\n      0x20\n      add\n      swap2\n      jump(tag_74)\n    tag_75:\n      dup3\n      add\n      swap2\n      swap1\n      0x00\n      mstore\n      keccak256(0x00, 0x20)\n      swap1\n    tag_76:\n      dup2\n      sload\n      dup2\n      mstore\n      swap1\n      0x01\n      add\n      swap1\n      0x20\n      add\n      dup1\n      dup4\n      gt\n      tag_76\n      jumpi\n      dup3\n      swap1\n      sub\n      0x1f\n      and\n      dup3\n      add\n      swap2\n    tag_74:\n      pop\n      pop\n      pop\n      pop\n      pop\n      dup2\n      jump\t// out\n        /* \"#utility.yul\":7:82   */\n    tag_77:\n        /* \"#utility.yul\":40:46   */\n      0x00\n        /* \"#utility.yul\":73:75   */\n      0x40\n        /* \"#utility.yul\":67:76   */\n      mload\n        /* \"#utility.yul\":57:76   */\n      swap1\n      pop\n        /* \"#utility.yul\":7:82   */\n      swap1\n      jump\t// out\n        /* \"#utility.yul\":88:205   */\n    tag_78:\n        /* \"#utility.yul\":197:198   */\n      0x00\n        /* \"#utility.yul\":194:195   */\n      dup1\n        /* \"#utility.yul\":187:199   */\n      revert\n        /* \"#utility.yul\":211:328   */\n    tag_79:\n        /* \"#utility.yul\":320:321   */\n      0x00\n        /* \"#utility.yul\":317:318   */\n      dup1\n        /* \"#utility.yul\":310:322   */\n      revert\n        /* \"#utility.yul\":334:411   */\n    tag_80:\n        /* \"#utility.yul\":371:378   */\n      0x00\n        /* \"#utility.yul\":400:405   */\n      dup2\n        /* \"#utility.yul\":389:405   */\n      swap1\n      pop\n        /* \"#utility.yul\":334:411   */\n      swap2\n      swap1\n      pop\n      jump\t// out\n        /* \"#utility.yul\":417:539   */\n    tag_81:\n        /* \"#utility.yul\":490:514   */\n      tag_121\n        /* \"#utility.yul\":508:513   */\n      dup2\n        /* \"#utility.yul\":490:514   */\n      tag_80\n      jump\t// in\n    tag_121:\n        /* \"#utility.yul\":483:488   */\n      dup2\n        /* \"#utility.yul\":480:515   */\n      eq\n        /* \"#utility.yul\":470:533   */\n      tag_122\n      jumpi\n        /* \"#utility.yul\":529:530   */\n      0x00\n        /* \"#utility.yul\":526:527   */\n      dup1\n        /* \"#utility.yul\":519:531   */\n      revert\n        /* \"#utility.yul\":470:533   */\n    tag_122:\n        /* \"#utility.yul\":417:539   */\n      pop\n      jump\t// out\n        /* \"#utility.yul\":545:684   */\n    tag_82:\n        /* \"#utility.yul\":591:596   */\n      0x00\n        /* \"#utility.yul\":629:635   */\n      dup2\n        /* \"#utility.yul\":616:636   */\n      calldataload\n        /* \"#utility.yul\":607:636   */\n      swap1\n      pop\n        /* \"#utility.yul\":645:678   */\n      tag_124\n        /* \"#utility.yul\":672:677   */\n      dup2\n        /* \"#utility.yul\":645:678   */\n      tag_81\n      jump\t// in\n    tag_124:\n        /* \"#utility.yul\":545:684   */\n      swap3\n      swap2\n      pop\n      pop\n      jump\t// out\n        /* \"#utility.yul\":690:1019   */\n    tag_14:\n        /* \"#utility.yul\":749:755   */\n      0x00\n        /* \"#utility.yul\":798:800   */\n      0x20\n        /* \"#utility.yul\":786:795   */\n      dup3\n        /* \"#utility.yul\":777:784   */\n      dup5\n        /* \"#utility.yul\":773:796   */\n      sub\n        /* \"#utility.yul\":769:801   */\n      slt\n        /* \"#utility.yul\":766:885   */\n      iszero\n      tag_126\n      jumpi\n        /* \"#utility.yul\":804:883   */\n      tag_127\n      tag_78\n      jump\t// in\n    tag_127:\n        /* \"#utility.yul\":766:885   */\n    tag_126:\n        /* \"#utility.yul\":924:925   */\n      0x00\n        /* \"#utility.yul\":949:1002   */\n      tag_128\n        /* \"#utility.yul\":994:1001   */\n      dup5\n        /* \"#utility.yul\":985:991   */\n      dup3\n        /* \"#utility.yul\":974:983   */\n      dup6\n        /* \"#utility.yul\":970:992   */\n      add\n        /* \"#utility.yul\":949:1002   */\n      tag_82\n      jump\t// in\n    tag_128:\n        /* \"#utility.yul\":939:1002   */\n      swap2\n      pop\n        /* \"#utility.yul\":895:1012   */\n      pop\n        /* \"#utility.yul\":690:1019   */\n      swap3\n      swap2\n      pop\n      pop\n      jump\t// out\n        /* \"#utility.yul\":1025:1123   */\n    tag_83:\n        /* \"#utility.yul\":1076:1082   */\n      0x00\n        /* \"#utility.yul\":1110:1115   */\n      dup2\n        /* \"#utility.yul\":1104:1116   */\n      mload\n        /* \"#utility.yul\":1094:1116   */\n      swap1\n      pop\n        /* \"#utility.yul\":1025:1123   */\n      swap2\n      swap1\n      pop\n      jump\t// out\n        /* \"#utility.yul\":1129:1297   */\n    tag_84:\n        /* \"#utility.yul\":1212:1223   */\n      0x00\n        /* \"#utility.yul\":1246:1252   */\n      dup3\n        /* \"#utility.yul\":1241:1244   */\n      dup3\n        /* \"#utility.yul\":1234:1253   */\n      mstore\n        /* \"#utility.yul\":1286:1290   */\n      0x20\n        /* \"#utility.yul\":1281:1284   */\n      dup3\n        /* \"#utility.yul\":1277:1291   */\n      add\n        /* \"#utility.yul\":1262:1291   */\n      swap1\n      pop\n        /* \"#utility.yul\":1129:1297   */\n      swap3\n      swap2\n      pop\n      pop\n      jump\t// out\n        /* \"#utility.yul\":1303:1442   */\n    tag_85:\n        /* \"#utility.yul\":1392:1398   */\n      dup3\n        /* \"#utility.yul\":1387:1390   */\n      dup2\n        /* \"#utility.yul\":1382:1385   */\n      dup4\n        /* \"#utility.yul\":1376:1399   */\n      mcopy\n        /* \"#utility.yul\":1433:1434   */\n      0x00\n        /* \"#utility.yul\":1424:1430   */\n      dup4\n        /* \"#utility.yul\":1419:1422   */\n      dup4\n        /* \"#utility.yul\":1415:1431   */\n      add\n        /* \"#utility.yul\":1408:1435   */\n      mstore\n        /* \"#utility.yul\":1303:1442   */\n      pop\n      pop\n      pop\n      jump\t// out\n        /* \"#utility.yul\":1448:1550   */\n    tag_86:\n        /* \"#utility.yul\":1489:1495   */\n      0x00\n        /* \"#utility.yul\":1540:1542   */\n      0x1f\n        /* \"#utility.yul\":1536:1543   */\n      not\n        /* \"#utility.yul\":1531:1533   */\n      0x1f\n        /* \"#utility.yul\":1524:1529   */\n      dup4\n        /* \"#utility.yul\":1520:1534   */\n      add\n        /* \"#utility.yul\":1516:1544   */\n      and\n        /* \"#utility.yul\":1506:1544   */\n      swap1\n      pop\n        /* \"#utility.yul\":1448:1550   */\n      swap2\n      swap1\n      pop\n      jump\t// out\n        /* \"#utility.yul\":1556:1929   */\n    tag_87:\n        /* \"#utility.yul\":1642:1645   */\n      0x00\n        /* \"#utility.yul\":1670:1708   */\n      tag_134\n        /* \"#utility.yul\":1702:1707   */\n      dup3\n        /* \"#utility.yul\":1670:1708   */\n      tag_83\n      jump\t// in\n    tag_134:\n        /* \"#utility.yul\":1724:1794   */\n      tag_135\n        /* \"#utility.yul\":1787:1793   */\n      dup2\n        /* \"#utility.yul\":1782:1785   */\n      dup6\n        /* \"#utility.yul\":1724:1794   */\n      tag_84\n      jump\t// in\n    tag_135:\n        /* \"#utility.yul\":1717:1794   */\n      swap4\n      pop\n        /* \"#utility.yul\":1803:1868   */\n      tag_136\n        /* \"#utility.yul\":1861:1867   */\n      dup2\n        /* \"#utility.yul\":1856:1859   */\n      dup6\n        /* \"#utility.yul\":1849:1853   */\n      0x20\n        /* \"#utility.yul\":1842:1847   */\n      dup7\n        /* \"#utility.yul\":1838:1854   */\n      add\n        /* \"#utility.yul\":1803:1868   */\n      tag_85\n      jump\t// in\n    tag_136:\n        /* \"#utility.yul\":1893:1922   */\n      tag_137\n        /* \"#utility.yul\":1915:1921   */\n      dup2\n        /* \"#utility.yul\":1893:1922   */\n      tag_86\n      jump\t// in\n    tag_137:\n        /* \"#utility.yul\":1888:1891   */\n      dup5\n        /* \"#utility.yul\":1884:1923   */\n      add\n        /* \"#utility.yul\":1877:1923   */\n      swap2\n      pop\n        /* \"#utility.yul\":1646:1929   */\n      pop\n        /* \"#utility.yul\":1556:1929   */\n      swap3\n      swap2\n      pop\n      pop\n      jump\t// out\n        /* \"#utility.yul\":1935:2244   */\n    tag_17:\n        /* \"#utility.yul\":2046:2050   */\n      0x00\n        /* \"#utility.yul\":2084:2086   */\n      0x20\n        /* \"#utility.yul\":2073:2082   */\n      dup3\n        /* \"#utility.yul\":2069:2087   */\n      add\n        /* \"#utility.yul\":2061:2087   */\n      swap1\n      pop\n        /* \"#utility.yul\":2133:2142   */\n      dup2\n        /* \"#utility.yul\":2127:2131   */\n      dup2\n        /* \"#utility.yul\":2123:2143   */\n      sub\n        /* \"#utility.yul\":2119:2120   */\n      0x00\n        /* \"#utility.yul\":2108:2117   */\n      dup4\n        /* \"#utility.yul\":2104:2121   */\n      add\n        /* \"#utility.yul\":2097:2144   */\n      mstore\n        /* \"#utility.yul\":2161:2237   */\n      tag_139\n        /* \"#utility.yul\":2232:2236   */\n      dup2\n        /* \"#utility.yul\":2223:2229   */\n      dup5\n        /* \"#utility.yul\":2161:2237   */\n      tag_87\n      jump\t// in\n    tag_139:\n        /* \"#utility.yul\":2153:2237   */\n      swap1\n      pop\n        /* \"#utility.yul\":1935:2244   */\n      swap3\n      swap2\n      pop\n      pop\n      jump\t// out\n        /* \"#utility.yul\":2250:2368   */\n    tag_88:\n        /* \"#utility.yul\":2337:2361   */\n      tag_141\n        /* \"#utility.yul\":2355:2360   */\n      dup2\n        /* \"#utility.yul\":2337:2361   */\n      tag_80\n      jump\t// in\n    tag_141:\n        /* \"#utility.yul\":2332:2335   */\n      dup3\n        /* \"#utility.yul\":2325:2362   */\n      mstore\n        /* \"#utility.yul\":2250:2368   */\n      pop\n      pop\n      jump\t// out\n        /* \"#utility.yul\":2374:2596   */\n    tag_21:\n        /* \"#utility.yul\":2467:2471   */\n      0x00\n        /* \"#utility.yul\":2505:2507   */\n      0x20\n        /* \"#utility.yul\":2494:2503   */\n      dup3\n        /* \"#utility.yul\":2490:2508   */\n      add\n        /* \"#utility.yul\":2482:2508   */\n      swap1\n      pop\n        /* \"#utility.yul\":2518:2589   */\n      tag_143\n        /* \"#utility.yul\":2586:2587   */\n      0x00\n        /* \"#utility.yul\":2575:2584   */\n      dup4\n        /* \"#utility.yul\":2571:2588   */\n      add\n        /* \"#utility.yul\":2562:2568   */\n      dup5\n        /* \"#utility.yul\":2518:2589   */\n      tag_88\n      jump\t// in\n    tag_143:\n        /* \"#utility.yul\":2374:2596   */\n      swap3\n      swap2\n      pop\n      pop\n      jump\t// out\n        /* \"#utility.yul\":2602:2719   */\n    tag_89:\n        /* \"#utility.yul\":2711:2712   */\n      0x00\n        /* \"#utility.yul\":2708:2709   */\n      dup1\n        /* \"#utility.yul\":2701:2713   */\n      revert\n        /* \"#utility.yul\":2725:2842   */\n    tag_90:\n        /* \"#utility.yul\":2834:2835   */\n      0x00\n        /* \"#utility.yul\":2831:2832   */\n      dup1\n        /* \"#utility.yul\":2824:2836   */\n      revert\n        /* \"#utility.yul\":2848:3028   */\n    tag_91:\n        /* \"#utility.yul\":2896:2973   */\n      0x4e487b7100000000000000000000000000000000000000000000000000000000\n        /* \"#utility.yul\":2893:2894   */\n      0x00\n        /* \"#utility.yul\":2886:2974   */\n      mstore\n        /* \"#utility.yul\":2993:2997   */\n      0x41\n        /* \"#utility.yul\":2990:2991   */\n      0x04\n        /* \"#utility.yul\":2983:2998   */\n      mstore\n        /* \"#utility.yul\":3017:3021   */\n      0x24\n        /* \"#utility.yul\":3014:3015   */\n      0x00\n        /* \"#utility.yul\":3007:3022   */\n      revert\n        /* \"#utility.yul\":3034:3315   */\n    tag_92:\n        /* \"#utility.yul\":3117:3144   */\n      tag_148\n        /* \"#utility.yul\":3139:3143   */\n      dup3\n        /* \"#utility.yul\":3117:3144   */\n      tag_86\n      jump\t// in\n    tag_148:\n        /* \"#utility.yul\":3109:3115   */\n      dup2\n        /* \"#utility.yul\":3105:3145   */\n      add\n        /* \"#utility.yul\":3247:3253   */\n      dup2\n        /* \"#utility.yul\":3235:3245   */\n      dup2\n        /* \"#utility.yul\":3232:3254   */\n      lt\n        /* \"#utility.yul\":3211:3229   */\n      0xffffffffffffffff\n        /* \"#utility.yul\":3199:3209   */\n      dup3\n        /* \"#utility.yul\":3196:3230   */\n      gt\n        /* \"#utility.yul\":3193:3255   */\n      or\n        /* \"#utility.yul\":3190:3278   */\n      iszero\n      tag_149\n      jumpi\n        /* \"#utility.yul\":3258:3276   */\n      tag_150\n      tag_91\n      jump\t// in\n    tag_150:\n        /* \"#utility.yul\":3190:3278   */\n    tag_149:\n        /* \"#utility.yul\":3298:3308   */\n      dup1\n        /* \"#utility.yul\":3294:3296   */\n      0x40\n        /* \"#utility.yul\":3287:3309   */\n      mstore\n        /* \"#utility.yul\":3077:3315   */\n      pop\n        /* \"#utility.yul\":3034:3315   */\n      pop\n      pop\n      jump\t// out\n        /* \"#utility.yul\":3321:3450   */\n    tag_93:\n        /* \"#utility.yul\":3355:3361   */\n      0x00\n        /* \"#utility.yul\":3382:3402   */\n      tag_152\n      tag_77\n      jump\t// in\n    tag_152:\n        /* \"#utility.yul\":3372:3402   */\n      swap1\n      pop\n        /* \"#utility.yul\":3411:3444   */\n      tag_153\n        /* \"#utility.yul\":3439:3443   */\n      dup3\n        /* \"#utility.yul\":3431:3437   */\n      dup3\n        /* \"#utility.yul\":3411:3444   */\n      tag_92\n      jump\t// in\n    tag_153:\n        /* \"#utility.yul\":3321:3450   */\n      swap2\n      swap1\n      pop\n      jump\t// out\n        /* \"#utility.yul\":3456:3763   */\n    tag_94:\n        /* \"#utility.yul\":3517:3521   */\n      0x00\n        /* \"#utility.yul\":3607:3625   */\n      0xffffffffffffffff\n        /* \"#utility.yul\":3599:3605   */\n      dup3\n        /* \"#utility.yul\":3596:3626   */\n      gt\n        /* \"#utility.yul\":3593:3649   */\n      iszero\n      tag_155\n      jumpi\n        /* \"#utility.yul\":3629:3647   */\n      tag_156\n      tag_91\n      jump\t// in\n    tag_156:\n        /* \"#utility.yul\":3593:3649   */\n    tag_155:\n        /* \"#utility.yul\":3667:3696   */\n      tag_157\n        /* \"#utility.yul\":3689:3695   */\n      dup3\n        /* \"#utility.yul\":3667:3696   */\n      tag_86\n      jump\t// in\n    tag_157:\n        /* \"#utility.yul\":3659:3696   */\n      swap1\n      pop\n        /* \"#utility.yul\":3751:3755   */\n      0x20\n        /* \"#utility.yul\":3745:3749   */\n      dup2\n        /* \"#utility.yul\":3741:3756   */\n      add\n        /* \"#utility.yul\":3733:3756   */\n      swap1\n      pop\n        /* \"#utility.yul\":3456:3763   */\n      swap2\n      swap1\n      pop\n      jump\t// out\n        /* \"#utility.yul\":3769:3917   */\n    tag_95:\n        /* \"#utility.yul\":3867:3873   */\n      dup3\n        /* \"#utility.yul\":3862:3865   */\n      dup2\n        /* \"#utility.yul\":3857:3860   */\n      dup4\n        /* \"#utility.yul\":3844:3874   */\n      calldatacopy\n        /* \"#utility.yul\":3908:3909   */\n      0x00\n        /* \"#utility.yul\":3899:3905   */\n      dup4\n        /* \"#utility.yul\":3894:3897   */\n      dup4\n        /* \"#utility.yul\":3890:3906   */\n      add\n        /* \"#utility.yul\":3883:3910   */\n      mstore\n        /* \"#utility.yul\":3769:3917   */\n      pop\n      pop\n      pop\n      jump\t// out\n        /* \"#utility.yul\":3923:4346   */\n    tag_96:\n        /* \"#utility.yul\":4000:4005   */\n      0x00\n        /* \"#utility.yul\":4025:4090   */\n      tag_160\n        /* \"#utility.yul\":4041:4089   */\n      tag_161\n        /* \"#utility.yul\":4082:4088   */\n      dup5\n        /* \"#utility.yul\":4041:4089   */\n      tag_94\n      jump\t// in\n    tag_161:\n        /* \"#utility.yul\":4025:4090   */\n      tag_93\n      jump\t// in\n    tag_160:\n        /* \"#utility.yul\":4016:4090   */\n      swap1\n      pop\n        /* \"#utility.yul\":4113:4119   */\n      dup3\n        /* \"#utility.yul\":4106:4111   */\n      dup2\n        /* \"#utility.yul\":4099:4120   */\n      mstore\n        /* \"#utility.yul\":4151:4155   */\n      0x20\n        /* \"#utility.yul\":4144:4149   */\n      dup2\n        /* \"#utility.yul\":4140:4156   */\n      add\n        /* \"#utility.yul\":4189:4192   */\n      dup5\n        /* \"#utility.yul\":4180:4186   */\n      dup5\n        /* \"#utility.yul\":4175:4178   */\n      dup5\n        /* \"#utility.yul\":4171:4187   */\n      add\n        /* \"#utility.yul\":4168:4193   */\n      gt\n        /* \"#utility.yul\":4165:4277   */\n      iszero\n      tag_162\n      jumpi\n        /* \"#utility.yul\":4196:4275   */\n      tag_163\n      tag_90\n      jump\t// in\n    tag_163:\n        /* \"#utility.yul\":4165:4277   */\n    tag_162:\n        /* \"#utility.yul\":4286:4340   */\n      tag_164\n        /* \"#utility.yul\":4333:4339   */\n      dup5\n        /* \"#utility.yul\":4328:4331   */\n      dup3\n        /* \"#utility.yul\":4323:4326   */\n      dup6\n        /* \"#utility.yul\":4286:4340   */\n      tag_95\n      jump\t// in\n    tag_164:\n        /* \"#utility.yul\":4006:4346   */\n      pop\n        /* \"#utility.yul\":3923:4346   */\n      swap4\n      swap3\n      pop\n      pop\n      pop\n      jump\t// out\n        /* \"#utility.yul\":4365:4703   */\n    tag_97:\n        /* \"#utility.yul\":4420:4425   */\n      0x00\n        /* \"#utility.yul\":4469:4472   */\n      dup3\n        /* \"#utility.yul\":4462:4466   */\n      0x1f\n        /* \"#utility.yul\":4454:4460   */\n      dup4\n        /* \"#utility.yul\":4450:4467   */\n      add\n        /* \"#utility.yul\":4446:4473   */\n      slt\n        /* \"#utility.yul\":4436:4558   */\n      tag_166\n      jumpi\n        /* \"#utility.yul\":4477:4556   */\n      tag_167\n      tag_89\n      jump\t// in\n    tag_167:\n        /* \"#utility.yul\":4436:4558   */\n    tag_166:\n        /* \"#utility.yul\":4594:4600   */\n      dup2\n        /* \"#utility.yul\":4581:4601   */\n      calldataload\n        /* \"#utility.yul\":4619:4697   */\n      tag_168\n        /* \"#utility.yul\":4693:4696   */\n      dup5\n        /* \"#utility.yul\":4685:4691   */\n      dup3\n        /* \"#utility.yul\":4678:4682   */\n      0x20\n        /* \"#utility.yul\":4670:4676   */\n      dup7\n        /* \"#utility.yul\":4666:4683   */\n      add\n        /* \"#utility.yul\":4619:4697   */\n      tag_96\n      jump\t// in\n    tag_168:\n        /* \"#utility.yul\":4610:4697   */\n      swap2\n      pop\n        /* \"#utility.yul\":4426:4703   */\n      pop\n        /* \"#utility.yul\":4365:4703   */\n      swap3\n      swap2\n      pop\n      pop\n      jump\t// out\n        /* \"#utility.yul\":4709:5216   */\n    tag_24:\n        /* \"#utility.yul\":4777:4783   */\n      0x00\n        /* \"#utility.yul\":4826:4828   */\n      0x20\n        /* \"#utility.yul\":4814:4823   */\n      dup3\n        /* \"#utility.yul\":4805:4812   */\n      dup5\n        /* \"#utility.yul\":4801:4824   */\n      sub\n        /* \"#utility.yul\":4797:4829   */\n      slt\n        /* \"#utility.yul\":4794:4913   */\n      iszero\n      tag_170\n      jumpi\n        /* \"#utility.yul\":4832:4911   */\n      tag_171\n      tag_78\n      jump\t// in\n    tag_171:\n        /* \"#utility.yul\":4794:4913   */\n    tag_170:\n        /* \"#utility.yul\":4980:4981   */\n      0x00\n        /* \"#utility.yul\":4969:4978   */\n      dup3\n        /* \"#utility.yul\":4965:4982   */\n      add\n        /* \"#utility.yul\":4952:4983   */\n      calldataload\n        /* \"#utility.yul\":5010:5028   */\n      0xffffffffffffffff\n        /* \"#utility.yul\":5002:5008   */\n      dup2\n        /* \"#utility.yul\":4999:5029   */\n      gt\n        /* \"#utility.yul\":4996:5113   */\n      iszero\n      tag_172\n      jumpi\n        /* \"#utility.yul\":5032:5111   */\n      tag_173\n      tag_79\n      jump\t// in\n    tag_173:\n        /* \"#utility.yul\":4996:5113   */\n    tag_172:\n        /* \"#utility.yul\":5137:5199   */\n      tag_174\n        /* \"#utility.yul\":5191:5198   */\n      dup5\n        /* \"#utility.yul\":5182:5188   */\n      dup3\n        /* \"#utility.yul\":5171:5180   */\n      dup6\n        /* \"#utility.yul\":5167:5189   */\n      add\n        /* \"#utility.yul\":5137:5199   */\n      tag_97\n      jump\t// in\n    tag_174:\n        /* \"#utility.yul\":5127:5199   */\n      swap2\n      pop\n        /* \"#utility.yul\":4923:5209   */\n      pop\n        /* \"#utility.yul\":4709:5216   */\n      swap3\n      swap2\n      pop\n      pop\n      jump\t// out\n        /* \"#utility.yul\":5222:5402   */\n    tag_98:\n        /* \"#utility.yul\":5270:5347   */\n      0x4e487b7100000000000000000000000000000000000000000000000000000000\n        /* \"#utility.yul\":5267:5268   */\n      0x00\n        /* \"#utility.yul\":5260:5348   */\n      mstore\n        /* \"#utility.yul\":5367:5371   */\n      0x22\n        /* \"#utility.yul\":5364:5365   */\n      0x04\n        /* \"#utility.yul\":5357:5372   */\n      mstore\n        /* \"#utility.yul\":5391:5395   */\n      0x24\n        /* \"#utility.yul\":5388:5389   */\n      0x00\n        /* \"#utility.yul\":5381:5396   */\n      revert\n        /* \"#utility.yul\":5408:5728   */\n    tag_47:\n        /* \"#utility.yul\":5452:5458   */\n      0x00\n        /* \"#utility.yul\":5489:5490   */\n      0x02\n        /* \"#utility.yul\":5483:5487   */\n      dup3\n        /* \"#utility.yul\":5479:5491   */\n      div\n        /* \"#utility.yul\":5469:5491   */\n      swap1\n      pop\n        /* \"#utility.yul\":5536:5537   */\n      0x01\n        /* \"#utility.yul\":5530:5534   */\n      dup3\n        /* \"#utility.yul\":5526:5538   */\n      and\n        /* \"#utility.yul\":5557:5575   */\n      dup1\n        /* \"#utility.yul\":5547:5628   */\n      tag_177\n      jumpi\n        /* \"#utility.yul\":5613:5617   */\n      0x7f\n        /* \"#utility.yul\":5605:5611   */\n      dup3\n        /* \"#utility.yul\":5601:5618   */\n      and\n        /* \"#utility.yul\":5591:5618   */\n      swap2\n      pop\n        /* \"#utility.yul\":5547:5628   */\n    tag_177:\n        /* \"#utility.yul\":5675:5677   */\n      0x20\n        /* \"#utility.yul\":5667:5673   */\n      dup3\n        /* \"#utility.yul\":5664:5678   */\n      lt\n        /* \"#utility.yul\":5644:5662   */\n      dup2\n        /* \"#utility.yul\":5641:5679   */\n      sub\n        /* \"#utility.yul\":5638:5722   */\n      tag_178\n      jumpi\n        /* \"#utility.yul\":5694:5712   */\n      tag_179\n      tag_98\n      jump\t// in\n    tag_179:\n        /* \"#utility.yul\":5638:5722   */\n    tag_178:\n        /* \"#utility.yul\":5459:5728   */\n      pop\n        /* \"#utility.yul\":5408:5728   */\n      swap2\n      swap1\n      pop\n      jump\t// out\n        /* \"#utility.yul\":5734:5874   */\n    tag_99:\n        /* \"#utility.yul\":5782:5786   */\n      0x00\n        /* \"#utility.yul\":5805:5808   */\n      dup2\n        /* \"#utility.yul\":5797:5808   */\n      swap1\n      pop\n        /* \"#utility.yul\":5828:5831   */\n      dup2\n        /* \"#utility.yul\":5825:5826   */\n      0x00\n        /* \"#utility.yul\":5818:5832   */\n      mstore\n        /* \"#utility.yul\":5862:5866   */\n      0x20\n        /* \"#utility.yul\":5859:5860   */\n      0x00\n        /* \"#utility.yul\":5849:5867   */\n      keccak256\n        /* \"#utility.yul\":5841:5867   */\n      swap1\n      pop\n        /* \"#utility.yul\":5734:5874   */\n      swap2\n      swap1\n      pop\n      jump\t// out\n        /* \"#utility.yul\":5880:5973   */\n    tag_100:\n        /* \"#utility.yul\":5917:5923   */\n      0x00\n        /* \"#utility.yul\":5964:5966   */\n      0x20\n        /* \"#utility.yul\":5959:5961   */\n      0x1f\n        /* \"#utility.yul\":5952:5957   */\n      dup4\n        /* \"#utility.yul\":5948:5962   */\n      add\n        /* \"#utility.yul\":5944:5967   */\n      div\n        /* \"#utility.yul\":5934:5967   */\n      swap1\n      pop\n        /* \"#utility.yul\":5880:5973   */\n      swap2\n      swap1\n      pop\n      jump\t// out\n        /* \"#utility.yul\":5979:6086   */\n    tag_101:\n        /* \"#utility.yul\":6023:6031   */\n      0x00\n        /* \"#utility.yul\":6073:6078   */\n      dup3\n        /* \"#utility.yul\":6067:6071   */\n      dup3\n        /* \"#utility.yul\":6063:6079   */\n      shl\n        /* \"#utility.yul\":6042:6079   */\n      swap1\n      pop\n        /* \"#utility.yul\":5979:6086   */\n      swap3\n      swap2\n      pop\n      pop\n      jump\t// out\n        /* \"#utility.yul\":6092:6485   */\n    tag_102:\n        /* \"#utility.yul\":6161:6167   */\n      0x00\n        /* \"#utility.yul\":6211:6212   */\n      0x08\n        /* \"#utility.yul\":6199:6209   */\n      dup4\n        /* \"#utility.yul\":6195:6213   */\n      mul\n        /* \"#utility.yul\":6234:6331   */\n      tag_184\n        /* \"#utility.yul\":6264:6330   */\n      0xffffffffffffffffffffffffffffffffffffffffffffffffffffffffffffffff\n        /* \"#utility.yul\":6253:6262   */\n      dup3\n        /* \"#utility.yul\":6234:6331   */\n      tag_101\n      jump\t// in\n    tag_184:\n        /* \"#utility.yul\":6352:6391   */\n      tag_185\n        /* \"#utility.yul\":6382:6390   */\n      dup7\n        /* \"#utility.yul\":6371:6380   */\n      dup4\n        /* \"#utility.yul\":6352:6391   */\n      tag_101\n      jump\t// in\n    tag_185:\n        /* \"#utility.yul\":6340:6391   */\n      swap6\n      pop\n        /* \"#utility.yul\":6424:6428   */\n      dup1\n        /* \"#utility.yul\":6420:6429   */\n      not\n        /* \"#utility.yul\":6413:6418   */\n      dup5\n        /* \"#utility.yul\":6409:6430   */\n      and\n        /* \"#utility.yul\":6400:6430   */\n      swap4\n      pop\n        /* \"#utility.yul\":6473:6477   */\n      dup1\n        /* \"#utility.yul\":6463:6471   */\n      dup7\n        /* \"#utility.yul\":6459:6478   */\n      and\n        /* \"#utility.yul\":6452:6457   */\n      dup5\n        /* \"#utility.yul\":6449:6479   */\n      or\n        /* \"#utility.yul\":6439:6479   */\n      swap3\n      pop\n        /* \"#utility.yul\":6168:6485   */\n      pop\n      pop\n        /* \"#utility.yul\":6092:6485   */\n      swap4\n      swap3\n      pop\n      pop\n      pop\n      jump\t// out\n        /* \"#utility.yul\":6491:6551   */\n    tag_103:\n        /* \"#utility.yul\":6519:6522   */\n      0x00\n        /* \"#utility.yul\":6540:6545   */\n      dup2\n        /* \"#utility.yul\":6533:6545   */\n      swap1\n      pop\n        /* \"#utility.yul\":6491:6551   */\n      swap2\n      swap1\n      pop\n      jump\t// out\n        /* \"#utility.yul\":6557:6699   */\n    tag_104:\n        /* \"#utility.yul\":6607:6616   */\n      0x00\n        /* \"#utility.yul\":6640:6693   */\n      tag_188\n        /* \"#utility.yul\":6658:6692   */\n      tag_189\n        /* \"#utility.yul\":6667:6691   */\n      tag_190\n        /* \"#utility.yul\":6685:6690   */\n      dup5\n        /* \"#utility.yul\":6667:6691   */\n      tag_80\n      jump\t// in\n    tag_190:\n        /* \"#utility.yul\":6658:6692   */\n      tag_103\n      jump\t// in\n    tag_189:\n        /* \"#utility.yul\":6640:6693   */\n      tag_80\n      jump\t// in\n    tag_188:\n        /* \"#utility.yul\":6627:6693   */\n      swap1\n      pop\n        /* \"#utility.yul\":6557:6699   */\n      swap2\n      swap1\n      pop\n      jump\t// out\n        /* \"#utility.yul\":6705:6780   */\n    tag_105:\n        /* \"#utility.yul\":6748:6751   */\n      0x00\n        /* \"#utility.yul\":6769:6774   */\n      dup2\n        /* \"#utility.yul\":6762:6774   */\n      swap1\n      pop\n        /* \"#utility.yul\":6705:6780   */\n      swap2\n      swap1\n      pop\n      jump\t// out\n        /* \"#utility.yul\":6786:7055   */\n    tag_106:\n        /* \"#utility.yul\":6896:6935   */\n      tag_193\n        /* \"#utility.yul\":6927:6934   */\n      dup4\n        /* \"#utility.yul\":6896:6935   */\n      tag_104\n      jump\t// in\n    tag_193:\n        /* \"#utility.yul\":6957:7048   */\n      tag_194\n        /* \"#utility.yul\":7006:7047   */\n      tag_195\n        /* \"#utility.yul\":7030:7046   */\n      dup3\n        /* \"#utility.yul\":7006:7047   */\n      tag_105\n      jump\t// in\n    tag_195:\n        /* \"#utility.yul\":6998:7004   */\n      dup5\n        /* \"#utility.yul\":6991:6995   */\n      dup5\n        /* \"#utility.yul\":6985:6996   */\n      sload\n        /* \"#utility.yul\":6957:7048   */\n      tag_102\n      jump\t// in\n    tag_194:\n        /* \"#utility.yul\":6951:6955   */\n      dup3\n        /* \"#utility.yul\":6944:7049   */\n      sstore\n        /* \"#utility.yul\":6862:7055   */\n      pop\n        /* \"#utility.yul\":6786:7055   */\n      pop\n      pop\n      pop\n      jump\t// out\n        /* \"#utility.yul\":7061:7134   */\n    tag_107:\n        /* \"#utility.yul\":7106:7109   */\n      0x00\n        /* \"#utility.yul\":7061:7134   */\n      swap1\n      jump\t// out\n        /* \"#utility.yul\":7140:7329   */\n    tag_108:\n        /* \"#utility.yul\":7217:7249   */\n      tag_198\n      tag_107\n      jump\t// in\n    tag_198:\n        /* \"#utility.yul\":7258:7323   */\n      tag_199\n        /* \"#utility.yul\":7316:7322   */\n      dup2\n        /* \"#utility.yul\":7308:7314   */\n      dup5\n        /* \"#utility.yul\":7302:7306   */\n      dup5\n        /* \"#utility.yul\":7258:7323   */\n      tag_106\n      jump\t// in\n    tag_199:\n        /* \"#utility.yul\":7193:7329   */\n      pop\n        /* \"#utility.yul\":7140:7329   */\n      pop\n      pop\n      jump\t// out\n        /* \"#utility.yul\":7335:7521   */\n    tag_109:\n        /* \"#utility.yul\":7395:7515   */\n    tag_201:\n        /* \"#utility.yul\":7412:7415   */\n      dup2\n        /* \"#utility.yul\":7405:7410   */\n      dup2\n        /* \"#utility.yul\":7402:7416   */\n      lt\n        /* \"#utility.yul\":7395:7515   */\n      iszero\n      tag_203\n      jumpi\n        /* \"#utility.yul\":7466:7505   */\n      tag_204\n        /* \"#utility.yul\":7503:7504   */\n      0x00\n        /* \"#utility.yul\":7496:7501   */\n      dup3\n        /* \"#utility.yul\":7466:7505   */\n      tag_108\n      jump\t// in\n    tag_204:\n        /* \"#utility.yul\":7439:7440   */\n      0x01\n        /* \"#utility.yul\":7432:7437   */\n      dup2\n        /* \"#utility.yul\":7428:7441   */\n      add\n        /* \"#utility.yul\":7419:7441   */\n      swap1\n      pop\n        /* \"#utility.yul\":7395:7515   */\n      jump(tag_201)\n    tag_203:\n        /* \"#utility.yul\":7335:7521   */\n      pop\n      pop\n      jump\t// out\n        /* \"#utility.yul\":7527:8068   */\n    tag_110:\n        /* \"#utility.yul\":7627:7629   */\n      0x1f\n        /* \"#utility.yul\":7622:7625   */\n      dup3\n        /* \"#utility.yul\":7619:7630   */\n      gt\n        /* \"#utility.yul\":7616:8061   */\n      iszero\n      tag_206\n      jumpi\n        /* \"#utility.yul\":7661:7698   */\n      tag_207\n        /* \"#utility.yul\":7692:7697   */\n      dup2\n        /* \"#utility.yul\":7661:7698   */\n      tag_99\n      jump\t// in\n    tag_207:\n        /* \"#utility.yul\":7744:7773   */\n      tag_208\n        /* \"#utility.yul\":7762:7772   */\n      dup5\n        /* \"#utility.yul\":7744:7773   */\n      tag_100\n      jump\t// in\n    tag_208:\n        /* \"#utility.yul\":7734:7742   */\n      dup2\n        /* \"#utility.yul\":7730:7774   */\n      add\n        /* \"#utility.yul\":7927:7929   */\n      0x20\n        /* \"#utility.yul\":7915:7925   */\n      dup6\n        /* \"#utility.yul\":7912:7930   */\n      lt\n        /* \"#utility.yul\":7909:7958   */\n      iszero\n      tag_209\n      jumpi\n        /* \"#utility.yul\":7948:7956   */\n      dup2\n        /* \"#utility.yul\":7933:7956   */\n      swap1\n      pop\n        /* \"#utility.yul\":7909:7958   */\n    tag_209:\n        /* \"#utility.yul\":7971:8051   */\n      tag_210\n        /* \"#utility.yul\":8027:8049   */\n      tag_211\n        /* \"#utility.yul\":8045:8048   */\n      dup6\n        /* \"#utility.yul\":8027:8049   */\n      tag_100\n      jump\t// in\n    tag_211:\n        /* \"#utility.yul\":8017:8025   */\n      dup4\n        /* \"#utility.yul\":8013:8050   */\n      add\n        /* \"#utility.yul\":8000:8011   */\n      dup3\n        /* \"#utility.yul\":7971:8051   */\n      tag_109\n      jump\t// in\n    tag_210:\n        /* \"#utility.yul\":7631:8061   */\n      pop\n      pop\n        /* \"#utility.yul\":7616:8061   */\n    tag_206:\n        /* \"#utility.yul\":7527:8068   */\n      pop\n      pop\n      pop\n      jump\t// out\n        /* \"#utility.yul\":8074:8191   */\n    tag_111:\n        /* \"#utility.yul\":8128:8136   */\n      0x00\n        /* \"#utility.yul\":8178:8183   */\n      dup3\n        /* \"#utility.yul\":8172:8176   */\n      dup3\n        /* \"#utility.yul\":8168:8184   */\n      shr\n        /* \"#utility.yul\":8147:8184   */\n      swap1\n      pop\n        /* \"#utility.yul\":8074:8191   */\n      swap3\n      swap2\n      pop\n      pop\n      jump\t// out\n        /* \"#utility.yul\":8197:8366   */\n    tag_112:\n        /* \"#utility.yul\":8241:8247   */\n      0x00\n        /* \"#utility.yul\":8274:8325   */\n      tag_214\n        /* \"#utility.yul\":8322:8323   */\n      0x00\n        /* \"#utility.yul\":8318:8324   */\n      not\n        /* \"#utility.yul\":8310:8315   */\n      dup5\n        /* \"#utility.yul\":8307:8308   */\n      0x08\n        /* \"#utility.yul\":8303:8316   */\n      mul\n        /* \"#utility.yul\":8274:8325   */\n      tag_111\n      jump\t// in\n    tag_214:\n        /* \"#utility.yul\":8270:8326   */\n      not\n        /* \"#utility.yul\":8355:8359   */\n      dup1\n        /* \"#utility.yul\":8349:8353   */\n      dup4\n        /* \"#utility.yul\":8345:8360   */\n      and\n        /* \"#utility.yul\":8335:8360   */\n      swap2\n      pop\n        /* \"#utility.yul\":8248:8366   */\n      pop\n        /* \"#utility.yul\":8197:8366   */\n      swap3\n      swap2\n      pop\n      pop\n      jump\t// out\n        /* \"#utility.yul\":8371:8666   */\n    tag_113:\n        /* \"#utility.yul\":8447:8451   */\n      0x00\n        /* \"#utility.yul\":8593:8622   */\n      tag_216\n        /* \"#utility.yul\":8618:8621   */\n      dup4\n        /* \"#utility.yul\":8612:8616   */\n      dup4\n        /* \"#utility.yul\":8593:8622   */\n      tag_112\n      jump\t// in\n    tag_216:\n        /* \"#utility.yul\":8585:8622   */\n      swap2\n      pop\n        /* \"#utility.yul\":8655:8658   */\n      dup3\n        /* \"#utility.yul\":8652:8653   */\n      0x02\n        /* \"#utility.yul\":8648:8659   */\n      mul\n        /* \"#utility.yul\":8642:8646   */\n      dup3\n        /* \"#utility.yul\":8639:8660   */\n      or\n        /* \"#utility.yul\":8631:8660   */\n      swap1\n      pop\n        /* \"#utility.yul\":8371:8666   */\n      swap3\n      swap2\n      pop\n      pop\n      jump\t// out\n        /* \"#utility.yul\":8671:10061   */\n    tag_54:\n        /* \"#utility.yul\":8786:8822   */\n      tag_218\n        /* \"#utility.yul\":8818:8821   */\n      dup3\n        /* \"#utility.yul\":8786:8822   */\n      tag_83\n      jump\t// in\n    tag_218:\n        /* \"#utility.yul\":8887:8905   */\n      0xffffffffffffffff\n        /* \"#utility.yul\":8879:8885   */\n      dup2\n        /* \"#utility.yul\":8876:8906   */\n      gt\n        /* \"#utility.yul\":8873:8929   */\n      iszero\n      tag_219\n      jumpi\n        /* \"#utility.yul\":8909:8927   */\n      tag_220\n      tag_91\n      jump\t// in\n    tag_220:\n        /* \"#utility.yul\":8873:8929   */\n    tag_219:\n        /* \"#utility.yul\":8953:8991   */\n      tag_221\n        /* \"#utility.yul\":8985:8989   */\n      dup3\n        /* \"#utility.yul\":8979:8990   */\n      sload\n        /* \"#utility.yul\":8953:8991   */\n      tag_47\n      jump\t// in\n    tag_221:\n        /* \"#utility.yul\":9038:9104   */\n      tag_222\n        /* \"#utility.yul\":9097:9103   */\n      dup3\n        /* \"#utility.yul\":9089:9095   */\n      dup3\n        /* \"#utility.yul\":9083:9087   */\n      dup6\n        /* \"#utility.yul\":9038:9104   */\n      tag_110\n      jump\t// in\n    tag_222:\n        /* \"#utility.yul\":9131:9132   */\n      0x00\n        /* \"#utility.yul\":9155:9159   */\n      0x20\n        /* \"#utility.yul\":9142:9159   */\n      swap1\n      pop\n        /* \"#utility.yul\":9187:9189   */\n      0x1f\n        /* \"#utility.yul\":9179:9185   */\n      dup4\n        /* \"#utility.yul\":9176:9190   */\n      gt\n        /* \"#utility.yul\":9204:9205   */\n      0x01\n        /* \"#utility.yul\":9199:9816   */\n      dup2\n      eq\n      tag_224\n      jumpi\n        /* \"#utility.yul\":9860:9861   */\n      0x00\n        /* \"#utility.yul\":9877:9883   */\n      dup5\n        /* \"#utility.yul\":9874:9951   */\n      iszero\n      tag_225\n      jumpi\n        /* \"#utility.yul\":9926:9935   */\n      dup3\n        /* \"#utility.yul\":9921:9924   */\n      dup8\n        /* \"#utility.yul\":9917:9936   */\n      add\n        /* \"#utility.yul\":9911:9937   */\n      mload\n        /* \"#utility.yul\":9902:9937   */\n      swap1\n      pop\n        /* \"#utility.yul\":9874:9951   */\n    tag_225:\n        /* \"#utility.yul\":9977:10044   */\n      tag_226\n        /* \"#utility.yul\":10037:10043   */\n      dup6\n        /* \"#utility.yul\":10030:10035   */\n      dup3\n        /* \"#utility.yul\":9977:10044   */\n      tag_113\n      jump\t// in\n    tag_226:\n        /* \"#utility.yul\":9971:9975   */\n      dup7\n        /* \"#utility.yul\":9964:10045   */\n      sstore\n        /* \"#utility.yul\":9833:10055   */\n      pop\n        /* \"#utility.yul\":9169:10055   */\n      jump(tag_223)\n        /* \"#utility.yul\":9199:9816   */\n    tag_224:\n        /* \"#utility.yul\":9251:9255   */\n      0x1f\n        /* \"#utility.yul\":9247:9256   */\n      not\n        /* \"#utility.yul\":9239:9245   */\n      dup5\n        /* \"#utility.yul\":9235:9257   */\n      and\n        /* \"#utility.yul\":9285:9321   */\n      tag_227\n        /* \"#utility.yul\":9316:9320   */\n      dup7\n        /* \"#utility.yul\":9285:9321   */\n      tag_99\n      jump\t// in\n    tag_227:\n        /* \"#utility.yul\":9343:9344   */\n      0x00\n        /* \"#utility.yul\":9357:9565   */\n    tag_228:\n        /* \"#utility.yul\":9371:9378   */\n      dup3\n        /* \"#utility.yul\":9368:9369   */\n      dup2\n        /* \"#utility.yul\":9365:9379   */\n      lt\n        /* \"#utility.yul\":9357:9565   */\n      iszero\n      tag_230\n      jumpi\n        /* \"#utility.yul\":9450:9459   */\n      dup5\n        /* \"#utility.yul\":9445:9448   */\n      dup10\n        /* \"#utility.yul\":9441:9460   */\n      add\n        /* \"#utility.yul\":9435:9461   */\n      mload\n        /* \"#utility.yul\":9427:9433   */\n      dup3\n        /* \"#utility.yul\":9420:9462   */\n      sstore\n        /* \"#utility.yul\":9501:9502   */\n      0x01\n        /* \"#utility.yul\":9493:9499   */\n      dup3\n        /* \"#utility.yul\":9489:9503   */\n      add\n        /* \"#utility.yul\":9479:9503   */\n      swap2\n      pop\n        /* \"#utility.yul\":9548:9550   */\n      0x20\n        /* \"#utility.yul\":9537:9546   */\n      dup6\n        /* \"#utility.yul\":9533:9551   */\n      add\n        /* \"#utility.yul\":9520:9551   */\n      swap5\n      pop\n        /* \"#utility.yul\":9394:9398   */\n      0x20\n        /* \"#utility.yul\":9391:9392   */\n      dup2\n        /* \"#utility.yul\":9387:9399   */\n      add\n        /* \"#utility.yul\":9382:9399   */\n      swap1\n      pop\n        /* \"#utility.yul\":9357:9565   */\n      jump(tag_228)\n    tag_230:\n        /* \"#utility.yul\":9593:9599   */\n      dup7\n        /* \"#utility.yul\":9584:9591   */\n      dup4\n        /* \"#utility.yul\":9581:9600   */\n      lt\n        /* \"#utility.yul\":9578:9757   */\n      iszero\n      tag_231\n      jumpi\n        /* \"#utility.yul\":9651:9660   */\n      dup5\n        /* \"#utility.yul\":9646:9649   */\n      dup10\n        /* \"#utility.yul\":9642:9661   */\n      add\n        /* \"#utility.yul\":9636:9662   */\n      mload\n        /* \"#utility.yul\":9694:9742   */\n      tag_232\n        /* \"#utility.yul\":9736:9740   */\n      0x1f\n        /* \"#utility.yul\":9728:9734   */\n      dup10\n        /* \"#utility.yul\":9724:9741   */\n      and\n        /* \"#utility.yul\":9713:9722   */\n      dup3\n        /* \"#utility.yul\":9694:9742   */\n      tag_112\n      jump\t// in\n    tag_232:\n        /* \"#utility.yul\":9686:9692   */\n      dup4\n        /* \"#utility.yul\":9679:9743   */\n      sstore\n        /* \"#utility.yul\":9601:9757   */\n      pop\n        /* \"#utility.yul\":9578:9757   */\n    tag_231:\n        /* \"#utility.yul\":9803:9804   */\n      0x01\n        /* \"#utility.yul\":9799:9800   */\n      0x02\n        /* \"#utility.yul\":9791:9797   */\n      dup9\n        /* \"#utility.yul\":9787:9801   */\n      mul\n        /* \"#utility.yul\":9783:9805   */\n      add\n        /* \"#utility.yul\":9777:9781   */\n      dup9\n        /* \"#utility.yul\":9770:9806   */\n      sstore\n        /* \"#utility.yul\":9206:9816   */\n      pop\n      pop\n      pop\n        /* \"#utility.yul\":9169:10055   */\n    tag_223:\n      pop\n        /* \"#utility.yul\":8761:10061   */\n      pop\n      pop\n      pop\n        /* \"#utility.yul\":8671:10061   */\n      pop\n      pop\n      jump\t// out\n        /* \"#utility.yul\":10067:10247   */\n    tag_114:\n        /* \"#utility.yul\":10115:10192   */\n      0x4e487b7100000000000000000000000000000000000000000000000000000000\n        /* \"#utility.yul\":10112:10113   */\n      0x00\n        /* \"#utility.yul\":10105:10193   */\n      mstore\n        /* \"#utility.yul\":10212:10216   */\n      0x11\n        /* \"#utility.yul\":10209:10210   */\n      0x04\n        /* \"#utility.yul\":10202:10217   */\n      mstore\n        /* \"#utility.yul\":10236:10240   */\n      0x24\n        /* \"#utility.yul\":10233:10234   */\n      0x00\n        /* \"#utility.yul\":10226:10241   */\n      revert\n        /* \"#utility.yul\":10253:10486   */\n    tag_56:\n        /* \"#utility.yul\":10292:10295   */\n      0x00\n        /* \"#utility.yul\":10315:10339   */\n      tag_235\n        /* \"#utility.yul\":10333:10338   */\n      dup3\n        /* \"#utility.yul\":10315:10339   */\n      tag_80\n      jump\t// in\n    tag_235:\n        /* \"#utility.yul\":10306:10339   */\n      swap2\n      pop\n        /* \"#utility.yul\":10361:10427   */\n      0xffffffffffffffffffffffffffffffffffffffffffffffffffffffffffffffff\n        /* \"#utility.yul\":10354:10359   */\n      dup3\n        /* \"#utility.yul\":10351:10428   */\n      sub\n        /* \"#utility.yul\":10348:10451   */\n      tag_236\n      jumpi\n        /* \"#utility.yul\":10431:10449   */\n      tag_237\n      tag_114\n      jump\t// in\n    tag_237:\n        /* \"#utility.yul\":10348:10451   */\n    tag_236:\n        /* \"#utility.yul\":10478:10479   */\n      0x01\n        /* \"#utility.yul\":10471:10476   */\n      dup3\n        /* \"#utility.yul\":10467:10480   */\n      add\n        /* \"#utility.yul\":10460:10480   */\n      swap1\n      pop\n        /* \"#utility.yul\":10253:10486   */\n      swap2\n      swap1\n      pop\n      jump\t// out\n\n    auxdata: 0xa264697066735822122058efb1b0f0e482c4514449d9bb0e8dc8705241d086a1f6fdc355dfed5c7e864b64736f6c634300081a0033\n}\n",
				"bytecode": {
					"linkReferences": {},
					"object": "6080604052600160025560016003553480156018575f80fd5b50610b04806100265f395ff3fe608060405234801561000f575f80fd5b5060043610610086575f3560e01c80638b0a7d9c116100595780638b0a7d9c14610138578063b2a78fa314610168578063b6c58e0a14610186578063f089a0ad146101b657610086565b80631421c7641461008a5780631cbdf910146100ba5780636a2a642d146100d857806377431ba014610108575b5f80fd5b6100a4600480360381019061009f919061053b565b6101e6565b6040516100b191906105d6565b60405180910390f35b6100c2610281565b6040516100cf9190610605565b60405180910390f35b6100f260048036038101906100ed919061074a565b610287565b6040516100ff9190610605565b60405180910390f35b610122600480360381019061011d919061053b565b6102cf565b60405161012f91906105d6565b60405180910390f35b610152600480360381019061014d919061053b565b610370565b60405161015f91906105d6565b60405180910390f35b610170610410565b60405161017d9190610605565b60405180910390f35b6101a0600480360381019061019b919061074a565b610416565b6040516101ad9190610605565b60405180910390f35b6101d060048036038101906101cb919061053b565b61045d565b6040516101dd91906105d6565b60405180910390f35b6001602052805f5260405f205f915090508054610202906107be565b80601f016020809104026020016040519081016040528092919081815260200182805461022e906107be565b80156102795780601f1061025057610100808354040283529160200191610279565b820191905f5260205f20905b81548152906001019060200180831161025c57829003601f168201915b505050505081565b60035481565b5f8160015f60035481526020019081526020015f2090816102a8919061098b565b505f600354905060035f8154809291906102c190610a87565b919050555080915050919050565b606060015f8381526020019081526020015f2080546102ed906107be565b80601f0160208091040260200160405190810160405280929190818152602001828054610319906107be565b80156103645780601f1061033b57610100808354040283529160200191610364565b820191905f5260205f20905b81548152906001019060200180831161034757829003601f168201915b50505050509050919050565b60605f808381526020019081526020015f20805461038d906107be565b80601f01602080910402602001604051908101604052809291908181526020018280546103b9906107be565b80156104045780601f106103db57610100808354040283529160200191610404565b820191905f5260205f20905b8154815290600101906020018083116103e757829003601f168201915b50505050509050919050565b60025481565b5f815f8060025481526020019081526020015f209081610436919061098b565b505f600254905060025f81548092919061044f90610a87565b919050555080915050919050565b5f602052805f5260405f205f915090508054610478906107be565b80601f01602080910402602001604051908101604052809291908181526020018280546104a4906107be565b80156104ef5780601f106104c6576101008083540402835291602001916104ef565b820191905f5260205f20905b8154815290600101906020018083116104d257829003601f168201915b505050505081565b5f604051905090565b5f80fd5b5f80fd5b5f819050919050565b61051a81610508565b8114610524575f80fd5b50565b5f8135905061053581610511565b92915050565b5f602082840312156105505761054f610500565b5b5f61055d84828501610527565b91505092915050565b5f81519050919050565b5f82825260208201905092915050565b8281835e5f83830152505050565b5f601f19601f8301169050919050565b5f6105a882610566565b6105b28185610570565b93506105c2818560208601610580565b6105cb8161058e565b840191505092915050565b5f6020820190508181035f8301526105ee818461059e565b905092915050565b6105ff81610508565b82525050565b5f6020820190506106185f8301846105f6565b92915050565b5f80fd5b5f80fd5b7f4e487b71000000000000000000000000000000000000000000000000000000005f52604160045260245ffd5b61065c8261058e565b810181811067ffffffffffffffff8211171561067b5761067a610626565b5b80604052505050565b5f61068d6104f7565b90506106998282610653565b919050565b5f67ffffffffffffffff8211156106b8576106b7610626565b5b6106c18261058e565b9050602081019050919050565b828183375f83830152505050565b5f6106ee6106e98461069e565b610684565b90508281526020810184848401111561070a57610709610622565b5b6107158482856106ce565b509392505050565b5f82601f8301126107315761073061061e565b5b81356107418482602086016106dc565b91505092915050565b5f6020828403121561075f5761075e610500565b5b5f82013567ffffffffffffffff81111561077c5761077b610504565b5b6107888482850161071d565b91505092915050565b7f4e487b71000000000000000000000000000000000000000000000000000000005f52602260045260245ffd5b5f60028204905060018216806107d557607f821691505b6020821081036107e8576107e7610791565b5b50919050565b5f819050815f5260205f209050919050565b5f6020601f8301049050919050565b5f82821b905092915050565b5f6008830261084a7fffffffffffffffffffffffffffffffffffffffffffffffffffffffffffffffff8261080f565b610854868361080f565b95508019841693508086168417925050509392505050565b5f819050919050565b5f61088f61088a61088584610508565b61086c565b610508565b9050919050565b5f819050919050565b6108a883610875565b6108bc6108b482610896565b84845461081b565b825550505050565b5f90565b6108d06108c4565b6108db81848461089f565b505050565b5b818110156108fe576108f35f826108c8565b6001810190506108e1565b5050565b601f82111561094357610914816107ee565b61091d84610800565b8101602085101561092c578190505b61094061093885610800565b8301826108e0565b50505b505050565b5f82821c905092915050565b5f6109635f1984600802610948565b1980831691505092915050565b5f61097b8383610954565b9150826002028217905092915050565b61099482610566565b67ffffffffffffffff8111156109ad576109ac610626565b5b6109b782546107be565b6109c2828285610902565b5f60209050601f8311600181146109f3575f84156109e1578287015190505b6109eb8582610970565b865550610a52565b601f198416610a01866107ee565b5f5b82811015610a2857848901518255600182019150602085019450602081019050610a03565b86831015610a455784890151610a41601f891682610954565b8355505b6001600288020188555050505b505050505050565b7f4e487b71000000000000000000000000000000000000000000000000000000005f52601160045260245ffd5b5f610a9182610508565b91507fffffffffffffffffffffffffffffffffffffffffffffffffffffffffffffffff8203610ac357610ac2610a5a565b5b60018201905091905056fea264697066735822122058efb1b0f0e482c4514449d9bb0e8dc8705241d086a1f6fdc355dfed5c7e864b64736f6c634300081a0033",
					"opcodes": "PUSH1 0x80 PUSH1 0x40 MSTORE PUSH1 0x1 PUSH1 0x2 SSTORE PUSH1 0x1 PUSH1 0x3 SSTORE CALLVALUE DUP1 ISZERO PUSH1 0x18 JUMPI PUSH0 DUP1 REVERT JUMPDEST POP PUSH2 0xB04 DUP1 PUSH2 0x26 PUSH0 CODECOPY PUSH0 RETURN INVALID PUSH1 0x80 PUSH1 0x40 MSTORE CALLVALUE DUP1 ISZERO PUSH2 0xF JUMPI PUSH0 DUP1 REVERT JUMPDEST POP PUSH1 0x4 CALLDATASIZE LT PUSH2 0x86 JUMPI PUSH0 CALLDATALOAD PUSH1 0xE0 SHR DUP1 PUSH4 0x8B0A7D9C GT PUSH2 0x59 JUMPI DUP1 PUSH4 0x8B0A7D9C EQ PUSH2 0x138 JUMPI DUP1 PUSH4 0xB2A78FA3 EQ PUSH2 0x168 JUMPI DUP1 PUSH4 0xB6C58E0A EQ PUSH2 0x186 JUMPI DUP1 PUSH4 0xF089A0AD EQ PUSH2 0x1B6 JUMPI PUSH2 0x86 JUMP JUMPDEST DUP1 PUSH4 0x1421C764 EQ PUSH2 0x8A JUMPI DUP1 PUSH4 0x1CBDF910 EQ PUSH2 0xBA JUMPI DUP1 PUSH4 0x6A2A642D EQ PUSH2 0xD8 JUMPI DUP1 PUSH4 0x77431BA0 EQ PUSH2 0x108 JUMPI JUMPDEST PUSH0 DUP1 REVERT JUMPDEST PUSH2 0xA4 PUSH1 0x4 DUP1 CALLDATASIZE SUB DUP2 ADD SWAP1 PUSH2 0x9F SWAP2 SWAP1 PUSH2 0x53B JUMP JUMPDEST PUSH2 0x1E6 JUMP JUMPDEST PUSH1 0x40 MLOAD PUSH2 0xB1 SWAP2 SWAP1 PUSH2 0x5D6 JUMP JUMPDEST PUSH1 0x40 MLOAD DUP1 SWAP2 SUB SWAP1 RETURN JUMPDEST PUSH2 0xC2 PUSH2 0x281 JUMP JUMPDEST PUSH1 0x40 MLOAD PUSH2 0xCF SWAP2 SWAP1 PUSH2 0x605 JUMP JUMPDEST PUSH1 0x40 MLOAD DUP1 SWAP2 SUB SWAP1 RETURN JUMPDEST PUSH2 0xF2 PUSH1 0x4 DUP1 CALLDATASIZE SUB DUP2 ADD SWAP1 PUSH2 0xED SWAP2 SWAP1 PUSH2 0x74A JUMP JUMPDEST PUSH2 0x287 JUMP JUMPDEST PUSH1 0x40 MLOAD PUSH2 0xFF SWAP2 SWAP1 PUSH2 0x605 JUMP JUMPDEST PUSH1 0x40 MLOAD DUP1 SWAP2 SUB SWAP1 RETURN JUMPDEST PUSH2 0x122 PUSH1 0x4 DUP1 CALLDATASIZE SUB DUP2 ADD SWAP1 PUSH2 0x11D SWAP2 SWAP1 PUSH2 0x53B JUMP JUMPDEST PUSH2 0x2CF JUMP JUMPDEST PUSH1 0x40 MLOAD PUSH2 0x12F SWAP2 SWAP1 PUSH2 0x5D6 JUMP JUMPDEST PUSH1 0x40 MLOAD DUP1 SWAP2 SUB SWAP1 RETURN JUMPDEST PUSH2 0x152 PUSH1 0x4 DUP1 CALLDATASIZE SUB DUP2 ADD SWAP1 PUSH2 0x14D SWAP2 SWAP1 PUSH2 0x53B JUMP JUMPDEST PUSH2 0x370 JUMP JUMPDEST PUSH1 0x40 MLOAD PUSH2 0x15F SWAP2 SWAP1 PUSH2 0x5D6 JUMP JUMPDEST PUSH1 0x40 MLOAD DUP1 SWAP2 SUB SWAP1 RETURN JUMPDEST PUSH2 0x170 PUSH2 0x410 JUMP JUMPDEST PUSH1 0x40 MLOAD PUSH2 0x17D SWAP2 SWAP1 PUSH2 0x605 JUMP JUMPDEST PUSH1 0x40 MLOAD DUP1 SWAP2 SUB SWAP1 RETURN JUMPDEST PUSH2 0x1A0 PUSH1 0x4 DUP1 CALLDATASIZE SUB DUP2 ADD SWAP1 PUSH2 0x19B SWAP2 SWAP1 PUSH2 0x74A JUMP JUMPDEST PUSH2 0x416 JUMP JUMPDEST PUSH1 0x40 MLOAD PUSH2 0x1AD SWAP2 SWAP1 PUSH2 0x605 JUMP JUMPDEST PUSH1 0x40 MLOAD DUP1 SWAP2 SUB SWAP1 RETURN JUMPDEST PUSH2 0x1D0 PUSH1 0x4 DUP1 CALLDATASIZE SUB DUP2 ADD SWAP1 PUSH2 0x1CB SWAP2 SWAP1 PUSH2 0x53B JUMP JUMPDEST PUSH2 0x45D JUMP JUMPDEST PUSH1 0x40 MLOAD PUSH2 0x1DD SWAP2 SWAP1 PUSH2 0x5D6 JUMP JUMPDEST PUSH1 0x40 MLOAD DUP1 SWAP2 SUB SWAP1 RETURN JUMPDEST PUSH1 0x1 PUSH1 0x20 MSTORE DUP1 PUSH0 MSTORE PUSH1 0x40 PUSH0 KECCAK256 PUSH0 SWAP2 POP SWAP1 POP DUP1 SLOAD PUSH2 0x202 SWAP1 PUSH2 0x7BE JUMP JUMPDEST DUP1 PUSH1 0x1F ADD PUSH1 0x20 DUP1 SWAP2 DIV MUL PUSH1 0x20 ADD PUSH1 0x40 MLOAD SWAP1 DUP2 ADD PUSH1 0x40 MSTORE DUP1 SWAP3 SWAP2 SWAP1 DUP2 DUP2 MSTORE PUSH1 0x20 ADD DUP3 DUP1 SLOAD PUSH2 0x22E SWAP1 PUSH2 0x7BE JUMP JUMPDEST DUP1 ISZERO PUSH2 0x279 JUMPI DUP1 PUSH1 0x1F LT PUSH2 0x250 JUMPI PUSH2 0x100 DUP1 DUP4 SLOAD DIV MUL DUP4 MSTORE SWAP2 PUSH1 0x20 ADD SWAP2 PUSH2 0x279 JUMP JUMPDEST DUP3 ADD SWAP2 SWAP1 PUSH0 MSTORE PUSH1 0x20 PUSH0 KECCAK256 SWAP1 JUMPDEST DUP2 SLOAD DUP2 MSTORE SWAP1 PUSH1 0x1 ADD SWAP1 PUSH1 0x20 ADD DUP1 DUP4 GT PUSH2 0x25C JUMPI DUP3 SWAP1 SUB PUSH1 0x1F AND DUP3 ADD SWAP2 JUMPDEST POP POP POP POP POP DUP2 JUMP JUMPDEST PUSH1 0x3 SLOAD DUP2 JUMP JUMPDEST PUSH0 DUP2 PUSH1 0x1 PUSH0 PUSH1 0x3 SLOAD DUP2 MSTORE PUSH1 0x20 ADD SWAP1 DUP2 MSTORE PUSH1 0x20 ADD PUSH0 KECCAK256 SWAP1 DUP2 PUSH2 0x2A8 SWAP2 SWAP1 PUSH2 0x98B JUMP JUMPDEST POP PUSH0 PUSH1 0x3 SLOAD SWAP1 POP PUSH1 0x3 PUSH0 DUP2 SLOAD DUP1 SWAP3 SWAP2 SWAP1 PUSH2 0x2C1 SWAP1 PUSH2 0xA87 JUMP JUMPDEST SWAP2 SWAP1 POP SSTORE POP DUP1 SWAP2 POP POP SWAP2 SWAP1 POP JUMP JUMPDEST PUSH1 0x60 PUSH1 0x1 PUSH0 DUP4 DUP2 MSTORE PUSH1 0x20 ADD SWAP1 DUP2 MSTORE PUSH1 0x20 ADD PUSH0 KECCAK256 DUP1 SLOAD PUSH2 0x2ED SWAP1 PUSH2 0x7BE JUMP JUMPDEST DUP1 PUSH1 0x1F ADD PUSH1 0x20 DUP1 SWAP2 DIV MUL PUSH1 0x20 ADD PUSH1 0x40 MLOAD SWAP1 DUP2 ADD PUSH1 0x40 MSTORE DUP1 SWAP3 SWAP2 SWAP1 DUP2 DUP2 MSTORE PUSH1 0x20 ADD DUP3 DUP1 SLOAD PUSH2 0x319 SWAP1 PUSH2 0x7BE JUMP JUMPDEST DUP1 ISZERO PUSH2 0x364 JUMPI DUP1 PUSH1 0x1F LT PUSH2 0x33B JUMPI PUSH2 0x100 DUP1 DUP4 SLOAD DIV MUL DUP4 MSTORE SWAP2 PUSH1 0x20 ADD SWAP2 PUSH2 0x364 JUMP JUMPDEST DUP3 ADD SWAP2 SWAP1 PUSH0 MSTORE PUSH1 0x20 PUSH0 KECCAK256 SWAP1 JUMPDEST DUP2 SLOAD DUP2 MSTORE SWAP1 PUSH1 0x1 ADD SWAP1 PUSH1 0x20 ADD DUP1 DUP4 GT PUSH2 0x347 JUMPI DUP3 SWAP1 SUB PUSH1 0x1F AND DUP3 ADD SWAP2 JUMPDEST POP POP POP POP POP SWAP1 POP SWAP2 SWAP1 POP JUMP JUMPDEST PUSH1 0x60 PUSH0 DUP1 DUP4 DUP2 MSTORE PUSH1 0x20 ADD SWAP1 DUP2 MSTORE PUSH1 0x20 ADD PUSH0 KECCAK256 DUP1 SLOAD PUSH2 0x38D SWAP1 PUSH2 0x7BE JUMP JUMPDEST DUP1 PUSH1 0x1F ADD PUSH1 0x20 DUP1 SWAP2 DIV MUL PUSH1 0x20 ADD PUSH1 0x40 MLOAD SWAP1 DUP2 ADD PUSH1 0x40 MSTORE DUP1 SWAP3 SWAP2 SWAP1 DUP2 DUP2 MSTORE PUSH1 0x20 ADD DUP3 DUP1 SLOAD PUSH2 0x3B9 SWAP1 PUSH2 0x7BE JUMP JUMPDEST DUP1 ISZERO PUSH2 0x404 JUMPI DUP1 PUSH1 0x1F LT PUSH2 0x3DB JUMPI PUSH2 0x100 DUP1 DUP4 SLOAD DIV MUL DUP4 MSTORE SWAP2 PUSH1 0x20 ADD SWAP2 PUSH2 0x404 JUMP JUMPDEST DUP3 ADD SWAP2 SWAP1 PUSH0 MSTORE PUSH1 0x20 PUSH0 KECCAK256 SWAP1 JUMPDEST DUP2 SLOAD DUP2 MSTORE SWAP1 PUSH1 0x1 ADD SWAP1 PUSH1 0x20 ADD DUP1 DUP4 GT PUSH2 0x3E7 JUMPI DUP3 SWAP1 SUB PUSH1 0x1F AND DUP3 ADD SWAP2 JUMPDEST POP POP POP POP POP SWAP1 POP SWAP2 SWAP1 POP JUMP JUMPDEST PUSH1 0x2 SLOAD DUP2 JUMP JUMPDEST PUSH0 DUP2 PUSH0 DUP1 PUSH1 0x2 SLOAD DUP2 MSTORE PUSH1 0x20 ADD SWAP1 DUP2 MSTORE PUSH1 0x20 ADD PUSH0 KECCAK256 SWAP1 DUP2 PUSH2 0x436 SWAP2 SWAP1 PUSH2 0x98B JUMP JUMPDEST POP PUSH0 PUSH1 0x2 SLOAD SWAP1 POP PUSH1 0x2 PUSH0 DUP2 SLOAD DUP1 SWAP3 SWAP2 SWAP1 PUSH2 0x44F SWAP1 PUSH2 0xA87 JUMP JUMPDEST SWAP2 SWAP1 POP SSTORE POP DUP1 SWAP2 POP POP SWAP2 SWAP1 POP JUMP JUMPDEST PUSH0 PUSH1 0x20 MSTORE DUP1 PUSH0 MSTORE PUSH1 0x40 PUSH0 KECCAK256 PUSH0 SWAP2 POP SWAP1 POP DUP1 SLOAD PUSH2 0x478 SWAP1 PUSH2 0x7BE JUMP JUMPDEST DUP1 PUSH1 0x1F ADD PUSH1 0x20 DUP1 SWAP2 DIV MUL PUSH1 0x20 ADD PUSH1 0x40 MLOAD SWAP1 DUP2 ADD PUSH1 0x40 MSTORE DUP1 SWAP3 SWAP2 SWAP1 DUP2 DUP2 MSTORE PUSH1 0x20 ADD DUP3 DUP1 SLOAD PUSH2 0x4A4 SWAP1 PUSH2 0x7BE JUMP JUMPDEST DUP1 ISZERO PUSH2 0x4EF JUMPI DUP1 PUSH1 0x1F LT PUSH2 0x4C6 JUMPI PUSH2 0x100 DUP1 DUP4 SLOAD DIV MUL DUP4 MSTORE SWAP2 PUSH1 0x20 ADD SWAP2 PUSH2 0x4EF JUMP JUMPDEST DUP3 ADD SWAP2 SWAP1 PUSH0 MSTORE PUSH1 0x20 PUSH0 KECCAK256 SWAP1 JUMPDEST DUP2 SLOAD DUP2 MSTORE SWAP1 PUSH1 0x1 ADD SWAP1 PUSH1 0x20 ADD DUP1 DUP4 GT PUSH2 0x4D2 JUMPI DUP3 SWAP1 SUB PUSH1 0x1F AND DUP3 ADD SWAP2 JUMPDEST POP POP POP POP POP DUP2 JUMP JUMPDEST PUSH0 PUSH1 0x40 MLOAD SWAP1 POP SWAP1 JUMP JUMPDEST PUSH0 DUP1 REVERT JUMPDEST PUSH0 DUP1 REVERT JUMPDEST PUSH0 DUP2 SWAP1 POP SWAP2 SWAP1 POP JUMP JUMPDEST PUSH2 0x51A DUP2 PUSH2 0x508 JUMP JUMPDEST DUP2 EQ PUSH2 0x524 JUMPI PUSH0 DUP1 REVERT JUMPDEST POP JUMP JUMPDEST PUSH0 DUP2 CALLDATALOAD SWAP1 POP PUSH2 0x535 DUP2 PUSH2 0x511 JUMP JUMPDEST SWAP3 SWAP2 POP POP JUMP JUMPDEST PUSH0 PUSH1 0x20 DUP3 DUP5 SUB SLT ISZERO PUSH2 0x550 JUMPI PUSH2 0x54F PUSH2 0x500 JUMP JUMPDEST JUMPDEST PUSH0 PUSH2 0x55D DUP5 DUP3 DUP6 ADD PUSH2 0x527 JUMP JUMPDEST SWAP2 POP POP SWAP3 SWAP2 POP POP JUMP JUMPDEST PUSH0 DUP2 MLOAD SWAP1 POP SWAP2 SWAP1 POP JUMP JUMPDEST PUSH0 DUP3 DUP3 MSTORE PUSH1 0x20 DUP3 ADD SWAP1 POP SWAP3 SWAP2 POP POP JUMP JUMPDEST DUP3 DUP2 DUP4 MCOPY PUSH0 DUP4 DUP4 ADD MSTORE POP POP POP JUMP JUMPDEST PUSH0 PUSH1 0x1F NOT PUSH1 0x1F DUP4 ADD AND SWAP1 POP SWAP2 SWAP1 POP JUMP JUMPDEST PUSH0 PUSH2 0x5A8 DUP3 PUSH2 0x566 JUMP JUMPDEST PUSH2 0x5B2 DUP2 DUP6 PUSH2 0x570 JUMP JUMPDEST SWAP4 POP PUSH2 0x5C2 DUP2 DUP6 PUSH1 0x20 DUP7 ADD PUSH2 0x580 JUMP JUMPDEST PUSH2 0x5CB DUP2 PUSH2 0x58E JUMP JUMPDEST DUP5 ADD SWAP2 POP POP SWAP3 SWAP2 POP POP JUMP JUMPDEST PUSH0 PUSH1 0x20 DUP3 ADD SWAP1 POP DUP2 DUP2 SUB PUSH0 DUP4 ADD MSTORE PUSH2 0x5EE DUP2 DUP5 PUSH2 0x59E JUMP JUMPDEST SWAP1 POP SWAP3 SWAP2 POP POP JUMP JUMPDEST PUSH2 0x5FF DUP2 PUSH2 0x508 JUMP JUMPDEST DUP3 MSTORE POP POP JUMP JUMPDEST PUSH0 PUSH1 0x20 DUP3 ADD SWAP1 POP PUSH2 0x618 PUSH0 DUP4 ADD DUP5 PUSH2 0x5F6 JUMP JUMPDEST SWAP3 SWAP2 POP POP JUMP JUMPDEST PUSH0 DUP1 REVERT JUMPDEST PUSH0 DUP1 REVERT JUMPDEST PUSH32 0x4E487B7100000000000000000000000000000000000000000000000000000000 PUSH0 MSTORE PUSH1 0x41 PUSH1 0x4 MSTORE PUSH1 0x24 PUSH0 REVERT JUMPDEST PUSH2 0x65C DUP3 PUSH2 0x58E JUMP JUMPDEST DUP2 ADD DUP2 DUP2 LT PUSH8 0xFFFFFFFFFFFFFFFF DUP3 GT OR ISZERO PUSH2 0x67B JUMPI PUSH2 0x67A PUSH2 0x626 JUMP JUMPDEST JUMPDEST DUP1 PUSH1 0x40 MSTORE POP POP POP JUMP JUMPDEST PUSH0 PUSH2 0x68D PUSH2 0x4F7 JUMP JUMPDEST SWAP1 POP PUSH2 0x699 DUP3 DUP3 PUSH2 0x653 JUMP JUMPDEST SWAP2 SWAP1 POP JUMP JUMPDEST PUSH0 PUSH8 0xFFFFFFFFFFFFFFFF DUP3 GT ISZERO PUSH2 0x6B8 JUMPI PUSH2 0x6B7 PUSH2 0x626 JUMP JUMPDEST JUMPDEST PUSH2 0x6C1 DUP3 PUSH2 0x58E JUMP JUMPDEST SWAP1 POP PUSH1 0x20 DUP2 ADD SWAP1 POP SWAP2 SWAP1 POP JUMP JUMPDEST DUP3 DUP2 DUP4 CALLDATACOPY PUSH0 DUP4 DUP4 ADD MSTORE POP POP POP JUMP JUMPDEST PUSH0 PUSH2 0x6EE PUSH2 0x6E9 DUP5 PUSH2 0x69E JUMP JUMPDEST PUSH2 0x684 JUMP JUMPDEST SWAP1 POP DUP3 DUP2 MSTORE PUSH1 0x20 DUP2 ADD DUP5 DUP5 DUP5 ADD GT ISZERO PUSH2 0x70A JUMPI PUSH2 0x709 PUSH2 0x622 JUMP JUMPDEST JUMPDEST PUSH2 0x715 DUP5 DUP3 DUP6 PUSH2 0x6CE JUMP JUMPDEST POP SWAP4 SWAP3 POP POP POP JUMP JUMPDEST PUSH0 DUP3 PUSH1 0x1F DUP4 ADD SLT PUSH2 0x731 JUMPI PUSH2 0x730 PUSH2 0x61E JUMP JUMPDEST JUMPDEST DUP2 CALLDATALOAD PUSH2 0x741 DUP5 DUP3 PUSH1 0x20 DUP7 ADD PUSH2 0x6DC JUMP JUMPDEST SWAP2 POP POP SWAP3 SWAP2 POP POP JUMP JUMPDEST PUSH0 PUSH1 0x20 DUP3 DUP5 SUB SLT ISZERO PUSH2 0x75F JUMPI PUSH2 0x75E PUSH2 0x500 JUMP JUMPDEST JUMPDEST PUSH0 DUP3 ADD CALLDATALOAD PUSH8 0xFFFFFFFFFFFFFFFF DUP2 GT ISZERO PUSH2 0x77C JUMPI PUSH2 0x77B PUSH2 0x504 JUMP JUMPDEST JUMPDEST PUSH2 0x788 DUP5 DUP3 DUP6 ADD PUSH2 0x71D JUMP JUMPDEST SWAP2 POP POP SWAP3 SWAP2 POP POP JUMP JUMPDEST PUSH32 0x4E487B7100000000000000000000000000000000000000000000000000000000 PUSH0 MSTORE PUSH1 0x22 PUSH1 0x4 MSTORE PUSH1 0x24 PUSH0 REVERT JUMPDEST PUSH0 PUSH1 0x2 DUP3 DIV SWAP1 POP PUSH1 0x1 DUP3 AND DUP1 PUSH2 0x7D5 JUMPI PUSH1 0x7F DUP3 AND SWAP2 POP JUMPDEST PUSH1 0x20 DUP3 LT DUP2 SUB PUSH2 0x7E8 JUMPI PUSH2 0x7E7 PUSH2 0x791 JUMP JUMPDEST JUMPDEST POP SWAP2 SWAP1 POP JUMP JUMPDEST PUSH0 DUP2 SWAP1 POP DUP2 PUSH0 MSTORE PUSH1 0x20 PUSH0 KECCAK256 SWAP1 POP SWAP2 SWAP1 POP JUMP JUMPDEST PUSH0 PUSH1 0x20 PUSH1 0x1F DUP4 ADD DIV SWAP1 POP SWAP2 SWAP1 POP JUMP JUMPDEST PUSH0 DUP3 DUP3 SHL SWAP1 POP SWAP3 SWAP2 POP POP JUMP JUMPDEST PUSH0 PUSH1 0x8 DUP4 MUL PUSH2 0x84A PUSH32 0xFFFFFFFFFFFFFFFFFFFFFFFFFFFFFFFFFFFFFFFFFFFFFFFFFFFFFFFFFFFFFFFF DUP3 PUSH2 0x80F JUMP JUMPDEST PUSH2 0x854 DUP7 DUP4 PUSH2 0x80F JUMP JUMPDEST SWAP6 POP DUP1 NOT DUP5 AND SWAP4 POP DUP1 DUP7 AND DUP5 OR SWAP3 POP POP POP SWAP4 SWAP3 POP POP POP JUMP JUMPDEST PUSH0 DUP2 SWAP1 POP SWAP2 SWAP1 POP JUMP JUMPDEST PUSH0 PUSH2 0x88F PUSH2 0x88A PUSH2 0x885 DUP5 PUSH2 0x508 JUMP JUMPDEST PUSH2 0x86C JUMP JUMPDEST PUSH2 0x508 JUMP JUMPDEST SWAP1 POP SWAP2 SWAP1 POP JUMP JUMPDEST PUSH0 DUP2 SWAP1 POP SWAP2 SWAP1 POP JUMP JUMPDEST PUSH2 0x8A8 DUP4 PUSH2 0x875 JUMP JUMPDEST PUSH2 0x8BC PUSH2 0x8B4 DUP3 PUSH2 0x896 JUMP JUMPDEST DUP5 DUP5 SLOAD PUSH2 0x81B JUMP JUMPDEST DUP3 SSTORE POP POP POP POP JUMP JUMPDEST PUSH0 SWAP1 JUMP JUMPDEST PUSH2 0x8D0 PUSH2 0x8C4 JUMP JUMPDEST PUSH2 0x8DB DUP2 DUP5 DUP5 PUSH2 0x89F JUMP JUMPDEST POP POP POP JUMP JUMPDEST JUMPDEST DUP2 DUP2 LT ISZERO PUSH2 0x8FE JUMPI PUSH2 0x8F3 PUSH0 DUP3 PUSH2 0x8C8 JUMP JUMPDEST PUSH1 0x1 DUP2 ADD SWAP1 POP PUSH2 0x8E1 JUMP JUMPDEST POP POP JUMP JUMPDEST PUSH1 0x1F DUP3 GT ISZERO PUSH2 0x943 JUMPI PUSH2 0x914 DUP2 PUSH2 0x7EE JUMP JUMPDEST PUSH2 0x91D DUP5 PUSH2 0x800 JUMP JUMPDEST DUP2 ADD PUSH1 0x20 DUP6 LT ISZERO PUSH2 0x92C JUMPI DUP2 SWAP1 POP JUMPDEST PUSH2 0x940 PUSH2 0x938 DUP6 PUSH2 0x800 JUMP JUMPDEST DUP4 ADD DUP3 PUSH2 0x8E0 JUMP JUMPDEST POP POP JUMPDEST POP POP POP JUMP JUMPDEST PUSH0 DUP3 DUP3 SHR SWAP1 POP SWAP3 SWAP2 POP POP JUMP JUMPDEST PUSH0 PUSH2 0x963 PUSH0 NOT DUP5 PUSH1 0x8 MUL PUSH2 0x948 JUMP JUMPDEST NOT DUP1 DUP4 AND SWAP2 POP POP SWAP3 SWAP2 POP POP JUMP JUMPDEST PUSH0 PUSH2 0x97B DUP4 DUP4 PUSH2 0x954 JUMP JUMPDEST SWAP2 POP DUP3 PUSH1 0x2 MUL DUP3 OR SWAP1 POP SWAP3 SWAP2 POP POP JUMP JUMPDEST PUSH2 0x994 DUP3 PUSH2 0x566 JUMP JUMPDEST PUSH8 0xFFFFFFFFFFFFFFFF DUP2 GT ISZERO PUSH2 0x9AD JUMPI PUSH2 0x9AC PUSH2 0x626 JUMP JUMPDEST JUMPDEST PUSH2 0x9B7 DUP3 SLOAD PUSH2 0x7BE JUMP JUMPDEST PUSH2 0x9C2 DUP3 DUP3 DUP6 PUSH2 0x902 JUMP JUMPDEST PUSH0 PUSH1 0x20 SWAP1 POP PUSH1 0x1F DUP4 GT PUSH1 0x1 DUP2 EQ PUSH2 0x9F3 JUMPI PUSH0 DUP5 ISZERO PUSH2 0x9E1 JUMPI DUP3 DUP8 ADD MLOAD SWAP1 POP JUMPDEST PUSH2 0x9EB DUP6 DUP3 PUSH2 0x970 JUMP JUMPDEST DUP7 SSTORE POP PUSH2 0xA52 JUMP JUMPDEST PUSH1 0x1F NOT DUP5 AND PUSH2 0xA01 DUP7 PUSH2 0x7EE JUMP JUMPDEST PUSH0 JUMPDEST DUP3 DUP2 LT ISZERO PUSH2 0xA28 JUMPI DUP5 DUP10 ADD MLOAD DUP3 SSTORE PUSH1 0x1 DUP3 ADD SWAP2 POP PUSH1 0x20 DUP6 ADD SWAP5 POP PUSH1 0x20 DUP2 ADD SWAP1 POP PUSH2 0xA03 JUMP JUMPDEST DUP7 DUP4 LT ISZERO PUSH2 0xA45 JUMPI DUP5 DUP10 ADD MLOAD PUSH2 0xA41 PUSH1 0x1F DUP10 AND DUP3 PUSH2 0x954 JUMP JUMPDEST DUP4 SSTORE POP JUMPDEST PUSH1 0x1 PUSH1 0x2 DUP9 MUL ADD DUP9 SSTORE POP POP POP JUMPDEST POP POP POP POP POP POP JUMP JUMPDEST PUSH32 0x4E487B7100000000000000000000000000000000000000000000000000000000 PUSH0 MSTORE PUSH1 0x11 PUSH1 0x4 MSTORE PUSH1 0x24 PUSH0 REVERT JUMPDEST PUSH0 PUSH2 0xA91 DUP3 PUSH2 0x508 JUMP JUMPDEST SWAP2 POP PUSH32 0xFFFFFFFFFFFFFFFFFFFFFFFFFFFFFFFFFFFFFFFFFFFFFFFFFFFFFFFFFFFFFFFF DUP3 SUB PUSH2 0xAC3 JUMPI PUSH2 0xAC2 PUSH2 0xA5A JUMP JUMPDEST JUMPDEST PUSH1 0x1 DUP3 ADD SWAP1 POP SWAP2 SWAP1 POP JUMP INVALID LOG2 PUSH5 0x6970667358 0x22 SLT KECCAK256 PC 0xEF 0xB1 0xB0 CREATE 0xE4 DUP3 0xC4 MLOAD PREVRANDAO BLOBHASH 0xD9 0xBB 0xE DUP14 0xC8 PUSH17 0x5241D086A1F6FDC355DFED5C7E864B6473 PUSH16 0x6C634300081A00330000000000000000 "
				},
				"gasEstimates": {
					"creation": {
						"codeDepositCost": "564000",
						"executionCost": "44810",
						"totalCost": "608810"
					},
					"external": {
						"aesEncryptedData(uint256)": "infinite",
						"currentAesId()": "2447",
						"currentMlKemId()": "2448",
						"getAesEncryptedData(uint256)": "infinite",
						"getMlKemEncryptedData(uint256)": "infinite",
						"mlKemEncryptedData(uint256)": "infinite",
						"storeAesEncryptedData(bytes)": "infinite",
						"storeMlKemEncryptedData(bytes)": "infinite"
					}
				},
				"methodIdentifiers": {
					"aesEncryptedData(uint256)": "f089a0ad",
					"currentAesId()": "b2a78fa3",
					"currentMlKemId()": "1cbdf910",
					"getAesEncryptedData(uint256)": "8b0a7d9c",
					"getMlKemEncryptedData(uint256)": "77431ba0",
					"mlKemEncryptedData(uint256)": "1421c764",
					"storeAesEncryptedData(bytes)": "b6c58e0a",
					"storeMlKemEncryptedData(bytes)": "6a2a642d"
				}
			},
			"storageLayout": {
				"storage": [
					{
						"astId": 5,
						"contract": "contracts/encrypte_data.sol:EncryptedDataStorage",
						"label": "aesEncryptedData",
						"offset": 0,
						"slot": "0",
						"type": "t_mapping(t_uint256,t_bytes_storage)"
					},
					{
						"astId": 9,
						"contract": "contracts/encrypte_data.sol:EncryptedDataStorage",
						"label": "mlKemEncryptedData",
						"offset": 0,
						"slot": "1",
						"type": "t_mapping(t_uint256,t_bytes_storage)"
					},
					{
						"astId": 12,
						"contract": "contracts/encrypte_data.sol:EncryptedDataStorage",
						"label": "currentAesId",
						"offset": 0,
						"slot": "2",
						"type": "t_uint256"
					},
					{
						"astId": 15,
						"contract": "contracts/encrypte_data.sol:EncryptedDataStorage",
						"label": "currentMlKemId",
						"offset": 0,
						"slot": "3",
						"type": "t_uint256"
					}
				],
				"types": {
					"t_bytes_storage": {
						"encoding": "bytes",
						"label": "bytes",
						"numberOfBytes": "32"
					},
					"t_mapping(t_uint256,t_bytes_storage)": {
						"encoding": "mapping",
						"key": "t_uint256",
						"label": "mapping(uint256 => bytes)",
						"numberOfBytes": "32",
						"value": "t_bytes_storage"
					},
					"t_uint256": {
						"encoding": "inplace",
						"label": "uint256",
						"numberOfBytes": "32"
					}
				}
			},
			"userdoc": {
				"kind": "user",
				"methods": {},
				"version": 1
			}
		}
	}
}