{
	"contracts/sign_msg.sol": {
		"SignatureStorage": {
			"abi": [
				{
					"inputs": [
						{
							"internalType": "uint256",
							"name": "",
							"type": "uint256"
						}
					],
					"name": "allIds",
					"outputs": [
						{
							"internalType": "uint256",
							"name": "",
							"type": "uint256"
						}
					],
					"stateMutability": "view",
					"type": "function"
				},
				{
					"inputs": [],
					"name": "currentId",
					"outputs": [
						{
							"internalType": "uint256",
							"name": "",
							"type": "uint256"
						}
					],
					"stateMutability": "view",
					"type": "function"
				},
				{
					"inputs": [],
					"name": "getAllSignatures",
					"outputs": [
						{
							"internalType": "uint256[]",
							"name": "",
							"type": "uint256[]"
						},
						{
							"internalType": "bytes[]",
							"name": "",
							"type": "bytes[]"
						},
						{
							"internalType": "bytes[]",
							"name": "",
							"type": "bytes[]"
						},
						{
							"internalType": "bytes[]",
							"name": "",
							"type": "bytes[]"
						}
					],
					"stateMutability": "view",
					"type": "function"
				},
				{
					"inputs": [
						{
							"internalType": "uint256",
							"name": "_id",
							"type": "uint256"
						}
					],
					"name": "getSignatureById",
					"outputs": [
						{
							"internalType": "bytes",
							"name": "",
							"type": "bytes"
						},
						{
							"internalType": "bytes",
							"name": "",
							"type": "bytes"
						},
						{
							"internalType": "bytes",
							"name": "",
							"type": "bytes"
						}
					],
					"stateMutability": "view",
					"type": "function"
				},
				{
					"inputs": [
						{
							"internalType": "uint256",
							"name": "",
							"type": "uint256"
						}
					],
					"name": "signatureInfos",
					"outputs": [
						{
							"internalType": "bytes",
							"name": "message",
							"type": "bytes"
						},
						{
							"internalType": "bytes",
							"name": "signature",
							"type": "bytes"
						},
						{
							"internalType": "bytes",
							"name": "ringPublicKey",
							"type": "bytes"
						}
					],
					"stateMutability": "view",
					"type": "function"
				},
				{
					"inputs": [
						{
							"internalType": "bytes",
							"name": "_message",
							"type": "bytes"
						},
						{
							"internalType": "bytes",
							"name": "_signature",
							"type": "bytes"
						},
						{
							"internalType": "bytes",
							"name": "_ringPublicKey",
							"type": "bytes"
						}
					],
					"name": "storeSignature",
					"outputs": [
						{
							"internalType": "uint256",
							"name": "",
							"type": "uint256"
						}
					],
					"stateMutability": "nonpayable",
					"type": "function"
				}
			],
			"devdoc": {
				"kind": "dev",
				"methods": {},
				"version": 1
			},
			"evm": {
				"assembly": "    /* \"contracts/sign_msg.sol\":60:2073  contract SignatureStorage {... */\n  mstore(0x40, 0x80)\n    /* \"contracts/sign_msg.sol\":471:472  1 */\n  0x01\n    /* \"contracts/sign_msg.sol\":444:472  uint256 public currentId = 1 */\n  0x02\n  sstore\n    /* \"contracts/sign_msg.sol\":60:2073  contract SignatureStorage {... */\n  callvalue\n  dup1\n  iszero\n  tag_1\n  jumpi\n  0x00\n  dup1\n  revert\ntag_1:\n  pop\n  dataSize(sub_0)\n  dup1\n  dataOffset(sub_0)\n  0x00\n  codecopy\n  0x00\n  return\nstop\n\nsub_0: assembly {\n        /* \"contracts/sign_msg.sol\":60:2073  contract SignatureStorage {... */\n      mstore(0x40, 0x80)\n      callvalue\n      dup1\n      iszero\n      tag_1\n      jumpi\n      0x00\n      dup1\n      revert\n    tag_1:\n      pop\n      jumpi(tag_2, lt(calldatasize, 0x04))\n      shr(0xe0, calldataload(0x00))\n      dup1\n      0x0e0dd691\n      eq\n      tag_3\n      jumpi\n      dup1\n      0x205d04d9\n      eq\n      tag_4\n      jumpi\n      dup1\n      0x692776ea\n      eq\n      tag_5\n      jumpi\n      dup1\n      0x906b6d98\n      eq\n      tag_6\n      jumpi\n      dup1\n      0xb8c12542\n      eq\n      tag_7\n      jumpi\n      dup1\n      0xe00dd161\n      eq\n      tag_8\n      jumpi\n    tag_2:\n      0x00\n      dup1\n      revert\n        /* \"contracts/sign_msg.sol\":955:1193  function getSignatureById(uint256 _id) external view returns (bytes memory, bytes memory, bytes memory) {... */\n    tag_3:\n      tag_9\n      0x04\n      dup1\n      calldatasize\n      sub\n      dup2\n      add\n      swap1\n      tag_10\n      swap2\n      swap1\n      tag_11\n      jump\t// in\n    tag_10:\n      tag_12\n      jump\t// in\n    tag_9:\n      mload(0x40)\n      tag_13\n      swap4\n      swap3\n      swap2\n      swap1\n      tag_14\n      jump\t// in\n    tag_13:\n      mload(0x40)\n      dup1\n      swap2\n      sub\n      swap1\n      return\n        /* \"contracts/sign_msg.sol\":298:353  mapping(uint256 => SignatureInfo) public signatureInfos */\n    tag_4:\n      tag_15\n      0x04\n      dup1\n      calldatasize\n      sub\n      dup2\n      add\n      swap1\n      tag_16\n      swap2\n      swap1\n      tag_11\n      jump\t// in\n    tag_16:\n      tag_17\n      jump\t// in\n    tag_15:\n      mload(0x40)\n      tag_18\n      swap4\n      swap3\n      swap2\n      swap1\n      tag_14\n      jump\t// in\n    tag_18:\n      mload(0x40)\n      dup1\n      swap2\n      sub\n      swap1\n      return\n        /* \"contracts/sign_msg.sol\":387:410  uint256[] public allIds */\n    tag_5:\n      tag_19\n      0x04\n      dup1\n      calldatasize\n      sub\n      dup2\n      add\n      swap1\n      tag_20\n      swap2\n      swap1\n      tag_11\n      jump\t// in\n    tag_20:\n      tag_21\n      jump\t// in\n    tag_19:\n      mload(0x40)\n      tag_22\n      swap2\n      swap1\n      tag_23\n      jump\t// in\n    tag_22:\n      mload(0x40)\n      dup1\n      swap2\n      sub\n      swap1\n      return\n        /* \"contracts/sign_msg.sol\":1243:2070  function getAllSignatures() external view returns (... */\n    tag_6:\n      tag_24\n      tag_25\n      jump\t// in\n    tag_24:\n      mload(0x40)\n      tag_26\n      swap5\n      swap4\n      swap3\n      swap2\n      swap1\n      tag_27\n      jump\t// in\n    tag_26:\n      mload(0x40)\n      dup1\n      swap2\n      sub\n      swap1\n      return\n        /* \"contracts/sign_msg.sol\":517:901  function storeSignature(... */\n    tag_7:\n      tag_28\n      0x04\n      dup1\n      calldatasize\n      sub\n      dup2\n      add\n      swap1\n      tag_29\n      swap2\n      swap1\n      tag_30\n      jump\t// in\n    tag_29:\n      tag_31\n      jump\t// in\n    tag_28:\n      mload(0x40)\n      tag_32\n      swap2\n      swap1\n      tag_23\n      jump\t// in\n    tag_32:\n      mload(0x40)\n      dup1\n      swap2\n      sub\n      swap1\n      return\n        /* \"contracts/sign_msg.sol\":444:472  uint256 public currentId = 1 */\n    tag_8:\n      tag_33\n      tag_34\n      jump\t// in\n    tag_33:\n      mload(0x40)\n      tag_35\n      swap2\n      swap1\n      tag_23\n      jump\t// in\n    tag_35:\n      mload(0x40)\n      dup1\n      swap2\n      sub\n      swap1\n      return\n        /* \"contracts/sign_msg.sol\":955:1193  function getSignatureById(uint256 _id) external view returns (bytes memory, bytes memory, bytes memory) {... */\n    tag_12:\n        /* \"contracts/sign_msg.sol\":1017:1029  bytes memory */\n      0x60\n        /* \"contracts/sign_msg.sol\":1031:1043  bytes memory */\n      dup1\n        /* \"contracts/sign_msg.sol\":1045:1057  bytes memory */\n      0x60\n        /* \"contracts/sign_msg.sol\":1070:1095  SignatureInfo memory info */\n      0x00\n        /* \"contracts/sign_msg.sol\":1098:1112  signatureInfos */\n      dup1\n        /* \"contracts/sign_msg.sol\":1098:1117  signatureInfos[_id] */\n      0x00\n        /* \"contracts/sign_msg.sol\":1113:1116  _id */\n      dup7\n        /* \"contracts/sign_msg.sol\":1098:1117  signatureInfos[_id] */\n      dup2\n      mstore\n      0x20\n      add\n      swap1\n      dup2\n      mstore\n      0x20\n      add\n      0x00\n      keccak256\n        /* \"contracts/sign_msg.sol\":1070:1117  SignatureInfo memory info = signatureInfos[_id] */\n      mload(0x40)\n      dup1\n      0x60\n      add\n      0x40\n      mstore\n      swap1\n      dup2\n      0x00\n      dup3\n      add\n      dup1\n      sload\n      tag_37\n      swap1\n      tag_38\n      jump\t// in\n    tag_37:\n      dup1\n      0x1f\n      add\n      0x20\n      dup1\n      swap2\n      div\n      mul\n      0x20\n      add\n      mload(0x40)\n      swap1\n      dup2\n      add\n      0x40\n      mstore\n      dup1\n      swap3\n      swap2\n      swap1\n      dup2\n      dup2\n      mstore\n      0x20\n      add\n      dup3\n      dup1\n      sload\n      tag_39\n      swap1\n      tag_38\n      jump\t// in\n    tag_39:\n      dup1\n      iszero\n      tag_40\n      jumpi\n      dup1\n      0x1f\n      lt\n      tag_41\n      jumpi\n      0x0100\n      dup1\n      dup4\n      sload\n      div\n      mul\n      dup4\n      mstore\n      swap2\n      0x20\n      add\n      swap2\n      jump(tag_40)\n    tag_41:\n      dup3\n      add\n      swap2\n      swap1\n      0x00\n      mstore\n      keccak256(0x00, 0x20)\n      swap1\n    tag_42:\n      dup2\n      sload\n      dup2\n      mstore\n      swap1\n      0x01\n      add\n      swap1\n      0x20\n      add\n      dup1\n      dup4\n      gt\n      tag_42\n      jumpi\n      dup3\n      swap1\n      sub\n      0x1f\n      and\n      dup3\n      add\n      swap2\n    tag_40:\n      pop\n      pop\n      pop\n      pop\n      pop\n      dup2\n      mstore\n      0x20\n      add\n      0x01\n      dup3\n      add\n      dup1\n      sload\n      tag_43\n      swap1\n      tag_38\n      jump\t// in\n    tag_43:\n      dup1\n      0x1f\n      add\n      0x20\n      dup1\n      swap2\n      div\n      mul\n      0x20\n      add\n      mload(0x40)\n      swap1\n      dup2\n      add\n      0x40\n      mstore\n      dup1\n      swap3\n      swap2\n      swap1\n      dup2\n      dup2\n      mstore\n      0x20\n      add\n      dup3\n      dup1\n      sload\n      tag_44\n      swap1\n      tag_38\n      jump\t// in\n    tag_44:\n      dup1\n      iszero\n      tag_45\n      jumpi\n      dup1\n      0x1f\n      lt\n      tag_46\n      jumpi\n      0x0100\n      dup1\n      dup4\n      sload\n      div\n      mul\n      dup4\n      mstore\n      swap2\n      0x20\n      add\n      swap2\n      jump(tag_45)\n    tag_46:\n      dup3\n      add\n      swap2\n      swap1\n      0x00\n      mstore\n      keccak256(0x00, 0x20)\n      swap1\n    tag_47:\n      dup2\n      sload\n      dup2\n      mstore\n      swap1\n      0x01\n      add\n      swap1\n      0x20\n      add\n      dup1\n      dup4\n      gt\n      tag_47\n      jumpi\n      dup3\n      swap1\n      sub\n      0x1f\n      and\n      dup3\n      add\n      swap2\n    tag_45:\n      pop\n      pop\n      pop\n      pop\n      pop\n      dup2\n      mstore\n      0x20\n      add\n      0x02\n      dup3\n      add\n      dup1\n      sload\n      tag_48\n      swap1\n      tag_38\n      jump\t// in\n    tag_48:\n      dup1\n      0x1f\n      add\n      0x20\n      dup1\n      swap2\n      div\n      mul\n      0x20\n      add\n      mload(0x40)\n      swap1\n      dup2\n      add\n      0x40\n      mstore\n      dup1\n      swap3\n      swap2\n      swap1\n      dup2\n      dup2\n      mstore\n      0x20\n      add\n      dup3\n      dup1\n      sload\n      tag_49\n      swap1\n      tag_38\n      jump\t// in\n    tag_49:\n      dup1\n      iszero\n      tag_50\n      jumpi\n      dup1\n      0x1f\n      lt\n      tag_51\n      jumpi\n      0x0100\n      dup1\n      dup4\n      sload\n      div\n      mul\n      dup4\n      mstore\n      swap2\n      0x20\n      add\n      swap2\n      jump(tag_50)\n    tag_51:\n      dup3\n      add\n      swap2\n      swap1\n      0x00\n      mstore\n      keccak256(0x00, 0x20)\n      swap1\n    tag_52:\n      dup2\n      sload\n      dup2\n      mstore\n      swap1\n      0x01\n      add\n      swap1\n      0x20\n      add\n      dup1\n      dup4\n      gt\n      tag_52\n      jumpi\n      dup3\n      swap1\n      sub\n      0x1f\n      and\n      dup3\n      add\n      swap2\n    tag_50:\n      pop\n      pop\n      pop\n      pop\n      pop\n      dup2\n      mstore\n      pop\n      pop\n      swap1\n      pop\n        /* \"contracts/sign_msg.sol\":1136:1140  info */\n      dup1\n        /* \"contracts/sign_msg.sol\":1136:1148  info.message */\n      0x00\n      add\n      mload\n        /* \"contracts/sign_msg.sol\":1150:1154  info */\n      dup2\n        /* \"contracts/sign_msg.sol\":1150:1164  info.signature */\n      0x20\n      add\n      mload\n        /* \"contracts/sign_msg.sol\":1166:1170  info */\n      dup3\n        /* \"contracts/sign_msg.sol\":1166:1184  info.ringPublicKey */\n      0x40\n      add\n      mload\n        /* \"contracts/sign_msg.sol\":1128:1185  return (info.message, info.signature, info.ringPublicKey) */\n      swap4\n      pop\n      swap4\n      pop\n      swap4\n      pop\n      pop\n        /* \"contracts/sign_msg.sol\":955:1193  function getSignatureById(uint256 _id) external view returns (bytes memory, bytes memory, bytes memory) {... */\n      swap2\n      swap4\n      swap1\n      swap3\n      pop\n      jump\t// out\n        /* \"contracts/sign_msg.sol\":298:353  mapping(uint256 => SignatureInfo) public signatureInfos */\n    tag_17:\n      mstore(0x20, 0x00)\n      dup1\n      0x00\n      mstore\n      keccak256(0x00, 0x40)\n      0x00\n      swap2\n      pop\n      swap1\n      pop\n      dup1\n      0x00\n      add\n      dup1\n      sload\n      tag_53\n      swap1\n      tag_38\n      jump\t// in\n    tag_53:\n      dup1\n      0x1f\n      add\n      0x20\n      dup1\n      swap2\n      div\n      mul\n      0x20\n      add\n      mload(0x40)\n      swap1\n      dup2\n      add\n      0x40\n      mstore\n      dup1\n      swap3\n      swap2\n      swap1\n      dup2\n      dup2\n      mstore\n      0x20\n      add\n      dup3\n      dup1\n      sload\n      tag_54\n      swap1\n      tag_38\n      jump\t// in\n    tag_54:\n      dup1\n      iszero\n      tag_55\n      jumpi\n      dup1\n      0x1f\n      lt\n      tag_56\n      jumpi\n      0x0100\n      dup1\n      dup4\n      sload\n      div\n      mul\n      dup4\n      mstore\n      swap2\n      0x20\n      add\n      swap2\n      jump(tag_55)\n    tag_56:\n      dup3\n      add\n      swap2\n      swap1\n      0x00\n      mstore\n      keccak256(0x00, 0x20)\n      swap1\n    tag_57:\n      dup2\n      sload\n      dup2\n      mstore\n      swap1\n      0x01\n      add\n      swap1\n      0x20\n      add\n      dup1\n      dup4\n      gt\n      tag_57\n      jumpi\n      dup3\n      swap1\n      sub\n      0x1f\n      and\n      dup3\n      add\n      swap2\n    tag_55:\n      pop\n      pop\n      pop\n      pop\n      pop\n      swap1\n      dup1\n      0x01\n      add\n      dup1\n      sload\n      tag_58\n      swap1\n      tag_38\n      jump\t// in\n    tag_58:\n      dup1\n      0x1f\n      add\n      0x20\n      dup1\n      swap2\n      div\n      mul\n      0x20\n      add\n      mload(0x40)\n      swap1\n      dup2\n      add\n      0x40\n      mstore\n      dup1\n      swap3\n      swap2\n      swap1\n      dup2\n      dup2\n      mstore\n      0x20\n      add\n      dup3\n      dup1\n      sload\n      tag_59\n      swap1\n      tag_38\n      jump\t// in\n    tag_59:\n      dup1\n      iszero\n      tag_60\n      jumpi\n      dup1\n      0x1f\n      lt\n      tag_61\n      jumpi\n      0x0100\n      dup1\n      dup4\n      sload\n      div\n      mul\n      dup4\n      mstore\n      swap2\n      0x20\n      add\n      swap2\n      jump(tag_60)\n    tag_61:\n      dup3\n      add\n      swap2\n      swap1\n      0x00\n      mstore\n      keccak256(0x00, 0x20)\n      swap1\n    tag_62:\n      dup2\n      sload\n      dup2\n      mstore\n      swap1\n      0x01\n      add\n      swap1\n      0x20\n      add\n      dup1\n      dup4\n      gt\n      tag_62\n      jumpi\n      dup3\n      swap1\n      sub\n      0x1f\n      and\n      dup3\n      add\n      swap2\n    tag_60:\n      pop\n      pop\n      pop\n      pop\n      pop\n      swap1\n      dup1\n      0x02\n      add\n      dup1\n      sload\n      tag_63\n      swap1\n      tag_38\n      jump\t// in\n    tag_63:\n      dup1\n      0x1f\n      add\n      0x20\n      dup1\n      swap2\n      div\n      mul\n      0x20\n      add\n      mload(0x40)\n      swap1\n      dup2\n      add\n      0x40\n      mstore\n      dup1\n      swap3\n      swap2\n      swap1\n      dup2\n      dup2\n      mstore\n      0x20\n      add\n      dup3\n      dup1\n      sload\n      tag_64\n      swap1\n      tag_38\n      jump\t// in\n    tag_64:\n      dup1\n      iszero\n      tag_65\n      jumpi\n      dup1\n      0x1f\n      lt\n      tag_66\n      jumpi\n      0x0100\n      dup1\n      dup4\n      sload\n      div\n      mul\n      dup4\n      mstore\n      swap2\n      0x20\n      add\n      swap2\n      jump(tag_65)\n    tag_66:\n      dup3\n      add\n      swap2\n      swap1\n      0x00\n      mstore\n      keccak256(0x00, 0x20)\n      swap1\n    tag_67:\n      dup2\n      sload\n      dup2\n      mstore\n      swap1\n      0x01\n      add\n      swap1\n      0x20\n      add\n      dup1\n      dup4\n      gt\n      tag_67\n      jumpi\n      dup3\n      swap1\n      sub\n      0x1f\n      and\n      dup3\n      add\n      swap2\n    tag_65:\n      pop\n      pop\n      pop\n      pop\n      pop\n      swap1\n      pop\n      dup4\n      jump\t// out\n        /* \"contracts/sign_msg.sol\":387:410  uint256[] public allIds */\n    tag_21:\n      0x01\n      dup2\n      dup2\n      sload\n      dup2\n      lt\n      tag_68\n      jumpi\n      0x00\n      dup1\n      revert\n    tag_68:\n      swap1\n      0x00\n      mstore\n      keccak256(0x00, 0x20)\n      add\n      0x00\n      swap2\n      pop\n      swap1\n      pop\n      sload\n      dup2\n      jump\t// out\n        /* \"contracts/sign_msg.sol\":1243:2070  function getAllSignatures() external view returns (... */\n    tag_25:\n        /* \"contracts/sign_msg.sol\":1304:1320  uint256[] memory */\n      0x60\n        /* \"contracts/sign_msg.sol\":1331:1345  bytes[] memory */\n      dup1\n        /* \"contracts/sign_msg.sol\":1356:1370  bytes[] memory */\n      0x60\n        /* \"contracts/sign_msg.sol\":1381:1395  bytes[] memory */\n      dup1\n        /* \"contracts/sign_msg.sol\":1414:1428  uint256 length */\n      0x00\n        /* \"contracts/sign_msg.sol\":1431:1437  allIds */\n      0x01\n        /* \"contracts/sign_msg.sol\":1431:1444  allIds.length */\n      dup1\n      sload\n      swap1\n      pop\n        /* \"contracts/sign_msg.sol\":1414:1444  uint256 length = allIds.length */\n      swap1\n      pop\n        /* \"contracts/sign_msg.sol\":1455:1475  uint256[] memory ids */\n      0x00\n        /* \"contracts/sign_msg.sol\":1492:1498  length */\n      dup2\n        /* \"contracts/sign_msg.sol\":1478:1499  new uint256[](length) */\n      0xffffffffffffffff\n      dup2\n      gt\n      iszero\n      tag_71\n      jumpi\n      tag_72\n      tag_73\n      jump\t// in\n    tag_72:\n    tag_71:\n      mload(0x40)\n      swap1\n      dup1\n      dup3\n      mstore\n      dup1\n      0x20\n      mul\n      0x20\n      add\n      dup3\n      add\n      0x40\n      mstore\n      dup1\n      iszero\n      tag_74\n      jumpi\n      dup2\n      0x20\n      add\n      0x20\n      dup3\n      mul\n      dup1\n      calldatasize\n      dup4\n      calldatacopy\n      dup1\n      dup3\n      add\n      swap2\n      pop\n      pop\n      swap1\n      pop\n    tag_74:\n      pop\n        /* \"contracts/sign_msg.sol\":1455:1499  uint256[] memory ids = new uint256[](length) */\n      swap1\n      pop\n        /* \"contracts/sign_msg.sol\":1510:1533  bytes[] memory messages */\n      0x00\n        /* \"contracts/sign_msg.sol\":1548:1554  length */\n      dup3\n        /* \"contracts/sign_msg.sol\":1536:1555  new bytes[](length) */\n      0xffffffffffffffff\n      dup2\n      gt\n      iszero\n      tag_75\n      jumpi\n      tag_76\n      tag_73\n      jump\t// in\n    tag_76:\n    tag_75:\n      mload(0x40)\n      swap1\n      dup1\n      dup3\n      mstore\n      dup1\n      0x20\n      mul\n      0x20\n      add\n      dup3\n      add\n      0x40\n      mstore\n      dup1\n      iszero\n      tag_77\n      jumpi\n      dup2\n      0x20\n      add\n    tag_78:\n      0x60\n      dup2\n      mstore\n      0x20\n      add\n      swap1\n      0x01\n      swap1\n      sub\n      swap1\n      dup2\n      tag_78\n      jumpi\n      swap1\n      pop\n    tag_77:\n      pop\n        /* \"contracts/sign_msg.sol\":1510:1555  bytes[] memory messages = new bytes[](length) */\n      swap1\n      pop\n        /* \"contracts/sign_msg.sol\":1566:1591  bytes[] memory signatures */\n      0x00\n        /* \"contracts/sign_msg.sol\":1606:1612  length */\n      dup4\n        /* \"contracts/sign_msg.sol\":1594:1613  new bytes[](length) */\n      0xffffffffffffffff\n      dup2\n      gt\n      iszero\n      tag_79\n      jumpi\n      tag_80\n      tag_73\n      jump\t// in\n    tag_80:\n    tag_79:\n      mload(0x40)\n      swap1\n      dup1\n      dup3\n      mstore\n      dup1\n      0x20\n      mul\n      0x20\n      add\n      dup3\n      add\n      0x40\n      mstore\n      dup1\n      iszero\n      tag_81\n      jumpi\n      dup2\n      0x20\n      add\n    tag_82:\n      0x60\n      dup2\n      mstore\n      0x20\n      add\n      swap1\n      0x01\n      swap1\n      sub\n      swap1\n      dup2\n      tag_82\n      jumpi\n      swap1\n      pop\n    tag_81:\n      pop\n        /* \"contracts/sign_msg.sol\":1566:1613  bytes[] memory signatures = new bytes[](length) */\n      swap1\n      pop\n        /* \"contracts/sign_msg.sol\":1624:1653  bytes[] memory ringPublicKeys */\n      0x00\n        /* \"contracts/sign_msg.sol\":1668:1674  length */\n      dup5\n        /* \"contracts/sign_msg.sol\":1656:1675  new bytes[](length) */\n      0xffffffffffffffff\n      dup2\n      gt\n      iszero\n      tag_83\n      jumpi\n      tag_84\n      tag_73\n      jump\t// in\n    tag_84:\n    tag_83:\n      mload(0x40)\n      swap1\n      dup1\n      dup3\n      mstore\n      dup1\n      0x20\n      mul\n      0x20\n      add\n      dup3\n      add\n      0x40\n      mstore\n      dup1\n      iszero\n      tag_85\n      jumpi\n      dup2\n      0x20\n      add\n    tag_86:\n      0x60\n      dup2\n      mstore\n      0x20\n      add\n      swap1\n      0x01\n      swap1\n      sub\n      swap1\n      dup2\n      tag_86\n      jumpi\n      swap1\n      pop\n    tag_85:\n      pop\n        /* \"contracts/sign_msg.sol\":1624:1675  bytes[] memory ringPublicKeys = new bytes[](length) */\n      swap1\n      pop\n        /* \"contracts/sign_msg.sol\":1693:1702  uint256 i */\n      0x00\n        /* \"contracts/sign_msg.sol\":1688:2000  for (uint256 i = 0; i < length; i++) {... */\n    tag_87:\n        /* \"contracts/sign_msg.sol\":1712:1718  length */\n      dup6\n        /* \"contracts/sign_msg.sol\":1708:1709  i */\n      dup2\n        /* \"contracts/sign_msg.sol\":1708:1718  i < length */\n      lt\n        /* \"contracts/sign_msg.sol\":1688:2000  for (uint256 i = 0; i < length; i++) {... */\n      iszero\n      tag_88\n      jumpi\n        /* \"contracts/sign_msg.sol\":1740:1750  uint256 id */\n      0x00\n        /* \"contracts/sign_msg.sol\":1753:1759  allIds */\n      0x01\n        /* \"contracts/sign_msg.sol\":1760:1761  i */\n      dup3\n        /* \"contracts/sign_msg.sol\":1753:1762  allIds[i] */\n      dup2\n      sload\n      dup2\n      lt\n      tag_90\n      jumpi\n      tag_91\n      tag_92\n      jump\t// in\n    tag_91:\n    tag_90:\n      swap1\n      0x00\n      mstore\n      keccak256(0x00, 0x20)\n      add\n      sload\n        /* \"contracts/sign_msg.sol\":1740:1762  uint256 id = allIds[i] */\n      swap1\n      pop\n        /* \"contracts/sign_msg.sol\":1786:1788  id */\n      dup1\n        /* \"contracts/sign_msg.sol\":1777:1780  ids */\n      dup7\n        /* \"contracts/sign_msg.sol\":1781:1782  i */\n      dup4\n        /* \"contracts/sign_msg.sol\":1777:1783  ids[i] */\n      dup2\n      mload\n      dup2\n      lt\n      tag_94\n      jumpi\n      tag_95\n      tag_92\n      jump\t// in\n    tag_95:\n    tag_94:\n      0x20\n      mul\n      0x20\n      add\n      add\n        /* \"contracts/sign_msg.sol\":1777:1788  ids[i] = id */\n      dup2\n      dup2\n      mstore\n      pop\n      pop\n        /* \"contracts/sign_msg.sol\":1803:1828  SignatureInfo memory info */\n      0x00\n        /* \"contracts/sign_msg.sol\":1831:1845  signatureInfos */\n      dup1\n        /* \"contracts/sign_msg.sol\":1831:1849  signatureInfos[id] */\n      0x00\n        /* \"contracts/sign_msg.sol\":1846:1848  id */\n      dup4\n        /* \"contracts/sign_msg.sol\":1831:1849  signatureInfos[id] */\n      dup2\n      mstore\n      0x20\n      add\n      swap1\n      dup2\n      mstore\n      0x20\n      add\n      0x00\n      keccak256\n        /* \"contracts/sign_msg.sol\":1803:1849  SignatureInfo memory info = signatureInfos[id] */\n      mload(0x40)\n      dup1\n      0x60\n      add\n      0x40\n      mstore\n      swap1\n      dup2\n      0x00\n      dup3\n      add\n      dup1\n      sload\n      tag_96\n      swap1\n      tag_38\n      jump\t// in\n    tag_96:\n      dup1\n      0x1f\n      add\n      0x20\n      dup1\n      swap2\n      div\n      mul\n      0x20\n      add\n      mload(0x40)\n      swap1\n      dup2\n      add\n      0x40\n      mstore\n      dup1\n      swap3\n      swap2\n      swap1\n      dup2\n      dup2\n      mstore\n      0x20\n      add\n      dup3\n      dup1\n      sload\n      tag_97\n      swap1\n      tag_38\n      jump\t// in\n    tag_97:\n      dup1\n      iszero\n      tag_98\n      jumpi\n      dup1\n      0x1f\n      lt\n      tag_99\n      jumpi\n      0x0100\n      dup1\n      dup4\n      sload\n      div\n      mul\n      dup4\n      mstore\n      swap2\n      0x20\n      add\n      swap2\n      jump(tag_98)\n    tag_99:\n      dup3\n      add\n      swap2\n      swap1\n      0x00\n      mstore\n      keccak256(0x00, 0x20)\n      swap1\n    tag_100:\n      dup2\n      sload\n      dup2\n      mstore\n      swap1\n      0x01\n      add\n      swap1\n      0x20\n      add\n      dup1\n      dup4\n      gt\n      tag_100\n      jumpi\n      dup3\n      swap1\n      sub\n      0x1f\n      and\n      dup3\n      add\n      swap2\n    tag_98:\n      pop\n      pop\n      pop\n      pop\n      pop\n      dup2\n      mstore\n      0x20\n      add\n      0x01\n      dup3\n      add\n      dup1\n      sload\n      tag_101\n      swap1\n      tag_38\n      jump\t// in\n    tag_101:\n      dup1\n      0x1f\n      add\n      0x20\n      dup1\n      swap2\n      div\n      mul\n      0x20\n      add\n      mload(0x40)\n      swap1\n      dup2\n      add\n      0x40\n      mstore\n      dup1\n      swap3\n      swap2\n      swap1\n      dup2\n      dup2\n      mstore\n      0x20\n      add\n      dup3\n      dup1\n      sload\n      tag_102\n      swap1\n      tag_38\n      jump\t// in\n    tag_102:\n      dup1\n      iszero\n      tag_103\n      jumpi\n      dup1\n      0x1f\n      lt\n      tag_104\n      jumpi\n      0x0100\n      dup1\n      dup4\n      sload\n      div\n      mul\n      dup4\n      mstore\n      swap2\n      0x20\n      add\n      swap2\n      jump(tag_103)\n    tag_104:\n      dup3\n      add\n      swap2\n      swap1\n      0x00\n      mstore\n      keccak256(0x00, 0x20)\n      swap1\n    tag_105:\n      dup2\n      sload\n      dup2\n      mstore\n      swap1\n      0x01\n      add\n      swap1\n      0x20\n      add\n      dup1\n      dup4\n      gt\n      tag_105\n      jumpi\n      dup3\n      swap1\n      sub\n      0x1f\n      and\n      dup3\n      add\n      swap2\n    tag_103:\n      pop\n      pop\n      pop\n      pop\n      pop\n      dup2\n      mstore\n      0x20\n      add\n      0x02\n      dup3\n      add\n      dup1\n      sload\n      tag_106\n      swap1\n      tag_38\n      jump\t// in\n    tag_106:\n      dup1\n      0x1f\n      add\n      0x20\n      dup1\n      swap2\n      div\n      mul\n      0x20\n      add\n      mload(0x40)\n      swap1\n      dup2\n      add\n      0x40\n      mstore\n      dup1\n      swap3\n      swap2\n      swap1\n      dup2\n      dup2\n      mstore\n      0x20\n      add\n      dup3\n      dup1\n      sload\n      tag_107\n      swap1\n      tag_38\n      jump\t// in\n    tag_107:\n      dup1\n      iszero\n      tag_108\n      jumpi\n      dup1\n      0x1f\n      lt\n      tag_109\n      jumpi\n      0x0100\n      dup1\n      dup4\n      sload\n      div\n      mul\n      dup4\n      mstore\n      swap2\n      0x20\n      add\n      swap2\n      jump(tag_108)\n    tag_109:\n      dup3\n      add\n      swap2\n      swap1\n      0x00\n      mstore\n      keccak256(0x00, 0x20)\n      swap1\n    tag_110:\n      dup2\n      sload\n      dup2\n      mstore\n      swap1\n      0x01\n      add\n      swap1\n      0x20\n      add\n      dup1\n      dup4\n      gt\n      tag_110\n      jumpi\n      dup3\n      swap1\n      sub\n      0x1f\n      and\n      dup3\n      add\n      swap2\n    tag_108:\n      pop\n      pop\n      pop\n      pop\n      pop\n      dup2\n      mstore\n      pop\n      pop\n      swap1\n      pop\n        /* \"contracts/sign_msg.sol\":1878:1882  info */\n      dup1\n        /* \"contracts/sign_msg.sol\":1878:1890  info.message */\n      0x00\n      add\n      mload\n        /* \"contracts/sign_msg.sol\":1864:1872  messages */\n      dup7\n        /* \"contracts/sign_msg.sol\":1873:1874  i */\n      dup5\n        /* \"contracts/sign_msg.sol\":1864:1875  messages[i] */\n      dup2\n      mload\n      dup2\n      lt\n      tag_111\n      jumpi\n      tag_112\n      tag_92\n      jump\t// in\n    tag_112:\n    tag_111:\n      0x20\n      mul\n      0x20\n      add\n      add\n        /* \"contracts/sign_msg.sol\":1864:1890  messages[i] = info.message */\n      dup2\n      swap1\n      mstore\n      pop\n        /* \"contracts/sign_msg.sol\":1921:1925  info */\n      dup1\n        /* \"contracts/sign_msg.sol\":1921:1935  info.signature */\n      0x20\n      add\n      mload\n        /* \"contracts/sign_msg.sol\":1905:1915  signatures */\n      dup6\n        /* \"contracts/sign_msg.sol\":1916:1917  i */\n      dup5\n        /* \"contracts/sign_msg.sol\":1905:1918  signatures[i] */\n      dup2\n      mload\n      dup2\n      lt\n      tag_113\n      jumpi\n      tag_114\n      tag_92\n      jump\t// in\n    tag_114:\n    tag_113:\n      0x20\n      mul\n      0x20\n      add\n      add\n        /* \"contracts/sign_msg.sol\":1905:1935  signatures[i] = info.signature */\n      dup2\n      swap1\n      mstore\n      pop\n        /* \"contracts/sign_msg.sol\":1970:1974  info */\n      dup1\n        /* \"contracts/sign_msg.sol\":1970:1988  info.ringPublicKey */\n      0x40\n      add\n      mload\n        /* \"contracts/sign_msg.sol\":1950:1964  ringPublicKeys */\n      dup5\n        /* \"contracts/sign_msg.sol\":1965:1966  i */\n      dup5\n        /* \"contracts/sign_msg.sol\":1950:1967  ringPublicKeys[i] */\n      dup2\n      mload\n      dup2\n      lt\n      tag_115\n      jumpi\n      tag_116\n      tag_92\n      jump\t// in\n    tag_116:\n    tag_115:\n      0x20\n      mul\n      0x20\n      add\n      add\n        /* \"contracts/sign_msg.sol\":1950:1988  ringPublicKeys[i] = info.ringPublicKey */\n      dup2\n      swap1\n      mstore\n      pop\n        /* \"contracts/sign_msg.sol\":1725:2000  {... */\n      pop\n      pop\n        /* \"contracts/sign_msg.sol\":1720:1723  i++ */\n      dup1\n      dup1\n      0x01\n      add\n      swap2\n      pop\n      pop\n        /* \"contracts/sign_msg.sol\":1688:2000  for (uint256 i = 0; i < length; i++) {... */\n      jump(tag_87)\n    tag_88:\n      pop\n        /* \"contracts/sign_msg.sol\":2020:2023  ids */\n      dup4\n        /* \"contracts/sign_msg.sol\":2025:2033  messages */\n      dup4\n        /* \"contracts/sign_msg.sol\":2035:2045  signatures */\n      dup4\n        /* \"contracts/sign_msg.sol\":2047:2061  ringPublicKeys */\n      dup4\n        /* \"contracts/sign_msg.sol\":2012:2062  return (ids, messages, signatures, ringPublicKeys) */\n      swap9\n      pop\n      swap9\n      pop\n      swap9\n      pop\n      swap9\n      pop\n      pop\n      pop\n      pop\n      pop\n      pop\n        /* \"contracts/sign_msg.sol\":1243:2070  function getAllSignatures() external view returns (... */\n      swap1\n      swap2\n      swap3\n      swap4\n      jump\t// out\n        /* \"contracts/sign_msg.sol\":517:901  function storeSignature(... */\n    tag_31:\n        /* \"contracts/sign_msg.sol\":670:677  uint256 */\n      0x00\n        /* \"contracts/sign_msg.sol\":718:769  SignatureInfo(_message, _signature, _ringPublicKey) */\n      mload(0x40)\n      dup1\n      0x60\n      add\n      0x40\n      mstore\n      dup1\n        /* \"contracts/sign_msg.sol\":732:740  _message */\n      dup6\n        /* \"contracts/sign_msg.sol\":718:769  SignatureInfo(_message, _signature, _ringPublicKey) */\n      dup2\n      mstore\n      0x20\n      add\n        /* \"contracts/sign_msg.sol\":742:752  _signature */\n      dup5\n        /* \"contracts/sign_msg.sol\":718:769  SignatureInfo(_message, _signature, _ringPublicKey) */\n      dup2\n      mstore\n      0x20\n      add\n        /* \"contracts/sign_msg.sol\":754:768  _ringPublicKey */\n      dup4\n        /* \"contracts/sign_msg.sol\":718:769  SignatureInfo(_message, _signature, _ringPublicKey) */\n      dup2\n      mstore\n      pop\n        /* \"contracts/sign_msg.sol\":690:704  signatureInfos */\n      0x00\n        /* \"contracts/sign_msg.sol\":690:715  signatureInfos[currentId] */\n      dup1\n        /* \"contracts/sign_msg.sol\":705:714  currentId */\n      sload(0x02)\n        /* \"contracts/sign_msg.sol\":690:715  signatureInfos[currentId] */\n      dup2\n      mstore\n      0x20\n      add\n      swap1\n      dup2\n      mstore\n      0x20\n      add\n      0x00\n      keccak256\n        /* \"contracts/sign_msg.sol\":690:769  signatureInfos[currentId] = SignatureInfo(_message, _signature, _ringPublicKey) */\n      0x00\n      dup3\n      add\n      mload\n      dup2\n      0x00\n      add\n      swap1\n      dup2\n      tag_118\n      swap2\n      swap1\n      tag_119\n      jump\t// in\n    tag_118:\n      pop\n      0x20\n      dup3\n      add\n      mload\n      dup2\n      0x01\n      add\n      swap1\n      dup2\n      tag_120\n      swap2\n      swap1\n      tag_119\n      jump\t// in\n    tag_120:\n      pop\n      0x40\n      dup3\n      add\n      mload\n      dup2\n      0x02\n      add\n      swap1\n      dup2\n      tag_121\n      swap2\n      swap1\n      tag_119\n      jump\t// in\n    tag_121:\n      pop\n      swap1\n      pop\n      pop\n        /* \"contracts/sign_msg.sol\":780:786  allIds */\n      0x01\n        /* \"contracts/sign_msg.sol\":792:801  currentId */\n      sload(0x02)\n        /* \"contracts/sign_msg.sol\":780:802  allIds.push(currentId) */\n      swap1\n      dup1\n      0x01\n      dup2\n      sload\n      add\n      dup1\n      dup3\n      sstore\n      dup1\n      swap2\n      pop\n      pop\n      0x01\n      swap1\n      sub\n      swap1\n      0x00\n      mstore\n      keccak256(0x00, 0x20)\n      add\n      0x00\n      swap1\n      swap2\n      swap1\n      swap2\n      swap1\n      swap2\n      pop\n      sstore\n        /* \"contracts/sign_msg.sol\":813:831  uint256 assignedId */\n      0x00\n        /* \"contracts/sign_msg.sol\":834:843  currentId */\n      sload(0x02)\n        /* \"contracts/sign_msg.sol\":813:843  uint256 assignedId = currentId */\n      swap1\n      pop\n        /* \"contracts/sign_msg.sol\":854:863  currentId */\n      0x02\n      0x00\n        /* \"contracts/sign_msg.sol\":854:865  currentId++ */\n      dup2\n      sload\n      dup1\n      swap3\n      swap2\n      swap1\n      tag_123\n      swap1\n      tag_124\n      jump\t// in\n    tag_123:\n      swap2\n      swap1\n      pop\n      sstore\n      pop\n        /* \"contracts/sign_msg.sol\":883:893  assignedId */\n      dup1\n        /* \"contracts/sign_msg.sol\":876:893  return assignedId */\n      swap2\n      pop\n      pop\n        /* \"contracts/sign_msg.sol\":517:901  function storeSignature(... */\n      swap4\n      swap3\n      pop\n      pop\n      pop\n      jump\t// out\n        /* \"contracts/sign_msg.sol\":444:472  uint256 public currentId = 1 */\n    tag_34:\n      sload(0x02)\n      dup2\n      jump\t// out\n        /* \"#utility.yul\":7:82   */\n    tag_125:\n        /* \"#utility.yul\":40:46   */\n      0x00\n        /* \"#utility.yul\":73:75   */\n      0x40\n        /* \"#utility.yul\":67:76   */\n      mload\n        /* \"#utility.yul\":57:76   */\n      swap1\n      pop\n        /* \"#utility.yul\":7:82   */\n      swap1\n      jump\t// out\n        /* \"#utility.yul\":88:205   */\n    tag_126:\n        /* \"#utility.yul\":197:198   */\n      0x00\n        /* \"#utility.yul\":194:195   */\n      dup1\n        /* \"#utility.yul\":187:199   */\n      revert\n        /* \"#utility.yul\":211:328   */\n    tag_127:\n        /* \"#utility.yul\":320:321   */\n      0x00\n        /* \"#utility.yul\":317:318   */\n      dup1\n        /* \"#utility.yul\":310:322   */\n      revert\n        /* \"#utility.yul\":334:411   */\n    tag_128:\n        /* \"#utility.yul\":371:378   */\n      0x00\n        /* \"#utility.yul\":400:405   */\n      dup2\n        /* \"#utility.yul\":389:405   */\n      swap1\n      pop\n        /* \"#utility.yul\":334:411   */\n      swap2\n      swap1\n      pop\n      jump\t// out\n        /* \"#utility.yul\":417:539   */\n    tag_129:\n        /* \"#utility.yul\":490:514   */\n      tag_183\n        /* \"#utility.yul\":508:513   */\n      dup2\n        /* \"#utility.yul\":490:514   */\n      tag_128\n      jump\t// in\n    tag_183:\n        /* \"#utility.yul\":483:488   */\n      dup2\n        /* \"#utility.yul\":480:515   */\n      eq\n        /* \"#utility.yul\":470:533   */\n      tag_184\n      jumpi\n        /* \"#utility.yul\":529:530   */\n      0x00\n        /* \"#utility.yul\":526:527   */\n      dup1\n        /* \"#utility.yul\":519:531   */\n      revert\n        /* \"#utility.yul\":470:533   */\n    tag_184:\n        /* \"#utility.yul\":417:539   */\n      pop\n      jump\t// out\n        /* \"#utility.yul\":545:684   */\n    tag_130:\n        /* \"#utility.yul\":591:596   */\n      0x00\n        /* \"#utility.yul\":629:635   */\n      dup2\n        /* \"#utility.yul\":616:636   */\n      calldataload\n        /* \"#utility.yul\":607:636   */\n      swap1\n      pop\n        /* \"#utility.yul\":645:678   */\n      tag_186\n        /* \"#utility.yul\":672:677   */\n      dup2\n        /* \"#utility.yul\":645:678   */\n      tag_129\n      jump\t// in\n    tag_186:\n        /* \"#utility.yul\":545:684   */\n      swap3\n      swap2\n      pop\n      pop\n      jump\t// out\n        /* \"#utility.yul\":690:1019   */\n    tag_11:\n        /* \"#utility.yul\":749:755   */\n      0x00\n        /* \"#utility.yul\":798:800   */\n      0x20\n        /* \"#utility.yul\":786:795   */\n      dup3\n        /* \"#utility.yul\":777:784   */\n      dup5\n        /* \"#utility.yul\":773:796   */\n      sub\n        /* \"#utility.yul\":769:801   */\n      slt\n        /* \"#utility.yul\":766:885   */\n      iszero\n      tag_188\n      jumpi\n        /* \"#utility.yul\":804:883   */\n      tag_189\n      tag_126\n      jump\t// in\n    tag_189:\n        /* \"#utility.yul\":766:885   */\n    tag_188:\n        /* \"#utility.yul\":924:925   */\n      0x00\n        /* \"#utility.yul\":949:1002   */\n      tag_190\n        /* \"#utility.yul\":994:1001   */\n      dup5\n        /* \"#utility.yul\":985:991   */\n      dup3\n        /* \"#utility.yul\":974:983   */\n      dup6\n        /* \"#utility.yul\":970:992   */\n      add\n        /* \"#utility.yul\":949:1002   */\n      tag_130\n      jump\t// in\n    tag_190:\n        /* \"#utility.yul\":939:1002   */\n      swap2\n      pop\n        /* \"#utility.yul\":895:1012   */\n      pop\n        /* \"#utility.yul\":690:1019   */\n      swap3\n      swap2\n      pop\n      pop\n      jump\t// out\n        /* \"#utility.yul\":1025:1123   */\n    tag_131:\n        /* \"#utility.yul\":1076:1082   */\n      0x00\n        /* \"#utility.yul\":1110:1115   */\n      dup2\n        /* \"#utility.yul\":1104:1116   */\n      mload\n        /* \"#utility.yul\":1094:1116   */\n      swap1\n      pop\n        /* \"#utility.yul\":1025:1123   */\n      swap2\n      swap1\n      pop\n      jump\t// out\n        /* \"#utility.yul\":1129:1297   */\n    tag_132:\n        /* \"#utility.yul\":1212:1223   */\n      0x00\n        /* \"#utility.yul\":1246:1252   */\n      dup3\n        /* \"#utility.yul\":1241:1244   */\n      dup3\n        /* \"#utility.yul\":1234:1253   */\n      mstore\n        /* \"#utility.yul\":1286:1290   */\n      0x20\n        /* \"#utility.yul\":1281:1284   */\n      dup3\n        /* \"#utility.yul\":1277:1291   */\n      add\n        /* \"#utility.yul\":1262:1291   */\n      swap1\n      pop\n        /* \"#utility.yul\":1129:1297   */\n      swap3\n      swap2\n      pop\n      pop\n      jump\t// out\n        /* \"#utility.yul\":1303:1442   */\n    tag_133:\n        /* \"#utility.yul\":1392:1398   */\n      dup3\n        /* \"#utility.yul\":1387:1390   */\n      dup2\n        /* \"#utility.yul\":1382:1385   */\n      dup4\n        /* \"#utility.yul\":1376:1399   */\n      mcopy\n        /* \"#utility.yul\":1433:1434   */\n      0x00\n        /* \"#utility.yul\":1424:1430   */\n      dup4\n        /* \"#utility.yul\":1419:1422   */\n      dup4\n        /* \"#utility.yul\":1415:1431   */\n      add\n        /* \"#utility.yul\":1408:1435   */\n      mstore\n        /* \"#utility.yul\":1303:1442   */\n      pop\n      pop\n      pop\n      jump\t// out\n        /* \"#utility.yul\":1448:1550   */\n    tag_134:\n        /* \"#utility.yul\":1489:1495   */\n      0x00\n        /* \"#utility.yul\":1540:1542   */\n      0x1f\n        /* \"#utility.yul\":1536:1543   */\n      not\n        /* \"#utility.yul\":1531:1533   */\n      0x1f\n        /* \"#utility.yul\":1524:1529   */\n      dup4\n        /* \"#utility.yul\":1520:1534   */\n      add\n        /* \"#utility.yul\":1516:1544   */\n      and\n        /* \"#utility.yul\":1506:1544   */\n      swap1\n      pop\n        /* \"#utility.yul\":1448:1550   */\n      swap2\n      swap1\n      pop\n      jump\t// out\n        /* \"#utility.yul\":1556:1929   */\n    tag_135:\n        /* \"#utility.yul\":1642:1645   */\n      0x00\n        /* \"#utility.yul\":1670:1708   */\n      tag_196\n        /* \"#utility.yul\":1702:1707   */\n      dup3\n        /* \"#utility.yul\":1670:1708   */\n      tag_131\n      jump\t// in\n    tag_196:\n        /* \"#utility.yul\":1724:1794   */\n      tag_197\n        /* \"#utility.yul\":1787:1793   */\n      dup2\n        /* \"#utility.yul\":1782:1785   */\n      dup6\n        /* \"#utility.yul\":1724:1794   */\n      tag_132\n      jump\t// in\n    tag_197:\n        /* \"#utility.yul\":1717:1794   */\n      swap4\n      pop\n        /* \"#utility.yul\":1803:1868   */\n      tag_198\n        /* \"#utility.yul\":1861:1867   */\n      dup2\n        /* \"#utility.yul\":1856:1859   */\n      dup6\n        /* \"#utility.yul\":1849:1853   */\n      0x20\n        /* \"#utility.yul\":1842:1847   */\n      dup7\n        /* \"#utility.yul\":1838:1854   */\n      add\n        /* \"#utility.yul\":1803:1868   */\n      tag_133\n      jump\t// in\n    tag_198:\n        /* \"#utility.yul\":1893:1922   */\n      tag_199\n        /* \"#utility.yul\":1915:1921   */\n      dup2\n        /* \"#utility.yul\":1893:1922   */\n      tag_134\n      jump\t// in\n    tag_199:\n        /* \"#utility.yul\":1888:1891   */\n      dup5\n        /* \"#utility.yul\":1884:1923   */\n      add\n        /* \"#utility.yul\":1877:1923   */\n      swap2\n      pop\n        /* \"#utility.yul\":1646:1929   */\n      pop\n        /* \"#utility.yul\":1556:1929   */\n      swap3\n      swap2\n      pop\n      pop\n      jump\t// out\n        /* \"#utility.yul\":1935:2638   */\n    tag_14:\n        /* \"#utility.yul\":2138:2142   */\n      0x00\n        /* \"#utility.yul\":2176:2178   */\n      0x60\n        /* \"#utility.yul\":2165:2174   */\n      dup3\n        /* \"#utility.yul\":2161:2179   */\n      add\n        /* \"#utility.yul\":2153:2179   */\n      swap1\n      pop\n        /* \"#utility.yul\":2225:2234   */\n      dup2\n        /* \"#utility.yul\":2219:2223   */\n      dup2\n        /* \"#utility.yul\":2215:2235   */\n      sub\n        /* \"#utility.yul\":2211:2212   */\n      0x00\n        /* \"#utility.yul\":2200:2209   */\n      dup4\n        /* \"#utility.yul\":2196:2213   */\n      add\n        /* \"#utility.yul\":2189:2236   */\n      mstore\n        /* \"#utility.yul\":2253:2329   */\n      tag_201\n        /* \"#utility.yul\":2324:2328   */\n      dup2\n        /* \"#utility.yul\":2315:2321   */\n      dup7\n        /* \"#utility.yul\":2253:2329   */\n      tag_135\n      jump\t// in\n    tag_201:\n        /* \"#utility.yul\":2245:2329   */\n      swap1\n      pop\n        /* \"#utility.yul\":2376:2385   */\n      dup2\n        /* \"#utility.yul\":2370:2374   */\n      dup2\n        /* \"#utility.yul\":2366:2386   */\n      sub\n        /* \"#utility.yul\":2361:2363   */\n      0x20\n        /* \"#utility.yul\":2350:2359   */\n      dup4\n        /* \"#utility.yul\":2346:2364   */\n      add\n        /* \"#utility.yul\":2339:2387   */\n      mstore\n        /* \"#utility.yul\":2404:2480   */\n      tag_202\n        /* \"#utility.yul\":2475:2479   */\n      dup2\n        /* \"#utility.yul\":2466:2472   */\n      dup6\n        /* \"#utility.yul\":2404:2480   */\n      tag_135\n      jump\t// in\n    tag_202:\n        /* \"#utility.yul\":2396:2480   */\n      swap1\n      pop\n        /* \"#utility.yul\":2527:2536   */\n      dup2\n        /* \"#utility.yul\":2521:2525   */\n      dup2\n        /* \"#utility.yul\":2517:2537   */\n      sub\n        /* \"#utility.yul\":2512:2514   */\n      0x40\n        /* \"#utility.yul\":2501:2510   */\n      dup4\n        /* \"#utility.yul\":2497:2515   */\n      add\n        /* \"#utility.yul\":2490:2538   */\n      mstore\n        /* \"#utility.yul\":2555:2631   */\n      tag_203\n        /* \"#utility.yul\":2626:2630   */\n      dup2\n        /* \"#utility.yul\":2617:2623   */\n      dup5\n        /* \"#utility.yul\":2555:2631   */\n      tag_135\n      jump\t// in\n    tag_203:\n        /* \"#utility.yul\":2547:2631   */\n      swap1\n      pop\n        /* \"#utility.yul\":1935:2638   */\n      swap5\n      swap4\n      pop\n      pop\n      pop\n      pop\n      jump\t// out\n        /* \"#utility.yul\":2644:2762   */\n    tag_136:\n        /* \"#utility.yul\":2731:2755   */\n      tag_205\n        /* \"#utility.yul\":2749:2754   */\n      dup2\n        /* \"#utility.yul\":2731:2755   */\n      tag_128\n      jump\t// in\n    tag_205:\n        /* \"#utility.yul\":2726:2729   */\n      dup3\n        /* \"#utility.yul\":2719:2756   */\n      mstore\n        /* \"#utility.yul\":2644:2762   */\n      pop\n      pop\n      jump\t// out\n        /* \"#utility.yul\":2768:2990   */\n    tag_23:\n        /* \"#utility.yul\":2861:2865   */\n      0x00\n        /* \"#utility.yul\":2899:2901   */\n      0x20\n        /* \"#utility.yul\":2888:2897   */\n      dup3\n        /* \"#utility.yul\":2884:2902   */\n      add\n        /* \"#utility.yul\":2876:2902   */\n      swap1\n      pop\n        /* \"#utility.yul\":2912:2983   */\n      tag_207\n        /* \"#utility.yul\":2980:2981   */\n      0x00\n        /* \"#utility.yul\":2969:2978   */\n      dup4\n        /* \"#utility.yul\":2965:2982   */\n      add\n        /* \"#utility.yul\":2956:2962   */\n      dup5\n        /* \"#utility.yul\":2912:2983   */\n      tag_136\n      jump\t// in\n    tag_207:\n        /* \"#utility.yul\":2768:2990   */\n      swap3\n      swap2\n      pop\n      pop\n      jump\t// out\n        /* \"#utility.yul\":2996:3110   */\n    tag_137:\n        /* \"#utility.yul\":3063:3069   */\n      0x00\n        /* \"#utility.yul\":3097:3102   */\n      dup2\n        /* \"#utility.yul\":3091:3103   */\n      mload\n        /* \"#utility.yul\":3081:3103   */\n      swap1\n      pop\n        /* \"#utility.yul\":2996:3110   */\n      swap2\n      swap1\n      pop\n      jump\t// out\n        /* \"#utility.yul\":3116:3300   */\n    tag_138:\n        /* \"#utility.yul\":3215:3226   */\n      0x00\n        /* \"#utility.yul\":3249:3255   */\n      dup3\n        /* \"#utility.yul\":3244:3247   */\n      dup3\n        /* \"#utility.yul\":3237:3256   */\n      mstore\n        /* \"#utility.yul\":3289:3293   */\n      0x20\n        /* \"#utility.yul\":3284:3287   */\n      dup3\n        /* \"#utility.yul\":3280:3294   */\n      add\n        /* \"#utility.yul\":3265:3294   */\n      swap1\n      pop\n        /* \"#utility.yul\":3116:3300   */\n      swap3\n      swap2\n      pop\n      pop\n      jump\t// out\n        /* \"#utility.yul\":3306:3438   */\n    tag_139:\n        /* \"#utility.yul\":3373:3377   */\n      0x00\n        /* \"#utility.yul\":3396:3399   */\n      dup2\n        /* \"#utility.yul\":3388:3399   */\n      swap1\n      pop\n        /* \"#utility.yul\":3426:3430   */\n      0x20\n        /* \"#utility.yul\":3421:3424   */\n      dup3\n        /* \"#utility.yul\":3417:3431   */\n      add\n        /* \"#utility.yul\":3409:3431   */\n      swap1\n      pop\n        /* \"#utility.yul\":3306:3438   */\n      swap2\n      swap1\n      pop\n      jump\t// out\n        /* \"#utility.yul\":3444:3552   */\n    tag_140:\n        /* \"#utility.yul\":3521:3545   */\n      tag_212\n        /* \"#utility.yul\":3539:3544   */\n      dup2\n        /* \"#utility.yul\":3521:3545   */\n      tag_128\n      jump\t// in\n    tag_212:\n        /* \"#utility.yul\":3516:3519   */\n      dup3\n        /* \"#utility.yul\":3509:3546   */\n      mstore\n        /* \"#utility.yul\":3444:3552   */\n      pop\n      pop\n      jump\t// out\n        /* \"#utility.yul\":3558:3737   */\n    tag_141:\n        /* \"#utility.yul\":3627:3637   */\n      0x00\n        /* \"#utility.yul\":3648:3694   */\n      tag_214\n        /* \"#utility.yul\":3690:3693   */\n      dup4\n        /* \"#utility.yul\":3682:3688   */\n      dup4\n        /* \"#utility.yul\":3648:3694   */\n      tag_140\n      jump\t// in\n    tag_214:\n        /* \"#utility.yul\":3726:3730   */\n      0x20\n        /* \"#utility.yul\":3721:3724   */\n      dup4\n        /* \"#utility.yul\":3717:3731   */\n      add\n        /* \"#utility.yul\":3703:3731   */\n      swap1\n      pop\n        /* \"#utility.yul\":3558:3737   */\n      swap3\n      swap2\n      pop\n      pop\n      jump\t// out\n        /* \"#utility.yul\":3743:3856   */\n    tag_142:\n        /* \"#utility.yul\":3813:3817   */\n      0x00\n        /* \"#utility.yul\":3845:3849   */\n      0x20\n        /* \"#utility.yul\":3840:3843   */\n      dup3\n        /* \"#utility.yul\":3836:3850   */\n      add\n        /* \"#utility.yul\":3828:3850   */\n      swap1\n      pop\n        /* \"#utility.yul\":3743:3856   */\n      swap2\n      swap1\n      pop\n      jump\t// out\n        /* \"#utility.yul\":3892:4624   */\n    tag_143:\n        /* \"#utility.yul\":4011:4014   */\n      0x00\n        /* \"#utility.yul\":4040:4094   */\n      tag_217\n        /* \"#utility.yul\":4088:4093   */\n      dup3\n        /* \"#utility.yul\":4040:4094   */\n      tag_137\n      jump\t// in\n    tag_217:\n        /* \"#utility.yul\":4110:4196   */\n      tag_218\n        /* \"#utility.yul\":4189:4195   */\n      dup2\n        /* \"#utility.yul\":4184:4187   */\n      dup6\n        /* \"#utility.yul\":4110:4196   */\n      tag_138\n      jump\t// in\n    tag_218:\n        /* \"#utility.yul\":4103:4196   */\n      swap4\n      pop\n        /* \"#utility.yul\":4220:4276   */\n      tag_219\n        /* \"#utility.yul\":4270:4275   */\n      dup4\n        /* \"#utility.yul\":4220:4276   */\n      tag_139\n      jump\t// in\n    tag_219:\n        /* \"#utility.yul\":4299:4306   */\n      dup1\n        /* \"#utility.yul\":4330:4331   */\n      0x00\n        /* \"#utility.yul\":4315:4599   */\n    tag_220:\n        /* \"#utility.yul\":4340:4346   */\n      dup4\n        /* \"#utility.yul\":4337:4338   */\n      dup2\n        /* \"#utility.yul\":4334:4347   */\n      lt\n        /* \"#utility.yul\":4315:4599   */\n      iszero\n      tag_222\n      jumpi\n        /* \"#utility.yul\":4416:4422   */\n      dup2\n        /* \"#utility.yul\":4410:4423   */\n      mload\n        /* \"#utility.yul\":4443:4506   */\n      tag_223\n        /* \"#utility.yul\":4502:4505   */\n      dup9\n        /* \"#utility.yul\":4487:4500   */\n      dup3\n        /* \"#utility.yul\":4443:4506   */\n      tag_141\n      jump\t// in\n    tag_223:\n        /* \"#utility.yul\":4436:4506   */\n      swap8\n      pop\n        /* \"#utility.yul\":4529:4589   */\n      tag_224\n        /* \"#utility.yul\":4582:4588   */\n      dup4\n        /* \"#utility.yul\":4529:4589   */\n      tag_142\n      jump\t// in\n    tag_224:\n        /* \"#utility.yul\":4519:4589   */\n      swap3\n      pop\n        /* \"#utility.yul\":4375:4599   */\n      pop\n        /* \"#utility.yul\":4362:4363   */\n      0x01\n        /* \"#utility.yul\":4359:4360   */\n      dup2\n        /* \"#utility.yul\":4355:4364   */\n      add\n        /* \"#utility.yul\":4350:4364   */\n      swap1\n      pop\n        /* \"#utility.yul\":4315:4599   */\n      jump(tag_220)\n    tag_222:\n        /* \"#utility.yul\":4319:4333   */\n      pop\n        /* \"#utility.yul\":4615:4618   */\n      dup6\n        /* \"#utility.yul\":4608:4618   */\n      swap4\n      pop\n        /* \"#utility.yul\":4016:4624   */\n      pop\n      pop\n      pop\n        /* \"#utility.yul\":3892:4624   */\n      swap3\n      swap2\n      pop\n      pop\n      jump\t// out\n        /* \"#utility.yul\":4630:4753   */\n    tag_144:\n        /* \"#utility.yul\":4706:4712   */\n      0x00\n        /* \"#utility.yul\":4740:4745   */\n      dup2\n        /* \"#utility.yul\":4734:4746   */\n      mload\n        /* \"#utility.yul\":4724:4746   */\n      swap1\n      pop\n        /* \"#utility.yul\":4630:4753   */\n      swap2\n      swap1\n      pop\n      jump\t// out\n        /* \"#utility.yul\":4759:4952   */\n    tag_145:\n        /* \"#utility.yul\":4867:4878   */\n      0x00\n        /* \"#utility.yul\":4901:4907   */\n      dup3\n        /* \"#utility.yul\":4896:4899   */\n      dup3\n        /* \"#utility.yul\":4889:4908   */\n      mstore\n        /* \"#utility.yul\":4941:4945   */\n      0x20\n        /* \"#utility.yul\":4936:4939   */\n      dup3\n        /* \"#utility.yul\":4932:4946   */\n      add\n        /* \"#utility.yul\":4917:4946   */\n      swap1\n      pop\n        /* \"#utility.yul\":4759:4952   */\n      swap3\n      swap2\n      pop\n      pop\n      jump\t// out\n        /* \"#utility.yul\":4958:5099   */\n    tag_146:\n        /* \"#utility.yul\":5034:5038   */\n      0x00\n        /* \"#utility.yul\":5057:5060   */\n      dup2\n        /* \"#utility.yul\":5049:5060   */\n      swap1\n      pop\n        /* \"#utility.yul\":5087:5091   */\n      0x20\n        /* \"#utility.yul\":5082:5085   */\n      dup3\n        /* \"#utility.yul\":5078:5092   */\n      add\n        /* \"#utility.yul\":5070:5092   */\n      swap1\n      pop\n        /* \"#utility.yul\":4958:5099   */\n      swap2\n      swap1\n      pop\n      jump\t// out\n        /* \"#utility.yul\":5105:5263   */\n    tag_147:\n        /* \"#utility.yul\":5178:5189   */\n      0x00\n        /* \"#utility.yul\":5212:5218   */\n      dup3\n        /* \"#utility.yul\":5207:5210   */\n      dup3\n        /* \"#utility.yul\":5200:5219   */\n      mstore\n        /* \"#utility.yul\":5252:5256   */\n      0x20\n        /* \"#utility.yul\":5247:5250   */\n      dup3\n        /* \"#utility.yul\":5243:5257   */\n      add\n        /* \"#utility.yul\":5228:5257   */\n      swap1\n      pop\n        /* \"#utility.yul\":5105:5263   */\n      swap3\n      swap2\n      pop\n      pop\n      jump\t// out\n        /* \"#utility.yul\":5269:5622   */\n    tag_148:\n        /* \"#utility.yul\":5345:5348   */\n      0x00\n        /* \"#utility.yul\":5373:5411   */\n      tag_230\n        /* \"#utility.yul\":5405:5410   */\n      dup3\n        /* \"#utility.yul\":5373:5411   */\n      tag_131\n      jump\t// in\n    tag_230:\n        /* \"#utility.yul\":5427:5487   */\n      tag_231\n        /* \"#utility.yul\":5480:5486   */\n      dup2\n        /* \"#utility.yul\":5475:5478   */\n      dup6\n        /* \"#utility.yul\":5427:5487   */\n      tag_147\n      jump\t// in\n    tag_231:\n        /* \"#utility.yul\":5420:5487   */\n      swap4\n      pop\n        /* \"#utility.yul\":5496:5561   */\n      tag_232\n        /* \"#utility.yul\":5554:5560   */\n      dup2\n        /* \"#utility.yul\":5549:5552   */\n      dup6\n        /* \"#utility.yul\":5542:5546   */\n      0x20\n        /* \"#utility.yul\":5535:5540   */\n      dup7\n        /* \"#utility.yul\":5531:5547   */\n      add\n        /* \"#utility.yul\":5496:5561   */\n      tag_133\n      jump\t// in\n    tag_232:\n        /* \"#utility.yul\":5586:5615   */\n      tag_233\n        /* \"#utility.yul\":5608:5614   */\n      dup2\n        /* \"#utility.yul\":5586:5615   */\n      tag_134\n      jump\t// in\n    tag_233:\n        /* \"#utility.yul\":5581:5584   */\n      dup5\n        /* \"#utility.yul\":5577:5616   */\n      add\n        /* \"#utility.yul\":5570:5616   */\n      swap2\n      pop\n        /* \"#utility.yul\":5349:5622   */\n      pop\n        /* \"#utility.yul\":5269:5622   */\n      swap3\n      swap2\n      pop\n      pop\n      jump\t// out\n        /* \"#utility.yul\":5628:5820   */\n    tag_149:\n        /* \"#utility.yul\":5715:5725   */\n      0x00\n        /* \"#utility.yul\":5750:5814   */\n      tag_235\n        /* \"#utility.yul\":5810:5813   */\n      dup4\n        /* \"#utility.yul\":5802:5808   */\n      dup4\n        /* \"#utility.yul\":5750:5814   */\n      tag_148\n      jump\t// in\n    tag_235:\n        /* \"#utility.yul\":5736:5814   */\n      swap1\n      pop\n        /* \"#utility.yul\":5628:5820   */\n      swap3\n      swap2\n      pop\n      pop\n      jump\t// out\n        /* \"#utility.yul\":5826:5948   */\n    tag_150:\n        /* \"#utility.yul\":5905:5909   */\n      0x00\n        /* \"#utility.yul\":5937:5941   */\n      0x20\n        /* \"#utility.yul\":5932:5935   */\n      dup3\n        /* \"#utility.yul\":5928:5942   */\n      add\n        /* \"#utility.yul\":5920:5942   */\n      swap1\n      pop\n        /* \"#utility.yul\":5826:5948   */\n      swap2\n      swap1\n      pop\n      jump\t// out\n        /* \"#utility.yul\":5980:6963   */\n    tag_151:\n        /* \"#utility.yul\":6117:6120   */\n      0x00\n        /* \"#utility.yul\":6146:6209   */\n      tag_238\n        /* \"#utility.yul\":6203:6208   */\n      dup3\n        /* \"#utility.yul\":6146:6209   */\n      tag_144\n      jump\t// in\n    tag_238:\n        /* \"#utility.yul\":6225:6320   */\n      tag_239\n        /* \"#utility.yul\":6313:6319   */\n      dup2\n        /* \"#utility.yul\":6308:6311   */\n      dup6\n        /* \"#utility.yul\":6225:6320   */\n      tag_145\n      jump\t// in\n    tag_239:\n        /* \"#utility.yul\":6218:6320   */\n      swap4\n      pop\n        /* \"#utility.yul\":6346:6349   */\n      dup4\n        /* \"#utility.yul\":6391:6395   */\n      0x20\n        /* \"#utility.yul\":6383:6389   */\n      dup3\n        /* \"#utility.yul\":6379:6396   */\n      mul\n        /* \"#utility.yul\":6374:6377   */\n      dup6\n        /* \"#utility.yul\":6370:6397   */\n      add\n        /* \"#utility.yul\":6421:6486   */\n      tag_240\n        /* \"#utility.yul\":6480:6485   */\n      dup6\n        /* \"#utility.yul\":6421:6486   */\n      tag_146\n      jump\t// in\n    tag_240:\n        /* \"#utility.yul\":6509:6516   */\n      dup1\n        /* \"#utility.yul\":6540:6541   */\n      0x00\n        /* \"#utility.yul\":6525:6918   */\n    tag_241:\n        /* \"#utility.yul\":6550:6556   */\n      dup6\n        /* \"#utility.yul\":6547:6548   */\n      dup2\n        /* \"#utility.yul\":6544:6557   */\n      lt\n        /* \"#utility.yul\":6525:6918   */\n      iszero\n      tag_243\n      jumpi\n        /* \"#utility.yul\":6621:6630   */\n      dup5\n        /* \"#utility.yul\":6615:6619   */\n      dup5\n        /* \"#utility.yul\":6611:6631   */\n      sub\n        /* \"#utility.yul\":6606:6609   */\n      dup10\n        /* \"#utility.yul\":6599:6632   */\n      mstore\n        /* \"#utility.yul\":6672:6678   */\n      dup2\n        /* \"#utility.yul\":6666:6679   */\n      mload\n        /* \"#utility.yul\":6700:6782   */\n      tag_244\n        /* \"#utility.yul\":6777:6781   */\n      dup6\n        /* \"#utility.yul\":6762:6775   */\n      dup3\n        /* \"#utility.yul\":6700:6782   */\n      tag_149\n      jump\t// in\n    tag_244:\n        /* \"#utility.yul\":6692:6782   */\n      swap5\n      pop\n        /* \"#utility.yul\":6805:6874   */\n      tag_245\n        /* \"#utility.yul\":6867:6873   */\n      dup4\n        /* \"#utility.yul\":6805:6874   */\n      tag_150\n      jump\t// in\n    tag_245:\n        /* \"#utility.yul\":6795:6874   */\n      swap3\n      pop\n        /* \"#utility.yul\":6903:6907   */\n      0x20\n        /* \"#utility.yul\":6898:6901   */\n      dup11\n        /* \"#utility.yul\":6894:6908   */\n      add\n        /* \"#utility.yul\":6887:6908   */\n      swap10\n      pop\n        /* \"#utility.yul\":6585:6918   */\n      pop\n        /* \"#utility.yul\":6572:6573   */\n      0x01\n        /* \"#utility.yul\":6569:6570   */\n      dup2\n        /* \"#utility.yul\":6565:6574   */\n      add\n        /* \"#utility.yul\":6560:6574   */\n      swap1\n      pop\n        /* \"#utility.yul\":6525:6918   */\n      jump(tag_241)\n    tag_243:\n        /* \"#utility.yul\":6529:6543   */\n      pop\n        /* \"#utility.yul\":6934:6938   */\n      dup3\n        /* \"#utility.yul\":6927:6938   */\n      swap8\n      pop\n        /* \"#utility.yul\":6954:6957   */\n      dup8\n        /* \"#utility.yul\":6947:6957   */\n      swap6\n      pop\n        /* \"#utility.yul\":6122:6963   */\n      pop\n      pop\n      pop\n      pop\n      pop\n        /* \"#utility.yul\":5980:6963   */\n      swap3\n      swap2\n      pop\n      pop\n      jump\t// out\n        /* \"#utility.yul\":6969:8234   */\n    tag_27:\n        /* \"#utility.yul\":7400:7404   */\n      0x00\n        /* \"#utility.yul\":7438:7441   */\n      0x80\n        /* \"#utility.yul\":7427:7436   */\n      dup3\n        /* \"#utility.yul\":7423:7442   */\n      add\n        /* \"#utility.yul\":7415:7442   */\n      swap1\n      pop\n        /* \"#utility.yul\":7488:7497   */\n      dup2\n        /* \"#utility.yul\":7482:7486   */\n      dup2\n        /* \"#utility.yul\":7478:7498   */\n      sub\n        /* \"#utility.yul\":7474:7475   */\n      0x00\n        /* \"#utility.yul\":7463:7472   */\n      dup4\n        /* \"#utility.yul\":7459:7476   */\n      add\n        /* \"#utility.yul\":7452:7499   */\n      mstore\n        /* \"#utility.yul\":7516:7624   */\n      tag_247\n        /* \"#utility.yul\":7619:7623   */\n      dup2\n        /* \"#utility.yul\":7610:7616   */\n      dup8\n        /* \"#utility.yul\":7516:7624   */\n      tag_143\n      jump\t// in\n    tag_247:\n        /* \"#utility.yul\":7508:7624   */\n      swap1\n      pop\n        /* \"#utility.yul\":7671:7680   */\n      dup2\n        /* \"#utility.yul\":7665:7669   */\n      dup2\n        /* \"#utility.yul\":7661:7681   */\n      sub\n        /* \"#utility.yul\":7656:7658   */\n      0x20\n        /* \"#utility.yul\":7645:7654   */\n      dup4\n        /* \"#utility.yul\":7641:7659   */\n      add\n        /* \"#utility.yul\":7634:7682   */\n      mstore\n        /* \"#utility.yul\":7699:7825   */\n      tag_248\n        /* \"#utility.yul\":7820:7824   */\n      dup2\n        /* \"#utility.yul\":7811:7817   */\n      dup7\n        /* \"#utility.yul\":7699:7825   */\n      tag_151\n      jump\t// in\n    tag_248:\n        /* \"#utility.yul\":7691:7825   */\n      swap1\n      pop\n        /* \"#utility.yul\":7872:7881   */\n      dup2\n        /* \"#utility.yul\":7866:7870   */\n      dup2\n        /* \"#utility.yul\":7862:7882   */\n      sub\n        /* \"#utility.yul\":7857:7859   */\n      0x40\n        /* \"#utility.yul\":7846:7855   */\n      dup4\n        /* \"#utility.yul\":7842:7860   */\n      add\n        /* \"#utility.yul\":7835:7883   */\n      mstore\n        /* \"#utility.yul\":7900:8026   */\n      tag_249\n        /* \"#utility.yul\":8021:8025   */\n      dup2\n        /* \"#utility.yul\":8012:8018   */\n      dup6\n        /* \"#utility.yul\":7900:8026   */\n      tag_151\n      jump\t// in\n    tag_249:\n        /* \"#utility.yul\":7892:8026   */\n      swap1\n      pop\n        /* \"#utility.yul\":8073:8082   */\n      dup2\n        /* \"#utility.yul\":8067:8071   */\n      dup2\n        /* \"#utility.yul\":8063:8083   */\n      sub\n        /* \"#utility.yul\":8058:8060   */\n      0x60\n        /* \"#utility.yul\":8047:8056   */\n      dup4\n        /* \"#utility.yul\":8043:8061   */\n      add\n        /* \"#utility.yul\":8036:8084   */\n      mstore\n        /* \"#utility.yul\":8101:8227   */\n      tag_250\n        /* \"#utility.yul\":8222:8226   */\n      dup2\n        /* \"#utility.yul\":8213:8219   */\n      dup5\n        /* \"#utility.yul\":8101:8227   */\n      tag_151\n      jump\t// in\n    tag_250:\n        /* \"#utility.yul\":8093:8227   */\n      swap1\n      pop\n        /* \"#utility.yul\":6969:8234   */\n      swap6\n      swap5\n      pop\n      pop\n      pop\n      pop\n      pop\n      jump\t// out\n        /* \"#utility.yul\":8240:8357   */\n    tag_152:\n        /* \"#utility.yul\":8349:8350   */\n      0x00\n        /* \"#utility.yul\":8346:8347   */\n      dup1\n        /* \"#utility.yul\":8339:8351   */\n      revert\n        /* \"#utility.yul\":8363:8480   */\n    tag_153:\n        /* \"#utility.yul\":8472:8473   */\n      0x00\n        /* \"#utility.yul\":8469:8470   */\n      dup1\n        /* \"#utility.yul\":8462:8474   */\n      revert\n        /* \"#utility.yul\":8486:8666   */\n    tag_73:\n        /* \"#utility.yul\":8534:8611   */\n      0x4e487b7100000000000000000000000000000000000000000000000000000000\n        /* \"#utility.yul\":8531:8532   */\n      0x00\n        /* \"#utility.yul\":8524:8612   */\n      mstore\n        /* \"#utility.yul\":8631:8635   */\n      0x41\n        /* \"#utility.yul\":8628:8629   */\n      0x04\n        /* \"#utility.yul\":8621:8636   */\n      mstore\n        /* \"#utility.yul\":8655:8659   */\n      0x24\n        /* \"#utility.yul\":8652:8653   */\n      0x00\n        /* \"#utility.yul\":8645:8660   */\n      revert\n        /* \"#utility.yul\":8672:8953   */\n    tag_154:\n        /* \"#utility.yul\":8755:8782   */\n      tag_255\n        /* \"#utility.yul\":8777:8781   */\n      dup3\n        /* \"#utility.yul\":8755:8782   */\n      tag_134\n      jump\t// in\n    tag_255:\n        /* \"#utility.yul\":8747:8753   */\n      dup2\n        /* \"#utility.yul\":8743:8783   */\n      add\n        /* \"#utility.yul\":8885:8891   */\n      dup2\n        /* \"#utility.yul\":8873:8883   */\n      dup2\n        /* \"#utility.yul\":8870:8892   */\n      lt\n        /* \"#utility.yul\":8849:8867   */\n      0xffffffffffffffff\n        /* \"#utility.yul\":8837:8847   */\n      dup3\n        /* \"#utility.yul\":8834:8868   */\n      gt\n        /* \"#utility.yul\":8831:8893   */\n      or\n        /* \"#utility.yul\":8828:8916   */\n      iszero\n      tag_256\n      jumpi\n        /* \"#utility.yul\":8896:8914   */\n      tag_257\n      tag_73\n      jump\t// in\n    tag_257:\n        /* \"#utility.yul\":8828:8916   */\n    tag_256:\n        /* \"#utility.yul\":8936:8946   */\n      dup1\n        /* \"#utility.yul\":8932:8934   */\n      0x40\n        /* \"#utility.yul\":8925:8947   */\n      mstore\n        /* \"#utility.yul\":8715:8953   */\n      pop\n        /* \"#utility.yul\":8672:8953   */\n      pop\n      pop\n      jump\t// out\n        /* \"#utility.yul\":8959:9088   */\n    tag_155:\n        /* \"#utility.yul\":8993:8999   */\n      0x00\n        /* \"#utility.yul\":9020:9040   */\n      tag_259\n      tag_125\n      jump\t// in\n    tag_259:\n        /* \"#utility.yul\":9010:9040   */\n      swap1\n      pop\n        /* \"#utility.yul\":9049:9082   */\n      tag_260\n        /* \"#utility.yul\":9077:9081   */\n      dup3\n        /* \"#utility.yul\":9069:9075   */\n      dup3\n        /* \"#utility.yul\":9049:9082   */\n      tag_154\n      jump\t// in\n    tag_260:\n        /* \"#utility.yul\":8959:9088   */\n      swap2\n      swap1\n      pop\n      jump\t// out\n        /* \"#utility.yul\":9094:9401   */\n    tag_156:\n        /* \"#utility.yul\":9155:9159   */\n      0x00\n        /* \"#utility.yul\":9245:9263   */\n      0xffffffffffffffff\n        /* \"#utility.yul\":9237:9243   */\n      dup3\n        /* \"#utility.yul\":9234:9264   */\n      gt\n        /* \"#utility.yul\":9231:9287   */\n      iszero\n      tag_262\n      jumpi\n        /* \"#utility.yul\":9267:9285   */\n      tag_263\n      tag_73\n      jump\t// in\n    tag_263:\n        /* \"#utility.yul\":9231:9287   */\n    tag_262:\n        /* \"#utility.yul\":9305:9334   */\n      tag_264\n        /* \"#utility.yul\":9327:9333   */\n      dup3\n        /* \"#utility.yul\":9305:9334   */\n      tag_134\n      jump\t// in\n    tag_264:\n        /* \"#utility.yul\":9297:9334   */\n      swap1\n      pop\n        /* \"#utility.yul\":9389:9393   */\n      0x20\n        /* \"#utility.yul\":9383:9387   */\n      dup2\n        /* \"#utility.yul\":9379:9394   */\n      add\n        /* \"#utility.yul\":9371:9394   */\n      swap1\n      pop\n        /* \"#utility.yul\":9094:9401   */\n      swap2\n      swap1\n      pop\n      jump\t// out\n        /* \"#utility.yul\":9407:9555   */\n    tag_157:\n        /* \"#utility.yul\":9505:9511   */\n      dup3\n        /* \"#utility.yul\":9500:9503   */\n      dup2\n        /* \"#utility.yul\":9495:9498   */\n      dup4\n        /* \"#utility.yul\":9482:9512   */\n      calldatacopy\n        /* \"#utility.yul\":9546:9547   */\n      0x00\n        /* \"#utility.yul\":9537:9543   */\n      dup4\n        /* \"#utility.yul\":9532:9535   */\n      dup4\n        /* \"#utility.yul\":9528:9544   */\n      add\n        /* \"#utility.yul\":9521:9548   */\n      mstore\n        /* \"#utility.yul\":9407:9555   */\n      pop\n      pop\n      pop\n      jump\t// out\n        /* \"#utility.yul\":9561:9984   */\n    tag_158:\n        /* \"#utility.yul\":9638:9643   */\n      0x00\n        /* \"#utility.yul\":9663:9728   */\n      tag_267\n        /* \"#utility.yul\":9679:9727   */\n      tag_268\n        /* \"#utility.yul\":9720:9726   */\n      dup5\n        /* \"#utility.yul\":9679:9727   */\n      tag_156\n      jump\t// in\n    tag_268:\n        /* \"#utility.yul\":9663:9728   */\n      tag_155\n      jump\t// in\n    tag_267:\n        /* \"#utility.yul\":9654:9728   */\n      swap1\n      pop\n        /* \"#utility.yul\":9751:9757   */\n      dup3\n        /* \"#utility.yul\":9744:9749   */\n      dup2\n        /* \"#utility.yul\":9737:9758   */\n      mstore\n        /* \"#utility.yul\":9789:9793   */\n      0x20\n        /* \"#utility.yul\":9782:9787   */\n      dup2\n        /* \"#utility.yul\":9778:9794   */\n      add\n        /* \"#utility.yul\":9827:9830   */\n      dup5\n        /* \"#utility.yul\":9818:9824   */\n      dup5\n        /* \"#utility.yul\":9813:9816   */\n      dup5\n        /* \"#utility.yul\":9809:9825   */\n      add\n        /* \"#utility.yul\":9806:9831   */\n      gt\n        /* \"#utility.yul\":9803:9915   */\n      iszero\n      tag_269\n      jumpi\n        /* \"#utility.yul\":9834:9913   */\n      tag_270\n      tag_153\n      jump\t// in\n    tag_270:\n        /* \"#utility.yul\":9803:9915   */\n    tag_269:\n        /* \"#utility.yul\":9924:9978   */\n      tag_271\n        /* \"#utility.yul\":9971:9977   */\n      dup5\n        /* \"#utility.yul\":9966:9969   */\n      dup3\n        /* \"#utility.yul\":9961:9964   */\n      dup6\n        /* \"#utility.yul\":9924:9978   */\n      tag_157\n      jump\t// in\n    tag_271:\n        /* \"#utility.yul\":9644:9984   */\n      pop\n        /* \"#utility.yul\":9561:9984   */\n      swap4\n      swap3\n      pop\n      pop\n      pop\n      jump\t// out\n        /* \"#utility.yul\":10003:10341   */\n    tag_159:\n        /* \"#utility.yul\":10058:10063   */\n      0x00\n        /* \"#utility.yul\":10107:10110   */\n      dup3\n        /* \"#utility.yul\":10100:10104   */\n      0x1f\n        /* \"#utility.yul\":10092:10098   */\n      dup4\n        /* \"#utility.yul\":10088:10105   */\n      add\n        /* \"#utility.yul\":10084:10111   */\n      slt\n        /* \"#utility.yul\":10074:10196   */\n      tag_273\n      jumpi\n        /* \"#utility.yul\":10115:10194   */\n      tag_274\n      tag_152\n      jump\t// in\n    tag_274:\n        /* \"#utility.yul\":10074:10196   */\n    tag_273:\n        /* \"#utility.yul\":10232:10238   */\n      dup2\n        /* \"#utility.yul\":10219:10239   */\n      calldataload\n        /* \"#utility.yul\":10257:10335   */\n      tag_275\n        /* \"#utility.yul\":10331:10334   */\n      dup5\n        /* \"#utility.yul\":10323:10329   */\n      dup3\n        /* \"#utility.yul\":10316:10320   */\n      0x20\n        /* \"#utility.yul\":10308:10314   */\n      dup7\n        /* \"#utility.yul\":10304:10321   */\n      add\n        /* \"#utility.yul\":10257:10335   */\n      tag_158\n      jump\t// in\n    tag_275:\n        /* \"#utility.yul\":10248:10335   */\n      swap2\n      pop\n        /* \"#utility.yul\":10064:10341   */\n      pop\n        /* \"#utility.yul\":10003:10341   */\n      swap3\n      swap2\n      pop\n      pop\n      jump\t// out\n        /* \"#utility.yul\":10347:11500   */\n    tag_30:\n        /* \"#utility.yul\":10451:10457   */\n      0x00\n        /* \"#utility.yul\":10459:10465   */\n      dup1\n        /* \"#utility.yul\":10467:10473   */\n      0x00\n        /* \"#utility.yul\":10516:10518   */\n      0x60\n        /* \"#utility.yul\":10504:10513   */\n      dup5\n        /* \"#utility.yul\":10495:10502   */\n      dup7\n        /* \"#utility.yul\":10491:10514   */\n      sub\n        /* \"#utility.yul\":10487:10519   */\n      slt\n        /* \"#utility.yul\":10484:10603   */\n      iszero\n      tag_277\n      jumpi\n        /* \"#utility.yul\":10522:10601   */\n      tag_278\n      tag_126\n      jump\t// in\n    tag_278:\n        /* \"#utility.yul\":10484:10603   */\n    tag_277:\n        /* \"#utility.yul\":10670:10671   */\n      0x00\n        /* \"#utility.yul\":10659:10668   */\n      dup5\n        /* \"#utility.yul\":10655:10672   */\n      add\n        /* \"#utility.yul\":10642:10673   */\n      calldataload\n        /* \"#utility.yul\":10700:10718   */\n      0xffffffffffffffff\n        /* \"#utility.yul\":10692:10698   */\n      dup2\n        /* \"#utility.yul\":10689:10719   */\n      gt\n        /* \"#utility.yul\":10686:10803   */\n      iszero\n      tag_279\n      jumpi\n        /* \"#utility.yul\":10722:10801   */\n      tag_280\n      tag_127\n      jump\t// in\n    tag_280:\n        /* \"#utility.yul\":10686:10803   */\n    tag_279:\n        /* \"#utility.yul\":10827:10889   */\n      tag_281\n        /* \"#utility.yul\":10881:10888   */\n      dup7\n        /* \"#utility.yul\":10872:10878   */\n      dup3\n        /* \"#utility.yul\":10861:10870   */\n      dup8\n        /* \"#utility.yul\":10857:10879   */\n      add\n        /* \"#utility.yul\":10827:10889   */\n      tag_159\n      jump\t// in\n    tag_281:\n        /* \"#utility.yul\":10817:10889   */\n      swap4\n      pop\n        /* \"#utility.yul\":10613:10899   */\n      pop\n        /* \"#utility.yul\":10966:10968   */\n      0x20\n        /* \"#utility.yul\":10955:10964   */\n      dup5\n        /* \"#utility.yul\":10951:10969   */\n      add\n        /* \"#utility.yul\":10938:10970   */\n      calldataload\n        /* \"#utility.yul\":10997:11015   */\n      0xffffffffffffffff\n        /* \"#utility.yul\":10989:10995   */\n      dup2\n        /* \"#utility.yul\":10986:11016   */\n      gt\n        /* \"#utility.yul\":10983:11100   */\n      iszero\n      tag_282\n      jumpi\n        /* \"#utility.yul\":11019:11098   */\n      tag_283\n      tag_127\n      jump\t// in\n    tag_283:\n        /* \"#utility.yul\":10983:11100   */\n    tag_282:\n        /* \"#utility.yul\":11124:11186   */\n      tag_284\n        /* \"#utility.yul\":11178:11185   */\n      dup7\n        /* \"#utility.yul\":11169:11175   */\n      dup3\n        /* \"#utility.yul\":11158:11167   */\n      dup8\n        /* \"#utility.yul\":11154:11176   */\n      add\n        /* \"#utility.yul\":11124:11186   */\n      tag_159\n      jump\t// in\n    tag_284:\n        /* \"#utility.yul\":11114:11186   */\n      swap3\n      pop\n        /* \"#utility.yul\":10909:11196   */\n      pop\n        /* \"#utility.yul\":11263:11265   */\n      0x40\n        /* \"#utility.yul\":11252:11261   */\n      dup5\n        /* \"#utility.yul\":11248:11266   */\n      add\n        /* \"#utility.yul\":11235:11267   */\n      calldataload\n        /* \"#utility.yul\":11294:11312   */\n      0xffffffffffffffff\n        /* \"#utility.yul\":11286:11292   */\n      dup2\n        /* \"#utility.yul\":11283:11313   */\n      gt\n        /* \"#utility.yul\":11280:11397   */\n      iszero\n      tag_285\n      jumpi\n        /* \"#utility.yul\":11316:11395   */\n      tag_286\n      tag_127\n      jump\t// in\n    tag_286:\n        /* \"#utility.yul\":11280:11397   */\n    tag_285:\n        /* \"#utility.yul\":11421:11483   */\n      tag_287\n        /* \"#utility.yul\":11475:11482   */\n      dup7\n        /* \"#utility.yul\":11466:11472   */\n      dup3\n        /* \"#utility.yul\":11455:11464   */\n      dup8\n        /* \"#utility.yul\":11451:11473   */\n      add\n        /* \"#utility.yul\":11421:11483   */\n      tag_159\n      jump\t// in\n    tag_287:\n        /* \"#utility.yul\":11411:11483   */\n      swap2\n      pop\n        /* \"#utility.yul\":11206:11493   */\n      pop\n        /* \"#utility.yul\":10347:11500   */\n      swap3\n      pop\n      swap3\n      pop\n      swap3\n      jump\t// out\n        /* \"#utility.yul\":11506:11686   */\n    tag_160:\n        /* \"#utility.yul\":11554:11631   */\n      0x4e487b7100000000000000000000000000000000000000000000000000000000\n        /* \"#utility.yul\":11551:11552   */\n      0x00\n        /* \"#utility.yul\":11544:11632   */\n      mstore\n        /* \"#utility.yul\":11651:11655   */\n      0x22\n        /* \"#utility.yul\":11648:11649   */\n      0x04\n        /* \"#utility.yul\":11641:11656   */\n      mstore\n        /* \"#utility.yul\":11675:11679   */\n      0x24\n        /* \"#utility.yul\":11672:11673   */\n      0x00\n        /* \"#utility.yul\":11665:11680   */\n      revert\n        /* \"#utility.yul\":11692:12012   */\n    tag_38:\n        /* \"#utility.yul\":11736:11742   */\n      0x00\n        /* \"#utility.yul\":11773:11774   */\n      0x02\n        /* \"#utility.yul\":11767:11771   */\n      dup3\n        /* \"#utility.yul\":11763:11775   */\n      div\n        /* \"#utility.yul\":11753:11775   */\n      swap1\n      pop\n        /* \"#utility.yul\":11820:11821   */\n      0x01\n        /* \"#utility.yul\":11814:11818   */\n      dup3\n        /* \"#utility.yul\":11810:11822   */\n      and\n        /* \"#utility.yul\":11841:11859   */\n      dup1\n        /* \"#utility.yul\":11831:11912   */\n      tag_290\n      jumpi\n        /* \"#utility.yul\":11897:11901   */\n      0x7f\n        /* \"#utility.yul\":11889:11895   */\n      dup3\n        /* \"#utility.yul\":11885:11902   */\n      and\n        /* \"#utility.yul\":11875:11902   */\n      swap2\n      pop\n        /* \"#utility.yul\":11831:11912   */\n    tag_290:\n        /* \"#utility.yul\":11959:11961   */\n      0x20\n        /* \"#utility.yul\":11951:11957   */\n      dup3\n        /* \"#utility.yul\":11948:11962   */\n      lt\n        /* \"#utility.yul\":11928:11946   */\n      dup2\n        /* \"#utility.yul\":11925:11963   */\n      sub\n        /* \"#utility.yul\":11922:12006   */\n      tag_291\n      jumpi\n        /* \"#utility.yul\":11978:11996   */\n      tag_292\n      tag_160\n      jump\t// in\n    tag_292:\n        /* \"#utility.yul\":11922:12006   */\n    tag_291:\n        /* \"#utility.yul\":11743:12012   */\n      pop\n        /* \"#utility.yul\":11692:12012   */\n      swap2\n      swap1\n      pop\n      jump\t// out\n        /* \"#utility.yul\":12018:12198   */\n    tag_92:\n        /* \"#utility.yul\":12066:12143   */\n      0x4e487b7100000000000000000000000000000000000000000000000000000000\n        /* \"#utility.yul\":12063:12064   */\n      0x00\n        /* \"#utility.yul\":12056:12144   */\n      mstore\n        /* \"#utility.yul\":12163:12167   */\n      0x32\n        /* \"#utility.yul\":12160:12161   */\n      0x04\n        /* \"#utility.yul\":12153:12168   */\n      mstore\n        /* \"#utility.yul\":12187:12191   */\n      0x24\n        /* \"#utility.yul\":12184:12185   */\n      0x00\n        /* \"#utility.yul\":12177:12192   */\n      revert\n        /* \"#utility.yul\":12204:12344   */\n    tag_161:\n        /* \"#utility.yul\":12252:12256   */\n      0x00\n        /* \"#utility.yul\":12275:12278   */\n      dup2\n        /* \"#utility.yul\":12267:12278   */\n      swap1\n      pop\n        /* \"#utility.yul\":12298:12301   */\n      dup2\n        /* \"#utility.yul\":12295:12296   */\n      0x00\n        /* \"#utility.yul\":12288:12302   */\n      mstore\n        /* \"#utility.yul\":12332:12336   */\n      0x20\n        /* \"#utility.yul\":12329:12330   */\n      0x00\n        /* \"#utility.yul\":12319:12337   */\n      keccak256\n        /* \"#utility.yul\":12311:12337   */\n      swap1\n      pop\n        /* \"#utility.yul\":12204:12344   */\n      swap2\n      swap1\n      pop\n      jump\t// out\n        /* \"#utility.yul\":12350:12443   */\n    tag_162:\n        /* \"#utility.yul\":12387:12393   */\n      0x00\n        /* \"#utility.yul\":12434:12436   */\n      0x20\n        /* \"#utility.yul\":12429:12431   */\n      0x1f\n        /* \"#utility.yul\":12422:12427   */\n      dup4\n        /* \"#utility.yul\":12418:12432   */\n      add\n        /* \"#utility.yul\":12414:12437   */\n      div\n        /* \"#utility.yul\":12404:12437   */\n      swap1\n      pop\n        /* \"#utility.yul\":12350:12443   */\n      swap2\n      swap1\n      pop\n      jump\t// out\n        /* \"#utility.yul\":12449:12556   */\n    tag_163:\n        /* \"#utility.yul\":12493:12501   */\n      0x00\n        /* \"#utility.yul\":12543:12548   */\n      dup3\n        /* \"#utility.yul\":12537:12541   */\n      dup3\n        /* \"#utility.yul\":12533:12549   */\n      shl\n        /* \"#utility.yul\":12512:12549   */\n      swap1\n      pop\n        /* \"#utility.yul\":12449:12556   */\n      swap3\n      swap2\n      pop\n      pop\n      jump\t// out\n        /* \"#utility.yul\":12562:12955   */\n    tag_164:\n        /* \"#utility.yul\":12631:12637   */\n      0x00\n        /* \"#utility.yul\":12681:12682   */\n      0x08\n        /* \"#utility.yul\":12669:12679   */\n      dup4\n        /* \"#utility.yul\":12665:12683   */\n      mul\n        /* \"#utility.yul\":12704:12801   */\n      tag_298\n        /* \"#utility.yul\":12734:12800   */\n      0xffffffffffffffffffffffffffffffffffffffffffffffffffffffffffffffff\n        /* \"#utility.yul\":12723:12732   */\n      dup3\n        /* \"#utility.yul\":12704:12801   */\n      tag_163\n      jump\t// in\n    tag_298:\n        /* \"#utility.yul\":12822:12861   */\n      tag_299\n        /* \"#utility.yul\":12852:12860   */\n      dup7\n        /* \"#utility.yul\":12841:12850   */\n      dup4\n        /* \"#utility.yul\":12822:12861   */\n      tag_163\n      jump\t// in\n    tag_299:\n        /* \"#utility.yul\":12810:12861   */\n      swap6\n      pop\n        /* \"#utility.yul\":12894:12898   */\n      dup1\n        /* \"#utility.yul\":12890:12899   */\n      not\n        /* \"#utility.yul\":12883:12888   */\n      dup5\n        /* \"#utility.yul\":12879:12900   */\n      and\n        /* \"#utility.yul\":12870:12900   */\n      swap4\n      pop\n        /* \"#utility.yul\":12943:12947   */\n      dup1\n        /* \"#utility.yul\":12933:12941   */\n      dup7\n        /* \"#utility.yul\":12929:12948   */\n      and\n        /* \"#utility.yul\":12922:12927   */\n      dup5\n        /* \"#utility.yul\":12919:12949   */\n      or\n        /* \"#utility.yul\":12909:12949   */\n      swap3\n      pop\n        /* \"#utility.yul\":12638:12955   */\n      pop\n      pop\n        /* \"#utility.yul\":12562:12955   */\n      swap4\n      swap3\n      pop\n      pop\n      pop\n      jump\t// out\n        /* \"#utility.yul\":12961:13021   */\n    tag_165:\n        /* \"#utility.yul\":12989:12992   */\n      0x00\n        /* \"#utility.yul\":13010:13015   */\n      dup2\n        /* \"#utility.yul\":13003:13015   */\n      swap1\n      pop\n        /* \"#utility.yul\":12961:13021   */\n      swap2\n      swap1\n      pop\n      jump\t// out\n        /* \"#utility.yul\":13027:13169   */\n    tag_166:\n        /* \"#utility.yul\":13077:13086   */\n      0x00\n        /* \"#utility.yul\":13110:13163   */\n      tag_302\n        /* \"#utility.yul\":13128:13162   */\n      tag_303\n        /* \"#utility.yul\":13137:13161   */\n      tag_304\n        /* \"#utility.yul\":13155:13160   */\n      dup5\n        /* \"#utility.yul\":13137:13161   */\n      tag_128\n      jump\t// in\n    tag_304:\n        /* \"#utility.yul\":13128:13162   */\n      tag_165\n      jump\t// in\n    tag_303:\n        /* \"#utility.yul\":13110:13163   */\n      tag_128\n      jump\t// in\n    tag_302:\n        /* \"#utility.yul\":13097:13163   */\n      swap1\n      pop\n        /* \"#utility.yul\":13027:13169   */\n      swap2\n      swap1\n      pop\n      jump\t// out\n        /* \"#utility.yul\":13175:13250   */\n    tag_167:\n        /* \"#utility.yul\":13218:13221   */\n      0x00\n        /* \"#utility.yul\":13239:13244   */\n      dup2\n        /* \"#utility.yul\":13232:13244   */\n      swap1\n      pop\n        /* \"#utility.yul\":13175:13250   */\n      swap2\n      swap1\n      pop\n      jump\t// out\n        /* \"#utility.yul\":13256:13525   */\n    tag_168:\n        /* \"#utility.yul\":13366:13405   */\n      tag_307\n        /* \"#utility.yul\":13397:13404   */\n      dup4\n        /* \"#utility.yul\":13366:13405   */\n      tag_166\n      jump\t// in\n    tag_307:\n        /* \"#utility.yul\":13427:13518   */\n      tag_308\n        /* \"#utility.yul\":13476:13517   */\n      tag_309\n        /* \"#utility.yul\":13500:13516   */\n      dup3\n        /* \"#utility.yul\":13476:13517   */\n      tag_167\n      jump\t// in\n    tag_309:\n        /* \"#utility.yul\":13468:13474   */\n      dup5\n        /* \"#utility.yul\":13461:13465   */\n      dup5\n        /* \"#utility.yul\":13455:13466   */\n      sload\n        /* \"#utility.yul\":13427:13518   */\n      tag_164\n      jump\t// in\n    tag_308:\n        /* \"#utility.yul\":13421:13425   */\n      dup3\n        /* \"#utility.yul\":13414:13519   */\n      sstore\n        /* \"#utility.yul\":13332:13525   */\n      pop\n        /* \"#utility.yul\":13256:13525   */\n      pop\n      pop\n      pop\n      jump\t// out\n        /* \"#utility.yul\":13531:13604   */\n    tag_169:\n        /* \"#utility.yul\":13576:13579   */\n      0x00\n        /* \"#utility.yul\":13531:13604   */\n      swap1\n      jump\t// out\n        /* \"#utility.yul\":13610:13799   */\n    tag_170:\n        /* \"#utility.yul\":13687:13719   */\n      tag_312\n      tag_169\n      jump\t// in\n    tag_312:\n        /* \"#utility.yul\":13728:13793   */\n      tag_313\n        /* \"#utility.yul\":13786:13792   */\n      dup2\n        /* \"#utility.yul\":13778:13784   */\n      dup5\n        /* \"#utility.yul\":13772:13776   */\n      dup5\n        /* \"#utility.yul\":13728:13793   */\n      tag_168\n      jump\t// in\n    tag_313:\n        /* \"#utility.yul\":13663:13799   */\n      pop\n        /* \"#utility.yul\":13610:13799   */\n      pop\n      pop\n      jump\t// out\n        /* \"#utility.yul\":13805:13991   */\n    tag_171:\n        /* \"#utility.yul\":13865:13985   */\n    tag_315:\n        /* \"#utility.yul\":13882:13885   */\n      dup2\n        /* \"#utility.yul\":13875:13880   */\n      dup2\n        /* \"#utility.yul\":13872:13886   */\n      lt\n        /* \"#utility.yul\":13865:13985   */\n      iszero\n      tag_317\n      jumpi\n        /* \"#utility.yul\":13936:13975   */\n      tag_318\n        /* \"#utility.yul\":13973:13974   */\n      0x00\n        /* \"#utility.yul\":13966:13971   */\n      dup3\n        /* \"#utility.yul\":13936:13975   */\n      tag_170\n      jump\t// in\n    tag_318:\n        /* \"#utility.yul\":13909:13910   */\n      0x01\n        /* \"#utility.yul\":13902:13907   */\n      dup2\n        /* \"#utility.yul\":13898:13911   */\n      add\n        /* \"#utility.yul\":13889:13911   */\n      swap1\n      pop\n        /* \"#utility.yul\":13865:13985   */\n      jump(tag_315)\n    tag_317:\n        /* \"#utility.yul\":13805:13991   */\n      pop\n      pop\n      jump\t// out\n        /* \"#utility.yul\":13997:14538   */\n    tag_172:\n        /* \"#utility.yul\":14097:14099   */\n      0x1f\n        /* \"#utility.yul\":14092:14095   */\n      dup3\n        /* \"#utility.yul\":14089:14100   */\n      gt\n        /* \"#utility.yul\":14086:14531   */\n      iszero\n      tag_320\n      jumpi\n        /* \"#utility.yul\":14131:14168   */\n      tag_321\n        /* \"#utility.yul\":14162:14167   */\n      dup2\n        /* \"#utility.yul\":14131:14168   */\n      tag_161\n      jump\t// in\n    tag_321:\n        /* \"#utility.yul\":14214:14243   */\n      tag_322\n        /* \"#utility.yul\":14232:14242   */\n      dup5\n        /* \"#utility.yul\":14214:14243   */\n      tag_162\n      jump\t// in\n    tag_322:\n        /* \"#utility.yul\":14204:14212   */\n      dup2\n        /* \"#utility.yul\":14200:14244   */\n      add\n        /* \"#utility.yul\":14397:14399   */\n      0x20\n        /* \"#utility.yul\":14385:14395   */\n      dup6\n        /* \"#utility.yul\":14382:14400   */\n      lt\n        /* \"#utility.yul\":14379:14428   */\n      iszero\n      tag_323\n      jumpi\n        /* \"#utility.yul\":14418:14426   */\n      dup2\n        /* \"#utility.yul\":14403:14426   */\n      swap1\n      pop\n        /* \"#utility.yul\":14379:14428   */\n    tag_323:\n        /* \"#utility.yul\":14441:14521   */\n      tag_324\n        /* \"#utility.yul\":14497:14519   */\n      tag_325\n        /* \"#utility.yul\":14515:14518   */\n      dup6\n        /* \"#utility.yul\":14497:14519   */\n      tag_162\n      jump\t// in\n    tag_325:\n        /* \"#utility.yul\":14487:14495   */\n      dup4\n        /* \"#utility.yul\":14483:14520   */\n      add\n        /* \"#utility.yul\":14470:14481   */\n      dup3\n        /* \"#utility.yul\":14441:14521   */\n      tag_171\n      jump\t// in\n    tag_324:\n        /* \"#utility.yul\":14101:14531   */\n      pop\n      pop\n        /* \"#utility.yul\":14086:14531   */\n    tag_320:\n        /* \"#utility.yul\":13997:14538   */\n      pop\n      pop\n      pop\n      jump\t// out\n        /* \"#utility.yul\":14544:14661   */\n    tag_173:\n        /* \"#utility.yul\":14598:14606   */\n      0x00\n        /* \"#utility.yul\":14648:14653   */\n      dup3\n        /* \"#utility.yul\":14642:14646   */\n      dup3\n        /* \"#utility.yul\":14638:14654   */\n      shr\n        /* \"#utility.yul\":14617:14654   */\n      swap1\n      pop\n        /* \"#utility.yul\":14544:14661   */\n      swap3\n      swap2\n      pop\n      pop\n      jump\t// out\n        /* \"#utility.yul\":14667:14836   */\n    tag_174:\n        /* \"#utility.yul\":14711:14717   */\n      0x00\n        /* \"#utility.yul\":14744:14795   */\n      tag_328\n        /* \"#utility.yul\":14792:14793   */\n      0x00\n        /* \"#utility.yul\":14788:14794   */\n      not\n        /* \"#utility.yul\":14780:14785   */\n      dup5\n        /* \"#utility.yul\":14777:14778   */\n      0x08\n        /* \"#utility.yul\":14773:14786   */\n      mul\n        /* \"#utility.yul\":14744:14795   */\n      tag_173\n      jump\t// in\n    tag_328:\n        /* \"#utility.yul\":14740:14796   */\n      not\n        /* \"#utility.yul\":14825:14829   */\n      dup1\n        /* \"#utility.yul\":14819:14823   */\n      dup4\n        /* \"#utility.yul\":14815:14830   */\n      and\n        /* \"#utility.yul\":14805:14830   */\n      swap2\n      pop\n        /* \"#utility.yul\":14718:14836   */\n      pop\n        /* \"#utility.yul\":14667:14836   */\n      swap3\n      swap2\n      pop\n      pop\n      jump\t// out\n        /* \"#utility.yul\":14841:15136   */\n    tag_175:\n        /* \"#utility.yul\":14917:14921   */\n      0x00\n        /* \"#utility.yul\":15063:15092   */\n      tag_330\n        /* \"#utility.yul\":15088:15091   */\n      dup4\n        /* \"#utility.yul\":15082:15086   */\n      dup4\n        /* \"#utility.yul\":15063:15092   */\n      tag_174\n      jump\t// in\n    tag_330:\n        /* \"#utility.yul\":15055:15092   */\n      swap2\n      pop\n        /* \"#utility.yul\":15125:15128   */\n      dup3\n        /* \"#utility.yul\":15122:15123   */\n      0x02\n        /* \"#utility.yul\":15118:15129   */\n      mul\n        /* \"#utility.yul\":15112:15116   */\n      dup3\n        /* \"#utility.yul\":15109:15130   */\n      or\n        /* \"#utility.yul\":15101:15130   */\n      swap1\n      pop\n        /* \"#utility.yul\":14841:15136   */\n      swap3\n      swap2\n      pop\n      pop\n      jump\t// out\n        /* \"#utility.yul\":15141:16531   */\n    tag_119:\n        /* \"#utility.yul\":15256:15292   */\n      tag_332\n        /* \"#utility.yul\":15288:15291   */\n      dup3\n        /* \"#utility.yul\":15256:15292   */\n      tag_131\n      jump\t// in\n    tag_332:\n        /* \"#utility.yul\":15357:15375   */\n      0xffffffffffffffff\n        /* \"#utility.yul\":15349:15355   */\n      dup2\n        /* \"#utility.yul\":15346:15376   */\n      gt\n        /* \"#utility.yul\":15343:15399   */\n      iszero\n      tag_333\n      jumpi\n        /* \"#utility.yul\":15379:15397   */\n      tag_334\n      tag_73\n      jump\t// in\n    tag_334:\n        /* \"#utility.yul\":15343:15399   */\n    tag_333:\n        /* \"#utility.yul\":15423:15461   */\n      tag_335\n        /* \"#utility.yul\":15455:15459   */\n      dup3\n        /* \"#utility.yul\":15449:15460   */\n      sload\n        /* \"#utility.yul\":15423:15461   */\n      tag_38\n      jump\t// in\n    tag_335:\n        /* \"#utility.yul\":15508:15574   */\n      tag_336\n        /* \"#utility.yul\":15567:15573   */\n      dup3\n        /* \"#utility.yul\":15559:15565   */\n      dup3\n        /* \"#utility.yul\":15553:15557   */\n      dup6\n        /* \"#utility.yul\":15508:15574   */\n      tag_172\n      jump\t// in\n    tag_336:\n        /* \"#utility.yul\":15601:15602   */\n      0x00\n        /* \"#utility.yul\":15625:15629   */\n      0x20\n        /* \"#utility.yul\":15612:15629   */\n      swap1\n      pop\n        /* \"#utility.yul\":15657:15659   */\n      0x1f\n        /* \"#utility.yul\":15649:15655   */\n      dup4\n        /* \"#utility.yul\":15646:15660   */\n      gt\n        /* \"#utility.yul\":15674:15675   */\n      0x01\n        /* \"#utility.yul\":15669:16286   */\n      dup2\n      eq\n      tag_338\n      jumpi\n        /* \"#utility.yul\":16330:16331   */\n      0x00\n        /* \"#utility.yul\":16347:16353   */\n      dup5\n        /* \"#utility.yul\":16344:16421   */\n      iszero\n      tag_339\n      jumpi\n        /* \"#utility.yul\":16396:16405   */\n      dup3\n        /* \"#utility.yul\":16391:16394   */\n      dup8\n        /* \"#utility.yul\":16387:16406   */\n      add\n        /* \"#utility.yul\":16381:16407   */\n      mload\n        /* \"#utility.yul\":16372:16407   */\n      swap1\n      pop\n        /* \"#utility.yul\":16344:16421   */\n    tag_339:\n        /* \"#utility.yul\":16447:16514   */\n      tag_340\n        /* \"#utility.yul\":16507:16513   */\n      dup6\n        /* \"#utility.yul\":16500:16505   */\n      dup3\n        /* \"#utility.yul\":16447:16514   */\n      tag_175\n      jump\t// in\n    tag_340:\n        /* \"#utility.yul\":16441:16445   */\n      dup7\n        /* \"#utility.yul\":16434:16515   */\n      sstore\n        /* \"#utility.yul\":16303:16525   */\n      pop\n        /* \"#utility.yul\":15639:16525   */\n      jump(tag_337)\n        /* \"#utility.yul\":15669:16286   */\n    tag_338:\n        /* \"#utility.yul\":15721:15725   */\n      0x1f\n        /* \"#utility.yul\":15717:15726   */\n      not\n        /* \"#utility.yul\":15709:15715   */\n      dup5\n        /* \"#utility.yul\":15705:15727   */\n      and\n        /* \"#utility.yul\":15755:15791   */\n      tag_341\n        /* \"#utility.yul\":15786:15790   */\n      dup7\n        /* \"#utility.yul\":15755:15791   */\n      tag_161\n      jump\t// in\n    tag_341:\n        /* \"#utility.yul\":15813:15814   */\n      0x00\n        /* \"#utility.yul\":15827:16035   */\n    tag_342:\n        /* \"#utility.yul\":15841:15848   */\n      dup3\n        /* \"#utility.yul\":15838:15839   */\n      dup2\n        /* \"#utility.yul\":15835:15849   */\n      lt\n        /* \"#utility.yul\":15827:16035   */\n      iszero\n      tag_344\n      jumpi\n        /* \"#utility.yul\":15920:15929   */\n      dup5\n        /* \"#utility.yul\":15915:15918   */\n      dup10\n        /* \"#utility.yul\":15911:15930   */\n      add\n        /* \"#utility.yul\":15905:15931   */\n      mload\n        /* \"#utility.yul\":15897:15903   */\n      dup3\n        /* \"#utility.yul\":15890:15932   */\n      sstore\n        /* \"#utility.yul\":15971:15972   */\n      0x01\n        /* \"#utility.yul\":15963:15969   */\n      dup3\n        /* \"#utility.yul\":15959:15973   */\n      add\n        /* \"#utility.yul\":15949:15973   */\n      swap2\n      pop\n        /* \"#utility.yul\":16018:16020   */\n      0x20\n        /* \"#utility.yul\":16007:16016   */\n      dup6\n        /* \"#utility.yul\":16003:16021   */\n      add\n        /* \"#utility.yul\":15990:16021   */\n      swap5\n      pop\n        /* \"#utility.yul\":15864:15868   */\n      0x20\n        /* \"#utility.yul\":15861:15862   */\n      dup2\n        /* \"#utility.yul\":15857:15869   */\n      add\n        /* \"#utility.yul\":15852:15869   */\n      swap1\n      pop\n        /* \"#utility.yul\":15827:16035   */\n      jump(tag_342)\n    tag_344:\n        /* \"#utility.yul\":16063:16069   */\n      dup7\n        /* \"#utility.yul\":16054:16061   */\n      dup4\n        /* \"#utility.yul\":16051:16070   */\n      lt\n        /* \"#utility.yul\":16048:16227   */\n      iszero\n      tag_345\n      jumpi\n        /* \"#utility.yul\":16121:16130   */\n      dup5\n        /* \"#utility.yul\":16116:16119   */\n      dup10\n        /* \"#utility.yul\":16112:16131   */\n      add\n        /* \"#utility.yul\":16106:16132   */\n      mload\n        /* \"#utility.yul\":16164:16212   */\n      tag_346\n        /* \"#utility.yul\":16206:16210   */\n      0x1f\n        /* \"#utility.yul\":16198:16204   */\n      dup10\n        /* \"#utility.yul\":16194:16211   */\n      and\n        /* \"#utility.yul\":16183:16192   */\n      dup3\n        /* \"#utility.yul\":16164:16212   */\n      tag_174\n      jump\t// in\n    tag_346:\n        /* \"#utility.yul\":16156:16162   */\n      dup4\n        /* \"#utility.yul\":16149:16213   */\n      sstore\n        /* \"#utility.yul\":16071:16227   */\n      pop\n        /* \"#utility.yul\":16048:16227   */\n    tag_345:\n        /* \"#utility.yul\":16273:16274   */\n      0x01\n        /* \"#utility.yul\":16269:16270   */\n      0x02\n        /* \"#utility.yul\":16261:16267   */\n      dup9\n        /* \"#utility.yul\":16257:16271   */\n      mul\n        /* \"#utility.yul\":16253:16275   */\n      add\n        /* \"#utility.yul\":16247:16251   */\n      dup9\n        /* \"#utility.yul\":16240:16276   */\n      sstore\n        /* \"#utility.yul\":15676:16286   */\n      pop\n      pop\n      pop\n        /* \"#utility.yul\":15639:16525   */\n    tag_337:\n      pop\n        /* \"#utility.yul\":15231:16531   */\n      pop\n      pop\n      pop\n        /* \"#utility.yul\":15141:16531   */\n      pop\n      pop\n      jump\t// out\n        /* \"#utility.yul\":16537:16717   */\n    tag_176:\n        /* \"#utility.yul\":16585:16662   */\n      0x4e487b7100000000000000000000000000000000000000000000000000000000\n        /* \"#utility.yul\":16582:16583   */\n      0x00\n        /* \"#utility.yul\":16575:16663   */\n      mstore\n        /* \"#utility.yul\":16682:16686   */\n      0x11\n        /* \"#utility.yul\":16679:16680   */\n      0x04\n        /* \"#utility.yul\":16672:16687   */\n      mstore\n        /* \"#utility.yul\":16706:16710   */\n      0x24\n        /* \"#utility.yul\":16703:16704   */\n      0x00\n        /* \"#utility.yul\":16696:16711   */\n      revert\n        /* \"#utility.yul\":16723:16956   */\n    tag_124:\n        /* \"#utility.yul\":16762:16765   */\n      0x00\n        /* \"#utility.yul\":16785:16809   */\n      tag_349\n        /* \"#utility.yul\":16803:16808   */\n      dup3\n        /* \"#utility.yul\":16785:16809   */\n      tag_128\n      jump\t// in\n    tag_349:\n        /* \"#utility.yul\":16776:16809   */\n      swap2\n      pop\n        /* \"#utility.yul\":16831:16897   */\n      0xffffffffffffffffffffffffffffffffffffffffffffffffffffffffffffffff\n        /* \"#utility.yul\":16824:16829   */\n      dup3\n        /* \"#utility.yul\":16821:16898   */\n      sub\n        /* \"#utility.yul\":16818:16921   */\n      tag_350\n      jumpi\n        /* \"#utility.yul\":16901:16919   */\n      tag_351\n      tag_176\n      jump\t// in\n    tag_351:\n        /* \"#utility.yul\":16818:16921   */\n    tag_350:\n        /* \"#utility.yul\":16948:16949   */\n      0x01\n        /* \"#utility.yul\":16941:16946   */\n      dup3\n        /* \"#utility.yul\":16937:16950   */\n      add\n        /* \"#utility.yul\":16930:16950   */\n      swap1\n      pop\n        /* \"#utility.yul\":16723:16956   */\n      swap2\n      swap1\n      pop\n      jump\t// out\n\n    auxdata: 0xa2646970667358221220218deec516e3710881b129ecf06213a63c58a8fc0f7d68f8592664071e6e051064736f6c634300081a0033\n}\n",
				"bytecode": {
					"linkReferences": {},
					"object": "608060405260016002553480156013575f80fd5b506112c1806100215f395ff3fe608060405234801561000f575f80fd5b5060043610610060575f3560e01c80630e0dd69114610064578063205d04d914610096578063692776ea146100c8578063906b6d98146100f8578063b8c1254214610119578063e00dd16114610149575b5f80fd5b61007e60048036038101906100799190610a2b565b610167565b60405161008d93929190610ac6565b60405180910390f35b6100b060048036038101906100ab9190610a2b565b610355565b6040516100bf93929190610ac6565b60405180910390f35b6100e260048036038101906100dd9190610a2b565b61050c565b6040516100ef9190610b1f565b60405180910390f35b61010061052c565b6040516101109493929190610cf2565b60405180910390f35b610133600480360381019061012e9190610e7d565b610920565b6040516101409190610b1f565b60405180910390f35b6101516109e1565b60405161015e9190610b1f565b60405180910390f35b60608060605f805f8681526020019081526020015f206040518060600160405290815f8201805461019790610f4e565b80601f01602080910402602001604051908101604052809291908181526020018280546101c390610f4e565b801561020e5780601f106101e55761010080835404028352916020019161020e565b820191905f5260205f20905b8154815290600101906020018083116101f157829003601f168201915b5050505050815260200160018201805461022790610f4e565b80601f016020809104026020016040519081016040528092919081815260200182805461025390610f4e565b801561029e5780601f106102755761010080835404028352916020019161029e565b820191905f5260205f20905b81548152906001019060200180831161028157829003601f168201915b505050505081526020016002820180546102b790610f4e565b80601f01602080910402602001604051908101604052809291908181526020018280546102e390610f4e565b801561032e5780601f106103055761010080835404028352916020019161032e565b820191905f5260205f20905b81548152906001019060200180831161031157829003601f168201915b5050505050815250509050805f015181602001518260400151935093509350509193909250565b5f602052805f5260405f205f91509050805f01805461037390610f4e565b80601f016020809104026020016040519081016040528092919081815260200182805461039f90610f4e565b80156103ea5780601f106103c1576101008083540402835291602001916103ea565b820191905f5260205f20905b8154815290600101906020018083116103cd57829003601f168201915b5050505050908060010180546103ff90610f4e565b80601f016020809104026020016040519081016040528092919081815260200182805461042b90610f4e565b80156104765780601f1061044d57610100808354040283529160200191610476565b820191905f5260205f20905b81548152906001019060200180831161045957829003601f168201915b50505050509080600201805461048b90610f4e565b80601f01602080910402602001604051908101604052809291908181526020018280546104b790610f4e565b80156105025780601f106104d957610100808354040283529160200191610502565b820191905f5260205f20905b8154815290600101906020018083116104e557829003601f168201915b5050505050905083565b6001818154811061051b575f80fd5b905f5260205f20015f915090505481565b6060806060805f60018054905090505f8167ffffffffffffffff81111561055657610555610d59565b5b6040519080825280602002602001820160405280156105845781602001602082028036833780820191505090505b5090505f8267ffffffffffffffff8111156105a2576105a1610d59565b5b6040519080825280602002602001820160405280156105d557816020015b60608152602001906001900390816105c05790505b5090505f8367ffffffffffffffff8111156105f3576105f2610d59565b5b60405190808252806020026020018201604052801561062657816020015b60608152602001906001900390816106115790505b5090505f8467ffffffffffffffff81111561064457610643610d59565b5b60405190808252806020026020018201604052801561067757816020015b60608152602001906001900390816106625790505b5090505f5b85811015610908575f6001828154811061069957610698610f7e565b5b905f5260205f2001549050808683815181106106b8576106b7610f7e565b5b6020026020010181815250505f805f8381526020019081526020015f206040518060600160405290815f820180546106ef90610f4e565b80601f016020809104026020016040519081016040528092919081815260200182805461071b90610f4e565b80156107665780601f1061073d57610100808354040283529160200191610766565b820191905f5260205f20905b81548152906001019060200180831161074957829003601f168201915b5050505050815260200160018201805461077f90610f4e565b80601f01602080910402602001604051908101604052809291908181526020018280546107ab90610f4e565b80156107f65780601f106107cd576101008083540402835291602001916107f6565b820191905f5260205f20905b8154815290600101906020018083116107d957829003601f168201915b5050505050815260200160028201805461080f90610f4e565b80601f016020809104026020016040519081016040528092919081815260200182805461083b90610f4e565b80156108865780601f1061085d57610100808354040283529160200191610886565b820191905f5260205f20905b81548152906001019060200180831161086957829003601f168201915b5050505050815250509050805f01518684815181106108a8576108a7610f7e565b5b602002602001018190525080602001518584815181106108cb576108ca610f7e565b5b602002602001018190525080604001518484815181106108ee576108ed610f7e565b5b60200260200101819052505050808060010191505061067c565b50838383839850985098509850505050505090919293565b5f6040518060600160405280858152602001848152602001838152505f8060025481526020019081526020015f205f820151815f0190816109619190611148565b5060208201518160010190816109779190611148565b50604082015181600201908161098d9190611148565b509050506001600254908060018154018082558091505060019003905f5260205f20015f90919091909150555f600254905060025f8154809291906109d190611244565b9190505550809150509392505050565b60025481565b5f604051905090565b5f80fd5b5f80fd5b5f819050919050565b610a0a816109f8565b8114610a14575f80fd5b50565b5f81359050610a2581610a01565b92915050565b5f60208284031215610a4057610a3f6109f0565b5b5f610a4d84828501610a17565b91505092915050565b5f81519050919050565b5f82825260208201905092915050565b8281835e5f83830152505050565b5f601f19601f8301169050919050565b5f610a9882610a56565b610aa28185610a60565b9350610ab2818560208601610a70565b610abb81610a7e565b840191505092915050565b5f6060820190508181035f830152610ade8186610a8e565b90508181036020830152610af28185610a8e565b90508181036040830152610b068184610a8e565b9050949350505050565b610b19816109f8565b82525050565b5f602082019050610b325f830184610b10565b92915050565b5f81519050919050565b5f82825260208201905092915050565b5f819050602082019050919050565b610b6a816109f8565b82525050565b5f610b7b8383610b61565b60208301905092915050565b5f602082019050919050565b5f610b9d82610b38565b610ba78185610b42565b9350610bb283610b52565b805f5b83811015610be2578151610bc98882610b70565b9750610bd483610b87565b925050600181019050610bb5565b5085935050505092915050565b5f81519050919050565b5f82825260208201905092915050565b5f819050602082019050919050565b5f82825260208201905092915050565b5f610c3282610a56565b610c3c8185610c18565b9350610c4c818560208601610a70565b610c5581610a7e565b840191505092915050565b5f610c6b8383610c28565b905092915050565b5f602082019050919050565b5f610c8982610bef565b610c938185610bf9565b935083602082028501610ca585610c09565b805f5b85811015610ce05784840389528151610cc18582610c60565b9450610ccc83610c73565b925060208a01995050600181019050610ca8565b50829750879550505050505092915050565b5f6080820190508181035f830152610d0a8187610b93565b90508181036020830152610d1e8186610c7f565b90508181036040830152610d328185610c7f565b90508181036060830152610d468184610c7f565b905095945050505050565b5f80fd5b5f80fd5b7f4e487b71000000000000000000000000000000000000000000000000000000005f52604160045260245ffd5b610d8f82610a7e565b810181811067ffffffffffffffff82111715610dae57610dad610d59565b5b80604052505050565b5f610dc06109e7565b9050610dcc8282610d86565b919050565b5f67ffffffffffffffff821115610deb57610dea610d59565b5b610df482610a7e565b9050602081019050919050565b828183375f83830152505050565b5f610e21610e1c84610dd1565b610db7565b905082815260208101848484011115610e3d57610e3c610d55565b5b610e48848285610e01565b509392505050565b5f82601f830112610e6457610e63610d51565b5b8135610e74848260208601610e0f565b91505092915050565b5f805f60608486031215610e9457610e936109f0565b5b5f84013567ffffffffffffffff811115610eb157610eb06109f4565b5b610ebd86828701610e50565b935050602084013567ffffffffffffffff811115610ede57610edd6109f4565b5b610eea86828701610e50565b925050604084013567ffffffffffffffff811115610f0b57610f0a6109f4565b5b610f1786828701610e50565b9150509250925092565b7f4e487b71000000000000000000000000000000000000000000000000000000005f52602260045260245ffd5b5f6002820490506001821680610f6557607f821691505b602082108103610f7857610f77610f21565b5b50919050565b7f4e487b71000000000000000000000000000000000000000000000000000000005f52603260045260245ffd5b5f819050815f5260205f209050919050565b5f6020601f8301049050919050565b5f82821b905092915050565b5f600883026110077fffffffffffffffffffffffffffffffffffffffffffffffffffffffffffffffff82610fcc565b6110118683610fcc565b95508019841693508086168417925050509392505050565b5f819050919050565b5f61104c611047611042846109f8565b611029565b6109f8565b9050919050565b5f819050919050565b61106583611032565b61107961107182611053565b848454610fd8565b825550505050565b5f90565b61108d611081565b61109881848461105c565b505050565b5b818110156110bb576110b05f82611085565b60018101905061109e565b5050565b601f821115611100576110d181610fab565b6110da84610fbd565b810160208510156110e9578190505b6110fd6110f585610fbd565b83018261109d565b50505b505050565b5f82821c905092915050565b5f6111205f1984600802611105565b1980831691505092915050565b5f6111388383611111565b9150826002028217905092915050565b61115182610a56565b67ffffffffffffffff81111561116a57611169610d59565b5b6111748254610f4e565b61117f8282856110bf565b5f60209050601f8311600181146111b0575f841561119e578287015190505b6111a8858261112d565b86555061120f565b601f1984166111be86610fab565b5f5b828110156111e5578489015182556001820191506020850194506020810190506111c0565b8683101561120257848901516111fe601f891682611111565b8355505b6001600288020188555050505b505050505050565b7f4e487b71000000000000000000000000000000000000000000000000000000005f52601160045260245ffd5b5f61124e826109f8565b91507fffffffffffffffffffffffffffffffffffffffffffffffffffffffffffffffff82036112805761127f611217565b5b60018201905091905056fea2646970667358221220218deec516e3710881b129ecf06213a63c58a8fc0f7d68f8592664071e6e051064736f6c634300081a0033",
					"opcodes": "PUSH1 0x80 PUSH1 0x40 MSTORE PUSH1 0x1 PUSH1 0x2 SSTORE CALLVALUE DUP1 ISZERO PUSH1 0x13 JUMPI PUSH0 DUP1 REVERT JUMPDEST POP PUSH2 0x12C1 DUP1 PUSH2 0x21 PUSH0 CODECOPY PUSH0 RETURN INVALID PUSH1 0x80 PUSH1 0x40 MSTORE CALLVALUE DUP1 ISZERO PUSH2 0xF JUMPI PUSH0 DUP1 REVERT JUMPDEST POP PUSH1 0x4 CALLDATASIZE LT PUSH2 0x60 JUMPI PUSH0 CALLDATALOAD PUSH1 0xE0 SHR DUP1 PUSH4 0xE0DD691 EQ PUSH2 0x64 JUMPI DUP1 PUSH4 0x205D04D9 EQ PUSH2 0x96 JUMPI DUP1 PUSH4 0x692776EA EQ PUSH2 0xC8 JUMPI DUP1 PUSH4 0x906B6D98 EQ PUSH2 0xF8 JUMPI DUP1 PUSH4 0xB8C12542 EQ PUSH2 0x119 JUMPI DUP1 PUSH4 0xE00DD161 EQ PUSH2 0x149 JUMPI JUMPDEST PUSH0 DUP1 REVERT JUMPDEST PUSH2 0x7E PUSH1 0x4 DUP1 CALLDATASIZE SUB DUP2 ADD SWAP1 PUSH2 0x79 SWAP2 SWAP1 PUSH2 0xA2B JUMP JUMPDEST PUSH2 0x167 JUMP JUMPDEST PUSH1 0x40 MLOAD PUSH2 0x8D SWAP4 SWAP3 SWAP2 SWAP1 PUSH2 0xAC6 JUMP JUMPDEST PUSH1 0x40 MLOAD DUP1 SWAP2 SUB SWAP1 RETURN JUMPDEST PUSH2 0xB0 PUSH1 0x4 DUP1 CALLDATASIZE SUB DUP2 ADD SWAP1 PUSH2 0xAB SWAP2 SWAP1 PUSH2 0xA2B JUMP JUMPDEST PUSH2 0x355 JUMP JUMPDEST PUSH1 0x40 MLOAD PUSH2 0xBF SWAP4 SWAP3 SWAP2 SWAP1 PUSH2 0xAC6 JUMP JUMPDEST PUSH1 0x40 MLOAD DUP1 SWAP2 SUB SWAP1 RETURN JUMPDEST PUSH2 0xE2 PUSH1 0x4 DUP1 CALLDATASIZE SUB DUP2 ADD SWAP1 PUSH2 0xDD SWAP2 SWAP1 PUSH2 0xA2B JUMP JUMPDEST PUSH2 0x50C JUMP JUMPDEST PUSH1 0x40 MLOAD PUSH2 0xEF SWAP2 SWAP1 PUSH2 0xB1F JUMP JUMPDEST PUSH1 0x40 MLOAD DUP1 SWAP2 SUB SWAP1 RETURN JUMPDEST PUSH2 0x100 PUSH2 0x52C JUMP JUMPDEST PUSH1 0x40 MLOAD PUSH2 0x110 SWAP5 SWAP4 SWAP3 SWAP2 SWAP1 PUSH2 0xCF2 JUMP JUMPDEST PUSH1 0x40 MLOAD DUP1 SWAP2 SUB SWAP1 RETURN JUMPDEST PUSH2 0x133 PUSH1 0x4 DUP1 CALLDATASIZE SUB DUP2 ADD SWAP1 PUSH2 0x12E SWAP2 SWAP1 PUSH2 0xE7D JUMP JUMPDEST PUSH2 0x920 JUMP JUMPDEST PUSH1 0x40 MLOAD PUSH2 0x140 SWAP2 SWAP1 PUSH2 0xB1F JUMP JUMPDEST PUSH1 0x40 MLOAD DUP1 SWAP2 SUB SWAP1 RETURN JUMPDEST PUSH2 0x151 PUSH2 0x9E1 JUMP JUMPDEST PUSH1 0x40 MLOAD PUSH2 0x15E SWAP2 SWAP1 PUSH2 0xB1F JUMP JUMPDEST PUSH1 0x40 MLOAD DUP1 SWAP2 SUB SWAP1 RETURN JUMPDEST PUSH1 0x60 DUP1 PUSH1 0x60 PUSH0 DUP1 PUSH0 DUP7 DUP2 MSTORE PUSH1 0x20 ADD SWAP1 DUP2 MSTORE PUSH1 0x20 ADD PUSH0 KECCAK256 PUSH1 0x40 MLOAD DUP1 PUSH1 0x60 ADD PUSH1 0x40 MSTORE SWAP1 DUP2 PUSH0 DUP3 ADD DUP1 SLOAD PUSH2 0x197 SWAP1 PUSH2 0xF4E JUMP JUMPDEST DUP1 PUSH1 0x1F ADD PUSH1 0x20 DUP1 SWAP2 DIV MUL PUSH1 0x20 ADD PUSH1 0x40 MLOAD SWAP1 DUP2 ADD PUSH1 0x40 MSTORE DUP1 SWAP3 SWAP2 SWAP1 DUP2 DUP2 MSTORE PUSH1 0x20 ADD DUP3 DUP1 SLOAD PUSH2 0x1C3 SWAP1 PUSH2 0xF4E JUMP JUMPDEST DUP1 ISZERO PUSH2 0x20E JUMPI DUP1 PUSH1 0x1F LT PUSH2 0x1E5 JUMPI PUSH2 0x100 DUP1 DUP4 SLOAD DIV MUL DUP4 MSTORE SWAP2 PUSH1 0x20 ADD SWAP2 PUSH2 0x20E JUMP JUMPDEST DUP3 ADD SWAP2 SWAP1 PUSH0 MSTORE PUSH1 0x20 PUSH0 KECCAK256 SWAP1 JUMPDEST DUP2 SLOAD DUP2 MSTORE SWAP1 PUSH1 0x1 ADD SWAP1 PUSH1 0x20 ADD DUP1 DUP4 GT PUSH2 0x1F1 JUMPI DUP3 SWAP1 SUB PUSH1 0x1F AND DUP3 ADD SWAP2 JUMPDEST POP POP POP POP POP DUP2 MSTORE PUSH1 0x20 ADD PUSH1 0x1 DUP3 ADD DUP1 SLOAD PUSH2 0x227 SWAP1 PUSH2 0xF4E JUMP JUMPDEST DUP1 PUSH1 0x1F ADD PUSH1 0x20 DUP1 SWAP2 DIV MUL PUSH1 0x20 ADD PUSH1 0x40 MLOAD SWAP1 DUP2 ADD PUSH1 0x40 MSTORE DUP1 SWAP3 SWAP2 SWAP1 DUP2 DUP2 MSTORE PUSH1 0x20 ADD DUP3 DUP1 SLOAD PUSH2 0x253 SWAP1 PUSH2 0xF4E JUMP JUMPDEST DUP1 ISZERO PUSH2 0x29E JUMPI DUP1 PUSH1 0x1F LT PUSH2 0x275 JUMPI PUSH2 0x100 DUP1 DUP4 SLOAD DIV MUL DUP4 MSTORE SWAP2 PUSH1 0x20 ADD SWAP2 PUSH2 0x29E JUMP JUMPDEST DUP3 ADD SWAP2 SWAP1 PUSH0 MSTORE PUSH1 0x20 PUSH0 KECCAK256 SWAP1 JUMPDEST DUP2 SLOAD DUP2 MSTORE SWAP1 PUSH1 0x1 ADD SWAP1 PUSH1 0x20 ADD DUP1 DUP4 GT PUSH2 0x281 JUMPI DUP3 SWAP1 SUB PUSH1 0x1F AND DUP3 ADD SWAP2 JUMPDEST POP POP POP POP POP DUP2 MSTORE PUSH1 0x20 ADD PUSH1 0x2 DUP3 ADD DUP1 SLOAD PUSH2 0x2B7 SWAP1 PUSH2 0xF4E JUMP JUMPDEST DUP1 PUSH1 0x1F ADD PUSH1 0x20 DUP1 SWAP2 DIV MUL PUSH1 0x20 ADD PUSH1 0x40 MLOAD SWAP1 DUP2 ADD PUSH1 0x40 MSTORE DUP1 SWAP3 SWAP2 SWAP1 DUP2 DUP2 MSTORE PUSH1 0x20 ADD DUP3 DUP1 SLOAD PUSH2 0x2E3 SWAP1 PUSH2 0xF4E JUMP JUMPDEST DUP1 ISZERO PUSH2 0x32E JUMPI DUP1 PUSH1 0x1F LT PUSH2 0x305 JUMPI PUSH2 0x100 DUP1 DUP4 SLOAD DIV MUL DUP4 MSTORE SWAP2 PUSH1 0x20 ADD SWAP2 PUSH2 0x32E JUMP JUMPDEST DUP3 ADD SWAP2 SWAP1 PUSH0 MSTORE PUSH1 0x20 PUSH0 KECCAK256 SWAP1 JUMPDEST DUP2 SLOAD DUP2 MSTORE SWAP1 PUSH1 0x1 ADD SWAP1 PUSH1 0x20 ADD DUP1 DUP4 GT PUSH2 0x311 JUMPI DUP3 SWAP1 SUB PUSH1 0x1F AND DUP3 ADD SWAP2 JUMPDEST POP POP POP POP POP DUP2 MSTORE POP POP SWAP1 POP DUP1 PUSH0 ADD MLOAD DUP2 PUSH1 0x20 ADD MLOAD DUP3 PUSH1 0x40 ADD MLOAD SWAP4 POP SWAP4 POP SWAP4 POP POP SWAP2 SWAP4 SWAP1 SWAP3 POP JUMP JUMPDEST PUSH0 PUSH1 0x20 MSTORE DUP1 PUSH0 MSTORE PUSH1 0x40 PUSH0 KECCAK256 PUSH0 SWAP2 POP SWAP1 POP DUP1 PUSH0 ADD DUP1 SLOAD PUSH2 0x373 SWAP1 PUSH2 0xF4E JUMP JUMPDEST DUP1 PUSH1 0x1F ADD PUSH1 0x20 DUP1 SWAP2 DIV MUL PUSH1 0x20 ADD PUSH1 0x40 MLOAD SWAP1 DUP2 ADD PUSH1 0x40 MSTORE DUP1 SWAP3 SWAP2 SWAP1 DUP2 DUP2 MSTORE PUSH1 0x20 ADD DUP3 DUP1 SLOAD PUSH2 0x39F SWAP1 PUSH2 0xF4E JUMP JUMPDEST DUP1 ISZERO PUSH2 0x3EA JUMPI DUP1 PUSH1 0x1F LT PUSH2 0x3C1 JUMPI PUSH2 0x100 DUP1 DUP4 SLOAD DIV MUL DUP4 MSTORE SWAP2 PUSH1 0x20 ADD SWAP2 PUSH2 0x3EA JUMP JUMPDEST DUP3 ADD SWAP2 SWAP1 PUSH0 MSTORE PUSH1 0x20 PUSH0 KECCAK256 SWAP1 JUMPDEST DUP2 SLOAD DUP2 MSTORE SWAP1 PUSH1 0x1 ADD SWAP1 PUSH1 0x20 ADD DUP1 DUP4 GT PUSH2 0x3CD JUMPI DUP3 SWAP1 SUB PUSH1 0x1F AND DUP3 ADD SWAP2 JUMPDEST POP POP POP POP POP SWAP1 DUP1 PUSH1 0x1 ADD DUP1 SLOAD PUSH2 0x3FF SWAP1 PUSH2 0xF4E JUMP JUMPDEST DUP1 PUSH1 0x1F ADD PUSH1 0x20 DUP1 SWAP2 DIV MUL PUSH1 0x20 ADD PUSH1 0x40 MLOAD SWAP1 DUP2 ADD PUSH1 0x40 MSTORE DUP1 SWAP3 SWAP2 SWAP1 DUP2 DUP2 MSTORE PUSH1 0x20 ADD DUP3 DUP1 SLOAD PUSH2 0x42B SWAP1 PUSH2 0xF4E JUMP JUMPDEST DUP1 ISZERO PUSH2 0x476 JUMPI DUP1 PUSH1 0x1F LT PUSH2 0x44D JUMPI PUSH2 0x100 DUP1 DUP4 SLOAD DIV MUL DUP4 MSTORE SWAP2 PUSH1 0x20 ADD SWAP2 PUSH2 0x476 JUMP JUMPDEST DUP3 ADD SWAP2 SWAP1 PUSH0 MSTORE PUSH1 0x20 PUSH0 KECCAK256 SWAP1 JUMPDEST DUP2 SLOAD DUP2 MSTORE SWAP1 PUSH1 0x1 ADD SWAP1 PUSH1 0x20 ADD DUP1 DUP4 GT PUSH2 0x459 JUMPI DUP3 SWAP1 SUB PUSH1 0x1F AND DUP3 ADD SWAP2 JUMPDEST POP POP POP POP POP SWAP1 DUP1 PUSH1 0x2 ADD DUP1 SLOAD PUSH2 0x48B SWAP1 PUSH2 0xF4E JUMP JUMPDEST DUP1 PUSH1 0x1F ADD PUSH1 0x20 DUP1 SWAP2 DIV MUL PUSH1 0x20 ADD PUSH1 0x40 MLOAD SWAP1 DUP2 ADD PUSH1 0x40 MSTORE DUP1 SWAP3 SWAP2 SWAP1 DUP2 DUP2 MSTORE PUSH1 0x20 ADD DUP3 DUP1 SLOAD PUSH2 0x4B7 SWAP1 PUSH2 0xF4E JUMP JUMPDEST DUP1 ISZERO PUSH2 0x502 JUMPI DUP1 PUSH1 0x1F LT PUSH2 0x4D9 JUMPI PUSH2 0x100 DUP1 DUP4 SLOAD DIV MUL DUP4 MSTORE SWAP2 PUSH1 0x20 ADD SWAP2 PUSH2 0x502 JUMP JUMPDEST DUP3 ADD SWAP2 SWAP1 PUSH0 MSTORE PUSH1 0x20 PUSH0 KECCAK256 SWAP1 JUMPDEST DUP2 SLOAD DUP2 MSTORE SWAP1 PUSH1 0x1 ADD SWAP1 PUSH1 0x20 ADD DUP1 DUP4 GT PUSH2 0x4E5 JUMPI DUP3 SWAP1 SUB PUSH1 0x1F AND DUP3 ADD SWAP2 JUMPDEST POP POP POP POP POP SWAP1 POP DUP4 JUMP JUMPDEST PUSH1 0x1 DUP2 DUP2 SLOAD DUP2 LT PUSH2 0x51B JUMPI PUSH0 DUP1 REVERT JUMPDEST SWAP1 PUSH0 MSTORE PUSH1 0x20 PUSH0 KECCAK256 ADD PUSH0 SWAP2 POP SWAP1 POP SLOAD DUP2 JUMP JUMPDEST PUSH1 0x60 DUP1 PUSH1 0x60 DUP1 PUSH0 PUSH1 0x1 DUP1 SLOAD SWAP1 POP SWAP1 POP PUSH0 DUP2 PUSH8 0xFFFFFFFFFFFFFFFF DUP2 GT ISZERO PUSH2 0x556 JUMPI PUSH2 0x555 PUSH2 0xD59 JUMP JUMPDEST JUMPDEST PUSH1 0x40 MLOAD SWAP1 DUP1 DUP3 MSTORE DUP1 PUSH1 0x20 MUL PUSH1 0x20 ADD DUP3 ADD PUSH1 0x40 MSTORE DUP1 ISZERO PUSH2 0x584 JUMPI DUP2 PUSH1 0x20 ADD PUSH1 0x20 DUP3 MUL DUP1 CALLDATASIZE DUP4 CALLDATACOPY DUP1 DUP3 ADD SWAP2 POP POP SWAP1 POP JUMPDEST POP SWAP1 POP PUSH0 DUP3 PUSH8 0xFFFFFFFFFFFFFFFF DUP2 GT ISZERO PUSH2 0x5A2 JUMPI PUSH2 0x5A1 PUSH2 0xD59 JUMP JUMPDEST JUMPDEST PUSH1 0x40 MLOAD SWAP1 DUP1 DUP3 MSTORE DUP1 PUSH1 0x20 MUL PUSH1 0x20 ADD DUP3 ADD PUSH1 0x40 MSTORE DUP1 ISZERO PUSH2 0x5D5 JUMPI DUP2 PUSH1 0x20 ADD JUMPDEST PUSH1 0x60 DUP2 MSTORE PUSH1 0x20 ADD SWAP1 PUSH1 0x1 SWAP1 SUB SWAP1 DUP2 PUSH2 0x5C0 JUMPI SWAP1 POP JUMPDEST POP SWAP1 POP PUSH0 DUP4 PUSH8 0xFFFFFFFFFFFFFFFF DUP2 GT ISZERO PUSH2 0x5F3 JUMPI PUSH2 0x5F2 PUSH2 0xD59 JUMP JUMPDEST JUMPDEST PUSH1 0x40 MLOAD SWAP1 DUP1 DUP3 MSTORE DUP1 PUSH1 0x20 MUL PUSH1 0x20 ADD DUP3 ADD PUSH1 0x40 MSTORE DUP1 ISZERO PUSH2 0x626 JUMPI DUP2 PUSH1 0x20 ADD JUMPDEST PUSH1 0x60 DUP2 MSTORE PUSH1 0x20 ADD SWAP1 PUSH1 0x1 SWAP1 SUB SWAP1 DUP2 PUSH2 0x611 JUMPI SWAP1 POP JUMPDEST POP SWAP1 POP PUSH0 DUP5 PUSH8 0xFFFFFFFFFFFFFFFF DUP2 GT ISZERO PUSH2 0x644 JUMPI PUSH2 0x643 PUSH2 0xD59 JUMP JUMPDEST JUMPDEST PUSH1 0x40 MLOAD SWAP1 DUP1 DUP3 MSTORE DUP1 PUSH1 0x20 MUL PUSH1 0x20 ADD DUP3 ADD PUSH1 0x40 MSTORE DUP1 ISZERO PUSH2 0x677 JUMPI DUP2 PUSH1 0x20 ADD JUMPDEST PUSH1 0x60 DUP2 MSTORE PUSH1 0x20 ADD SWAP1 PUSH1 0x1 SWAP1 SUB SWAP1 DUP2 PUSH2 0x662 JUMPI SWAP1 POP JUMPDEST POP SWAP1 POP PUSH0 JUMPDEST DUP6 DUP2 LT ISZERO PUSH2 0x908 JUMPI PUSH0 PUSH1 0x1 DUP3 DUP2 SLOAD DUP2 LT PUSH2 0x699 JUMPI PUSH2 0x698 PUSH2 0xF7E JUMP JUMPDEST JUMPDEST SWAP1 PUSH0 MSTORE PUSH1 0x20 PUSH0 KECCAK256 ADD SLOAD SWAP1 POP DUP1 DUP7 DUP4 DUP2 MLOAD DUP2 LT PUSH2 0x6B8 JUMPI PUSH2 0x6B7 PUSH2 0xF7E JUMP JUMPDEST JUMPDEST PUSH1 0x20 MUL PUSH1 0x20 ADD ADD DUP2 DUP2 MSTORE POP POP PUSH0 DUP1 PUSH0 DUP4 DUP2 MSTORE PUSH1 0x20 ADD SWAP1 DUP2 MSTORE PUSH1 0x20 ADD PUSH0 KECCAK256 PUSH1 0x40 MLOAD DUP1 PUSH1 0x60 ADD PUSH1 0x40 MSTORE SWAP1 DUP2 PUSH0 DUP3 ADD DUP1 SLOAD PUSH2 0x6EF SWAP1 PUSH2 0xF4E JUMP JUMPDEST DUP1 PUSH1 0x1F ADD PUSH1 0x20 DUP1 SWAP2 DIV MUL PUSH1 0x20 ADD PUSH1 0x40 MLOAD SWAP1 DUP2 ADD PUSH1 0x40 MSTORE DUP1 SWAP3 SWAP2 SWAP1 DUP2 DUP2 MSTORE PUSH1 0x20 ADD DUP3 DUP1 SLOAD PUSH2 0x71B SWAP1 PUSH2 0xF4E JUMP JUMPDEST DUP1 ISZERO PUSH2 0x766 JUMPI DUP1 PUSH1 0x1F LT PUSH2 0x73D JUMPI PUSH2 0x100 DUP1 DUP4 SLOAD DIV MUL DUP4 MSTORE SWAP2 PUSH1 0x20 ADD SWAP2 PUSH2 0x766 JUMP JUMPDEST DUP3 ADD SWAP2 SWAP1 PUSH0 MSTORE PUSH1 0x20 PUSH0 KECCAK256 SWAP1 JUMPDEST DUP2 SLOAD DUP2 MSTORE SWAP1 PUSH1 0x1 ADD SWAP1 PUSH1 0x20 ADD DUP1 DUP4 GT PUSH2 0x749 JUMPI DUP3 SWAP1 SUB PUSH1 0x1F AND DUP3 ADD SWAP2 JUMPDEST POP POP POP POP POP DUP2 MSTORE PUSH1 0x20 ADD PUSH1 0x1 DUP3 ADD DUP1 SLOAD PUSH2 0x77F SWAP1 PUSH2 0xF4E JUMP JUMPDEST DUP1 PUSH1 0x1F ADD PUSH1 0x20 DUP1 SWAP2 DIV MUL PUSH1 0x20 ADD PUSH1 0x40 MLOAD SWAP1 DUP2 ADD PUSH1 0x40 MSTORE DUP1 SWAP3 SWAP2 SWAP1 DUP2 DUP2 MSTORE PUSH1 0x20 ADD DUP3 DUP1 SLOAD PUSH2 0x7AB SWAP1 PUSH2 0xF4E JUMP JUMPDEST DUP1 ISZERO PUSH2 0x7F6 JUMPI DUP1 PUSH1 0x1F LT PUSH2 0x7CD JUMPI PUSH2 0x100 DUP1 DUP4 SLOAD DIV MUL DUP4 MSTORE SWAP2 PUSH1 0x20 ADD SWAP2 PUSH2 0x7F6 JUMP JUMPDEST DUP3 ADD SWAP2 SWAP1 PUSH0 MSTORE PUSH1 0x20 PUSH0 KECCAK256 SWAP1 JUMPDEST DUP2 SLOAD DUP2 MSTORE SWAP1 PUSH1 0x1 ADD SWAP1 PUSH1 0x20 ADD DUP1 DUP4 GT PUSH2 0x7D9 JUMPI DUP3 SWAP1 SUB PUSH1 0x1F AND DUP3 ADD SWAP2 JUMPDEST POP POP POP POP POP DUP2 MSTORE PUSH1 0x20 ADD PUSH1 0x2 DUP3 ADD DUP1 SLOAD PUSH2 0x80F SWAP1 PUSH2 0xF4E JUMP JUMPDEST DUP1 PUSH1 0x1F ADD PUSH1 0x20 DUP1 SWAP2 DIV MUL PUSH1 0x20 ADD PUSH1 0x40 MLOAD SWAP1 DUP2 ADD PUSH1 0x40 MSTORE DUP1 SWAP3 SWAP2 SWAP1 DUP2 DUP2 MSTORE PUSH1 0x20 ADD DUP3 DUP1 SLOAD PUSH2 0x83B SWAP1 PUSH2 0xF4E JUMP JUMPDEST DUP1 ISZERO PUSH2 0x886 JUMPI DUP1 PUSH1 0x1F LT PUSH2 0x85D JUMPI PUSH2 0x100 DUP1 DUP4 SLOAD DIV MUL DUP4 MSTORE SWAP2 PUSH1 0x20 ADD SWAP2 PUSH2 0x886 JUMP JUMPDEST DUP3 ADD SWAP2 SWAP1 PUSH0 MSTORE PUSH1 0x20 PUSH0 KECCAK256 SWAP1 JUMPDEST DUP2 SLOAD DUP2 MSTORE SWAP1 PUSH1 0x1 ADD SWAP1 PUSH1 0x20 ADD DUP1 DUP4 GT PUSH2 0x869 JUMPI DUP3 SWAP1 SUB PUSH1 0x1F AND DUP3 ADD SWAP2 JUMPDEST POP POP POP POP POP DUP2 MSTORE POP POP SWAP1 POP DUP1 PUSH0 ADD MLOAD DUP7 DUP5 DUP2 MLOAD DUP2 LT PUSH2 0x8A8 JUMPI PUSH2 0x8A7 PUSH2 0xF7E JUMP JUMPDEST JUMPDEST PUSH1 0x20 MUL PUSH1 0x20 ADD ADD DUP2 SWAP1 MSTORE POP DUP1 PUSH1 0x20 ADD MLOAD DUP6 DUP5 DUP2 MLOAD DUP2 LT PUSH2 0x8CB JUMPI PUSH2 0x8CA PUSH2 0xF7E JUMP JUMPDEST JUMPDEST PUSH1 0x20 MUL PUSH1 0x20 ADD ADD DUP2 SWAP1 MSTORE POP DUP1 PUSH1 0x40 ADD MLOAD DUP5 DUP5 DUP2 MLOAD DUP2 LT PUSH2 0x8EE JUMPI PUSH2 0x8ED PUSH2 0xF7E JUMP JUMPDEST JUMPDEST PUSH1 0x20 MUL PUSH1 0x20 ADD ADD DUP2 SWAP1 MSTORE POP POP POP DUP1 DUP1 PUSH1 0x1 ADD SWAP2 POP POP PUSH2 0x67C JUMP JUMPDEST POP DUP4 DUP4 DUP4 DUP4 SWAP9 POP SWAP9 POP SWAP9 POP SWAP9 POP POP POP POP POP POP SWAP1 SWAP2 SWAP3 SWAP4 JUMP JUMPDEST PUSH0 PUSH1 0x40 MLOAD DUP1 PUSH1 0x60 ADD PUSH1 0x40 MSTORE DUP1 DUP6 DUP2 MSTORE PUSH1 0x20 ADD DUP5 DUP2 MSTORE PUSH1 0x20 ADD DUP4 DUP2 MSTORE POP PUSH0 DUP1 PUSH1 0x2 SLOAD DUP2 MSTORE PUSH1 0x20 ADD SWAP1 DUP2 MSTORE PUSH1 0x20 ADD PUSH0 KECCAK256 PUSH0 DUP3 ADD MLOAD DUP2 PUSH0 ADD SWAP1 DUP2 PUSH2 0x961 SWAP2 SWAP1 PUSH2 0x1148 JUMP JUMPDEST POP PUSH1 0x20 DUP3 ADD MLOAD DUP2 PUSH1 0x1 ADD SWAP1 DUP2 PUSH2 0x977 SWAP2 SWAP1 PUSH2 0x1148 JUMP JUMPDEST POP PUSH1 0x40 DUP3 ADD MLOAD DUP2 PUSH1 0x2 ADD SWAP1 DUP2 PUSH2 0x98D SWAP2 SWAP1 PUSH2 0x1148 JUMP JUMPDEST POP SWAP1 POP POP PUSH1 0x1 PUSH1 0x2 SLOAD SWAP1 DUP1 PUSH1 0x1 DUP2 SLOAD ADD DUP1 DUP3 SSTORE DUP1 SWAP2 POP POP PUSH1 0x1 SWAP1 SUB SWAP1 PUSH0 MSTORE PUSH1 0x20 PUSH0 KECCAK256 ADD PUSH0 SWAP1 SWAP2 SWAP1 SWAP2 SWAP1 SWAP2 POP SSTORE PUSH0 PUSH1 0x2 SLOAD SWAP1 POP PUSH1 0x2 PUSH0 DUP2 SLOAD DUP1 SWAP3 SWAP2 SWAP1 PUSH2 0x9D1 SWAP1 PUSH2 0x1244 JUMP JUMPDEST SWAP2 SWAP1 POP SSTORE POP DUP1 SWAP2 POP POP SWAP4 SWAP3 POP POP POP JUMP JUMPDEST PUSH1 0x2 SLOAD DUP2 JUMP JUMPDEST PUSH0 PUSH1 0x40 MLOAD SWAP1 POP SWAP1 JUMP JUMPDEST PUSH0 DUP1 REVERT JUMPDEST PUSH0 DUP1 REVERT JUMPDEST PUSH0 DUP2 SWAP1 POP SWAP2 SWAP1 POP JUMP JUMPDEST PUSH2 0xA0A DUP2 PUSH2 0x9F8 JUMP JUMPDEST DUP2 EQ PUSH2 0xA14 JUMPI PUSH0 DUP1 REVERT JUMPDEST POP JUMP JUMPDEST PUSH0 DUP2 CALLDATALOAD SWAP1 POP PUSH2 0xA25 DUP2 PUSH2 0xA01 JUMP JUMPDEST SWAP3 SWAP2 POP POP JUMP JUMPDEST PUSH0 PUSH1 0x20 DUP3 DUP5 SUB SLT ISZERO PUSH2 0xA40 JUMPI PUSH2 0xA3F PUSH2 0x9F0 JUMP JUMPDEST JUMPDEST PUSH0 PUSH2 0xA4D DUP5 DUP3 DUP6 ADD PUSH2 0xA17 JUMP JUMPDEST SWAP2 POP POP SWAP3 SWAP2 POP POP JUMP JUMPDEST PUSH0 DUP2 MLOAD SWAP1 POP SWAP2 SWAP1 POP JUMP JUMPDEST PUSH0 DUP3 DUP3 MSTORE PUSH1 0x20 DUP3 ADD SWAP1 POP SWAP3 SWAP2 POP POP JUMP JUMPDEST DUP3 DUP2 DUP4 MCOPY PUSH0 DUP4 DUP4 ADD MSTORE POP POP POP JUMP JUMPDEST PUSH0 PUSH1 0x1F NOT PUSH1 0x1F DUP4 ADD AND SWAP1 POP SWAP2 SWAP1 POP JUMP JUMPDEST PUSH0 PUSH2 0xA98 DUP3 PUSH2 0xA56 JUMP JUMPDEST PUSH2 0xAA2 DUP2 DUP6 PUSH2 0xA60 JUMP JUMPDEST SWAP4 POP PUSH2 0xAB2 DUP2 DUP6 PUSH1 0x20 DUP7 ADD PUSH2 0xA70 JUMP JUMPDEST PUSH2 0xABB DUP2 PUSH2 0xA7E JUMP JUMPDEST DUP5 ADD SWAP2 POP POP SWAP3 SWAP2 POP POP JUMP JUMPDEST PUSH0 PUSH1 0x60 DUP3 ADD SWAP1 POP DUP2 DUP2 SUB PUSH0 DUP4 ADD MSTORE PUSH2 0xADE DUP2 DUP7 PUSH2 0xA8E JUMP JUMPDEST SWAP1 POP DUP2 DUP2 SUB PUSH1 0x20 DUP4 ADD MSTORE PUSH2 0xAF2 DUP2 DUP6 PUSH2 0xA8E JUMP JUMPDEST SWAP1 POP DUP2 DUP2 SUB PUSH1 0x40 DUP4 ADD MSTORE PUSH2 0xB06 DUP2 DUP5 PUSH2 0xA8E JUMP JUMPDEST SWAP1 POP SWAP5 SWAP4 POP POP POP POP JUMP JUMPDEST PUSH2 0xB19 DUP2 PUSH2 0x9F8 JUMP JUMPDEST DUP3 MSTORE POP POP JUMP JUMPDEST PUSH0 PUSH1 0x20 DUP3 ADD SWAP1 POP PUSH2 0xB32 PUSH0 DUP4 ADD DUP5 PUSH2 0xB10 JUMP JUMPDEST SWAP3 SWAP2 POP POP JUMP JUMPDEST PUSH0 DUP2 MLOAD SWAP1 POP SWAP2 SWAP1 POP JUMP JUMPDEST PUSH0 DUP3 DUP3 MSTORE PUSH1 0x20 DUP3 ADD SWAP1 POP SWAP3 SWAP2 POP POP JUMP JUMPDEST PUSH0 DUP2 SWAP1 POP PUSH1 0x20 DUP3 ADD SWAP1 POP SWAP2 SWAP1 POP JUMP JUMPDEST PUSH2 0xB6A DUP2 PUSH2 0x9F8 JUMP JUMPDEST DUP3 MSTORE POP POP JUMP JUMPDEST PUSH0 PUSH2 0xB7B DUP4 DUP4 PUSH2 0xB61 JUMP JUMPDEST PUSH1 0x20 DUP4 ADD SWAP1 POP SWAP3 SWAP2 POP POP JUMP JUMPDEST PUSH0 PUSH1 0x20 DUP3 ADD SWAP1 POP SWAP2 SWAP1 POP JUMP JUMPDEST PUSH0 PUSH2 0xB9D DUP3 PUSH2 0xB38 JUMP JUMPDEST PUSH2 0xBA7 DUP2 DUP6 PUSH2 0xB42 JUMP JUMPDEST SWAP4 POP PUSH2 0xBB2 DUP4 PUSH2 0xB52 JUMP JUMPDEST DUP1 PUSH0 JUMPDEST DUP4 DUP2 LT ISZERO PUSH2 0xBE2 JUMPI DUP2 MLOAD PUSH2 0xBC9 DUP9 DUP3 PUSH2 0xB70 JUMP JUMPDEST SWAP8 POP PUSH2 0xBD4 DUP4 PUSH2 0xB87 JUMP JUMPDEST SWAP3 POP POP PUSH1 0x1 DUP2 ADD SWAP1 POP PUSH2 0xBB5 JUMP JUMPDEST POP DUP6 SWAP4 POP POP POP POP SWAP3 SWAP2 POP POP JUMP JUMPDEST PUSH0 DUP2 MLOAD SWAP1 POP SWAP2 SWAP1 POP JUMP JUMPDEST PUSH0 DUP3 DUP3 MSTORE PUSH1 0x20 DUP3 ADD SWAP1 POP SWAP3 SWAP2 POP POP JUMP JUMPDEST PUSH0 DUP2 SWAP1 POP PUSH1 0x20 DUP3 ADD SWAP1 POP SWAP2 SWAP1 POP JUMP JUMPDEST PUSH0 DUP3 DUP3 MSTORE PUSH1 0x20 DUP3 ADD SWAP1 POP SWAP3 SWAP2 POP POP JUMP JUMPDEST PUSH0 PUSH2 0xC32 DUP3 PUSH2 0xA56 JUMP JUMPDEST PUSH2 0xC3C DUP2 DUP6 PUSH2 0xC18 JUMP JUMPDEST SWAP4 POP PUSH2 0xC4C DUP2 DUP6 PUSH1 0x20 DUP7 ADD PUSH2 0xA70 JUMP JUMPDEST PUSH2 0xC55 DUP2 PUSH2 0xA7E JUMP JUMPDEST DUP5 ADD SWAP2 POP POP SWAP3 SWAP2 POP POP JUMP JUMPDEST PUSH0 PUSH2 0xC6B DUP4 DUP4 PUSH2 0xC28 JUMP JUMPDEST SWAP1 POP SWAP3 SWAP2 POP POP JUMP JUMPDEST PUSH0 PUSH1 0x20 DUP3 ADD SWAP1 POP SWAP2 SWAP1 POP JUMP JUMPDEST PUSH0 PUSH2 0xC89 DUP3 PUSH2 0xBEF JUMP JUMPDEST PUSH2 0xC93 DUP2 DUP6 PUSH2 0xBF9 JUMP JUMPDEST SWAP4 POP DUP4 PUSH1 0x20 DUP3 MUL DUP6 ADD PUSH2 0xCA5 DUP6 PUSH2 0xC09 JUMP JUMPDEST DUP1 PUSH0 JUMPDEST DUP6 DUP2 LT ISZERO PUSH2 0xCE0 JUMPI DUP5 DUP5 SUB DUP10 MSTORE DUP2 MLOAD PUSH2 0xCC1 DUP6 DUP3 PUSH2 0xC60 JUMP JUMPDEST SWAP5 POP PUSH2 0xCCC DUP4 PUSH2 0xC73 JUMP JUMPDEST SWAP3 POP PUSH1 0x20 DUP11 ADD SWAP10 POP POP PUSH1 0x1 DUP2 ADD SWAP1 POP PUSH2 0xCA8 JUMP JUMPDEST POP DUP3 SWAP8 POP DUP8 SWAP6 POP POP POP POP POP POP SWAP3 SWAP2 POP POP JUMP JUMPDEST PUSH0 PUSH1 0x80 DUP3 ADD SWAP1 POP DUP2 DUP2 SUB PUSH0 DUP4 ADD MSTORE PUSH2 0xD0A DUP2 DUP8 PUSH2 0xB93 JUMP JUMPDEST SWAP1 POP DUP2 DUP2 SUB PUSH1 0x20 DUP4 ADD MSTORE PUSH2 0xD1E DUP2 DUP7 PUSH2 0xC7F JUMP JUMPDEST SWAP1 POP DUP2 DUP2 SUB PUSH1 0x40 DUP4 ADD MSTORE PUSH2 0xD32 DUP2 DUP6 PUSH2 0xC7F JUMP JUMPDEST SWAP1 POP DUP2 DUP2 SUB PUSH1 0x60 DUP4 ADD MSTORE PUSH2 0xD46 DUP2 DUP5 PUSH2 0xC7F JUMP JUMPDEST SWAP1 POP SWAP6 SWAP5 POP POP POP POP POP JUMP JUMPDEST PUSH0 DUP1 REVERT JUMPDEST PUSH0 DUP1 REVERT JUMPDEST PUSH32 0x4E487B7100000000000000000000000000000000000000000000000000000000 PUSH0 MSTORE PUSH1 0x41 PUSH1 0x4 MSTORE PUSH1 0x24 PUSH0 REVERT JUMPDEST PUSH2 0xD8F DUP3 PUSH2 0xA7E JUMP JUMPDEST DUP2 ADD DUP2 DUP2 LT PUSH8 0xFFFFFFFFFFFFFFFF DUP3 GT OR ISZERO PUSH2 0xDAE JUMPI PUSH2 0xDAD PUSH2 0xD59 JUMP JUMPDEST JUMPDEST DUP1 PUSH1 0x40 MSTORE POP POP POP JUMP JUMPDEST PUSH0 PUSH2 0xDC0 PUSH2 0x9E7 JUMP JUMPDEST SWAP1 POP PUSH2 0xDCC DUP3 DUP3 PUSH2 0xD86 JUMP JUMPDEST SWAP2 SWAP1 POP JUMP JUMPDEST PUSH0 PUSH8 0xFFFFFFFFFFFFFFFF DUP3 GT ISZERO PUSH2 0xDEB JUMPI PUSH2 0xDEA PUSH2 0xD59 JUMP JUMPDEST JUMPDEST PUSH2 0xDF4 DUP3 PUSH2 0xA7E JUMP JUMPDEST SWAP1 POP PUSH1 0x20 DUP2 ADD SWAP1 POP SWAP2 SWAP1 POP JUMP JUMPDEST DUP3 DUP2 DUP4 CALLDATACOPY PUSH0 DUP4 DUP4 ADD MSTORE POP POP POP JUMP JUMPDEST PUSH0 PUSH2 0xE21 PUSH2 0xE1C DUP5 PUSH2 0xDD1 JUMP JUMPDEST PUSH2 0xDB7 JUMP JUMPDEST SWAP1 POP DUP3 DUP2 MSTORE PUSH1 0x20 DUP2 ADD DUP5 DUP5 DUP5 ADD GT ISZERO PUSH2 0xE3D JUMPI PUSH2 0xE3C PUSH2 0xD55 JUMP JUMPDEST JUMPDEST PUSH2 0xE48 DUP5 DUP3 DUP6 PUSH2 0xE01 JUMP JUMPDEST POP SWAP4 SWAP3 POP POP POP JUMP JUMPDEST PUSH0 DUP3 PUSH1 0x1F DUP4 ADD SLT PUSH2 0xE64 JUMPI PUSH2 0xE63 PUSH2 0xD51 JUMP JUMPDEST JUMPDEST DUP2 CALLDATALOAD PUSH2 0xE74 DUP5 DUP3 PUSH1 0x20 DUP7 ADD PUSH2 0xE0F JUMP JUMPDEST SWAP2 POP POP SWAP3 SWAP2 POP POP JUMP JUMPDEST PUSH0 DUP1 PUSH0 PUSH1 0x60 DUP5 DUP7 SUB SLT ISZERO PUSH2 0xE94 JUMPI PUSH2 0xE93 PUSH2 0x9F0 JUMP JUMPDEST JUMPDEST PUSH0 DUP5 ADD CALLDATALOAD PUSH8 0xFFFFFFFFFFFFFFFF DUP2 GT ISZERO PUSH2 0xEB1 JUMPI PUSH2 0xEB0 PUSH2 0x9F4 JUMP JUMPDEST JUMPDEST PUSH2 0xEBD DUP7 DUP3 DUP8 ADD PUSH2 0xE50 JUMP JUMPDEST SWAP4 POP POP PUSH1 0x20 DUP5 ADD CALLDATALOAD PUSH8 0xFFFFFFFFFFFFFFFF DUP2 GT ISZERO PUSH2 0xEDE JUMPI PUSH2 0xEDD PUSH2 0x9F4 JUMP JUMPDEST JUMPDEST PUSH2 0xEEA DUP7 DUP3 DUP8 ADD PUSH2 0xE50 JUMP JUMPDEST SWAP3 POP POP PUSH1 0x40 DUP5 ADD CALLDATALOAD PUSH8 0xFFFFFFFFFFFFFFFF DUP2 GT ISZERO PUSH2 0xF0B JUMPI PUSH2 0xF0A PUSH2 0x9F4 JUMP JUMPDEST JUMPDEST PUSH2 0xF17 DUP7 DUP3 DUP8 ADD PUSH2 0xE50 JUMP JUMPDEST SWAP2 POP POP SWAP3 POP SWAP3 POP SWAP3 JUMP JUMPDEST PUSH32 0x4E487B7100000000000000000000000000000000000000000000000000000000 PUSH0 MSTORE PUSH1 0x22 PUSH1 0x4 MSTORE PUSH1 0x24 PUSH0 REVERT JUMPDEST PUSH0 PUSH1 0x2 DUP3 DIV SWAP1 POP PUSH1 0x1 DUP3 AND DUP1 PUSH2 0xF65 JUMPI PUSH1 0x7F DUP3 AND SWAP2 POP JUMPDEST PUSH1 0x20 DUP3 LT DUP2 SUB PUSH2 0xF78 JUMPI PUSH2 0xF77 PUSH2 0xF21 JUMP JUMPDEST JUMPDEST POP SWAP2 SWAP1 POP JUMP JUMPDEST PUSH32 0x4E487B7100000000000000000000000000000000000000000000000000000000 PUSH0 MSTORE PUSH1 0x32 PUSH1 0x4 MSTORE PUSH1 0x24 PUSH0 REVERT JUMPDEST PUSH0 DUP2 SWAP1 POP DUP2 PUSH0 MSTORE PUSH1 0x20 PUSH0 KECCAK256 SWAP1 POP SWAP2 SWAP1 POP JUMP JUMPDEST PUSH0 PUSH1 0x20 PUSH1 0x1F DUP4 ADD DIV SWAP1 POP SWAP2 SWAP1 POP JUMP JUMPDEST PUSH0 DUP3 DUP3 SHL SWAP1 POP SWAP3 SWAP2 POP POP JUMP JUMPDEST PUSH0 PUSH1 0x8 DUP4 MUL PUSH2 0x1007 PUSH32 0xFFFFFFFFFFFFFFFFFFFFFFFFFFFFFFFFFFFFFFFFFFFFFFFFFFFFFFFFFFFFFFFF DUP3 PUSH2 0xFCC JUMP JUMPDEST PUSH2 0x1011 DUP7 DUP4 PUSH2 0xFCC JUMP JUMPDEST SWAP6 POP DUP1 NOT DUP5 AND SWAP4 POP DUP1 DUP7 AND DUP5 OR SWAP3 POP POP POP SWAP4 SWAP3 POP POP POP JUMP JUMPDEST PUSH0 DUP2 SWAP1 POP SWAP2 SWAP1 POP JUMP JUMPDEST PUSH0 PUSH2 0x104C PUSH2 0x1047 PUSH2 0x1042 DUP5 PUSH2 0x9F8 JUMP JUMPDEST PUSH2 0x1029 JUMP JUMPDEST PUSH2 0x9F8 JUMP JUMPDEST SWAP1 POP SWAP2 SWAP1 POP JUMP JUMPDEST PUSH0 DUP2 SWAP1 POP SWAP2 SWAP1 POP JUMP JUMPDEST PUSH2 0x1065 DUP4 PUSH2 0x1032 JUMP JUMPDEST PUSH2 0x1079 PUSH2 0x1071 DUP3 PUSH2 0x1053 JUMP JUMPDEST DUP5 DUP5 SLOAD PUSH2 0xFD8 JUMP JUMPDEST DUP3 SSTORE POP POP POP POP JUMP JUMPDEST PUSH0 SWAP1 JUMP JUMPDEST PUSH2 0x108D PUSH2 0x1081 JUMP JUMPDEST PUSH2 0x1098 DUP2 DUP5 DUP5 PUSH2 0x105C JUMP JUMPDEST POP POP POP JUMP JUMPDEST JUMPDEST DUP2 DUP2 LT ISZERO PUSH2 0x10BB JUMPI PUSH2 0x10B0 PUSH0 DUP3 PUSH2 0x1085 JUMP JUMPDEST PUSH1 0x1 DUP2 ADD SWAP1 POP PUSH2 0x109E JUMP JUMPDEST POP POP JUMP JUMPDEST PUSH1 0x1F DUP3 GT ISZERO PUSH2 0x1100 JUMPI PUSH2 0x10D1 DUP2 PUSH2 0xFAB JUMP JUMPDEST PUSH2 0x10DA DUP5 PUSH2 0xFBD JUMP JUMPDEST DUP2 ADD PUSH1 0x20 DUP6 LT ISZERO PUSH2 0x10E9 JUMPI DUP2 SWAP1 POP JUMPDEST PUSH2 0x10FD PUSH2 0x10F5 DUP6 PUSH2 0xFBD JUMP JUMPDEST DUP4 ADD DUP3 PUSH2 0x109D JUMP JUMPDEST POP POP JUMPDEST POP POP POP JUMP JUMPDEST PUSH0 DUP3 DUP3 SHR SWAP1 POP SWAP3 SWAP2 POP POP JUMP JUMPDEST PUSH0 PUSH2 0x1120 PUSH0 NOT DUP5 PUSH1 0x8 MUL PUSH2 0x1105 JUMP JUMPDEST NOT DUP1 DUP4 AND SWAP2 POP POP SWAP3 SWAP2 POP POP JUMP JUMPDEST PUSH0 PUSH2 0x1138 DUP4 DUP4 PUSH2 0x1111 JUMP JUMPDEST SWAP2 POP DUP3 PUSH1 0x2 MUL DUP3 OR SWAP1 POP SWAP3 SWAP2 POP POP JUMP JUMPDEST PUSH2 0x1151 DUP3 PUSH2 0xA56 JUMP JUMPDEST PUSH8 0xFFFFFFFFFFFFFFFF DUP2 GT ISZERO PUSH2 0x116A JUMPI PUSH2 0x1169 PUSH2 0xD59 JUMP JUMPDEST JUMPDEST PUSH2 0x1174 DUP3 SLOAD PUSH2 0xF4E JUMP JUMPDEST PUSH2 0x117F DUP3 DUP3 DUP6 PUSH2 0x10BF JUMP JUMPDEST PUSH0 PUSH1 0x20 SWAP1 POP PUSH1 0x1F DUP4 GT PUSH1 0x1 DUP2 EQ PUSH2 0x11B0 JUMPI PUSH0 DUP5 ISZERO PUSH2 0x119E JUMPI DUP3 DUP8 ADD MLOAD SWAP1 POP JUMPDEST PUSH2 0x11A8 DUP6 DUP3 PUSH2 0x112D JUMP JUMPDEST DUP7 SSTORE POP PUSH2 0x120F JUMP JUMPDEST PUSH1 0x1F NOT DUP5 AND PUSH2 0x11BE DUP7 PUSH2 0xFAB JUMP JUMPDEST PUSH0 JUMPDEST DUP3 DUP2 LT ISZERO PUSH2 0x11E5 JUMPI DUP5 DUP10 ADD MLOAD DUP3 SSTORE PUSH1 0x1 DUP3 ADD SWAP2 POP PUSH1 0x20 DUP6 ADD SWAP5 POP PUSH1 0x20 DUP2 ADD SWAP1 POP PUSH2 0x11C0 JUMP JUMPDEST DUP7 DUP4 LT ISZERO PUSH2 0x1202 JUMPI DUP5 DUP10 ADD MLOAD PUSH2 0x11FE PUSH1 0x1F DUP10 AND DUP3 PUSH2 0x1111 JUMP JUMPDEST DUP4 SSTORE POP JUMPDEST PUSH1 0x1 PUSH1 0x2 DUP9 MUL ADD DUP9 SSTORE POP POP POP JUMPDEST POP POP POP POP POP POP JUMP JUMPDEST PUSH32 0x4E487B7100000000000000000000000000000000000000000000000000000000 PUSH0 MSTORE PUSH1 0x11 PUSH1 0x4 MSTORE PUSH1 0x24 PUSH0 REVERT JUMPDEST PUSH0 PUSH2 0x124E DUP3 PUSH2 0x9F8 JUMP JUMPDEST SWAP2 POP PUSH32 0xFFFFFFFFFFFFFFFFFFFFFFFFFFFFFFFFFFFFFFFFFFFFFFFFFFFFFFFFFFFFFFFF DUP3 SUB PUSH2 0x1280 JUMPI PUSH2 0x127F PUSH2 0x1217 JUMP JUMPDEST JUMPDEST PUSH1 0x1 DUP3 ADD SWAP1 POP SWAP2 SWAP1 POP JUMP INVALID LOG2 PUSH5 0x6970667358 0x22 SLT KECCAK256 0x21 DUP14 0xEE 0xC5 AND 0xE3 PUSH18 0x881B129ECF06213A63C58A8FC0F7D68F859 0x26 PUSH5 0x71E6E0510 PUSH5 0x736F6C6343 STOP ADDMOD BYTE STOP CALLER "
				},
				"gasEstimates": {
					"creation": {
						"codeDepositCost": "960200",
						"executionCost": "23105",
						"totalCost": "983305"
					},
					"external": {
						"allIds(uint256)": "infinite",
						"currentId()": "2513",
						"getAllSignatures()": "infinite",
						"getSignatureById(uint256)": "infinite",
						"signatureInfos(uint256)": "infinite",
						"storeSignature(bytes,bytes,bytes)": "infinite"
					}
				},
				"methodIdentifiers": {
					"allIds(uint256)": "692776ea",
					"currentId()": "e00dd161",
					"getAllSignatures()": "906b6d98",
					"getSignatureById(uint256)": "0e0dd691",
					"signatureInfos(uint256)": "205d04d9",
					"storeSignature(bytes,bytes,bytes)": "b8c12542"
				}
			},
			"storageLayout": {
				"storage": [
					{
						"astId": 13,
						"contract": "contracts/sign_msg.sol:SignatureStorage",
						"label": "signatureInfos",
						"offset": 0,
						"slot": "0",
						"type": "t_mapping(t_uint256,t_struct(SignatureInfo)8_storage)"
					},
					{
						"astId": 16,
						"contract": "contracts/sign_msg.sol:SignatureStorage",
						"label": "allIds",
						"offset": 0,
						"slot": "1",
						"type": "t_array(t_uint256)dyn_storage"
					},
					{
						"astId": 19,
						"contract": "contracts/sign_msg.sol:SignatureStorage",
						"label": "currentId",
						"offset": 0,
						"slot": "2",
						"type": "t_uint256"
					}
				],
				"types": {
					"t_array(t_uint256)dyn_storage": {
						"base": "t_uint256",
						"encoding": "dynamic_array",
						"label": "uint256[]",
						"numberOfBytes": "32"
					},
					"t_bytes_storage": {
						"encoding": "bytes",
						"label": "bytes",
						"numberOfBytes": "32"
					},
					"t_mapping(t_uint256,t_struct(SignatureInfo)8_storage)": {
						"encoding": "mapping",
						"key": "t_uint256",
						"label": "mapping(uint256 => struct SignatureStorage.SignatureInfo)",
						"numberOfBytes": "32",
						"value": "t_struct(SignatureInfo)8_storage"
					},
					"t_struct(SignatureInfo)8_storage": {
						"encoding": "inplace",
						"label": "struct SignatureStorage.SignatureInfo",
						"members": [
							{
								"astId": 3,
								"contract": "contracts/sign_msg.sol:SignatureStorage",
								"label": "message",
								"offset": 0,
								"slot": "0",
								"type": "t_bytes_storage"
							},
							{
								"astId": 5,
								"contract": "contracts/sign_msg.sol:SignatureStorage",
								"label": "signature",
								"offset": 0,
								"slot": "1",
								"type": "t_bytes_storage"
							},
							{
								"astId": 7,
								"contract": "contracts/sign_msg.sol:SignatureStorage",
								"label": "ringPublicKey",
								"offset": 0,
								"slot": "2",
								"type": "t_bytes_storage"
							}
						],
						"numberOfBytes": "96"
					},
					"t_uint256": {
						"encoding": "inplace",
						"label": "uint256",
						"numberOfBytes": "32"
					}
				}
			},
			"userdoc": {
				"kind": "user",
				"methods": {},
				"version": 1
			}
		}
	}
}