{
	"contracts/Key_management_2.sol": {
		"KeyManagementContract": {
			"abi": [
				{
					"inputs": [],
					"stateMutability": "nonpayable",
					"type": "constructor"
				},
				{
					"inputs": [
						{
							"internalType": "uint256",
							"name": "_publicKeyId",
							"type": "uint256"
						}
					],
					"name": "getRingPublicKeyInfo",
					"outputs": [
						{
							"internalType": "uint256[]",
							"name": "",
							"type": "uint256[]"
						},
						{
							"internalType": "uint256[]",
							"name": "",
							"type": "uint256[]"
						},
						{
							"internalType": "string",
							"name": "",
							"type": "string"
						}
					],
					"stateMutability": "view",
					"type": "function"
				},
				{
					"inputs": [
						{
							"internalType": "address",
							"name": "_userAddress",
							"type": "address"
						}
					],
					"name": "getUserPublicKey",
					"outputs": [
						{
							"internalType": "bytes",
							"name": "",
							"type": "bytes"
						}
					],
					"stateMutability": "view",
					"type": "function"
				},
				{
					"inputs": [],
					"name": "owner",
					"outputs": [
						{
							"internalType": "address",
							"name": "",
							"type": "address"
						}
					],
					"stateMutability": "view",
					"type": "function"
				},
				{
					"inputs": [
						{
							"internalType": "uint256",
							"name": "",
							"type": "uint256"
						}
					],
					"name": "ringPublicKeyInfo",
					"outputs": [
						{
							"internalType": "string",
							"name": "description",
							"type": "string"
						}
					],
					"stateMutability": "view",
					"type": "function"
				},
				{
					"inputs": [
						{
							"internalType": "uint256",
							"name": "_publicKeyId",
							"type": "uint256"
						},
						{
							"internalType": "uint256[]",
							"name": "_xCoordinates",
							"type": "uint256[]"
						},
						{
							"internalType": "uint256[]",
							"name": "_yCoordinates",
							"type": "uint256[]"
						},
						{
							"internalType": "string",
							"name": "_description",
							"type": "string"
						}
					],
					"name": "storeRingPublicKey",
					"outputs": [],
					"stateMutability": "nonpayable",
					"type": "function"
				},
				{
					"inputs": [
						{
							"internalType": "address",
							"name": "_userAddress",
							"type": "address"
						},
						{
							"internalType": "bytes",
							"name": "_publicKey",
							"type": "bytes"
						}
					],
					"name": "storeUserPublicKey",
					"outputs": [],
					"stateMutability": "nonpayable",
					"type": "function"
				},
				{
					"inputs": [
						{
							"internalType": "address",
							"name": "",
							"type": "address"
						}
					],
					"name": "userPublicKey",
					"outputs": [
						{
							"internalType": "bytes",
							"name": "",
							"type": "bytes"
						}
					],
					"stateMutability": "view",
					"type": "function"
				}
			],
			"devdoc": {
				"kind": "dev",
				"methods": {},
				"version": 1
			},
			"evm": {
				"assembly": "    /* \"contracts/Key_management_2.sol\":60:2402  contract KeyManagementContract {... */\n  mstore(0x40, 0x80)\n    /* \"contracts/Key_management_2.sol\":578:629  constructor() {... */\n  callvalue\n  dup1\n  iszero\n  tag_1\n  jumpi\n  0x00\n  dup1\n  revert\ntag_1:\n  pop\n    /* \"contracts/Key_management_2.sol\":611:621  msg.sender */\n  caller\n    /* \"contracts/Key_management_2.sol\":603:608  owner */\n  0x00\n  dup1\n    /* \"contracts/Key_management_2.sol\":603:621  owner = msg.sender */\n  0x0100\n  exp\n  dup2\n  sload\n  dup2\n  0xffffffffffffffffffffffffffffffffffffffff\n  mul\n  not\n  and\n  swap1\n  dup4\n  0xffffffffffffffffffffffffffffffffffffffff\n  and\n  mul\n  or\n  swap1\n  sstore\n  pop\n    /* \"contracts/Key_management_2.sol\":60:2402  contract KeyManagementContract {... */\n  dataSize(sub_0)\n  dup1\n  dataOffset(sub_0)\n  0x00\n  codecopy\n  0x00\n  return\nstop\n\nsub_0: assembly {\n        /* \"contracts/Key_management_2.sol\":60:2402  contract KeyManagementContract {... */\n      mstore(0x40, 0x80)\n      callvalue\n      dup1\n      iszero\n      tag_1\n      jumpi\n      0x00\n      dup1\n      revert\n    tag_1:\n      pop\n      jumpi(tag_2, lt(calldatasize, 0x04))\n      shr(0xe0, calldataload(0x00))\n      dup1\n      0x5393c105\n      gt\n      tag_10\n      jumpi\n      dup1\n      0x5393c105\n      eq\n      tag_6\n      jumpi\n      dup1\n      0x5d7b7090\n      eq\n      tag_7\n      jumpi\n      dup1\n      0x8da5cb5b\n      eq\n      tag_8\n      jumpi\n      dup1\n      0x9eb49a4a\n      eq\n      tag_9\n      jumpi\n      jump(tag_2)\n    tag_10:\n      dup1\n      0x0c84e536\n      eq\n      tag_3\n      jumpi\n      dup1\n      0x11231fe0\n      eq\n      tag_4\n      jumpi\n      dup1\n      0x1234844a\n      eq\n      tag_5\n      jumpi\n    tag_2:\n      0x00\n      dup1\n      revert\n        /* \"contracts/Key_management_2.sol\":965:1602  function storeRingPublicKey(... */\n    tag_3:\n      tag_11\n      0x04\n      dup1\n      calldatasize\n      sub\n      dup2\n      add\n      swap1\n      tag_12\n      swap2\n      swap1\n      tag_13\n      jump\t// in\n    tag_12:\n      tag_14\n      jump\t// in\n    tag_11:\n      stop\n        /* \"contracts/Key_management_2.sol\":1640:1778  function getUserPublicKey(address _userAddress) external view returns (bytes memory) {... */\n    tag_4:\n      tag_15\n      0x04\n      dup1\n      calldatasize\n      sub\n      dup2\n      add\n      swap1\n      tag_16\n      swap2\n      swap1\n      tag_17\n      jump\t// in\n    tag_16:\n      tag_18\n      jump\t// in\n    tag_15:\n      mload(0x40)\n      tag_19\n      swap2\n      swap1\n      tag_20\n      jump\t// in\n    tag_19:\n      mload(0x40)\n      dup1\n      swap2\n      sub\n      swap1\n      return\n        /* \"contracts/Key_management_2.sol\":771:924  function storeUserPublicKey(address _userAddress, bytes memory _publicKey) external onlyOwner {... */\n    tag_5:\n      tag_21\n      0x04\n      dup1\n      calldatasize\n      sub\n      dup2\n      add\n      swap1\n      tag_22\n      swap2\n      swap1\n      tag_23\n      jump\t// in\n    tag_22:\n      tag_24\n      jump\t// in\n    tag_21:\n      stop\n        /* \"contracts/Key_management_2.sol\":507:569  mapping(uint256 => RingPublicKeyInfo) public ringPublicKeyInfo */\n    tag_6:\n      tag_25\n      0x04\n      dup1\n      calldatasize\n      sub\n      dup2\n      add\n      swap1\n      tag_26\n      swap2\n      swap1\n      tag_27\n      jump\t// in\n    tag_26:\n      tag_28\n      jump\t// in\n    tag_25:\n      mload(0x40)\n      tag_29\n      swap2\n      swap1\n      tag_30\n      jump\t// in\n    tag_29:\n      mload(0x40)\n      dup1\n      swap2\n      sub\n      swap1\n      return\n        /* \"contracts/Key_management_2.sol\":174:220  mapping(address => bytes) public userPublicKey */\n    tag_7:\n      tag_31\n      0x04\n      dup1\n      calldatasize\n      sub\n      dup2\n      add\n      swap1\n      tag_32\n      swap2\n      swap1\n      tag_17\n      jump\t// in\n    tag_32:\n      tag_33\n      jump\t// in\n    tag_31:\n      mload(0x40)\n      tag_34\n      swap2\n      swap1\n      tag_20\n      jump\t// in\n    tag_34:\n      mload(0x40)\n      dup1\n      swap2\n      sub\n      swap1\n      return\n        /* \"contracts/Key_management_2.sol\":98:118  address public owner */\n    tag_8:\n      tag_35\n      tag_36\n      jump\t// in\n    tag_35:\n      mload(0x40)\n      tag_37\n      swap2\n      swap1\n      tag_38\n      jump\t// in\n    tag_37:\n      mload(0x40)\n      dup1\n      swap2\n      sub\n      swap1\n      return\n        /* \"contracts/Key_management_2.sol\":1819:2399  function getRingPublicKeyInfo(uint256 _publicKeyId) external view ... */\n    tag_9:\n      tag_39\n      0x04\n      dup1\n      calldatasize\n      sub\n      dup2\n      add\n      swap1\n      tag_40\n      swap2\n      swap1\n      tag_27\n      jump\t// in\n    tag_40:\n      tag_41\n      jump\t// in\n    tag_39:\n      mload(0x40)\n      tag_42\n      swap4\n      swap3\n      swap2\n      swap1\n      tag_43\n      jump\t// in\n    tag_42:\n      mload(0x40)\n      dup1\n      swap2\n      sub\n      swap1\n      return\n        /* \"contracts/Key_management_2.sol\":965:1602  function storeRingPublicKey(... */\n    tag_14:\n        /* \"contracts/Key_management_2.sol\":691:696  owner */\n      0x00\n      dup1\n      sload\n      swap1\n      0x0100\n      exp\n      swap1\n      div\n      0xffffffffffffffffffffffffffffffffffffffff\n      and\n        /* \"contracts/Key_management_2.sol\":677:696  msg.sender == owner */\n      0xffffffffffffffffffffffffffffffffffffffff\n      and\n        /* \"contracts/Key_management_2.sol\":677:687  msg.sender */\n      caller\n        /* \"contracts/Key_management_2.sol\":677:696  msg.sender == owner */\n      0xffffffffffffffffffffffffffffffffffffffff\n      and\n      eq\n        /* \"contracts/Key_management_2.sol\":669:713  require(msg.sender == owner, \"Unauthorized\") */\n      tag_45\n      jumpi\n      mload(0x40)\n      0x08c379a000000000000000000000000000000000000000000000000000000000\n      dup2\n      mstore\n      0x04\n      add\n      tag_46\n      swap1\n      tag_47\n      jump\t// in\n    tag_46:\n      mload(0x40)\n      dup1\n      swap2\n      sub\n      swap1\n      revert\n    tag_45:\n        /* \"contracts/Key_management_2.sol\":1212:1225  _yCoordinates */\n      dup2\n        /* \"contracts/Key_management_2.sol\":1212:1232  _yCoordinates.length */\n      mload\n        /* \"contracts/Key_management_2.sol\":1188:1201  _xCoordinates */\n      dup4\n        /* \"contracts/Key_management_2.sol\":1188:1208  _xCoordinates.length */\n      mload\n        /* \"contracts/Key_management_2.sol\":1188:1232  _xCoordinates.length == _yCoordinates.length */\n      eq\n        /* \"contracts/Key_management_2.sol\":1180:1256  require(_xCoordinates.length == _yCoordinates.length, \"Coordinate mismatch\") */\n      tag_49\n      jumpi\n      mload(0x40)\n      0x08c379a000000000000000000000000000000000000000000000000000000000\n      dup2\n      mstore\n      0x04\n      add\n      tag_50\n      swap1\n      tag_51\n      jump\t// in\n    tag_50:\n      mload(0x40)\n      dup1\n      swap2\n      sub\n      swap1\n      revert\n    tag_49:\n        /* \"contracts/Key_management_2.sol\":1267:1297  RingPublicKeyInfo storage info */\n      0x00\n        /* \"contracts/Key_management_2.sol\":1300:1317  ringPublicKeyInfo */\n      0x02\n        /* \"contracts/Key_management_2.sol\":1300:1331  ringPublicKeyInfo[_publicKeyId] */\n      0x00\n        /* \"contracts/Key_management_2.sol\":1318:1330  _publicKeyId */\n      dup7\n        /* \"contracts/Key_management_2.sol\":1300:1331  ringPublicKeyInfo[_publicKeyId] */\n      dup2\n      mstore\n      0x20\n      add\n      swap1\n      dup2\n      mstore\n      0x20\n      add\n      0x00\n      keccak256\n        /* \"contracts/Key_management_2.sol\":1267:1331  RingPublicKeyInfo storage info = ringPublicKeyInfo[_publicKeyId] */\n      swap1\n      pop\n        /* \"contracts/Key_management_2.sol\":1392:1396  info */\n      dup1\n        /* \"contracts/Key_management_2.sol\":1392:1403  info.points */\n      0x00\n      add\n      0x00\n        /* \"contracts/Key_management_2.sol\":1385:1403  delete info.points */\n      tag_52\n      swap2\n      swap1\n      tag_53\n      jump\t// in\n    tag_52:\n        /* \"contracts/Key_management_2.sol\":1419:1428  uint256 i */\n      0x00\n        /* \"contracts/Key_management_2.sol\":1414:1553  for (uint256 i = 0; i < _xCoordinates.length; i++) {... */\n    tag_54:\n        /* \"contracts/Key_management_2.sol\":1438:1451  _xCoordinates */\n      dup5\n        /* \"contracts/Key_management_2.sol\":1438:1458  _xCoordinates.length */\n      mload\n        /* \"contracts/Key_management_2.sol\":1434:1435  i */\n      dup2\n        /* \"contracts/Key_management_2.sol\":1434:1458  i < _xCoordinates.length */\n      lt\n        /* \"contracts/Key_management_2.sol\":1414:1553  for (uint256 i = 0; i < _xCoordinates.length; i++) {... */\n      iszero\n      tag_55\n      jumpi\n        /* \"contracts/Key_management_2.sol\":1480:1484  info */\n      dup2\n        /* \"contracts/Key_management_2.sol\":1480:1491  info.points */\n      0x00\n      add\n        /* \"contracts/Key_management_2.sol\":1497:1540  ECPoint(_xCoordinates[i], _yCoordinates[i]) */\n      mload(0x40)\n      dup1\n      0x40\n      add\n      0x40\n      mstore\n      dup1\n        /* \"contracts/Key_management_2.sol\":1505:1518  _xCoordinates */\n      dup8\n        /* \"contracts/Key_management_2.sol\":1519:1520  i */\n      dup5\n        /* \"contracts/Key_management_2.sol\":1505:1521  _xCoordinates[i] */\n      dup2\n      mload\n      dup2\n      lt\n      tag_57\n      jumpi\n      tag_58\n      tag_59\n      jump\t// in\n    tag_58:\n    tag_57:\n      0x20\n      mul\n      0x20\n      add\n      add\n      mload\n        /* \"contracts/Key_management_2.sol\":1497:1540  ECPoint(_xCoordinates[i], _yCoordinates[i]) */\n      dup2\n      mstore\n      0x20\n      add\n        /* \"contracts/Key_management_2.sol\":1523:1536  _yCoordinates */\n      dup7\n        /* \"contracts/Key_management_2.sol\":1537:1538  i */\n      dup5\n        /* \"contracts/Key_management_2.sol\":1523:1539  _yCoordinates[i] */\n      dup2\n      mload\n      dup2\n      lt\n      tag_60\n      jumpi\n      tag_61\n      tag_59\n      jump\t// in\n    tag_61:\n    tag_60:\n      0x20\n      mul\n      0x20\n      add\n      add\n      mload\n        /* \"contracts/Key_management_2.sol\":1497:1540  ECPoint(_xCoordinates[i], _yCoordinates[i]) */\n      dup2\n      mstore\n      pop\n        /* \"contracts/Key_management_2.sol\":1480:1541  info.points.push(ECPoint(_xCoordinates[i], _yCoordinates[i])) */\n      swap1\n      dup1\n      0x01\n      dup2\n      sload\n      add\n      dup1\n      dup3\n      sstore\n      dup1\n      swap2\n      pop\n      pop\n      0x01\n      swap1\n      sub\n      swap1\n      0x00\n      mstore\n      keccak256(0x00, 0x20)\n      swap1\n      0x02\n      mul\n      add\n      0x00\n      swap1\n      swap2\n      swap1\n      swap2\n      swap1\n      swap2\n      pop\n      0x00\n      dup3\n      add\n      mload\n      dup2\n      0x00\n      add\n      sstore\n      0x20\n      dup3\n      add\n      mload\n      dup2\n      0x01\n      add\n      sstore\n      pop\n      pop\n        /* \"contracts/Key_management_2.sol\":1460:1463  i++ */\n      dup1\n      dup1\n      0x01\n      add\n      swap2\n      pop\n      pop\n        /* \"contracts/Key_management_2.sol\":1414:1553  for (uint256 i = 0; i < _xCoordinates.length; i++) {... */\n      jump(tag_54)\n    tag_55:\n      pop\n        /* \"contracts/Key_management_2.sol\":1582:1594  _description */\n      dup2\n        /* \"contracts/Key_management_2.sol\":1563:1567  info */\n      dup2\n        /* \"contracts/Key_management_2.sol\":1563:1579  info.description */\n      0x01\n      add\n        /* \"contracts/Key_management_2.sol\":1563:1594  info.description = _description */\n      swap1\n      dup2\n      tag_63\n      swap2\n      swap1\n      tag_64\n      jump\t// in\n    tag_63:\n      pop\n        /* \"contracts/Key_management_2.sol\":1169:1602  {... */\n      pop\n        /* \"contracts/Key_management_2.sol\":965:1602  function storeRingPublicKey(... */\n      pop\n      pop\n      pop\n      pop\n      jump\t// out\n        /* \"contracts/Key_management_2.sol\":1640:1778  function getUserPublicKey(address _userAddress) external view returns (bytes memory) {... */\n    tag_18:\n        /* \"contracts/Key_management_2.sol\":1711:1723  bytes memory */\n      0x60\n        /* \"contracts/Key_management_2.sol\":1743:1756  userPublicKey */\n      0x01\n        /* \"contracts/Key_management_2.sol\":1743:1770  userPublicKey[_userAddress] */\n      0x00\n        /* \"contracts/Key_management_2.sol\":1757:1769  _userAddress */\n      dup4\n        /* \"contracts/Key_management_2.sol\":1743:1770  userPublicKey[_userAddress] */\n      0xffffffffffffffffffffffffffffffffffffffff\n      and\n      0xffffffffffffffffffffffffffffffffffffffff\n      and\n      dup2\n      mstore\n      0x20\n      add\n      swap1\n      dup2\n      mstore\n      0x20\n      add\n      0x00\n      keccak256\n        /* \"contracts/Key_management_2.sol\":1736:1770  return userPublicKey[_userAddress] */\n      dup1\n      sload\n      tag_66\n      swap1\n      tag_67\n      jump\t// in\n    tag_66:\n      dup1\n      0x1f\n      add\n      0x20\n      dup1\n      swap2\n      div\n      mul\n      0x20\n      add\n      mload(0x40)\n      swap1\n      dup2\n      add\n      0x40\n      mstore\n      dup1\n      swap3\n      swap2\n      swap1\n      dup2\n      dup2\n      mstore\n      0x20\n      add\n      dup3\n      dup1\n      sload\n      tag_68\n      swap1\n      tag_67\n      jump\t// in\n    tag_68:\n      dup1\n      iszero\n      tag_69\n      jumpi\n      dup1\n      0x1f\n      lt\n      tag_70\n      jumpi\n      0x0100\n      dup1\n      dup4\n      sload\n      div\n      mul\n      dup4\n      mstore\n      swap2\n      0x20\n      add\n      swap2\n      jump(tag_69)\n    tag_70:\n      dup3\n      add\n      swap2\n      swap1\n      0x00\n      mstore\n      keccak256(0x00, 0x20)\n      swap1\n    tag_71:\n      dup2\n      sload\n      dup2\n      mstore\n      swap1\n      0x01\n      add\n      swap1\n      0x20\n      add\n      dup1\n      dup4\n      gt\n      tag_71\n      jumpi\n      dup3\n      swap1\n      sub\n      0x1f\n      and\n      dup3\n      add\n      swap2\n    tag_69:\n      pop\n      pop\n      pop\n      pop\n      pop\n      swap1\n      pop\n        /* \"contracts/Key_management_2.sol\":1640:1778  function getUserPublicKey(address _userAddress) external view returns (bytes memory) {... */\n      swap2\n      swap1\n      pop\n      jump\t// out\n        /* \"contracts/Key_management_2.sol\":771:924  function storeUserPublicKey(address _userAddress, bytes memory _publicKey) external onlyOwner {... */\n    tag_24:\n        /* \"contracts/Key_management_2.sol\":691:696  owner */\n      0x00\n      dup1\n      sload\n      swap1\n      0x0100\n      exp\n      swap1\n      div\n      0xffffffffffffffffffffffffffffffffffffffff\n      and\n        /* \"contracts/Key_management_2.sol\":677:696  msg.sender == owner */\n      0xffffffffffffffffffffffffffffffffffffffff\n      and\n        /* \"contracts/Key_management_2.sol\":677:687  msg.sender */\n      caller\n        /* \"contracts/Key_management_2.sol\":677:696  msg.sender == owner */\n      0xffffffffffffffffffffffffffffffffffffffff\n      and\n      eq\n        /* \"contracts/Key_management_2.sol\":669:713  require(msg.sender == owner, \"Unauthorized\") */\n      tag_73\n      jumpi\n      mload(0x40)\n      0x08c379a000000000000000000000000000000000000000000000000000000000\n      dup2\n      mstore\n      0x04\n      add\n      tag_74\n      swap1\n      tag_47\n      jump\t// in\n    tag_74:\n      mload(0x40)\n      dup1\n      swap2\n      sub\n      swap1\n      revert\n    tag_73:\n        /* \"contracts/Key_management_2.sol\":906:916  _publicKey */\n      dup1\n        /* \"contracts/Key_management_2.sol\":876:889  userPublicKey */\n      0x01\n        /* \"contracts/Key_management_2.sol\":876:903  userPublicKey[_userAddress] */\n      0x00\n        /* \"contracts/Key_management_2.sol\":890:902  _userAddress */\n      dup5\n        /* \"contracts/Key_management_2.sol\":876:903  userPublicKey[_userAddress] */\n      0xffffffffffffffffffffffffffffffffffffffff\n      and\n      0xffffffffffffffffffffffffffffffffffffffff\n      and\n      dup2\n      mstore\n      0x20\n      add\n      swap1\n      dup2\n      mstore\n      0x20\n      add\n      0x00\n      keccak256\n        /* \"contracts/Key_management_2.sol\":876:916  userPublicKey[_userAddress] = _publicKey */\n      swap1\n      dup2\n      tag_76\n      swap2\n      swap1\n      tag_77\n      jump\t// in\n    tag_76:\n      pop\n        /* \"contracts/Key_management_2.sol\":771:924  function storeUserPublicKey(address _userAddress, bytes memory _publicKey) external onlyOwner {... */\n      pop\n      pop\n      jump\t// out\n        /* \"contracts/Key_management_2.sol\":507:569  mapping(uint256 => RingPublicKeyInfo) public ringPublicKeyInfo */\n    tag_28:\n      mstore(0x20, 0x02)\n      dup1\n      0x00\n      mstore\n      keccak256(0x00, 0x40)\n      0x00\n      swap2\n      pop\n      swap1\n      pop\n      dup1\n      0x01\n      add\n      dup1\n      sload\n      tag_78\n      swap1\n      tag_67\n      jump\t// in\n    tag_78:\n      dup1\n      0x1f\n      add\n      0x20\n      dup1\n      swap2\n      div\n      mul\n      0x20\n      add\n      mload(0x40)\n      swap1\n      dup2\n      add\n      0x40\n      mstore\n      dup1\n      swap3\n      swap2\n      swap1\n      dup2\n      dup2\n      mstore\n      0x20\n      add\n      dup3\n      dup1\n      sload\n      tag_79\n      swap1\n      tag_67\n      jump\t// in\n    tag_79:\n      dup1\n      iszero\n      tag_80\n      jumpi\n      dup1\n      0x1f\n      lt\n      tag_81\n      jumpi\n      0x0100\n      dup1\n      dup4\n      sload\n      div\n      mul\n      dup4\n      mstore\n      swap2\n      0x20\n      add\n      swap2\n      jump(tag_80)\n    tag_81:\n      dup3\n      add\n      swap2\n      swap1\n      0x00\n      mstore\n      keccak256(0x00, 0x20)\n      swap1\n    tag_82:\n      dup2\n      sload\n      dup2\n      mstore\n      swap1\n      0x01\n      add\n      swap1\n      0x20\n      add\n      dup1\n      dup4\n      gt\n      tag_82\n      jumpi\n      dup3\n      swap1\n      sub\n      0x1f\n      and\n      dup3\n      add\n      swap2\n    tag_80:\n      pop\n      pop\n      pop\n      pop\n      pop\n      swap1\n      pop\n      dup2\n      jump\t// out\n        /* \"contracts/Key_management_2.sol\":174:220  mapping(address => bytes) public userPublicKey */\n    tag_33:\n      mstore(0x20, 0x01)\n      dup1\n      0x00\n      mstore\n      keccak256(0x00, 0x40)\n      0x00\n      swap2\n      pop\n      swap1\n      pop\n      dup1\n      sload\n      tag_83\n      swap1\n      tag_67\n      jump\t// in\n    tag_83:\n      dup1\n      0x1f\n      add\n      0x20\n      dup1\n      swap2\n      div\n      mul\n      0x20\n      add\n      mload(0x40)\n      swap1\n      dup2\n      add\n      0x40\n      mstore\n      dup1\n      swap3\n      swap2\n      swap1\n      dup2\n      dup2\n      mstore\n      0x20\n      add\n      dup3\n      dup1\n      sload\n      tag_84\n      swap1\n      tag_67\n      jump\t// in\n    tag_84:\n      dup1\n      iszero\n      tag_85\n      jumpi\n      dup1\n      0x1f\n      lt\n      tag_86\n      jumpi\n      0x0100\n      dup1\n      dup4\n      sload\n      div\n      mul\n      dup4\n      mstore\n      swap2\n      0x20\n      add\n      swap2\n      jump(tag_85)\n    tag_86:\n      dup3\n      add\n      swap2\n      swap1\n      0x00\n      mstore\n      keccak256(0x00, 0x20)\n      swap1\n    tag_87:\n      dup2\n      sload\n      dup2\n      mstore\n      swap1\n      0x01\n      add\n      swap1\n      0x20\n      add\n      dup1\n      dup4\n      gt\n      tag_87\n      jumpi\n      dup3\n      swap1\n      sub\n      0x1f\n      and\n      dup3\n      add\n      swap2\n    tag_85:\n      pop\n      pop\n      pop\n      pop\n      pop\n      dup2\n      jump\t// out\n        /* \"contracts/Key_management_2.sol\":98:118  address public owner */\n    tag_36:\n      0x00\n      dup1\n      sload\n      swap1\n      0x0100\n      exp\n      swap1\n      div\n      0xffffffffffffffffffffffffffffffffffffffff\n      and\n      dup2\n      jump\t// out\n        /* \"contracts/Key_management_2.sol\":1819:2399  function getRingPublicKeyInfo(uint256 _publicKeyId) external view ... */\n    tag_41:\n        /* \"contracts/Key_management_2.sol\":1904:1920  uint256[] memory */\n      0x60\n        /* \"contracts/Key_management_2.sol\":1922:1938  uint256[] memory */\n      dup1\n        /* \"contracts/Key_management_2.sol\":1940:1953  string memory */\n      0x60\n        /* \"contracts/Key_management_2.sol\":1972:2002  RingPublicKeyInfo storage info */\n      0x00\n        /* \"contracts/Key_management_2.sol\":2005:2022  ringPublicKeyInfo */\n      0x02\n        /* \"contracts/Key_management_2.sol\":2005:2036  ringPublicKeyInfo[_publicKeyId] */\n      0x00\n        /* \"contracts/Key_management_2.sol\":2023:2035  _publicKeyId */\n      dup7\n        /* \"contracts/Key_management_2.sol\":2005:2036  ringPublicKeyInfo[_publicKeyId] */\n      dup2\n      mstore\n      0x20\n      add\n      swap1\n      dup2\n      mstore\n      0x20\n      add\n      0x00\n      keccak256\n        /* \"contracts/Key_management_2.sol\":1972:2036  RingPublicKeyInfo storage info = ringPublicKeyInfo[_publicKeyId] */\n      swap1\n      pop\n        /* \"contracts/Key_management_2.sol\":2047:2071  uint256[] memory xCoords */\n      0x00\n        /* \"contracts/Key_management_2.sol\":2088:2092  info */\n      dup2\n        /* \"contracts/Key_management_2.sol\":2088:2099  info.points */\n      0x00\n      add\n        /* \"contracts/Key_management_2.sol\":2088:2106  info.points.length */\n      dup1\n      sload\n      swap1\n      pop\n        /* \"contracts/Key_management_2.sol\":2074:2107  new uint256[](info.points.length) */\n      0xffffffffffffffff\n      dup2\n      gt\n      iszero\n      tag_89\n      jumpi\n      tag_90\n      tag_91\n      jump\t// in\n    tag_90:\n    tag_89:\n      mload(0x40)\n      swap1\n      dup1\n      dup3\n      mstore\n      dup1\n      0x20\n      mul\n      0x20\n      add\n      dup3\n      add\n      0x40\n      mstore\n      dup1\n      iszero\n      tag_92\n      jumpi\n      dup2\n      0x20\n      add\n      0x20\n      dup3\n      mul\n      dup1\n      calldatasize\n      dup4\n      calldatacopy\n      dup1\n      dup3\n      add\n      swap2\n      pop\n      pop\n      swap1\n      pop\n    tag_92:\n      pop\n        /* \"contracts/Key_management_2.sol\":2047:2107  uint256[] memory xCoords = new uint256[](info.points.length) */\n      swap1\n      pop\n        /* \"contracts/Key_management_2.sol\":2118:2142  uint256[] memory yCoords */\n      0x00\n        /* \"contracts/Key_management_2.sol\":2159:2163  info */\n      dup3\n        /* \"contracts/Key_management_2.sol\":2159:2170  info.points */\n      0x00\n      add\n        /* \"contracts/Key_management_2.sol\":2159:2177  info.points.length */\n      dup1\n      sload\n      swap1\n      pop\n        /* \"contracts/Key_management_2.sol\":2145:2178  new uint256[](info.points.length) */\n      0xffffffffffffffff\n      dup2\n      gt\n      iszero\n      tag_93\n      jumpi\n      tag_94\n      tag_91\n      jump\t// in\n    tag_94:\n    tag_93:\n      mload(0x40)\n      swap1\n      dup1\n      dup3\n      mstore\n      dup1\n      0x20\n      mul\n      0x20\n      add\n      dup3\n      add\n      0x40\n      mstore\n      dup1\n      iszero\n      tag_95\n      jumpi\n      dup2\n      0x20\n      add\n      0x20\n      dup3\n      mul\n      dup1\n      calldatasize\n      dup4\n      calldatacopy\n      dup1\n      dup3\n      add\n      swap2\n      pop\n      pop\n      swap1\n      pop\n    tag_95:\n      pop\n        /* \"contracts/Key_management_2.sol\":2118:2178  uint256[] memory yCoords = new uint256[](info.points.length) */\n      swap1\n      pop\n        /* \"contracts/Key_management_2.sol\":2194:2203  uint256 i */\n      0x00\n        /* \"contracts/Key_management_2.sol\":2189:2338  for (uint256 i = 0; i < info.points.length; i++) {... */\n    tag_96:\n        /* \"contracts/Key_management_2.sol\":2213:2217  info */\n      dup4\n        /* \"contracts/Key_management_2.sol\":2213:2224  info.points */\n      0x00\n      add\n        /* \"contracts/Key_management_2.sol\":2213:2231  info.points.length */\n      dup1\n      sload\n      swap1\n      pop\n        /* \"contracts/Key_management_2.sol\":2209:2210  i */\n      dup2\n        /* \"contracts/Key_management_2.sol\":2209:2231  i < info.points.length */\n      lt\n        /* \"contracts/Key_management_2.sol\":2189:2338  for (uint256 i = 0; i < info.points.length; i++) {... */\n      iszero\n      tag_97\n      jumpi\n        /* \"contracts/Key_management_2.sol\":2266:2270  info */\n      dup4\n        /* \"contracts/Key_management_2.sol\":2266:2277  info.points */\n      0x00\n      add\n        /* \"contracts/Key_management_2.sol\":2278:2279  i */\n      dup2\n        /* \"contracts/Key_management_2.sol\":2266:2280  info.points[i] */\n      dup2\n      sload\n      dup2\n      lt\n      tag_99\n      jumpi\n      tag_100\n      tag_59\n      jump\t// in\n    tag_100:\n    tag_99:\n      swap1\n      0x00\n      mstore\n      keccak256(0x00, 0x20)\n      swap1\n      0x02\n      mul\n      add\n        /* \"contracts/Key_management_2.sol\":2266:2282  info.points[i].x */\n      0x00\n      add\n      sload\n        /* \"contracts/Key_management_2.sol\":2253:2260  xCoords */\n      dup4\n        /* \"contracts/Key_management_2.sol\":2261:2262  i */\n      dup3\n        /* \"contracts/Key_management_2.sol\":2253:2263  xCoords[i] */\n      dup2\n      mload\n      dup2\n      lt\n      tag_102\n      jumpi\n      tag_103\n      tag_59\n      jump\t// in\n    tag_103:\n    tag_102:\n      0x20\n      mul\n      0x20\n      add\n      add\n        /* \"contracts/Key_management_2.sol\":2253:2282  xCoords[i] = info.points[i].x */\n      dup2\n      dup2\n      mstore\n      pop\n      pop\n        /* \"contracts/Key_management_2.sol\":2310:2314  info */\n      dup4\n        /* \"contracts/Key_management_2.sol\":2310:2321  info.points */\n      0x00\n      add\n        /* \"contracts/Key_management_2.sol\":2322:2323  i */\n      dup2\n        /* \"contracts/Key_management_2.sol\":2310:2324  info.points[i] */\n      dup2\n      sload\n      dup2\n      lt\n      tag_104\n      jumpi\n      tag_105\n      tag_59\n      jump\t// in\n    tag_105:\n    tag_104:\n      swap1\n      0x00\n      mstore\n      keccak256(0x00, 0x20)\n      swap1\n      0x02\n      mul\n      add\n        /* \"contracts/Key_management_2.sol\":2310:2326  info.points[i].y */\n      0x01\n      add\n      sload\n        /* \"contracts/Key_management_2.sol\":2297:2304  yCoords */\n      dup3\n        /* \"contracts/Key_management_2.sol\":2305:2306  i */\n      dup3\n        /* \"contracts/Key_management_2.sol\":2297:2307  yCoords[i] */\n      dup2\n      mload\n      dup2\n      lt\n      tag_107\n      jumpi\n      tag_108\n      tag_59\n      jump\t// in\n    tag_108:\n    tag_107:\n      0x20\n      mul\n      0x20\n      add\n      add\n        /* \"contracts/Key_management_2.sol\":2297:2326  yCoords[i] = info.points[i].y */\n      dup2\n      dup2\n      mstore\n      pop\n      pop\n        /* \"contracts/Key_management_2.sol\":2233:2236  i++ */\n      dup1\n      dup1\n      0x01\n      add\n      swap2\n      pop\n      pop\n        /* \"contracts/Key_management_2.sol\":2189:2338  for (uint256 i = 0; i < info.points.length; i++) {... */\n      jump(tag_96)\n    tag_97:\n      pop\n        /* \"contracts/Key_management_2.sol\":2356:2363  xCoords */\n      dup2\n        /* \"contracts/Key_management_2.sol\":2365:2372  yCoords */\n      dup2\n        /* \"contracts/Key_management_2.sol\":2374:2378  info */\n      dup5\n        /* \"contracts/Key_management_2.sol\":2374:2390  info.description */\n      0x01\n      add\n        /* \"contracts/Key_management_2.sol\":2348:2391  return (xCoords, yCoords, info.description) */\n      dup1\n      dup1\n      sload\n      tag_109\n      swap1\n      tag_67\n      jump\t// in\n    tag_109:\n      dup1\n      0x1f\n      add\n      0x20\n      dup1\n      swap2\n      div\n      mul\n      0x20\n      add\n      mload(0x40)\n      swap1\n      dup2\n      add\n      0x40\n      mstore\n      dup1\n      swap3\n      swap2\n      swap1\n      dup2\n      dup2\n      mstore\n      0x20\n      add\n      dup3\n      dup1\n      sload\n      tag_110\n      swap1\n      tag_67\n      jump\t// in\n    tag_110:\n      dup1\n      iszero\n      tag_111\n      jumpi\n      dup1\n      0x1f\n      lt\n      tag_112\n      jumpi\n      0x0100\n      dup1\n      dup4\n      sload\n      div\n      mul\n      dup4\n      mstore\n      swap2\n      0x20\n      add\n      swap2\n      jump(tag_111)\n    tag_112:\n      dup3\n      add\n      swap2\n      swap1\n      0x00\n      mstore\n      keccak256(0x00, 0x20)\n      swap1\n    tag_113:\n      dup2\n      sload\n      dup2\n      mstore\n      swap1\n      0x01\n      add\n      swap1\n      0x20\n      add\n      dup1\n      dup4\n      gt\n      tag_113\n      jumpi\n      dup3\n      swap1\n      sub\n      0x1f\n      and\n      dup3\n      add\n      swap2\n    tag_111:\n      pop\n      pop\n      pop\n      pop\n      pop\n      swap1\n      pop\n      swap6\n      pop\n      swap6\n      pop\n      swap6\n      pop\n      pop\n      pop\n      pop\n        /* \"contracts/Key_management_2.sol\":1819:2399  function getRingPublicKeyInfo(uint256 _publicKeyId) external view ... */\n      swap2\n      swap4\n      swap1\n      swap3\n      pop\n      jump\t// out\n    tag_53:\n      pop\n      dup1\n      sload\n      0x00\n      dup3\n      sstore\n      0x02\n      mul\n      swap1\n      0x00\n      mstore\n      keccak256(0x00, 0x20)\n      swap1\n      dup2\n      add\n      swap1\n      tag_115\n      swap2\n      swap1\n      tag_116\n      jump\t// in\n    tag_115:\n      pop\n      jump\t// out\n    tag_116:\n    tag_117:\n      dup1\n      dup3\n      gt\n      iszero\n      tag_118\n      jumpi\n      0x00\n      dup1\n      dup3\n      add\n      0x00\n      swap1\n      sstore\n      0x01\n      dup3\n      add\n      0x00\n      swap1\n      sstore\n      pop\n      0x02\n      add\n      jump(tag_117)\n    tag_118:\n      pop\n      swap1\n      jump\t// out\n        /* \"#utility.yul\":7:82   */\n    tag_119:\n        /* \"#utility.yul\":40:46   */\n      0x00\n        /* \"#utility.yul\":73:75   */\n      0x40\n        /* \"#utility.yul\":67:76   */\n      mload\n        /* \"#utility.yul\":57:76   */\n      swap1\n      pop\n        /* \"#utility.yul\":7:82   */\n      swap1\n      jump\t// out\n        /* \"#utility.yul\":88:205   */\n    tag_120:\n        /* \"#utility.yul\":197:198   */\n      0x00\n        /* \"#utility.yul\":194:195   */\n      dup1\n        /* \"#utility.yul\":187:199   */\n      revert\n        /* \"#utility.yul\":211:328   */\n    tag_121:\n        /* \"#utility.yul\":320:321   */\n      0x00\n        /* \"#utility.yul\":317:318   */\n      dup1\n        /* \"#utility.yul\":310:322   */\n      revert\n        /* \"#utility.yul\":334:411   */\n    tag_122:\n        /* \"#utility.yul\":371:378   */\n      0x00\n        /* \"#utility.yul\":400:405   */\n      dup2\n        /* \"#utility.yul\":389:405   */\n      swap1\n      pop\n        /* \"#utility.yul\":334:411   */\n      swap2\n      swap1\n      pop\n      jump\t// out\n        /* \"#utility.yul\":417:539   */\n    tag_123:\n        /* \"#utility.yul\":490:514   */\n      tag_188\n        /* \"#utility.yul\":508:513   */\n      dup2\n        /* \"#utility.yul\":490:514   */\n      tag_122\n      jump\t// in\n    tag_188:\n        /* \"#utility.yul\":483:488   */\n      dup2\n        /* \"#utility.yul\":480:515   */\n      eq\n        /* \"#utility.yul\":470:533   */\n      tag_189\n      jumpi\n        /* \"#utility.yul\":529:530   */\n      0x00\n        /* \"#utility.yul\":526:527   */\n      dup1\n        /* \"#utility.yul\":519:531   */\n      revert\n        /* \"#utility.yul\":470:533   */\n    tag_189:\n        /* \"#utility.yul\":417:539   */\n      pop\n      jump\t// out\n        /* \"#utility.yul\":545:684   */\n    tag_124:\n        /* \"#utility.yul\":591:596   */\n      0x00\n        /* \"#utility.yul\":629:635   */\n      dup2\n        /* \"#utility.yul\":616:636   */\n      calldataload\n        /* \"#utility.yul\":607:636   */\n      swap1\n      pop\n        /* \"#utility.yul\":645:678   */\n      tag_191\n        /* \"#utility.yul\":672:677   */\n      dup2\n        /* \"#utility.yul\":645:678   */\n      tag_123\n      jump\t// in\n    tag_191:\n        /* \"#utility.yul\":545:684   */\n      swap3\n      swap2\n      pop\n      pop\n      jump\t// out\n        /* \"#utility.yul\":690:807   */\n    tag_125:\n        /* \"#utility.yul\":799:800   */\n      0x00\n        /* \"#utility.yul\":796:797   */\n      dup1\n        /* \"#utility.yul\":789:801   */\n      revert\n        /* \"#utility.yul\":813:915   */\n    tag_126:\n        /* \"#utility.yul\":854:860   */\n      0x00\n        /* \"#utility.yul\":905:907   */\n      0x1f\n        /* \"#utility.yul\":901:908   */\n      not\n        /* \"#utility.yul\":896:898   */\n      0x1f\n        /* \"#utility.yul\":889:894   */\n      dup4\n        /* \"#utility.yul\":885:899   */\n      add\n        /* \"#utility.yul\":881:909   */\n      and\n        /* \"#utility.yul\":871:909   */\n      swap1\n      pop\n        /* \"#utility.yul\":813:915   */\n      swap2\n      swap1\n      pop\n      jump\t// out\n        /* \"#utility.yul\":921:1101   */\n    tag_91:\n        /* \"#utility.yul\":969:1046   */\n      0x4e487b7100000000000000000000000000000000000000000000000000000000\n        /* \"#utility.yul\":966:967   */\n      0x00\n        /* \"#utility.yul\":959:1047   */\n      mstore\n        /* \"#utility.yul\":1066:1070   */\n      0x41\n        /* \"#utility.yul\":1063:1064   */\n      0x04\n        /* \"#utility.yul\":1056:1071   */\n      mstore\n        /* \"#utility.yul\":1090:1094   */\n      0x24\n        /* \"#utility.yul\":1087:1088   */\n      0x00\n        /* \"#utility.yul\":1080:1095   */\n      revert\n        /* \"#utility.yul\":1107:1388   */\n    tag_127:\n        /* \"#utility.yul\":1190:1217   */\n      tag_196\n        /* \"#utility.yul\":1212:1216   */\n      dup3\n        /* \"#utility.yul\":1190:1217   */\n      tag_126\n      jump\t// in\n    tag_196:\n        /* \"#utility.yul\":1182:1188   */\n      dup2\n        /* \"#utility.yul\":1178:1218   */\n      add\n        /* \"#utility.yul\":1320:1326   */\n      dup2\n        /* \"#utility.yul\":1308:1318   */\n      dup2\n        /* \"#utility.yul\":1305:1327   */\n      lt\n        /* \"#utility.yul\":1284:1302   */\n      0xffffffffffffffff\n        /* \"#utility.yul\":1272:1282   */\n      dup3\n        /* \"#utility.yul\":1269:1303   */\n      gt\n        /* \"#utility.yul\":1266:1328   */\n      or\n        /* \"#utility.yul\":1263:1351   */\n      iszero\n      tag_197\n      jumpi\n        /* \"#utility.yul\":1331:1349   */\n      tag_198\n      tag_91\n      jump\t// in\n    tag_198:\n        /* \"#utility.yul\":1263:1351   */\n    tag_197:\n        /* \"#utility.yul\":1371:1381   */\n      dup1\n        /* \"#utility.yul\":1367:1369   */\n      0x40\n        /* \"#utility.yul\":1360:1382   */\n      mstore\n        /* \"#utility.yul\":1150:1388   */\n      pop\n        /* \"#utility.yul\":1107:1388   */\n      pop\n      pop\n      jump\t// out\n        /* \"#utility.yul\":1394:1523   */\n    tag_128:\n        /* \"#utility.yul\":1428:1434   */\n      0x00\n        /* \"#utility.yul\":1455:1475   */\n      tag_200\n      tag_119\n      jump\t// in\n    tag_200:\n        /* \"#utility.yul\":1445:1475   */\n      swap1\n      pop\n        /* \"#utility.yul\":1484:1517   */\n      tag_201\n        /* \"#utility.yul\":1512:1516   */\n      dup3\n        /* \"#utility.yul\":1504:1510   */\n      dup3\n        /* \"#utility.yul\":1484:1517   */\n      tag_127\n      jump\t// in\n    tag_201:\n        /* \"#utility.yul\":1394:1523   */\n      swap2\n      swap1\n      pop\n      jump\t// out\n        /* \"#utility.yul\":1529:1840   */\n    tag_129:\n        /* \"#utility.yul\":1606:1610   */\n      0x00\n        /* \"#utility.yul\":1696:1714   */\n      0xffffffffffffffff\n        /* \"#utility.yul\":1688:1694   */\n      dup3\n        /* \"#utility.yul\":1685:1715   */\n      gt\n        /* \"#utility.yul\":1682:1738   */\n      iszero\n      tag_203\n      jumpi\n        /* \"#utility.yul\":1718:1736   */\n      tag_204\n      tag_91\n      jump\t// in\n    tag_204:\n        /* \"#utility.yul\":1682:1738   */\n    tag_203:\n        /* \"#utility.yul\":1768:1772   */\n      0x20\n        /* \"#utility.yul\":1760:1766   */\n      dup3\n        /* \"#utility.yul\":1756:1773   */\n      mul\n        /* \"#utility.yul\":1748:1773   */\n      swap1\n      pop\n        /* \"#utility.yul\":1828:1832   */\n      0x20\n        /* \"#utility.yul\":1822:1826   */\n      dup2\n        /* \"#utility.yul\":1818:1833   */\n      add\n        /* \"#utility.yul\":1810:1833   */\n      swap1\n      pop\n        /* \"#utility.yul\":1529:1840   */\n      swap2\n      swap1\n      pop\n      jump\t// out\n        /* \"#utility.yul\":1846:1963   */\n    tag_130:\n        /* \"#utility.yul\":1955:1956   */\n      0x00\n        /* \"#utility.yul\":1952:1953   */\n      dup1\n        /* \"#utility.yul\":1945:1957   */\n      revert\n        /* \"#utility.yul\":1986:2696   */\n    tag_131:\n        /* \"#utility.yul\":2082:2087   */\n      0x00\n        /* \"#utility.yul\":2107:2188   */\n      tag_207\n        /* \"#utility.yul\":2123:2187   */\n      tag_208\n        /* \"#utility.yul\":2180:2186   */\n      dup5\n        /* \"#utility.yul\":2123:2187   */\n      tag_129\n      jump\t// in\n    tag_208:\n        /* \"#utility.yul\":2107:2188   */\n      tag_128\n      jump\t// in\n    tag_207:\n        /* \"#utility.yul\":2098:2188   */\n      swap1\n      pop\n        /* \"#utility.yul\":2208:2213   */\n      dup1\n        /* \"#utility.yul\":2237:2243   */\n      dup4\n        /* \"#utility.yul\":2230:2235   */\n      dup3\n        /* \"#utility.yul\":2223:2244   */\n      mstore\n        /* \"#utility.yul\":2271:2275   */\n      0x20\n        /* \"#utility.yul\":2264:2269   */\n      dup3\n        /* \"#utility.yul\":2260:2276   */\n      add\n        /* \"#utility.yul\":2253:2276   */\n      swap1\n      pop\n        /* \"#utility.yul\":2324:2328   */\n      0x20\n        /* \"#utility.yul\":2316:2322   */\n      dup5\n        /* \"#utility.yul\":2312:2329   */\n      mul\n        /* \"#utility.yul\":2304:2310   */\n      dup4\n        /* \"#utility.yul\":2300:2330   */\n      add\n        /* \"#utility.yul\":2353:2356   */\n      dup6\n        /* \"#utility.yul\":2345:2351   */\n      dup2\n        /* \"#utility.yul\":2342:2357   */\n      gt\n        /* \"#utility.yul\":2339:2461   */\n      iszero\n      tag_209\n      jumpi\n        /* \"#utility.yul\":2372:2451   */\n      tag_210\n      tag_130\n      jump\t// in\n    tag_210:\n        /* \"#utility.yul\":2339:2461   */\n    tag_209:\n        /* \"#utility.yul\":2487:2493   */\n      dup4\n        /* \"#utility.yul\":2470:2690   */\n    tag_211:\n        /* \"#utility.yul\":2504:2510   */\n      dup2\n        /* \"#utility.yul\":2499:2502   */\n      dup2\n        /* \"#utility.yul\":2496:2511   */\n      lt\n        /* \"#utility.yul\":2470:2690   */\n      iszero\n      tag_213\n      jumpi\n        /* \"#utility.yul\":2579:2582   */\n      dup1\n        /* \"#utility.yul\":2608:2645   */\n      tag_214\n        /* \"#utility.yul\":2641:2644   */\n      dup9\n        /* \"#utility.yul\":2629:2639   */\n      dup3\n        /* \"#utility.yul\":2608:2645   */\n      tag_124\n      jump\t// in\n    tag_214:\n        /* \"#utility.yul\":2603:2606   */\n      dup5\n        /* \"#utility.yul\":2596:2646   */\n      mstore\n        /* \"#utility.yul\":2675:2679   */\n      0x20\n        /* \"#utility.yul\":2670:2673   */\n      dup5\n        /* \"#utility.yul\":2666:2680   */\n      add\n        /* \"#utility.yul\":2659:2680   */\n      swap4\n      pop\n        /* \"#utility.yul\":2546:2690   */\n      pop\n        /* \"#utility.yul\":2530:2534   */\n      0x20\n        /* \"#utility.yul\":2525:2528   */\n      dup2\n        /* \"#utility.yul\":2521:2535   */\n      add\n        /* \"#utility.yul\":2514:2535   */\n      swap1\n      pop\n        /* \"#utility.yul\":2470:2690   */\n      jump(tag_211)\n    tag_213:\n        /* \"#utility.yul\":2474:2495   */\n      pop\n        /* \"#utility.yul\":2088:2696   */\n      pop\n      pop\n        /* \"#utility.yul\":1986:2696   */\n      swap4\n      swap3\n      pop\n      pop\n      pop\n      jump\t// out\n        /* \"#utility.yul\":2719:3089   */\n    tag_132:\n        /* \"#utility.yul\":2790:2795   */\n      0x00\n        /* \"#utility.yul\":2839:2842   */\n      dup3\n        /* \"#utility.yul\":2832:2836   */\n      0x1f\n        /* \"#utility.yul\":2824:2830   */\n      dup4\n        /* \"#utility.yul\":2820:2837   */\n      add\n        /* \"#utility.yul\":2816:2843   */\n      slt\n        /* \"#utility.yul\":2806:2928   */\n      tag_216\n      jumpi\n        /* \"#utility.yul\":2847:2926   */\n      tag_217\n      tag_125\n      jump\t// in\n    tag_217:\n        /* \"#utility.yul\":2806:2928   */\n    tag_216:\n        /* \"#utility.yul\":2964:2970   */\n      dup2\n        /* \"#utility.yul\":2951:2971   */\n      calldataload\n        /* \"#utility.yul\":2989:3083   */\n      tag_218\n        /* \"#utility.yul\":3079:3082   */\n      dup5\n        /* \"#utility.yul\":3071:3077   */\n      dup3\n        /* \"#utility.yul\":3064:3068   */\n      0x20\n        /* \"#utility.yul\":3056:3062   */\n      dup7\n        /* \"#utility.yul\":3052:3069   */\n      add\n        /* \"#utility.yul\":2989:3083   */\n      tag_131\n      jump\t// in\n    tag_218:\n        /* \"#utility.yul\":2980:3083   */\n      swap2\n      pop\n        /* \"#utility.yul\":2796:3089   */\n      pop\n        /* \"#utility.yul\":2719:3089   */\n      swap3\n      swap2\n      pop\n      pop\n      jump\t// out\n        /* \"#utility.yul\":3095:3212   */\n    tag_133:\n        /* \"#utility.yul\":3204:3205   */\n      0x00\n        /* \"#utility.yul\":3201:3202   */\n      dup1\n        /* \"#utility.yul\":3194:3206   */\n      revert\n        /* \"#utility.yul\":3218:3526   */\n    tag_134:\n        /* \"#utility.yul\":3280:3284   */\n      0x00\n        /* \"#utility.yul\":3370:3388   */\n      0xffffffffffffffff\n        /* \"#utility.yul\":3362:3368   */\n      dup3\n        /* \"#utility.yul\":3359:3389   */\n      gt\n        /* \"#utility.yul\":3356:3412   */\n      iszero\n      tag_221\n      jumpi\n        /* \"#utility.yul\":3392:3410   */\n      tag_222\n      tag_91\n      jump\t// in\n    tag_222:\n        /* \"#utility.yul\":3356:3412   */\n    tag_221:\n        /* \"#utility.yul\":3430:3459   */\n      tag_223\n        /* \"#utility.yul\":3452:3458   */\n      dup3\n        /* \"#utility.yul\":3430:3459   */\n      tag_126\n      jump\t// in\n    tag_223:\n        /* \"#utility.yul\":3422:3459   */\n      swap1\n      pop\n        /* \"#utility.yul\":3514:3518   */\n      0x20\n        /* \"#utility.yul\":3508:3512   */\n      dup2\n        /* \"#utility.yul\":3504:3519   */\n      add\n        /* \"#utility.yul\":3496:3519   */\n      swap1\n      pop\n        /* \"#utility.yul\":3218:3526   */\n      swap2\n      swap1\n      pop\n      jump\t// out\n        /* \"#utility.yul\":3532:3680   */\n    tag_135:\n        /* \"#utility.yul\":3630:3636   */\n      dup3\n        /* \"#utility.yul\":3625:3628   */\n      dup2\n        /* \"#utility.yul\":3620:3623   */\n      dup4\n        /* \"#utility.yul\":3607:3637   */\n      calldatacopy\n        /* \"#utility.yul\":3671:3672   */\n      0x00\n        /* \"#utility.yul\":3662:3668   */\n      dup4\n        /* \"#utility.yul\":3657:3660   */\n      dup4\n        /* \"#utility.yul\":3653:3669   */\n      add\n        /* \"#utility.yul\":3646:3673   */\n      mstore\n        /* \"#utility.yul\":3532:3680   */\n      pop\n      pop\n      pop\n      jump\t// out\n        /* \"#utility.yul\":3686:4111   */\n    tag_136:\n        /* \"#utility.yul\":3764:3769   */\n      0x00\n        /* \"#utility.yul\":3789:3855   */\n      tag_226\n        /* \"#utility.yul\":3805:3854   */\n      tag_227\n        /* \"#utility.yul\":3847:3853   */\n      dup5\n        /* \"#utility.yul\":3805:3854   */\n      tag_134\n      jump\t// in\n    tag_227:\n        /* \"#utility.yul\":3789:3855   */\n      tag_128\n      jump\t// in\n    tag_226:\n        /* \"#utility.yul\":3780:3855   */\n      swap1\n      pop\n        /* \"#utility.yul\":3878:3884   */\n      dup3\n        /* \"#utility.yul\":3871:3876   */\n      dup2\n        /* \"#utility.yul\":3864:3885   */\n      mstore\n        /* \"#utility.yul\":3916:3920   */\n      0x20\n        /* \"#utility.yul\":3909:3914   */\n      dup2\n        /* \"#utility.yul\":3905:3921   */\n      add\n        /* \"#utility.yul\":3954:3957   */\n      dup5\n        /* \"#utility.yul\":3945:3951   */\n      dup5\n        /* \"#utility.yul\":3940:3943   */\n      dup5\n        /* \"#utility.yul\":3936:3952   */\n      add\n        /* \"#utility.yul\":3933:3958   */\n      gt\n        /* \"#utility.yul\":3930:4042   */\n      iszero\n      tag_228\n      jumpi\n        /* \"#utility.yul\":3961:4040   */\n      tag_229\n      tag_133\n      jump\t// in\n    tag_229:\n        /* \"#utility.yul\":3930:4042   */\n    tag_228:\n        /* \"#utility.yul\":4051:4105   */\n      tag_230\n        /* \"#utility.yul\":4098:4104   */\n      dup5\n        /* \"#utility.yul\":4093:4096   */\n      dup3\n        /* \"#utility.yul\":4088:4091   */\n      dup6\n        /* \"#utility.yul\":4051:4105   */\n      tag_135\n      jump\t// in\n    tag_230:\n        /* \"#utility.yul\":3770:4111   */\n      pop\n        /* \"#utility.yul\":3686:4111   */\n      swap4\n      swap3\n      pop\n      pop\n      pop\n      jump\t// out\n        /* \"#utility.yul\":4131:4471   */\n    tag_137:\n        /* \"#utility.yul\":4187:4192   */\n      0x00\n        /* \"#utility.yul\":4236:4239   */\n      dup3\n        /* \"#utility.yul\":4229:4233   */\n      0x1f\n        /* \"#utility.yul\":4221:4227   */\n      dup4\n        /* \"#utility.yul\":4217:4234   */\n      add\n        /* \"#utility.yul\":4213:4240   */\n      slt\n        /* \"#utility.yul\":4203:4325   */\n      tag_232\n      jumpi\n        /* \"#utility.yul\":4244:4323   */\n      tag_233\n      tag_125\n      jump\t// in\n    tag_233:\n        /* \"#utility.yul\":4203:4325   */\n    tag_232:\n        /* \"#utility.yul\":4361:4367   */\n      dup2\n        /* \"#utility.yul\":4348:4368   */\n      calldataload\n        /* \"#utility.yul\":4386:4465   */\n      tag_234\n        /* \"#utility.yul\":4461:4464   */\n      dup5\n        /* \"#utility.yul\":4453:4459   */\n      dup3\n        /* \"#utility.yul\":4446:4450   */\n      0x20\n        /* \"#utility.yul\":4438:4444   */\n      dup7\n        /* \"#utility.yul\":4434:4451   */\n      add\n        /* \"#utility.yul\":4386:4465   */\n      tag_136\n      jump\t// in\n    tag_234:\n        /* \"#utility.yul\":4377:4465   */\n      swap2\n      pop\n        /* \"#utility.yul\":4193:4471   */\n      pop\n        /* \"#utility.yul\":4131:4471   */\n      swap3\n      swap2\n      pop\n      pop\n      jump\t// out\n        /* \"#utility.yul\":4477:5842   */\n    tag_13:\n        /* \"#utility.yul\":4623:4629   */\n      0x00\n        /* \"#utility.yul\":4631:4637   */\n      dup1\n        /* \"#utility.yul\":4639:4645   */\n      0x00\n        /* \"#utility.yul\":4647:4653   */\n      dup1\n        /* \"#utility.yul\":4696:4699   */\n      0x80\n        /* \"#utility.yul\":4684:4693   */\n      dup6\n        /* \"#utility.yul\":4675:4682   */\n      dup8\n        /* \"#utility.yul\":4671:4694   */\n      sub\n        /* \"#utility.yul\":4667:4700   */\n      slt\n        /* \"#utility.yul\":4664:4784   */\n      iszero\n      tag_236\n      jumpi\n        /* \"#utility.yul\":4703:4782   */\n      tag_237\n      tag_120\n      jump\t// in\n    tag_237:\n        /* \"#utility.yul\":4664:4784   */\n    tag_236:\n        /* \"#utility.yul\":4823:4824   */\n      0x00\n        /* \"#utility.yul\":4848:4901   */\n      tag_238\n        /* \"#utility.yul\":4893:4900   */\n      dup8\n        /* \"#utility.yul\":4884:4890   */\n      dup3\n        /* \"#utility.yul\":4873:4882   */\n      dup9\n        /* \"#utility.yul\":4869:4891   */\n      add\n        /* \"#utility.yul\":4848:4901   */\n      tag_124\n      jump\t// in\n    tag_238:\n        /* \"#utility.yul\":4838:4901   */\n      swap5\n      pop\n        /* \"#utility.yul\":4794:4911   */\n      pop\n        /* \"#utility.yul\":4978:4980   */\n      0x20\n        /* \"#utility.yul\":4967:4976   */\n      dup6\n        /* \"#utility.yul\":4963:4981   */\n      add\n        /* \"#utility.yul\":4950:4982   */\n      calldataload\n        /* \"#utility.yul\":5009:5027   */\n      0xffffffffffffffff\n        /* \"#utility.yul\":5001:5007   */\n      dup2\n        /* \"#utility.yul\":4998:5028   */\n      gt\n        /* \"#utility.yul\":4995:5112   */\n      iszero\n      tag_239\n      jumpi\n        /* \"#utility.yul\":5031:5110   */\n      tag_240\n      tag_121\n      jump\t// in\n    tag_240:\n        /* \"#utility.yul\":4995:5112   */\n    tag_239:\n        /* \"#utility.yul\":5136:5214   */\n      tag_241\n        /* \"#utility.yul\":5206:5213   */\n      dup8\n        /* \"#utility.yul\":5197:5203   */\n      dup3\n        /* \"#utility.yul\":5186:5195   */\n      dup9\n        /* \"#utility.yul\":5182:5204   */\n      add\n        /* \"#utility.yul\":5136:5214   */\n      tag_132\n      jump\t// in\n    tag_241:\n        /* \"#utility.yul\":5126:5214   */\n      swap4\n      pop\n        /* \"#utility.yul\":4921:5224   */\n      pop\n        /* \"#utility.yul\":5291:5293   */\n      0x40\n        /* \"#utility.yul\":5280:5289   */\n      dup6\n        /* \"#utility.yul\":5276:5294   */\n      add\n        /* \"#utility.yul\":5263:5295   */\n      calldataload\n        /* \"#utility.yul\":5322:5340   */\n      0xffffffffffffffff\n        /* \"#utility.yul\":5314:5320   */\n      dup2\n        /* \"#utility.yul\":5311:5341   */\n      gt\n        /* \"#utility.yul\":5308:5425   */\n      iszero\n      tag_242\n      jumpi\n        /* \"#utility.yul\":5344:5423   */\n      tag_243\n      tag_121\n      jump\t// in\n    tag_243:\n        /* \"#utility.yul\":5308:5425   */\n    tag_242:\n        /* \"#utility.yul\":5449:5527   */\n      tag_244\n        /* \"#utility.yul\":5519:5526   */\n      dup8\n        /* \"#utility.yul\":5510:5516   */\n      dup3\n        /* \"#utility.yul\":5499:5508   */\n      dup9\n        /* \"#utility.yul\":5495:5517   */\n      add\n        /* \"#utility.yul\":5449:5527   */\n      tag_132\n      jump\t// in\n    tag_244:\n        /* \"#utility.yul\":5439:5527   */\n      swap3\n      pop\n        /* \"#utility.yul\":5234:5537   */\n      pop\n        /* \"#utility.yul\":5604:5606   */\n      0x60\n        /* \"#utility.yul\":5593:5602   */\n      dup6\n        /* \"#utility.yul\":5589:5607   */\n      add\n        /* \"#utility.yul\":5576:5608   */\n      calldataload\n        /* \"#utility.yul\":5635:5653   */\n      0xffffffffffffffff\n        /* \"#utility.yul\":5627:5633   */\n      dup2\n        /* \"#utility.yul\":5624:5654   */\n      gt\n        /* \"#utility.yul\":5621:5738   */\n      iszero\n      tag_245\n      jumpi\n        /* \"#utility.yul\":5657:5736   */\n      tag_246\n      tag_121\n      jump\t// in\n    tag_246:\n        /* \"#utility.yul\":5621:5738   */\n    tag_245:\n        /* \"#utility.yul\":5762:5825   */\n      tag_247\n        /* \"#utility.yul\":5817:5824   */\n      dup8\n        /* \"#utility.yul\":5808:5814   */\n      dup3\n        /* \"#utility.yul\":5797:5806   */\n      dup9\n        /* \"#utility.yul\":5793:5815   */\n      add\n        /* \"#utility.yul\":5762:5825   */\n      tag_137\n      jump\t// in\n    tag_247:\n        /* \"#utility.yul\":5752:5825   */\n      swap2\n      pop\n        /* \"#utility.yul\":5547:5835   */\n      pop\n        /* \"#utility.yul\":4477:5842   */\n      swap3\n      swap6\n      swap2\n      swap5\n      pop\n      swap3\n      pop\n      jump\t// out\n        /* \"#utility.yul\":5848:5974   */\n    tag_138:\n        /* \"#utility.yul\":5885:5892   */\n      0x00\n        /* \"#utility.yul\":5925:5967   */\n      0xffffffffffffffffffffffffffffffffffffffff\n        /* \"#utility.yul\":5918:5923   */\n      dup3\n        /* \"#utility.yul\":5914:5968   */\n      and\n        /* \"#utility.yul\":5903:5968   */\n      swap1\n      pop\n        /* \"#utility.yul\":5848:5974   */\n      swap2\n      swap1\n      pop\n      jump\t// out\n        /* \"#utility.yul\":5980:6076   */\n    tag_139:\n        /* \"#utility.yul\":6017:6024   */\n      0x00\n        /* \"#utility.yul\":6046:6070   */\n      tag_250\n        /* \"#utility.yul\":6064:6069   */\n      dup3\n        /* \"#utility.yul\":6046:6070   */\n      tag_138\n      jump\t// in\n    tag_250:\n        /* \"#utility.yul\":6035:6070   */\n      swap1\n      pop\n        /* \"#utility.yul\":5980:6076   */\n      swap2\n      swap1\n      pop\n      jump\t// out\n        /* \"#utility.yul\":6082:6204   */\n    tag_140:\n        /* \"#utility.yul\":6155:6179   */\n      tag_252\n        /* \"#utility.yul\":6173:6178   */\n      dup2\n        /* \"#utility.yul\":6155:6179   */\n      tag_139\n      jump\t// in\n    tag_252:\n        /* \"#utility.yul\":6148:6153   */\n      dup2\n        /* \"#utility.yul\":6145:6180   */\n      eq\n        /* \"#utility.yul\":6135:6198   */\n      tag_253\n      jumpi\n        /* \"#utility.yul\":6194:6195   */\n      0x00\n        /* \"#utility.yul\":6191:6192   */\n      dup1\n        /* \"#utility.yul\":6184:6196   */\n      revert\n        /* \"#utility.yul\":6135:6198   */\n    tag_253:\n        /* \"#utility.yul\":6082:6204   */\n      pop\n      jump\t// out\n        /* \"#utility.yul\":6210:6349   */\n    tag_141:\n        /* \"#utility.yul\":6256:6261   */\n      0x00\n        /* \"#utility.yul\":6294:6300   */\n      dup2\n        /* \"#utility.yul\":6281:6301   */\n      calldataload\n        /* \"#utility.yul\":6272:6301   */\n      swap1\n      pop\n        /* \"#utility.yul\":6310:6343   */\n      tag_255\n        /* \"#utility.yul\":6337:6342   */\n      dup2\n        /* \"#utility.yul\":6310:6343   */\n      tag_140\n      jump\t// in\n    tag_255:\n        /* \"#utility.yul\":6210:6349   */\n      swap3\n      swap2\n      pop\n      pop\n      jump\t// out\n        /* \"#utility.yul\":6355:6684   */\n    tag_17:\n        /* \"#utility.yul\":6414:6420   */\n      0x00\n        /* \"#utility.yul\":6463:6465   */\n      0x20\n        /* \"#utility.yul\":6451:6460   */\n      dup3\n        /* \"#utility.yul\":6442:6449   */\n      dup5\n        /* \"#utility.yul\":6438:6461   */\n      sub\n        /* \"#utility.yul\":6434:6466   */\n      slt\n        /* \"#utility.yul\":6431:6550   */\n      iszero\n      tag_257\n      jumpi\n        /* \"#utility.yul\":6469:6548   */\n      tag_258\n      tag_120\n      jump\t// in\n    tag_258:\n        /* \"#utility.yul\":6431:6550   */\n    tag_257:\n        /* \"#utility.yul\":6589:6590   */\n      0x00\n        /* \"#utility.yul\":6614:6667   */\n      tag_259\n        /* \"#utility.yul\":6659:6666   */\n      dup5\n        /* \"#utility.yul\":6650:6656   */\n      dup3\n        /* \"#utility.yul\":6639:6648   */\n      dup6\n        /* \"#utility.yul\":6635:6657   */\n      add\n        /* \"#utility.yul\":6614:6667   */\n      tag_141\n      jump\t// in\n    tag_259:\n        /* \"#utility.yul\":6604:6667   */\n      swap2\n      pop\n        /* \"#utility.yul\":6560:6677   */\n      pop\n        /* \"#utility.yul\":6355:6684   */\n      swap3\n      swap2\n      pop\n      pop\n      jump\t// out\n        /* \"#utility.yul\":6690:6788   */\n    tag_142:\n        /* \"#utility.yul\":6741:6747   */\n      0x00\n        /* \"#utility.yul\":6775:6780   */\n      dup2\n        /* \"#utility.yul\":6769:6781   */\n      mload\n        /* \"#utility.yul\":6759:6781   */\n      swap1\n      pop\n        /* \"#utility.yul\":6690:6788   */\n      swap2\n      swap1\n      pop\n      jump\t// out\n        /* \"#utility.yul\":6794:6962   */\n    tag_143:\n        /* \"#utility.yul\":6877:6888   */\n      0x00\n        /* \"#utility.yul\":6911:6917   */\n      dup3\n        /* \"#utility.yul\":6906:6909   */\n      dup3\n        /* \"#utility.yul\":6899:6918   */\n      mstore\n        /* \"#utility.yul\":6951:6955   */\n      0x20\n        /* \"#utility.yul\":6946:6949   */\n      dup3\n        /* \"#utility.yul\":6942:6956   */\n      add\n        /* \"#utility.yul\":6927:6956   */\n      swap1\n      pop\n        /* \"#utility.yul\":6794:6962   */\n      swap3\n      swap2\n      pop\n      pop\n      jump\t// out\n        /* \"#utility.yul\":6968:7107   */\n    tag_144:\n        /* \"#utility.yul\":7057:7063   */\n      dup3\n        /* \"#utility.yul\":7052:7055   */\n      dup2\n        /* \"#utility.yul\":7047:7050   */\n      dup4\n        /* \"#utility.yul\":7041:7064   */\n      mcopy\n        /* \"#utility.yul\":7098:7099   */\n      0x00\n        /* \"#utility.yul\":7089:7095   */\n      dup4\n        /* \"#utility.yul\":7084:7087   */\n      dup4\n        /* \"#utility.yul\":7080:7096   */\n      add\n        /* \"#utility.yul\":7073:7100   */\n      mstore\n        /* \"#utility.yul\":6968:7107   */\n      pop\n      pop\n      pop\n      jump\t// out\n        /* \"#utility.yul\":7113:7486   */\n    tag_145:\n        /* \"#utility.yul\":7199:7202   */\n      0x00\n        /* \"#utility.yul\":7227:7265   */\n      tag_264\n        /* \"#utility.yul\":7259:7264   */\n      dup3\n        /* \"#utility.yul\":7227:7265   */\n      tag_142\n      jump\t// in\n    tag_264:\n        /* \"#utility.yul\":7281:7351   */\n      tag_265\n        /* \"#utility.yul\":7344:7350   */\n      dup2\n        /* \"#utility.yul\":7339:7342   */\n      dup6\n        /* \"#utility.yul\":7281:7351   */\n      tag_143\n      jump\t// in\n    tag_265:\n        /* \"#utility.yul\":7274:7351   */\n      swap4\n      pop\n        /* \"#utility.yul\":7360:7425   */\n      tag_266\n        /* \"#utility.yul\":7418:7424   */\n      dup2\n        /* \"#utility.yul\":7413:7416   */\n      dup6\n        /* \"#utility.yul\":7406:7410   */\n      0x20\n        /* \"#utility.yul\":7399:7404   */\n      dup7\n        /* \"#utility.yul\":7395:7411   */\n      add\n        /* \"#utility.yul\":7360:7425   */\n      tag_144\n      jump\t// in\n    tag_266:\n        /* \"#utility.yul\":7450:7479   */\n      tag_267\n        /* \"#utility.yul\":7472:7478   */\n      dup2\n        /* \"#utility.yul\":7450:7479   */\n      tag_126\n      jump\t// in\n    tag_267:\n        /* \"#utility.yul\":7445:7448   */\n      dup5\n        /* \"#utility.yul\":7441:7480   */\n      add\n        /* \"#utility.yul\":7434:7480   */\n      swap2\n      pop\n        /* \"#utility.yul\":7203:7486   */\n      pop\n        /* \"#utility.yul\":7113:7486   */\n      swap3\n      swap2\n      pop\n      pop\n      jump\t// out\n        /* \"#utility.yul\":7492:7801   */\n    tag_20:\n        /* \"#utility.yul\":7603:7607   */\n      0x00\n        /* \"#utility.yul\":7641:7643   */\n      0x20\n        /* \"#utility.yul\":7630:7639   */\n      dup3\n        /* \"#utility.yul\":7626:7644   */\n      add\n        /* \"#utility.yul\":7618:7644   */\n      swap1\n      pop\n        /* \"#utility.yul\":7690:7699   */\n      dup2\n        /* \"#utility.yul\":7684:7688   */\n      dup2\n        /* \"#utility.yul\":7680:7700   */\n      sub\n        /* \"#utility.yul\":7676:7677   */\n      0x00\n        /* \"#utility.yul\":7665:7674   */\n      dup4\n        /* \"#utility.yul\":7661:7678   */\n      add\n        /* \"#utility.yul\":7654:7701   */\n      mstore\n        /* \"#utility.yul\":7718:7794   */\n      tag_269\n        /* \"#utility.yul\":7789:7793   */\n      dup2\n        /* \"#utility.yul\":7780:7786   */\n      dup5\n        /* \"#utility.yul\":7718:7794   */\n      tag_145\n      jump\t// in\n    tag_269:\n        /* \"#utility.yul\":7710:7794   */\n      swap1\n      pop\n        /* \"#utility.yul\":7492:7801   */\n      swap3\n      swap2\n      pop\n      pop\n      jump\t// out\n        /* \"#utility.yul\":7807:8114   */\n    tag_146:\n        /* \"#utility.yul\":7868:7872   */\n      0x00\n        /* \"#utility.yul\":7958:7976   */\n      0xffffffffffffffff\n        /* \"#utility.yul\":7950:7956   */\n      dup3\n        /* \"#utility.yul\":7947:7977   */\n      gt\n        /* \"#utility.yul\":7944:8000   */\n      iszero\n      tag_271\n      jumpi\n        /* \"#utility.yul\":7980:7998   */\n      tag_272\n      tag_91\n      jump\t// in\n    tag_272:\n        /* \"#utility.yul\":7944:8000   */\n    tag_271:\n        /* \"#utility.yul\":8018:8047   */\n      tag_273\n        /* \"#utility.yul\":8040:8046   */\n      dup3\n        /* \"#utility.yul\":8018:8047   */\n      tag_126\n      jump\t// in\n    tag_273:\n        /* \"#utility.yul\":8010:8047   */\n      swap1\n      pop\n        /* \"#utility.yul\":8102:8106   */\n      0x20\n        /* \"#utility.yul\":8096:8100   */\n      dup2\n        /* \"#utility.yul\":8092:8107   */\n      add\n        /* \"#utility.yul\":8084:8107   */\n      swap1\n      pop\n        /* \"#utility.yul\":7807:8114   */\n      swap2\n      swap1\n      pop\n      jump\t// out\n        /* \"#utility.yul\":8120:8543   */\n    tag_147:\n        /* \"#utility.yul\":8197:8202   */\n      0x00\n        /* \"#utility.yul\":8222:8287   */\n      tag_275\n        /* \"#utility.yul\":8238:8286   */\n      tag_276\n        /* \"#utility.yul\":8279:8285   */\n      dup5\n        /* \"#utility.yul\":8238:8286   */\n      tag_146\n      jump\t// in\n    tag_276:\n        /* \"#utility.yul\":8222:8287   */\n      tag_128\n      jump\t// in\n    tag_275:\n        /* \"#utility.yul\":8213:8287   */\n      swap1\n      pop\n        /* \"#utility.yul\":8310:8316   */\n      dup3\n        /* \"#utility.yul\":8303:8308   */\n      dup2\n        /* \"#utility.yul\":8296:8317   */\n      mstore\n        /* \"#utility.yul\":8348:8352   */\n      0x20\n        /* \"#utility.yul\":8341:8346   */\n      dup2\n        /* \"#utility.yul\":8337:8353   */\n      add\n        /* \"#utility.yul\":8386:8389   */\n      dup5\n        /* \"#utility.yul\":8377:8383   */\n      dup5\n        /* \"#utility.yul\":8372:8375   */\n      dup5\n        /* \"#utility.yul\":8368:8384   */\n      add\n        /* \"#utility.yul\":8365:8390   */\n      gt\n        /* \"#utility.yul\":8362:8474   */\n      iszero\n      tag_277\n      jumpi\n        /* \"#utility.yul\":8393:8472   */\n      tag_278\n      tag_133\n      jump\t// in\n    tag_278:\n        /* \"#utility.yul\":8362:8474   */\n    tag_277:\n        /* \"#utility.yul\":8483:8537   */\n      tag_279\n        /* \"#utility.yul\":8530:8536   */\n      dup5\n        /* \"#utility.yul\":8525:8528   */\n      dup3\n        /* \"#utility.yul\":8520:8523   */\n      dup6\n        /* \"#utility.yul\":8483:8537   */\n      tag_135\n      jump\t// in\n    tag_279:\n        /* \"#utility.yul\":8203:8543   */\n      pop\n        /* \"#utility.yul\":8120:8543   */\n      swap4\n      swap3\n      pop\n      pop\n      pop\n      jump\t// out\n        /* \"#utility.yul\":8562:8900   */\n    tag_148:\n        /* \"#utility.yul\":8617:8622   */\n      0x00\n        /* \"#utility.yul\":8666:8669   */\n      dup3\n        /* \"#utility.yul\":8659:8663   */\n      0x1f\n        /* \"#utility.yul\":8651:8657   */\n      dup4\n        /* \"#utility.yul\":8647:8664   */\n      add\n        /* \"#utility.yul\":8643:8670   */\n      slt\n        /* \"#utility.yul\":8633:8755   */\n      tag_281\n      jumpi\n        /* \"#utility.yul\":8674:8753   */\n      tag_282\n      tag_125\n      jump\t// in\n    tag_282:\n        /* \"#utility.yul\":8633:8755   */\n    tag_281:\n        /* \"#utility.yul\":8791:8797   */\n      dup2\n        /* \"#utility.yul\":8778:8798   */\n      calldataload\n        /* \"#utility.yul\":8816:8894   */\n      tag_283\n        /* \"#utility.yul\":8890:8893   */\n      dup5\n        /* \"#utility.yul\":8882:8888   */\n      dup3\n        /* \"#utility.yul\":8875:8879   */\n      0x20\n        /* \"#utility.yul\":8867:8873   */\n      dup7\n        /* \"#utility.yul\":8863:8880   */\n      add\n        /* \"#utility.yul\":8816:8894   */\n      tag_147\n      jump\t// in\n    tag_283:\n        /* \"#utility.yul\":8807:8894   */\n      swap2\n      pop\n        /* \"#utility.yul\":8623:8900   */\n      pop\n        /* \"#utility.yul\":8562:8900   */\n      swap3\n      swap2\n      pop\n      pop\n      jump\t// out\n        /* \"#utility.yul\":8906:9558   */\n    tag_23:\n        /* \"#utility.yul\":8983:8989   */\n      0x00\n        /* \"#utility.yul\":8991:8997   */\n      dup1\n        /* \"#utility.yul\":9040:9042   */\n      0x40\n        /* \"#utility.yul\":9028:9037   */\n      dup4\n        /* \"#utility.yul\":9019:9026   */\n      dup6\n        /* \"#utility.yul\":9015:9038   */\n      sub\n        /* \"#utility.yul\":9011:9043   */\n      slt\n        /* \"#utility.yul\":9008:9127   */\n      iszero\n      tag_285\n      jumpi\n        /* \"#utility.yul\":9046:9125   */\n      tag_286\n      tag_120\n      jump\t// in\n    tag_286:\n        /* \"#utility.yul\":9008:9127   */\n    tag_285:\n        /* \"#utility.yul\":9166:9167   */\n      0x00\n        /* \"#utility.yul\":9191:9244   */\n      tag_287\n        /* \"#utility.yul\":9236:9243   */\n      dup6\n        /* \"#utility.yul\":9227:9233   */\n      dup3\n        /* \"#utility.yul\":9216:9225   */\n      dup7\n        /* \"#utility.yul\":9212:9234   */\n      add\n        /* \"#utility.yul\":9191:9244   */\n      tag_141\n      jump\t// in\n    tag_287:\n        /* \"#utility.yul\":9181:9244   */\n      swap3\n      pop\n        /* \"#utility.yul\":9137:9254   */\n      pop\n        /* \"#utility.yul\":9321:9323   */\n      0x20\n        /* \"#utility.yul\":9310:9319   */\n      dup4\n        /* \"#utility.yul\":9306:9324   */\n      add\n        /* \"#utility.yul\":9293:9325   */\n      calldataload\n        /* \"#utility.yul\":9352:9370   */\n      0xffffffffffffffff\n        /* \"#utility.yul\":9344:9350   */\n      dup2\n        /* \"#utility.yul\":9341:9371   */\n      gt\n        /* \"#utility.yul\":9338:9455   */\n      iszero\n      tag_288\n      jumpi\n        /* \"#utility.yul\":9374:9453   */\n      tag_289\n      tag_121\n      jump\t// in\n    tag_289:\n        /* \"#utility.yul\":9338:9455   */\n    tag_288:\n        /* \"#utility.yul\":9479:9541   */\n      tag_290\n        /* \"#utility.yul\":9533:9540   */\n      dup6\n        /* \"#utility.yul\":9524:9530   */\n      dup3\n        /* \"#utility.yul\":9513:9522   */\n      dup7\n        /* \"#utility.yul\":9509:9531   */\n      add\n        /* \"#utility.yul\":9479:9541   */\n      tag_148\n      jump\t// in\n    tag_290:\n        /* \"#utility.yul\":9469:9541   */\n      swap2\n      pop\n        /* \"#utility.yul\":9264:9551   */\n      pop\n        /* \"#utility.yul\":8906:9558   */\n      swap3\n      pop\n      swap3\n      swap1\n      pop\n      jump\t// out\n        /* \"#utility.yul\":9564:9893   */\n    tag_27:\n        /* \"#utility.yul\":9623:9629   */\n      0x00\n        /* \"#utility.yul\":9672:9674   */\n      0x20\n        /* \"#utility.yul\":9660:9669   */\n      dup3\n        /* \"#utility.yul\":9651:9658   */\n      dup5\n        /* \"#utility.yul\":9647:9670   */\n      sub\n        /* \"#utility.yul\":9643:9675   */\n      slt\n        /* \"#utility.yul\":9640:9759   */\n      iszero\n      tag_292\n      jumpi\n        /* \"#utility.yul\":9678:9757   */\n      tag_293\n      tag_120\n      jump\t// in\n    tag_293:\n        /* \"#utility.yul\":9640:9759   */\n    tag_292:\n        /* \"#utility.yul\":9798:9799   */\n      0x00\n        /* \"#utility.yul\":9823:9876   */\n      tag_294\n        /* \"#utility.yul\":9868:9875   */\n      dup5\n        /* \"#utility.yul\":9859:9865   */\n      dup3\n        /* \"#utility.yul\":9848:9857   */\n      dup6\n        /* \"#utility.yul\":9844:9866   */\n      add\n        /* \"#utility.yul\":9823:9876   */\n      tag_124\n      jump\t// in\n    tag_294:\n        /* \"#utility.yul\":9813:9876   */\n      swap2\n      pop\n        /* \"#utility.yul\":9769:9886   */\n      pop\n        /* \"#utility.yul\":9564:9893   */\n      swap3\n      swap2\n      pop\n      pop\n      jump\t// out\n        /* \"#utility.yul\":9899:9998   */\n    tag_149:\n        /* \"#utility.yul\":9951:9957   */\n      0x00\n        /* \"#utility.yul\":9985:9990   */\n      dup2\n        /* \"#utility.yul\":9979:9991   */\n      mload\n        /* \"#utility.yul\":9969:9991   */\n      swap1\n      pop\n        /* \"#utility.yul\":9899:9998   */\n      swap2\n      swap1\n      pop\n      jump\t// out\n        /* \"#utility.yul\":10004:10173   */\n    tag_150:\n        /* \"#utility.yul\":10088:10099   */\n      0x00\n        /* \"#utility.yul\":10122:10128   */\n      dup3\n        /* \"#utility.yul\":10117:10120   */\n      dup3\n        /* \"#utility.yul\":10110:10129   */\n      mstore\n        /* \"#utility.yul\":10162:10166   */\n      0x20\n        /* \"#utility.yul\":10157:10160   */\n      dup3\n        /* \"#utility.yul\":10153:10167   */\n      add\n        /* \"#utility.yul\":10138:10167   */\n      swap1\n      pop\n        /* \"#utility.yul\":10004:10173   */\n      swap3\n      swap2\n      pop\n      pop\n      jump\t// out\n        /* \"#utility.yul\":10179:10556   */\n    tag_151:\n        /* \"#utility.yul\":10267:10270   */\n      0x00\n        /* \"#utility.yul\":10295:10334   */\n      tag_298\n        /* \"#utility.yul\":10328:10333   */\n      dup3\n        /* \"#utility.yul\":10295:10334   */\n      tag_149\n      jump\t// in\n    tag_298:\n        /* \"#utility.yul\":10350:10421   */\n      tag_299\n        /* \"#utility.yul\":10414:10420   */\n      dup2\n        /* \"#utility.yul\":10409:10412   */\n      dup6\n        /* \"#utility.yul\":10350:10421   */\n      tag_150\n      jump\t// in\n    tag_299:\n        /* \"#utility.yul\":10343:10421   */\n      swap4\n      pop\n        /* \"#utility.yul\":10430:10495   */\n      tag_300\n        /* \"#utility.yul\":10488:10494   */\n      dup2\n        /* \"#utility.yul\":10483:10486   */\n      dup6\n        /* \"#utility.yul\":10476:10480   */\n      0x20\n        /* \"#utility.yul\":10469:10474   */\n      dup7\n        /* \"#utility.yul\":10465:10481   */\n      add\n        /* \"#utility.yul\":10430:10495   */\n      tag_144\n      jump\t// in\n    tag_300:\n        /* \"#utility.yul\":10520:10549   */\n      tag_301\n        /* \"#utility.yul\":10542:10548   */\n      dup2\n        /* \"#utility.yul\":10520:10549   */\n      tag_126\n      jump\t// in\n    tag_301:\n        /* \"#utility.yul\":10515:10518   */\n      dup5\n        /* \"#utility.yul\":10511:10550   */\n      add\n        /* \"#utility.yul\":10504:10550   */\n      swap2\n      pop\n        /* \"#utility.yul\":10271:10556   */\n      pop\n        /* \"#utility.yul\":10179:10556   */\n      swap3\n      swap2\n      pop\n      pop\n      jump\t// out\n        /* \"#utility.yul\":10562:10875   */\n    tag_30:\n        /* \"#utility.yul\":10675:10679   */\n      0x00\n        /* \"#utility.yul\":10713:10715   */\n      0x20\n        /* \"#utility.yul\":10702:10711   */\n      dup3\n        /* \"#utility.yul\":10698:10716   */\n      add\n        /* \"#utility.yul\":10690:10716   */\n      swap1\n      pop\n        /* \"#utility.yul\":10762:10771   */\n      dup2\n        /* \"#utility.yul\":10756:10760   */\n      dup2\n        /* \"#utility.yul\":10752:10772   */\n      sub\n        /* \"#utility.yul\":10748:10749   */\n      0x00\n        /* \"#utility.yul\":10737:10746   */\n      dup4\n        /* \"#utility.yul\":10733:10750   */\n      add\n        /* \"#utility.yul\":10726:10773   */\n      mstore\n        /* \"#utility.yul\":10790:10868   */\n      tag_303\n        /* \"#utility.yul\":10863:10867   */\n      dup2\n        /* \"#utility.yul\":10854:10860   */\n      dup5\n        /* \"#utility.yul\":10790:10868   */\n      tag_151\n      jump\t// in\n    tag_303:\n        /* \"#utility.yul\":10782:10868   */\n      swap1\n      pop\n        /* \"#utility.yul\":10562:10875   */\n      swap3\n      swap2\n      pop\n      pop\n      jump\t// out\n        /* \"#utility.yul\":10881:10999   */\n    tag_152:\n        /* \"#utility.yul\":10968:10992   */\n      tag_305\n        /* \"#utility.yul\":10986:10991   */\n      dup2\n        /* \"#utility.yul\":10968:10992   */\n      tag_139\n      jump\t// in\n    tag_305:\n        /* \"#utility.yul\":10963:10966   */\n      dup3\n        /* \"#utility.yul\":10956:10993   */\n      mstore\n        /* \"#utility.yul\":10881:10999   */\n      pop\n      pop\n      jump\t// out\n        /* \"#utility.yul\":11005:11227   */\n    tag_38:\n        /* \"#utility.yul\":11098:11102   */\n      0x00\n        /* \"#utility.yul\":11136:11138   */\n      0x20\n        /* \"#utility.yul\":11125:11134   */\n      dup3\n        /* \"#utility.yul\":11121:11139   */\n      add\n        /* \"#utility.yul\":11113:11139   */\n      swap1\n      pop\n        /* \"#utility.yul\":11149:11220   */\n      tag_307\n        /* \"#utility.yul\":11217:11218   */\n      0x00\n        /* \"#utility.yul\":11206:11215   */\n      dup4\n        /* \"#utility.yul\":11202:11219   */\n      add\n        /* \"#utility.yul\":11193:11199   */\n      dup5\n        /* \"#utility.yul\":11149:11220   */\n      tag_152\n      jump\t// in\n    tag_307:\n        /* \"#utility.yul\":11005:11227   */\n      swap3\n      swap2\n      pop\n      pop\n      jump\t// out\n        /* \"#utility.yul\":11233:11347   */\n    tag_153:\n        /* \"#utility.yul\":11300:11306   */\n      0x00\n        /* \"#utility.yul\":11334:11339   */\n      dup2\n        /* \"#utility.yul\":11328:11340   */\n      mload\n        /* \"#utility.yul\":11318:11340   */\n      swap1\n      pop\n        /* \"#utility.yul\":11233:11347   */\n      swap2\n      swap1\n      pop\n      jump\t// out\n        /* \"#utility.yul\":11353:11537   */\n    tag_154:\n        /* \"#utility.yul\":11452:11463   */\n      0x00\n        /* \"#utility.yul\":11486:11492   */\n      dup3\n        /* \"#utility.yul\":11481:11484   */\n      dup3\n        /* \"#utility.yul\":11474:11493   */\n      mstore\n        /* \"#utility.yul\":11526:11530   */\n      0x20\n        /* \"#utility.yul\":11521:11524   */\n      dup3\n        /* \"#utility.yul\":11517:11531   */\n      add\n        /* \"#utility.yul\":11502:11531   */\n      swap1\n      pop\n        /* \"#utility.yul\":11353:11537   */\n      swap3\n      swap2\n      pop\n      pop\n      jump\t// out\n        /* \"#utility.yul\":11543:11675   */\n    tag_155:\n        /* \"#utility.yul\":11610:11614   */\n      0x00\n        /* \"#utility.yul\":11633:11636   */\n      dup2\n        /* \"#utility.yul\":11625:11636   */\n      swap1\n      pop\n        /* \"#utility.yul\":11663:11667   */\n      0x20\n        /* \"#utility.yul\":11658:11661   */\n      dup3\n        /* \"#utility.yul\":11654:11668   */\n      add\n        /* \"#utility.yul\":11646:11668   */\n      swap1\n      pop\n        /* \"#utility.yul\":11543:11675   */\n      swap2\n      swap1\n      pop\n      jump\t// out\n        /* \"#utility.yul\":11681:11789   */\n    tag_156:\n        /* \"#utility.yul\":11758:11782   */\n      tag_312\n        /* \"#utility.yul\":11776:11781   */\n      dup2\n        /* \"#utility.yul\":11758:11782   */\n      tag_122\n      jump\t// in\n    tag_312:\n        /* \"#utility.yul\":11753:11756   */\n      dup3\n        /* \"#utility.yul\":11746:11783   */\n      mstore\n        /* \"#utility.yul\":11681:11789   */\n      pop\n      pop\n      jump\t// out\n        /* \"#utility.yul\":11795:11974   */\n    tag_157:\n        /* \"#utility.yul\":11864:11874   */\n      0x00\n        /* \"#utility.yul\":11885:11931   */\n      tag_314\n        /* \"#utility.yul\":11927:11930   */\n      dup4\n        /* \"#utility.yul\":11919:11925   */\n      dup4\n        /* \"#utility.yul\":11885:11931   */\n      tag_156\n      jump\t// in\n    tag_314:\n        /* \"#utility.yul\":11963:11967   */\n      0x20\n        /* \"#utility.yul\":11958:11961   */\n      dup4\n        /* \"#utility.yul\":11954:11968   */\n      add\n        /* \"#utility.yul\":11940:11968   */\n      swap1\n      pop\n        /* \"#utility.yul\":11795:11974   */\n      swap3\n      swap2\n      pop\n      pop\n      jump\t// out\n        /* \"#utility.yul\":11980:12093   */\n    tag_158:\n        /* \"#utility.yul\":12050:12054   */\n      0x00\n        /* \"#utility.yul\":12082:12086   */\n      0x20\n        /* \"#utility.yul\":12077:12080   */\n      dup3\n        /* \"#utility.yul\":12073:12087   */\n      add\n        /* \"#utility.yul\":12065:12087   */\n      swap1\n      pop\n        /* \"#utility.yul\":11980:12093   */\n      swap2\n      swap1\n      pop\n      jump\t// out\n        /* \"#utility.yul\":12129:12861   */\n    tag_159:\n        /* \"#utility.yul\":12248:12251   */\n      0x00\n        /* \"#utility.yul\":12277:12331   */\n      tag_317\n        /* \"#utility.yul\":12325:12330   */\n      dup3\n        /* \"#utility.yul\":12277:12331   */\n      tag_153\n      jump\t// in\n    tag_317:\n        /* \"#utility.yul\":12347:12433   */\n      tag_318\n        /* \"#utility.yul\":12426:12432   */\n      dup2\n        /* \"#utility.yul\":12421:12424   */\n      dup6\n        /* \"#utility.yul\":12347:12433   */\n      tag_154\n      jump\t// in\n    tag_318:\n        /* \"#utility.yul\":12340:12433   */\n      swap4\n      pop\n        /* \"#utility.yul\":12457:12513   */\n      tag_319\n        /* \"#utility.yul\":12507:12512   */\n      dup4\n        /* \"#utility.yul\":12457:12513   */\n      tag_155\n      jump\t// in\n    tag_319:\n        /* \"#utility.yul\":12536:12543   */\n      dup1\n        /* \"#utility.yul\":12567:12568   */\n      0x00\n        /* \"#utility.yul\":12552:12836   */\n    tag_320:\n        /* \"#utility.yul\":12577:12583   */\n      dup4\n        /* \"#utility.yul\":12574:12575   */\n      dup2\n        /* \"#utility.yul\":12571:12584   */\n      lt\n        /* \"#utility.yul\":12552:12836   */\n      iszero\n      tag_322\n      jumpi\n        /* \"#utility.yul\":12653:12659   */\n      dup2\n        /* \"#utility.yul\":12647:12660   */\n      mload\n        /* \"#utility.yul\":12680:12743   */\n      tag_323\n        /* \"#utility.yul\":12739:12742   */\n      dup9\n        /* \"#utility.yul\":12724:12737   */\n      dup3\n        /* \"#utility.yul\":12680:12743   */\n      tag_157\n      jump\t// in\n    tag_323:\n        /* \"#utility.yul\":12673:12743   */\n      swap8\n      pop\n        /* \"#utility.yul\":12766:12826   */\n      tag_324\n        /* \"#utility.yul\":12819:12825   */\n      dup4\n        /* \"#utility.yul\":12766:12826   */\n      tag_158\n      jump\t// in\n    tag_324:\n        /* \"#utility.yul\":12756:12826   */\n      swap3\n      pop\n        /* \"#utility.yul\":12612:12836   */\n      pop\n        /* \"#utility.yul\":12599:12600   */\n      0x01\n        /* \"#utility.yul\":12596:12597   */\n      dup2\n        /* \"#utility.yul\":12592:12601   */\n      add\n        /* \"#utility.yul\":12587:12601   */\n      swap1\n      pop\n        /* \"#utility.yul\":12552:12836   */\n      jump(tag_320)\n    tag_322:\n        /* \"#utility.yul\":12556:12570   */\n      pop\n        /* \"#utility.yul\":12852:12855   */\n      dup6\n        /* \"#utility.yul\":12845:12855   */\n      swap4\n      pop\n        /* \"#utility.yul\":12253:12861   */\n      pop\n      pop\n      pop\n        /* \"#utility.yul\":12129:12861   */\n      swap3\n      swap2\n      pop\n      pop\n      jump\t// out\n        /* \"#utility.yul\":12867:13702   */\n    tag_43:\n        /* \"#utility.yul\":13136:13140   */\n      0x00\n        /* \"#utility.yul\":13174:13176   */\n      0x60\n        /* \"#utility.yul\":13163:13172   */\n      dup3\n        /* \"#utility.yul\":13159:13177   */\n      add\n        /* \"#utility.yul\":13151:13177   */\n      swap1\n      pop\n        /* \"#utility.yul\":13223:13232   */\n      dup2\n        /* \"#utility.yul\":13217:13221   */\n      dup2\n        /* \"#utility.yul\":13213:13233   */\n      sub\n        /* \"#utility.yul\":13209:13210   */\n      0x00\n        /* \"#utility.yul\":13198:13207   */\n      dup4\n        /* \"#utility.yul\":13194:13211   */\n      add\n        /* \"#utility.yul\":13187:13234   */\n      mstore\n        /* \"#utility.yul\":13251:13359   */\n      tag_326\n        /* \"#utility.yul\":13354:13358   */\n      dup2\n        /* \"#utility.yul\":13345:13351   */\n      dup7\n        /* \"#utility.yul\":13251:13359   */\n      tag_159\n      jump\t// in\n    tag_326:\n        /* \"#utility.yul\":13243:13359   */\n      swap1\n      pop\n        /* \"#utility.yul\":13406:13415   */\n      dup2\n        /* \"#utility.yul\":13400:13404   */\n      dup2\n        /* \"#utility.yul\":13396:13416   */\n      sub\n        /* \"#utility.yul\":13391:13393   */\n      0x20\n        /* \"#utility.yul\":13380:13389   */\n      dup4\n        /* \"#utility.yul\":13376:13394   */\n      add\n        /* \"#utility.yul\":13369:13417   */\n      mstore\n        /* \"#utility.yul\":13434:13542   */\n      tag_327\n        /* \"#utility.yul\":13537:13541   */\n      dup2\n        /* \"#utility.yul\":13528:13534   */\n      dup6\n        /* \"#utility.yul\":13434:13542   */\n      tag_159\n      jump\t// in\n    tag_327:\n        /* \"#utility.yul\":13426:13542   */\n      swap1\n      pop\n        /* \"#utility.yul\":13589:13598   */\n      dup2\n        /* \"#utility.yul\":13583:13587   */\n      dup2\n        /* \"#utility.yul\":13579:13599   */\n      sub\n        /* \"#utility.yul\":13574:13576   */\n      0x40\n        /* \"#utility.yul\":13563:13572   */\n      dup4\n        /* \"#utility.yul\":13559:13577   */\n      add\n        /* \"#utility.yul\":13552:13600   */\n      mstore\n        /* \"#utility.yul\":13617:13695   */\n      tag_328\n        /* \"#utility.yul\":13690:13694   */\n      dup2\n        /* \"#utility.yul\":13681:13687   */\n      dup5\n        /* \"#utility.yul\":13617:13695   */\n      tag_151\n      jump\t// in\n    tag_328:\n        /* \"#utility.yul\":13609:13695   */\n      swap1\n      pop\n        /* \"#utility.yul\":12867:13702   */\n      swap5\n      swap4\n      pop\n      pop\n      pop\n      pop\n      jump\t// out\n        /* \"#utility.yul\":13708:13870   */\n    tag_160:\n        /* \"#utility.yul\":13848:13862   */\n      0x556e617574686f72697a65640000000000000000000000000000000000000000\n        /* \"#utility.yul\":13844:13845   */\n      0x00\n        /* \"#utility.yul\":13836:13842   */\n      dup3\n        /* \"#utility.yul\":13832:13846   */\n      add\n        /* \"#utility.yul\":13825:13863   */\n      mstore\n        /* \"#utility.yul\":13708:13870   */\n      pop\n      jump\t// out\n        /* \"#utility.yul\":13876:14242   */\n    tag_161:\n        /* \"#utility.yul\":14018:14021   */\n      0x00\n        /* \"#utility.yul\":14039:14106   */\n      tag_331\n        /* \"#utility.yul\":14103:14105   */\n      0x0c\n        /* \"#utility.yul\":14098:14101   */\n      dup4\n        /* \"#utility.yul\":14039:14106   */\n      tag_150\n      jump\t// in\n    tag_331:\n        /* \"#utility.yul\":14032:14106   */\n      swap2\n      pop\n        /* \"#utility.yul\":14115:14208   */\n      tag_332\n        /* \"#utility.yul\":14204:14207   */\n      dup3\n        /* \"#utility.yul\":14115:14208   */\n      tag_160\n      jump\t// in\n    tag_332:\n        /* \"#utility.yul\":14233:14235   */\n      0x20\n        /* \"#utility.yul\":14228:14231   */\n      dup3\n        /* \"#utility.yul\":14224:14236   */\n      add\n        /* \"#utility.yul\":14217:14236   */\n      swap1\n      pop\n        /* \"#utility.yul\":13876:14242   */\n      swap2\n      swap1\n      pop\n      jump\t// out\n        /* \"#utility.yul\":14248:14667   */\n    tag_47:\n        /* \"#utility.yul\":14414:14418   */\n      0x00\n        /* \"#utility.yul\":14452:14454   */\n      0x20\n        /* \"#utility.yul\":14441:14450   */\n      dup3\n        /* \"#utility.yul\":14437:14455   */\n      add\n        /* \"#utility.yul\":14429:14455   */\n      swap1\n      pop\n        /* \"#utility.yul\":14501:14510   */\n      dup2\n        /* \"#utility.yul\":14495:14499   */\n      dup2\n        /* \"#utility.yul\":14491:14511   */\n      sub\n        /* \"#utility.yul\":14487:14488   */\n      0x00\n        /* \"#utility.yul\":14476:14485   */\n      dup4\n        /* \"#utility.yul\":14472:14489   */\n      add\n        /* \"#utility.yul\":14465:14512   */\n      mstore\n        /* \"#utility.yul\":14529:14660   */\n      tag_334\n        /* \"#utility.yul\":14655:14659   */\n      dup2\n        /* \"#utility.yul\":14529:14660   */\n      tag_161\n      jump\t// in\n    tag_334:\n        /* \"#utility.yul\":14521:14660   */\n      swap1\n      pop\n        /* \"#utility.yul\":14248:14667   */\n      swap2\n      swap1\n      pop\n      jump\t// out\n        /* \"#utility.yul\":14673:14842   */\n    tag_162:\n        /* \"#utility.yul\":14813:14834   */\n      0x436f6f7264696e617465206d69736d6174636800000000000000000000000000\n        /* \"#utility.yul\":14809:14810   */\n      0x00\n        /* \"#utility.yul\":14801:14807   */\n      dup3\n        /* \"#utility.yul\":14797:14811   */\n      add\n        /* \"#utility.yul\":14790:14835   */\n      mstore\n        /* \"#utility.yul\":14673:14842   */\n      pop\n      jump\t// out\n        /* \"#utility.yul\":14848:15214   */\n    tag_163:\n        /* \"#utility.yul\":14990:14993   */\n      0x00\n        /* \"#utility.yul\":15011:15078   */\n      tag_337\n        /* \"#utility.yul\":15075:15077   */\n      0x13\n        /* \"#utility.yul\":15070:15073   */\n      dup4\n        /* \"#utility.yul\":15011:15078   */\n      tag_150\n      jump\t// in\n    tag_337:\n        /* \"#utility.yul\":15004:15078   */\n      swap2\n      pop\n        /* \"#utility.yul\":15087:15180   */\n      tag_338\n        /* \"#utility.yul\":15176:15179   */\n      dup3\n        /* \"#utility.yul\":15087:15180   */\n      tag_162\n      jump\t// in\n    tag_338:\n        /* \"#utility.yul\":15205:15207   */\n      0x20\n        /* \"#utility.yul\":15200:15203   */\n      dup3\n        /* \"#utility.yul\":15196:15208   */\n      add\n        /* \"#utility.yul\":15189:15208   */\n      swap1\n      pop\n        /* \"#utility.yul\":14848:15214   */\n      swap2\n      swap1\n      pop\n      jump\t// out\n        /* \"#utility.yul\":15220:15639   */\n    tag_51:\n        /* \"#utility.yul\":15386:15390   */\n      0x00\n        /* \"#utility.yul\":15424:15426   */\n      0x20\n        /* \"#utility.yul\":15413:15422   */\n      dup3\n        /* \"#utility.yul\":15409:15427   */\n      add\n        /* \"#utility.yul\":15401:15427   */\n      swap1\n      pop\n        /* \"#utility.yul\":15473:15482   */\n      dup2\n        /* \"#utility.yul\":15467:15471   */\n      dup2\n        /* \"#utility.yul\":15463:15483   */\n      sub\n        /* \"#utility.yul\":15459:15460   */\n      0x00\n        /* \"#utility.yul\":15448:15457   */\n      dup4\n        /* \"#utility.yul\":15444:15461   */\n      add\n        /* \"#utility.yul\":15437:15484   */\n      mstore\n        /* \"#utility.yul\":15501:15632   */\n      tag_340\n        /* \"#utility.yul\":15627:15631   */\n      dup2\n        /* \"#utility.yul\":15501:15632   */\n      tag_163\n      jump\t// in\n    tag_340:\n        /* \"#utility.yul\":15493:15632   */\n      swap1\n      pop\n        /* \"#utility.yul\":15220:15639   */\n      swap2\n      swap1\n      pop\n      jump\t// out\n        /* \"#utility.yul\":15645:15825   */\n    tag_59:\n        /* \"#utility.yul\":15693:15770   */\n      0x4e487b7100000000000000000000000000000000000000000000000000000000\n        /* \"#utility.yul\":15690:15691   */\n      0x00\n        /* \"#utility.yul\":15683:15771   */\n      mstore\n        /* \"#utility.yul\":15790:15794   */\n      0x32\n        /* \"#utility.yul\":15787:15788   */\n      0x04\n        /* \"#utility.yul\":15780:15795   */\n      mstore\n        /* \"#utility.yul\":15814:15818   */\n      0x24\n        /* \"#utility.yul\":15811:15812   */\n      0x00\n        /* \"#utility.yul\":15804:15819   */\n      revert\n        /* \"#utility.yul\":15831:16011   */\n    tag_164:\n        /* \"#utility.yul\":15879:15956   */\n      0x4e487b7100000000000000000000000000000000000000000000000000000000\n        /* \"#utility.yul\":15876:15877   */\n      0x00\n        /* \"#utility.yul\":15869:15957   */\n      mstore\n        /* \"#utility.yul\":15976:15980   */\n      0x22\n        /* \"#utility.yul\":15973:15974   */\n      0x04\n        /* \"#utility.yul\":15966:15981   */\n      mstore\n        /* \"#utility.yul\":16000:16004   */\n      0x24\n        /* \"#utility.yul\":15997:15998   */\n      0x00\n        /* \"#utility.yul\":15990:16005   */\n      revert\n        /* \"#utility.yul\":16017:16337   */\n    tag_67:\n        /* \"#utility.yul\":16061:16067   */\n      0x00\n        /* \"#utility.yul\":16098:16099   */\n      0x02\n        /* \"#utility.yul\":16092:16096   */\n      dup3\n        /* \"#utility.yul\":16088:16100   */\n      div\n        /* \"#utility.yul\":16078:16100   */\n      swap1\n      pop\n        /* \"#utility.yul\":16145:16146   */\n      0x01\n        /* \"#utility.yul\":16139:16143   */\n      dup3\n        /* \"#utility.yul\":16135:16147   */\n      and\n        /* \"#utility.yul\":16166:16184   */\n      dup1\n        /* \"#utility.yul\":16156:16237   */\n      tag_344\n      jumpi\n        /* \"#utility.yul\":16222:16226   */\n      0x7f\n        /* \"#utility.yul\":16214:16220   */\n      dup3\n        /* \"#utility.yul\":16210:16227   */\n      and\n        /* \"#utility.yul\":16200:16227   */\n      swap2\n      pop\n        /* \"#utility.yul\":16156:16237   */\n    tag_344:\n        /* \"#utility.yul\":16284:16286   */\n      0x20\n        /* \"#utility.yul\":16276:16282   */\n      dup3\n        /* \"#utility.yul\":16273:16287   */\n      lt\n        /* \"#utility.yul\":16253:16271   */\n      dup2\n        /* \"#utility.yul\":16250:16288   */\n      sub\n        /* \"#utility.yul\":16247:16331   */\n      tag_345\n      jumpi\n        /* \"#utility.yul\":16303:16321   */\n      tag_346\n      tag_164\n      jump\t// in\n    tag_346:\n        /* \"#utility.yul\":16247:16331   */\n    tag_345:\n        /* \"#utility.yul\":16068:16337   */\n      pop\n        /* \"#utility.yul\":16017:16337   */\n      swap2\n      swap1\n      pop\n      jump\t// out\n        /* \"#utility.yul\":16343:16484   */\n    tag_165:\n        /* \"#utility.yul\":16392:16396   */\n      0x00\n        /* \"#utility.yul\":16415:16418   */\n      dup2\n        /* \"#utility.yul\":16407:16418   */\n      swap1\n      pop\n        /* \"#utility.yul\":16438:16441   */\n      dup2\n        /* \"#utility.yul\":16435:16436   */\n      0x00\n        /* \"#utility.yul\":16428:16442   */\n      mstore\n        /* \"#utility.yul\":16472:16476   */\n      0x20\n        /* \"#utility.yul\":16469:16470   */\n      0x00\n        /* \"#utility.yul\":16459:16477   */\n      keccak256\n        /* \"#utility.yul\":16451:16477   */\n      swap1\n      pop\n        /* \"#utility.yul\":16343:16484   */\n      swap2\n      swap1\n      pop\n      jump\t// out\n        /* \"#utility.yul\":16490:16583   */\n    tag_166:\n        /* \"#utility.yul\":16527:16533   */\n      0x00\n        /* \"#utility.yul\":16574:16576   */\n      0x20\n        /* \"#utility.yul\":16569:16571   */\n      0x1f\n        /* \"#utility.yul\":16562:16567   */\n      dup4\n        /* \"#utility.yul\":16558:16572   */\n      add\n        /* \"#utility.yul\":16554:16577   */\n      div\n        /* \"#utility.yul\":16544:16577   */\n      swap1\n      pop\n        /* \"#utility.yul\":16490:16583   */\n      swap2\n      swap1\n      pop\n      jump\t// out\n        /* \"#utility.yul\":16589:16696   */\n    tag_167:\n        /* \"#utility.yul\":16633:16641   */\n      0x00\n        /* \"#utility.yul\":16683:16688   */\n      dup3\n        /* \"#utility.yul\":16677:16681   */\n      dup3\n        /* \"#utility.yul\":16673:16689   */\n      shl\n        /* \"#utility.yul\":16652:16689   */\n      swap1\n      pop\n        /* \"#utility.yul\":16589:16696   */\n      swap3\n      swap2\n      pop\n      pop\n      jump\t// out\n        /* \"#utility.yul\":16702:17095   */\n    tag_168:\n        /* \"#utility.yul\":16771:16777   */\n      0x00\n        /* \"#utility.yul\":16821:16822   */\n      0x08\n        /* \"#utility.yul\":16809:16819   */\n      dup4\n        /* \"#utility.yul\":16805:16823   */\n      mul\n        /* \"#utility.yul\":16844:16941   */\n      tag_351\n        /* \"#utility.yul\":16874:16940   */\n      0xffffffffffffffffffffffffffffffffffffffffffffffffffffffffffffffff\n        /* \"#utility.yul\":16863:16872   */\n      dup3\n        /* \"#utility.yul\":16844:16941   */\n      tag_167\n      jump\t// in\n    tag_351:\n        /* \"#utility.yul\":16962:17001   */\n      tag_352\n        /* \"#utility.yul\":16992:17000   */\n      dup7\n        /* \"#utility.yul\":16981:16990   */\n      dup4\n        /* \"#utility.yul\":16962:17001   */\n      tag_167\n      jump\t// in\n    tag_352:\n        /* \"#utility.yul\":16950:17001   */\n      swap6\n      pop\n        /* \"#utility.yul\":17034:17038   */\n      dup1\n        /* \"#utility.yul\":17030:17039   */\n      not\n        /* \"#utility.yul\":17023:17028   */\n      dup5\n        /* \"#utility.yul\":17019:17040   */\n      and\n        /* \"#utility.yul\":17010:17040   */\n      swap4\n      pop\n        /* \"#utility.yul\":17083:17087   */\n      dup1\n        /* \"#utility.yul\":17073:17081   */\n      dup7\n        /* \"#utility.yul\":17069:17088   */\n      and\n        /* \"#utility.yul\":17062:17067   */\n      dup5\n        /* \"#utility.yul\":17059:17089   */\n      or\n        /* \"#utility.yul\":17049:17089   */\n      swap3\n      pop\n        /* \"#utility.yul\":16778:17095   */\n      pop\n      pop\n        /* \"#utility.yul\":16702:17095   */\n      swap4\n      swap3\n      pop\n      pop\n      pop\n      jump\t// out\n        /* \"#utility.yul\":17101:17161   */\n    tag_169:\n        /* \"#utility.yul\":17129:17132   */\n      0x00\n        /* \"#utility.yul\":17150:17155   */\n      dup2\n        /* \"#utility.yul\":17143:17155   */\n      swap1\n      pop\n        /* \"#utility.yul\":17101:17161   */\n      swap2\n      swap1\n      pop\n      jump\t// out\n        /* \"#utility.yul\":17167:17309   */\n    tag_170:\n        /* \"#utility.yul\":17217:17226   */\n      0x00\n        /* \"#utility.yul\":17250:17303   */\n      tag_355\n        /* \"#utility.yul\":17268:17302   */\n      tag_356\n        /* \"#utility.yul\":17277:17301   */\n      tag_357\n        /* \"#utility.yul\":17295:17300   */\n      dup5\n        /* \"#utility.yul\":17277:17301   */\n      tag_122\n      jump\t// in\n    tag_357:\n        /* \"#utility.yul\":17268:17302   */\n      tag_169\n      jump\t// in\n    tag_356:\n        /* \"#utility.yul\":17250:17303   */\n      tag_122\n      jump\t// in\n    tag_355:\n        /* \"#utility.yul\":17237:17303   */\n      swap1\n      pop\n        /* \"#utility.yul\":17167:17309   */\n      swap2\n      swap1\n      pop\n      jump\t// out\n        /* \"#utility.yul\":17315:17390   */\n    tag_171:\n        /* \"#utility.yul\":17358:17361   */\n      0x00\n        /* \"#utility.yul\":17379:17384   */\n      dup2\n        /* \"#utility.yul\":17372:17384   */\n      swap1\n      pop\n        /* \"#utility.yul\":17315:17390   */\n      swap2\n      swap1\n      pop\n      jump\t// out\n        /* \"#utility.yul\":17396:17665   */\n    tag_172:\n        /* \"#utility.yul\":17506:17545   */\n      tag_360\n        /* \"#utility.yul\":17537:17544   */\n      dup4\n        /* \"#utility.yul\":17506:17545   */\n      tag_170\n      jump\t// in\n    tag_360:\n        /* \"#utility.yul\":17567:17658   */\n      tag_361\n        /* \"#utility.yul\":17616:17657   */\n      tag_362\n        /* \"#utility.yul\":17640:17656   */\n      dup3\n        /* \"#utility.yul\":17616:17657   */\n      tag_171\n      jump\t// in\n    tag_362:\n        /* \"#utility.yul\":17608:17614   */\n      dup5\n        /* \"#utility.yul\":17601:17605   */\n      dup5\n        /* \"#utility.yul\":17595:17606   */\n      sload\n        /* \"#utility.yul\":17567:17658   */\n      tag_168\n      jump\t// in\n    tag_361:\n        /* \"#utility.yul\":17561:17565   */\n      dup3\n        /* \"#utility.yul\":17554:17659   */\n      sstore\n        /* \"#utility.yul\":17472:17665   */\n      pop\n        /* \"#utility.yul\":17396:17665   */\n      pop\n      pop\n      pop\n      jump\t// out\n        /* \"#utility.yul\":17671:17744   */\n    tag_173:\n        /* \"#utility.yul\":17716:17719   */\n      0x00\n        /* \"#utility.yul\":17671:17744   */\n      swap1\n      jump\t// out\n        /* \"#utility.yul\":17750:17939   */\n    tag_174:\n        /* \"#utility.yul\":17827:17859   */\n      tag_365\n      tag_173\n      jump\t// in\n    tag_365:\n        /* \"#utility.yul\":17868:17933   */\n      tag_366\n        /* \"#utility.yul\":17926:17932   */\n      dup2\n        /* \"#utility.yul\":17918:17924   */\n      dup5\n        /* \"#utility.yul\":17912:17916   */\n      dup5\n        /* \"#utility.yul\":17868:17933   */\n      tag_172\n      jump\t// in\n    tag_366:\n        /* \"#utility.yul\":17803:17939   */\n      pop\n        /* \"#utility.yul\":17750:17939   */\n      pop\n      pop\n      jump\t// out\n        /* \"#utility.yul\":17945:18131   */\n    tag_175:\n        /* \"#utility.yul\":18005:18125   */\n    tag_368:\n        /* \"#utility.yul\":18022:18025   */\n      dup2\n        /* \"#utility.yul\":18015:18020   */\n      dup2\n        /* \"#utility.yul\":18012:18026   */\n      lt\n        /* \"#utility.yul\":18005:18125   */\n      iszero\n      tag_370\n      jumpi\n        /* \"#utility.yul\":18076:18115   */\n      tag_371\n        /* \"#utility.yul\":18113:18114   */\n      0x00\n        /* \"#utility.yul\":18106:18111   */\n      dup3\n        /* \"#utility.yul\":18076:18115   */\n      tag_174\n      jump\t// in\n    tag_371:\n        /* \"#utility.yul\":18049:18050   */\n      0x01\n        /* \"#utility.yul\":18042:18047   */\n      dup2\n        /* \"#utility.yul\":18038:18051   */\n      add\n        /* \"#utility.yul\":18029:18051   */\n      swap1\n      pop\n        /* \"#utility.yul\":18005:18125   */\n      jump(tag_368)\n    tag_370:\n        /* \"#utility.yul\":17945:18131   */\n      pop\n      pop\n      jump\t// out\n        /* \"#utility.yul\":18137:18680   */\n    tag_176:\n        /* \"#utility.yul\":18238:18240   */\n      0x1f\n        /* \"#utility.yul\":18233:18236   */\n      dup3\n        /* \"#utility.yul\":18230:18241   */\n      gt\n        /* \"#utility.yul\":18227:18673   */\n      iszero\n      tag_373\n      jumpi\n        /* \"#utility.yul\":18272:18310   */\n      tag_374\n        /* \"#utility.yul\":18304:18309   */\n      dup2\n        /* \"#utility.yul\":18272:18310   */\n      tag_165\n      jump\t// in\n    tag_374:\n        /* \"#utility.yul\":18356:18385   */\n      tag_375\n        /* \"#utility.yul\":18374:18384   */\n      dup5\n        /* \"#utility.yul\":18356:18385   */\n      tag_166\n      jump\t// in\n    tag_375:\n        /* \"#utility.yul\":18346:18354   */\n      dup2\n        /* \"#utility.yul\":18342:18386   */\n      add\n        /* \"#utility.yul\":18539:18541   */\n      0x20\n        /* \"#utility.yul\":18527:18537   */\n      dup6\n        /* \"#utility.yul\":18524:18542   */\n      lt\n        /* \"#utility.yul\":18521:18570   */\n      iszero\n      tag_376\n      jumpi\n        /* \"#utility.yul\":18560:18568   */\n      dup2\n        /* \"#utility.yul\":18545:18568   */\n      swap1\n      pop\n        /* \"#utility.yul\":18521:18570   */\n    tag_376:\n        /* \"#utility.yul\":18583:18663   */\n      tag_377\n        /* \"#utility.yul\":18639:18661   */\n      tag_378\n        /* \"#utility.yul\":18657:18660   */\n      dup6\n        /* \"#utility.yul\":18639:18661   */\n      tag_166\n      jump\t// in\n    tag_378:\n        /* \"#utility.yul\":18629:18637   */\n      dup4\n        /* \"#utility.yul\":18625:18662   */\n      add\n        /* \"#utility.yul\":18612:18623   */\n      dup3\n        /* \"#utility.yul\":18583:18663   */\n      tag_175\n      jump\t// in\n    tag_377:\n        /* \"#utility.yul\":18242:18673   */\n      pop\n      pop\n        /* \"#utility.yul\":18227:18673   */\n    tag_373:\n        /* \"#utility.yul\":18137:18680   */\n      pop\n      pop\n      pop\n      jump\t// out\n        /* \"#utility.yul\":18686:18803   */\n    tag_177:\n        /* \"#utility.yul\":18740:18748   */\n      0x00\n        /* \"#utility.yul\":18790:18795   */\n      dup3\n        /* \"#utility.yul\":18784:18788   */\n      dup3\n        /* \"#utility.yul\":18780:18796   */\n      shr\n        /* \"#utility.yul\":18759:18796   */\n      swap1\n      pop\n        /* \"#utility.yul\":18686:18803   */\n      swap3\n      swap2\n      pop\n      pop\n      jump\t// out\n        /* \"#utility.yul\":18809:18978   */\n    tag_178:\n        /* \"#utility.yul\":18853:18859   */\n      0x00\n        /* \"#utility.yul\":18886:18937   */\n      tag_381\n        /* \"#utility.yul\":18934:18935   */\n      0x00\n        /* \"#utility.yul\":18930:18936   */\n      not\n        /* \"#utility.yul\":18922:18927   */\n      dup5\n        /* \"#utility.yul\":18919:18920   */\n      0x08\n        /* \"#utility.yul\":18915:18928   */\n      mul\n        /* \"#utility.yul\":18886:18937   */\n      tag_177\n      jump\t// in\n    tag_381:\n        /* \"#utility.yul\":18882:18938   */\n      not\n        /* \"#utility.yul\":18967:18971   */\n      dup1\n        /* \"#utility.yul\":18961:18965   */\n      dup4\n        /* \"#utility.yul\":18957:18972   */\n      and\n        /* \"#utility.yul\":18947:18972   */\n      swap2\n      pop\n        /* \"#utility.yul\":18860:18978   */\n      pop\n        /* \"#utility.yul\":18809:18978   */\n      swap3\n      swap2\n      pop\n      pop\n      jump\t// out\n        /* \"#utility.yul\":18983:19278   */\n    tag_179:\n        /* \"#utility.yul\":19059:19063   */\n      0x00\n        /* \"#utility.yul\":19205:19234   */\n      tag_383\n        /* \"#utility.yul\":19230:19233   */\n      dup4\n        /* \"#utility.yul\":19224:19228   */\n      dup4\n        /* \"#utility.yul\":19205:19234   */\n      tag_178\n      jump\t// in\n    tag_383:\n        /* \"#utility.yul\":19197:19234   */\n      swap2\n      pop\n        /* \"#utility.yul\":19267:19270   */\n      dup3\n        /* \"#utility.yul\":19264:19265   */\n      0x02\n        /* \"#utility.yul\":19260:19271   */\n      mul\n        /* \"#utility.yul\":19254:19258   */\n      dup3\n        /* \"#utility.yul\":19251:19272   */\n      or\n        /* \"#utility.yul\":19243:19272   */\n      swap1\n      pop\n        /* \"#utility.yul\":18983:19278   */\n      swap3\n      swap2\n      pop\n      pop\n      jump\t// out\n        /* \"#utility.yul\":19283:20678   */\n    tag_64:\n        /* \"#utility.yul\":19400:19437   */\n      tag_385\n        /* \"#utility.yul\":19433:19436   */\n      dup3\n        /* \"#utility.yul\":19400:19437   */\n      tag_149\n      jump\t// in\n    tag_385:\n        /* \"#utility.yul\":19502:19520   */\n      0xffffffffffffffff\n        /* \"#utility.yul\":19494:19500   */\n      dup2\n        /* \"#utility.yul\":19491:19521   */\n      gt\n        /* \"#utility.yul\":19488:19544   */\n      iszero\n      tag_386\n      jumpi\n        /* \"#utility.yul\":19524:19542   */\n      tag_387\n      tag_91\n      jump\t// in\n    tag_387:\n        /* \"#utility.yul\":19488:19544   */\n    tag_386:\n        /* \"#utility.yul\":19568:19606   */\n      tag_388\n        /* \"#utility.yul\":19600:19604   */\n      dup3\n        /* \"#utility.yul\":19594:19605   */\n      sload\n        /* \"#utility.yul\":19568:19606   */\n      tag_67\n      jump\t// in\n    tag_388:\n        /* \"#utility.yul\":19653:19720   */\n      tag_389\n        /* \"#utility.yul\":19713:19719   */\n      dup3\n        /* \"#utility.yul\":19705:19711   */\n      dup3\n        /* \"#utility.yul\":19699:19703   */\n      dup6\n        /* \"#utility.yul\":19653:19720   */\n      tag_176\n      jump\t// in\n    tag_389:\n        /* \"#utility.yul\":19747:19748   */\n      0x00\n        /* \"#utility.yul\":19771:19775   */\n      0x20\n        /* \"#utility.yul\":19758:19775   */\n      swap1\n      pop\n        /* \"#utility.yul\":19803:19805   */\n      0x1f\n        /* \"#utility.yul\":19795:19801   */\n      dup4\n        /* \"#utility.yul\":19792:19806   */\n      gt\n        /* \"#utility.yul\":19820:19821   */\n      0x01\n        /* \"#utility.yul\":19815:20433   */\n      dup2\n      eq\n      tag_391\n      jumpi\n        /* \"#utility.yul\":20477:20478   */\n      0x00\n        /* \"#utility.yul\":20494:20500   */\n      dup5\n        /* \"#utility.yul\":20491:20568   */\n      iszero\n      tag_392\n      jumpi\n        /* \"#utility.yul\":20543:20552   */\n      dup3\n        /* \"#utility.yul\":20538:20541   */\n      dup8\n        /* \"#utility.yul\":20534:20553   */\n      add\n        /* \"#utility.yul\":20528:20554   */\n      mload\n        /* \"#utility.yul\":20519:20554   */\n      swap1\n      pop\n        /* \"#utility.yul\":20491:20568   */\n    tag_392:\n        /* \"#utility.yul\":20594:20661   */\n      tag_393\n        /* \"#utility.yul\":20654:20660   */\n      dup6\n        /* \"#utility.yul\":20647:20652   */\n      dup3\n        /* \"#utility.yul\":20594:20661   */\n      tag_179\n      jump\t// in\n    tag_393:\n        /* \"#utility.yul\":20588:20592   */\n      dup7\n        /* \"#utility.yul\":20581:20662   */\n      sstore\n        /* \"#utility.yul\":20450:20672   */\n      pop\n        /* \"#utility.yul\":19785:20672   */\n      jump(tag_390)\n        /* \"#utility.yul\":19815:20433   */\n    tag_391:\n        /* \"#utility.yul\":19867:19871   */\n      0x1f\n        /* \"#utility.yul\":19863:19872   */\n      not\n        /* \"#utility.yul\":19855:19861   */\n      dup5\n        /* \"#utility.yul\":19851:19873   */\n      and\n        /* \"#utility.yul\":19901:19938   */\n      tag_394\n        /* \"#utility.yul\":19933:19937   */\n      dup7\n        /* \"#utility.yul\":19901:19938   */\n      tag_165\n      jump\t// in\n    tag_394:\n        /* \"#utility.yul\":19960:19961   */\n      0x00\n        /* \"#utility.yul\":19974:20182   */\n    tag_395:\n        /* \"#utility.yul\":19988:19995   */\n      dup3\n        /* \"#utility.yul\":19985:19986   */\n      dup2\n        /* \"#utility.yul\":19982:19996   */\n      lt\n        /* \"#utility.yul\":19974:20182   */\n      iszero\n      tag_397\n      jumpi\n        /* \"#utility.yul\":20067:20076   */\n      dup5\n        /* \"#utility.yul\":20062:20065   */\n      dup10\n        /* \"#utility.yul\":20058:20077   */\n      add\n        /* \"#utility.yul\":20052:20078   */\n      mload\n        /* \"#utility.yul\":20044:20050   */\n      dup3\n        /* \"#utility.yul\":20037:20079   */\n      sstore\n        /* \"#utility.yul\":20118:20119   */\n      0x01\n        /* \"#utility.yul\":20110:20116   */\n      dup3\n        /* \"#utility.yul\":20106:20120   */\n      add\n        /* \"#utility.yul\":20096:20120   */\n      swap2\n      pop\n        /* \"#utility.yul\":20165:20167   */\n      0x20\n        /* \"#utility.yul\":20154:20163   */\n      dup6\n        /* \"#utility.yul\":20150:20168   */\n      add\n        /* \"#utility.yul\":20137:20168   */\n      swap5\n      pop\n        /* \"#utility.yul\":20011:20015   */\n      0x20\n        /* \"#utility.yul\":20008:20009   */\n      dup2\n        /* \"#utility.yul\":20004:20016   */\n      add\n        /* \"#utility.yul\":19999:20016   */\n      swap1\n      pop\n        /* \"#utility.yul\":19974:20182   */\n      jump(tag_395)\n    tag_397:\n        /* \"#utility.yul\":20210:20216   */\n      dup7\n        /* \"#utility.yul\":20201:20208   */\n      dup4\n        /* \"#utility.yul\":20198:20217   */\n      lt\n        /* \"#utility.yul\":20195:20374   */\n      iszero\n      tag_398\n      jumpi\n        /* \"#utility.yul\":20268:20277   */\n      dup5\n        /* \"#utility.yul\":20263:20266   */\n      dup10\n        /* \"#utility.yul\":20259:20278   */\n      add\n        /* \"#utility.yul\":20253:20279   */\n      mload\n        /* \"#utility.yul\":20311:20359   */\n      tag_399\n        /* \"#utility.yul\":20353:20357   */\n      0x1f\n        /* \"#utility.yul\":20345:20351   */\n      dup10\n        /* \"#utility.yul\":20341:20358   */\n      and\n        /* \"#utility.yul\":20330:20339   */\n      dup3\n        /* \"#utility.yul\":20311:20359   */\n      tag_178\n      jump\t// in\n    tag_399:\n        /* \"#utility.yul\":20303:20309   */\n      dup4\n        /* \"#utility.yul\":20296:20360   */\n      sstore\n        /* \"#utility.yul\":20218:20374   */\n      pop\n        /* \"#utility.yul\":20195:20374   */\n    tag_398:\n        /* \"#utility.yul\":20420:20421   */\n      0x01\n        /* \"#utility.yul\":20416:20417   */\n      0x02\n        /* \"#utility.yul\":20408:20414   */\n      dup9\n        /* \"#utility.yul\":20404:20418   */\n      mul\n        /* \"#utility.yul\":20400:20422   */\n      add\n        /* \"#utility.yul\":20394:20398   */\n      dup9\n        /* \"#utility.yul\":20387:20423   */\n      sstore\n        /* \"#utility.yul\":19822:20433   */\n      pop\n      pop\n      pop\n        /* \"#utility.yul\":19785:20672   */\n    tag_390:\n      pop\n        /* \"#utility.yul\":19375:20678   */\n      pop\n      pop\n      pop\n        /* \"#utility.yul\":19283:20678   */\n      pop\n      pop\n      jump\t// out\n        /* \"#utility.yul\":20684:20824   */\n    tag_180:\n        /* \"#utility.yul\":20732:20736   */\n      0x00\n        /* \"#utility.yul\":20755:20758   */\n      dup2\n        /* \"#utility.yul\":20747:20758   */\n      swap1\n      pop\n        /* \"#utility.yul\":20778:20781   */\n      dup2\n        /* \"#utility.yul\":20775:20776   */\n      0x00\n        /* \"#utility.yul\":20768:20782   */\n      mstore\n        /* \"#utility.yul\":20812:20816   */\n      0x20\n        /* \"#utility.yul\":20809:20810   */\n      0x00\n        /* \"#utility.yul\":20799:20817   */\n      keccak256\n        /* \"#utility.yul\":20791:20817   */\n      swap1\n      pop\n        /* \"#utility.yul\":20684:20824   */\n      swap2\n      swap1\n      pop\n      jump\t// out\n        /* \"#utility.yul\":20830:21371   */\n    tag_181:\n        /* \"#utility.yul\":20930:20932   */\n      0x1f\n        /* \"#utility.yul\":20925:20928   */\n      dup3\n        /* \"#utility.yul\":20922:20933   */\n      gt\n        /* \"#utility.yul\":20919:21364   */\n      iszero\n      tag_402\n      jumpi\n        /* \"#utility.yul\":20964:21001   */\n      tag_403\n        /* \"#utility.yul\":20995:21000   */\n      dup2\n        /* \"#utility.yul\":20964:21001   */\n      tag_180\n      jump\t// in\n    tag_403:\n        /* \"#utility.yul\":21047:21076   */\n      tag_404\n        /* \"#utility.yul\":21065:21075   */\n      dup5\n        /* \"#utility.yul\":21047:21076   */\n      tag_166\n      jump\t// in\n    tag_404:\n        /* \"#utility.yul\":21037:21045   */\n      dup2\n        /* \"#utility.yul\":21033:21077   */\n      add\n        /* \"#utility.yul\":21230:21232   */\n      0x20\n        /* \"#utility.yul\":21218:21228   */\n      dup6\n        /* \"#utility.yul\":21215:21233   */\n      lt\n        /* \"#utility.yul\":21212:21261   */\n      iszero\n      tag_405\n      jumpi\n        /* \"#utility.yul\":21251:21259   */\n      dup2\n        /* \"#utility.yul\":21236:21259   */\n      swap1\n      pop\n        /* \"#utility.yul\":21212:21261   */\n    tag_405:\n        /* \"#utility.yul\":21274:21354   */\n      tag_406\n        /* \"#utility.yul\":21330:21352   */\n      tag_407\n        /* \"#utility.yul\":21348:21351   */\n      dup6\n        /* \"#utility.yul\":21330:21352   */\n      tag_166\n      jump\t// in\n    tag_407:\n        /* \"#utility.yul\":21320:21328   */\n      dup4\n        /* \"#utility.yul\":21316:21353   */\n      add\n        /* \"#utility.yul\":21303:21314   */\n      dup3\n        /* \"#utility.yul\":21274:21354   */\n      tag_175\n      jump\t// in\n    tag_406:\n        /* \"#utility.yul\":20934:21364   */\n      pop\n      pop\n        /* \"#utility.yul\":20919:21364   */\n    tag_402:\n        /* \"#utility.yul\":20830:21371   */\n      pop\n      pop\n      pop\n      jump\t// out\n        /* \"#utility.yul\":21377:22767   */\n    tag_77:\n        /* \"#utility.yul\":21492:21528   */\n      tag_409\n        /* \"#utility.yul\":21524:21527   */\n      dup3\n        /* \"#utility.yul\":21492:21528   */\n      tag_142\n      jump\t// in\n    tag_409:\n        /* \"#utility.yul\":21593:21611   */\n      0xffffffffffffffff\n        /* \"#utility.yul\":21585:21591   */\n      dup2\n        /* \"#utility.yul\":21582:21612   */\n      gt\n        /* \"#utility.yul\":21579:21635   */\n      iszero\n      tag_410\n      jumpi\n        /* \"#utility.yul\":21615:21633   */\n      tag_411\n      tag_91\n      jump\t// in\n    tag_411:\n        /* \"#utility.yul\":21579:21635   */\n    tag_410:\n        /* \"#utility.yul\":21659:21697   */\n      tag_412\n        /* \"#utility.yul\":21691:21695   */\n      dup3\n        /* \"#utility.yul\":21685:21696   */\n      sload\n        /* \"#utility.yul\":21659:21697   */\n      tag_67\n      jump\t// in\n    tag_412:\n        /* \"#utility.yul\":21744:21810   */\n      tag_413\n        /* \"#utility.yul\":21803:21809   */\n      dup3\n        /* \"#utility.yul\":21795:21801   */\n      dup3\n        /* \"#utility.yul\":21789:21793   */\n      dup6\n        /* \"#utility.yul\":21744:21810   */\n      tag_181\n      jump\t// in\n    tag_413:\n        /* \"#utility.yul\":21837:21838   */\n      0x00\n        /* \"#utility.yul\":21861:21865   */\n      0x20\n        /* \"#utility.yul\":21848:21865   */\n      swap1\n      pop\n        /* \"#utility.yul\":21893:21895   */\n      0x1f\n        /* \"#utility.yul\":21885:21891   */\n      dup4\n        /* \"#utility.yul\":21882:21896   */\n      gt\n        /* \"#utility.yul\":21910:21911   */\n      0x01\n        /* \"#utility.yul\":21905:22522   */\n      dup2\n      eq\n      tag_415\n      jumpi\n        /* \"#utility.yul\":22566:22567   */\n      0x00\n        /* \"#utility.yul\":22583:22589   */\n      dup5\n        /* \"#utility.yul\":22580:22657   */\n      iszero\n      tag_416\n      jumpi\n        /* \"#utility.yul\":22632:22641   */\n      dup3\n        /* \"#utility.yul\":22627:22630   */\n      dup8\n        /* \"#utility.yul\":22623:22642   */\n      add\n        /* \"#utility.yul\":22617:22643   */\n      mload\n        /* \"#utility.yul\":22608:22643   */\n      swap1\n      pop\n        /* \"#utility.yul\":22580:22657   */\n    tag_416:\n        /* \"#utility.yul\":22683:22750   */\n      tag_417\n        /* \"#utility.yul\":22743:22749   */\n      dup6\n        /* \"#utility.yul\":22736:22741   */\n      dup3\n        /* \"#utility.yul\":22683:22750   */\n      tag_179\n      jump\t// in\n    tag_417:\n        /* \"#utility.yul\":22677:22681   */\n      dup7\n        /* \"#utility.yul\":22670:22751   */\n      sstore\n        /* \"#utility.yul\":22539:22761   */\n      pop\n        /* \"#utility.yul\":21875:22761   */\n      jump(tag_414)\n        /* \"#utility.yul\":21905:22522   */\n    tag_415:\n        /* \"#utility.yul\":21957:21961   */\n      0x1f\n        /* \"#utility.yul\":21953:21962   */\n      not\n        /* \"#utility.yul\":21945:21951   */\n      dup5\n        /* \"#utility.yul\":21941:21963   */\n      and\n        /* \"#utility.yul\":21991:22027   */\n      tag_418\n        /* \"#utility.yul\":22022:22026   */\n      dup7\n        /* \"#utility.yul\":21991:22027   */\n      tag_180\n      jump\t// in\n    tag_418:\n        /* \"#utility.yul\":22049:22050   */\n      0x00\n        /* \"#utility.yul\":22063:22271   */\n    tag_419:\n        /* \"#utility.yul\":22077:22084   */\n      dup3\n        /* \"#utility.yul\":22074:22075   */\n      dup2\n        /* \"#utility.yul\":22071:22085   */\n      lt\n        /* \"#utility.yul\":22063:22271   */\n      iszero\n      tag_421\n      jumpi\n        /* \"#utility.yul\":22156:22165   */\n      dup5\n        /* \"#utility.yul\":22151:22154   */\n      dup10\n        /* \"#utility.yul\":22147:22166   */\n      add\n        /* \"#utility.yul\":22141:22167   */\n      mload\n        /* \"#utility.yul\":22133:22139   */\n      dup3\n        /* \"#utility.yul\":22126:22168   */\n      sstore\n        /* \"#utility.yul\":22207:22208   */\n      0x01\n        /* \"#utility.yul\":22199:22205   */\n      dup3\n        /* \"#utility.yul\":22195:22209   */\n      add\n        /* \"#utility.yul\":22185:22209   */\n      swap2\n      pop\n        /* \"#utility.yul\":22254:22256   */\n      0x20\n        /* \"#utility.yul\":22243:22252   */\n      dup6\n        /* \"#utility.yul\":22239:22257   */\n      add\n        /* \"#utility.yul\":22226:22257   */\n      swap5\n      pop\n        /* \"#utility.yul\":22100:22104   */\n      0x20\n        /* \"#utility.yul\":22097:22098   */\n      dup2\n        /* \"#utility.yul\":22093:22105   */\n      add\n        /* \"#utility.yul\":22088:22105   */\n      swap1\n      pop\n        /* \"#utility.yul\":22063:22271   */\n      jump(tag_419)\n    tag_421:\n        /* \"#utility.yul\":22299:22305   */\n      dup7\n        /* \"#utility.yul\":22290:22297   */\n      dup4\n        /* \"#utility.yul\":22287:22306   */\n      lt\n        /* \"#utility.yul\":22284:22463   */\n      iszero\n      tag_422\n      jumpi\n        /* \"#utility.yul\":22357:22366   */\n      dup5\n        /* \"#utility.yul\":22352:22355   */\n      dup10\n        /* \"#utility.yul\":22348:22367   */\n      add\n        /* \"#utility.yul\":22342:22368   */\n      mload\n        /* \"#utility.yul\":22400:22448   */\n      tag_423\n        /* \"#utility.yul\":22442:22446   */\n      0x1f\n        /* \"#utility.yul\":22434:22440   */\n      dup10\n        /* \"#utility.yul\":22430:22447   */\n      and\n        /* \"#utility.yul\":22419:22428   */\n      dup3\n        /* \"#utility.yul\":22400:22448   */\n      tag_178\n      jump\t// in\n    tag_423:\n        /* \"#utility.yul\":22392:22398   */\n      dup4\n        /* \"#utility.yul\":22385:22449   */\n      sstore\n        /* \"#utility.yul\":22307:22463   */\n      pop\n        /* \"#utility.yul\":22284:22463   */\n    tag_422:\n        /* \"#utility.yul\":22509:22510   */\n      0x01\n        /* \"#utility.yul\":22505:22506   */\n      0x02\n        /* \"#utility.yul\":22497:22503   */\n      dup9\n        /* \"#utility.yul\":22493:22507   */\n      mul\n        /* \"#utility.yul\":22489:22511   */\n      add\n        /* \"#utility.yul\":22483:22487   */\n      dup9\n        /* \"#utility.yul\":22476:22512   */\n      sstore\n        /* \"#utility.yul\":21912:22522   */\n      pop\n      pop\n      pop\n        /* \"#utility.yul\":21875:22761   */\n    tag_414:\n      pop\n        /* \"#utility.yul\":21467:22767   */\n      pop\n      pop\n      pop\n        /* \"#utility.yul\":21377:22767   */\n      pop\n      pop\n      jump\t// out\n\n    auxdata: 0xa26469706673582212207be3529018f577539a503ba800d4c4b4ddcf81c6650057595dc92b711058870664736f6c634300081a0033\n}\n",
				"bytecode": {
					"linkReferences": {},
					"object": "6080604052348015600e575f80fd5b50335f806101000a81548173ffffffffffffffffffffffffffffffffffffffff021916908373ffffffffffffffffffffffffffffffffffffffff1602179055506114738061005b5f395ff3fe608060405234801561000f575f80fd5b506004361061007b575f3560e01c80635393c105116100595780635393c105146100e75780635d7b7090146101175780638da5cb5b146101475780639eb49a4a146101655761007b565b80630c84e5361461007f57806311231fe01461009b5780631234844a146100cb575b5f80fd5b61009960048036038101906100949190610ad5565b610197565b005b6100b560048036038101906100b09190610be7565b610342565b6040516100c29190610c72565b60405180910390f35b6100e560048036038101906100e09190610d30565b61040f565b005b61010160048036038101906100fc9190610d8a565b6104eb565b60405161010e9190610e07565b60405180910390f35b610131600480360381019061012c9190610be7565b61058c565b60405161013e9190610c72565b60405180910390f35b61014f610627565b60405161015c9190610e36565b60405180910390f35b61017f600480360381019061017a9190610d8a565b61064a565b60405161018e93929190610f06565b60405180910390f35b5f8054906101000a900473ffffffffffffffffffffffffffffffffffffffff1673ffffffffffffffffffffffffffffffffffffffff163373ffffffffffffffffffffffffffffffffffffffff1614610224576040517f08c379a000000000000000000000000000000000000000000000000000000000815260040161021b90610f9a565b60405180910390fd5b8151835114610268576040517f08c379a000000000000000000000000000000000000000000000000000000000815260040161025f90611002565b60405180910390fd5b5f60025f8681526020019081526020015f209050805f015f61028a919061084c565b5f5b845181101561032857815f0160405180604001604052808784815181106102b6576102b5611020565b5b602002602001015181526020018684815181106102d6576102d5611020565b5b6020026020010151815250908060018154018082558091505060019003905f5260205f2090600202015f909190919091505f820151815f0155602082015181600101555050808060010191505061028c565b508181600101908161033a9190611247565b505050505050565b606060015f8373ffffffffffffffffffffffffffffffffffffffff1673ffffffffffffffffffffffffffffffffffffffff1681526020019081526020015f20805461038c9061107a565b80601f01602080910402602001604051908101604052809291908181526020018280546103b89061107a565b80156104035780601f106103da57610100808354040283529160200191610403565b820191905f5260205f20905b8154815290600101906020018083116103e657829003601f168201915b50505050509050919050565b5f8054906101000a900473ffffffffffffffffffffffffffffffffffffffff1673ffffffffffffffffffffffffffffffffffffffff163373ffffffffffffffffffffffffffffffffffffffff161461049c576040517f08c379a000000000000000000000000000000000000000000000000000000000815260040161049390610f9a565b60405180910390fd5b8060015f8473ffffffffffffffffffffffffffffffffffffffff1673ffffffffffffffffffffffffffffffffffffffff1681526020019081526020015f2090816104e6919061136e565b505050565b6002602052805f5260405f205f9150905080600101805461050b9061107a565b80601f01602080910402602001604051908101604052809291908181526020018280546105379061107a565b80156105825780601f1061055957610100808354040283529160200191610582565b820191905f5260205f20905b81548152906001019060200180831161056557829003601f168201915b5050505050905081565b6001602052805f5260405f205f9150905080546105a89061107a565b80601f01602080910402602001604051908101604052809291908181526020018280546105d49061107a565b801561061f5780601f106105f65761010080835404028352916020019161061f565b820191905f5260205f20905b81548152906001019060200180831161060257829003601f168201915b505050505081565b5f8054906101000a900473ffffffffffffffffffffffffffffffffffffffff1681565b60608060605f60025f8681526020019081526020015f2090505f815f018054905067ffffffffffffffff811115610684576106836108e9565b5b6040519080825280602002602001820160405280156106b25781602001602082028036833780820191505090505b5090505f825f018054905067ffffffffffffffff8111156106d6576106d56108e9565b5b6040519080825280602002602001820160405280156107045781602001602082028036833780820191505090505b5090505f5b835f01805490508110156107ab57835f01818154811061072c5761072b611020565b5b905f5260205f2090600202015f015483828151811061074e5761074d611020565b5b602002602001018181525050835f01818154811061076f5761076e611020565b5b905f5260205f2090600202016001015482828151811061079257610791611020565b5b6020026020010181815250508080600101915050610709565b508181846001018080546107be9061107a565b80601f01602080910402602001604051908101604052809291908181526020018280546107ea9061107a565b80156108355780601f1061080c57610100808354040283529160200191610835565b820191905f5260205f20905b81548152906001019060200180831161081857829003601f168201915b505050505090509550955095505050509193909250565b5080545f8255600202905f5260205f209081019061086a919061086d565b50565b5b8082111561088d575f8082015f9055600182015f90555060020161086e565b5090565b5f604051905090565b5f80fd5b5f80fd5b5f819050919050565b6108b4816108a2565b81146108be575f80fd5b50565b5f813590506108cf816108ab565b92915050565b5f80fd5b5f601f19601f8301169050919050565b7f4e487b71000000000000000000000000000000000000000000000000000000005f52604160045260245ffd5b61091f826108d9565b810181811067ffffffffffffffff8211171561093e5761093d6108e9565b5b80604052505050565b5f610950610891565b905061095c8282610916565b919050565b5f67ffffffffffffffff82111561097b5761097a6108e9565b5b602082029050602081019050919050565b5f80fd5b5f6109a261099d84610961565b610947565b905080838252602082019050602084028301858111156109c5576109c461098c565b5b835b818110156109ee57806109da88826108c1565b8452602084019350506020810190506109c7565b5050509392505050565b5f82601f830112610a0c57610a0b6108d5565b5b8135610a1c848260208601610990565b91505092915050565b5f80fd5b5f67ffffffffffffffff821115610a4357610a426108e9565b5b610a4c826108d9565b9050602081019050919050565b828183375f83830152505050565b5f610a79610a7484610a29565b610947565b905082815260208101848484011115610a9557610a94610a25565b5b610aa0848285610a59565b509392505050565b5f82601f830112610abc57610abb6108d5565b5b8135610acc848260208601610a67565b91505092915050565b5f805f8060808587031215610aed57610aec61089a565b5b5f610afa878288016108c1565b945050602085013567ffffffffffffffff811115610b1b57610b1a61089e565b5b610b27878288016109f8565b935050604085013567ffffffffffffffff811115610b4857610b4761089e565b5b610b54878288016109f8565b925050606085013567ffffffffffffffff811115610b7557610b7461089e565b5b610b8187828801610aa8565b91505092959194509250565b5f73ffffffffffffffffffffffffffffffffffffffff82169050919050565b5f610bb682610b8d565b9050919050565b610bc681610bac565b8114610bd0575f80fd5b50565b5f81359050610be181610bbd565b92915050565b5f60208284031215610bfc57610bfb61089a565b5b5f610c0984828501610bd3565b91505092915050565b5f81519050919050565b5f82825260208201905092915050565b8281835e5f83830152505050565b5f610c4482610c12565b610c4e8185610c1c565b9350610c5e818560208601610c2c565b610c67816108d9565b840191505092915050565b5f6020820190508181035f830152610c8a8184610c3a565b905092915050565b5f67ffffffffffffffff821115610cac57610cab6108e9565b5b610cb5826108d9565b9050602081019050919050565b5f610cd4610ccf84610c92565b610947565b905082815260208101848484011115610cf057610cef610a25565b5b610cfb848285610a59565b509392505050565b5f82601f830112610d1757610d166108d5565b5b8135610d27848260208601610cc2565b91505092915050565b5f8060408385031215610d4657610d4561089a565b5b5f610d5385828601610bd3565b925050602083013567ffffffffffffffff811115610d7457610d7361089e565b5b610d8085828601610d03565b9150509250929050565b5f60208284031215610d9f57610d9e61089a565b5b5f610dac848285016108c1565b91505092915050565b5f81519050919050565b5f82825260208201905092915050565b5f610dd982610db5565b610de38185610dbf565b9350610df3818560208601610c2c565b610dfc816108d9565b840191505092915050565b5f6020820190508181035f830152610e1f8184610dcf565b905092915050565b610e3081610bac565b82525050565b5f602082019050610e495f830184610e27565b92915050565b5f81519050919050565b5f82825260208201905092915050565b5f819050602082019050919050565b610e81816108a2565b82525050565b5f610e928383610e78565b60208301905092915050565b5f602082019050919050565b5f610eb482610e4f565b610ebe8185610e59565b9350610ec983610e69565b805f5b83811015610ef9578151610ee08882610e87565b9750610eeb83610e9e565b925050600181019050610ecc565b5085935050505092915050565b5f6060820190508181035f830152610f1e8186610eaa565b90508181036020830152610f328185610eaa565b90508181036040830152610f468184610dcf565b9050949350505050565b7f556e617574686f72697a656400000000000000000000000000000000000000005f82015250565b5f610f84600c83610dbf565b9150610f8f82610f50565b602082019050919050565b5f6020820190508181035f830152610fb181610f78565b9050919050565b7f436f6f7264696e617465206d69736d61746368000000000000000000000000005f82015250565b5f610fec601383610dbf565b9150610ff782610fb8565b602082019050919050565b5f6020820190508181035f83015261101981610fe0565b9050919050565b7f4e487b71000000000000000000000000000000000000000000000000000000005f52603260045260245ffd5b7f4e487b71000000000000000000000000000000000000000000000000000000005f52602260045260245ffd5b5f600282049050600182168061109157607f821691505b6020821081036110a4576110a361104d565b5b50919050565b5f819050815f5260205f209050919050565b5f6020601f8301049050919050565b5f82821b905092915050565b5f600883026111067fffffffffffffffffffffffffffffffffffffffffffffffffffffffffffffffff826110cb565b61111086836110cb565b95508019841693508086168417925050509392505050565b5f819050919050565b5f61114b611146611141846108a2565b611128565b6108a2565b9050919050565b5f819050919050565b61116483611131565b61117861117082611152565b8484546110d7565b825550505050565b5f90565b61118c611180565b61119781848461115b565b505050565b5b818110156111ba576111af5f82611184565b60018101905061119d565b5050565b601f8211156111ff576111d0816110aa565b6111d9846110bc565b810160208510156111e8578190505b6111fc6111f4856110bc565b83018261119c565b50505b505050565b5f82821c905092915050565b5f61121f5f1984600802611204565b1980831691505092915050565b5f6112378383611210565b9150826002028217905092915050565b61125082610db5565b67ffffffffffffffff811115611269576112686108e9565b5b611273825461107a565b61127e8282856111be565b5f60209050601f8311600181146112af575f841561129d578287015190505b6112a7858261122c565b86555061130e565b601f1984166112bd866110aa565b5f5b828110156112e4578489015182556001820191506020850194506020810190506112bf565b8683101561130157848901516112fd601f891682611210565b8355505b6001600288020188555050505b505050505050565b5f819050815f5260205f209050919050565b601f8211156113695761133a81611316565b611343846110bc565b81016020851015611352578190505b61136661135e856110bc565b83018261119c565b50505b505050565b61137782610c12565b67ffffffffffffffff8111156113905761138f6108e9565b5b61139a825461107a565b6113a5828285611328565b5f60209050601f8311600181146113d6575f84156113c4578287015190505b6113ce858261122c565b865550611435565b601f1984166113e486611316565b5f5b8281101561140b578489015182556001820191506020850194506020810190506113e6565b868310156114285784890151611424601f891682611210565b8355505b6001600288020188555050505b50505050505056fea26469706673582212207be3529018f577539a503ba800d4c4b4ddcf81c6650057595dc92b711058870664736f6c634300081a0033",
					"opcodes": "PUSH1 0x80 PUSH1 0x40 MSTORE CALLVALUE DUP1 ISZERO PUSH1 0xE JUMPI PUSH0 DUP1 REVERT JUMPDEST POP CALLER PUSH0 DUP1 PUSH2 0x100 EXP DUP2 SLOAD DUP2 PUSH20 0xFFFFFFFFFFFFFFFFFFFFFFFFFFFFFFFFFFFFFFFF MUL NOT AND SWAP1 DUP4 PUSH20 0xFFFFFFFFFFFFFFFFFFFFFFFFFFFFFFFFFFFFFFFF AND MUL OR SWAP1 SSTORE POP PUSH2 0x1473 DUP1 PUSH2 0x5B PUSH0 CODECOPY PUSH0 RETURN INVALID PUSH1 0x80 PUSH1 0x40 MSTORE CALLVALUE DUP1 ISZERO PUSH2 0xF JUMPI PUSH0 DUP1 REVERT JUMPDEST POP PUSH1 0x4 CALLDATASIZE LT PUSH2 0x7B JUMPI PUSH0 CALLDATALOAD PUSH1 0xE0 SHR DUP1 PUSH4 0x5393C105 GT PUSH2 0x59 JUMPI DUP1 PUSH4 0x5393C105 EQ PUSH2 0xE7 JUMPI DUP1 PUSH4 0x5D7B7090 EQ PUSH2 0x117 JUMPI DUP1 PUSH4 0x8DA5CB5B EQ PUSH2 0x147 JUMPI DUP1 PUSH4 0x9EB49A4A EQ PUSH2 0x165 JUMPI PUSH2 0x7B JUMP JUMPDEST DUP1 PUSH4 0xC84E536 EQ PUSH2 0x7F JUMPI DUP1 PUSH4 0x11231FE0 EQ PUSH2 0x9B JUMPI DUP1 PUSH4 0x1234844A EQ PUSH2 0xCB JUMPI JUMPDEST PUSH0 DUP1 REVERT JUMPDEST PUSH2 0x99 PUSH1 0x4 DUP1 CALLDATASIZE SUB DUP2 ADD SWAP1 PUSH2 0x94 SWAP2 SWAP1 PUSH2 0xAD5 JUMP JUMPDEST PUSH2 0x197 JUMP JUMPDEST STOP JUMPDEST PUSH2 0xB5 PUSH1 0x4 DUP1 CALLDATASIZE SUB DUP2 ADD SWAP1 PUSH2 0xB0 SWAP2 SWAP1 PUSH2 0xBE7 JUMP JUMPDEST PUSH2 0x342 JUMP JUMPDEST PUSH1 0x40 MLOAD PUSH2 0xC2 SWAP2 SWAP1 PUSH2 0xC72 JUMP JUMPDEST PUSH1 0x40 MLOAD DUP1 SWAP2 SUB SWAP1 RETURN JUMPDEST PUSH2 0xE5 PUSH1 0x4 DUP1 CALLDATASIZE SUB DUP2 ADD SWAP1 PUSH2 0xE0 SWAP2 SWAP1 PUSH2 0xD30 JUMP JUMPDEST PUSH2 0x40F JUMP JUMPDEST STOP JUMPDEST PUSH2 0x101 PUSH1 0x4 DUP1 CALLDATASIZE SUB DUP2 ADD SWAP1 PUSH2 0xFC SWAP2 SWAP1 PUSH2 0xD8A JUMP JUMPDEST PUSH2 0x4EB JUMP JUMPDEST PUSH1 0x40 MLOAD PUSH2 0x10E SWAP2 SWAP1 PUSH2 0xE07 JUMP JUMPDEST PUSH1 0x40 MLOAD DUP1 SWAP2 SUB SWAP1 RETURN JUMPDEST PUSH2 0x131 PUSH1 0x4 DUP1 CALLDATASIZE SUB DUP2 ADD SWAP1 PUSH2 0x12C SWAP2 SWAP1 PUSH2 0xBE7 JUMP JUMPDEST PUSH2 0x58C JUMP JUMPDEST PUSH1 0x40 MLOAD PUSH2 0x13E SWAP2 SWAP1 PUSH2 0xC72 JUMP JUMPDEST PUSH1 0x40 MLOAD DUP1 SWAP2 SUB SWAP1 RETURN JUMPDEST PUSH2 0x14F PUSH2 0x627 JUMP JUMPDEST PUSH1 0x40 MLOAD PUSH2 0x15C SWAP2 SWAP1 PUSH2 0xE36 JUMP JUMPDEST PUSH1 0x40 MLOAD DUP1 SWAP2 SUB SWAP1 RETURN JUMPDEST PUSH2 0x17F PUSH1 0x4 DUP1 CALLDATASIZE SUB DUP2 ADD SWAP1 PUSH2 0x17A SWAP2 SWAP1 PUSH2 0xD8A JUMP JUMPDEST PUSH2 0x64A JUMP JUMPDEST PUSH1 0x40 MLOAD PUSH2 0x18E SWAP4 SWAP3 SWAP2 SWAP1 PUSH2 0xF06 JUMP JUMPDEST PUSH1 0x40 MLOAD DUP1 SWAP2 SUB SWAP1 RETURN JUMPDEST PUSH0 DUP1 SLOAD SWAP1 PUSH2 0x100 EXP SWAP1 DIV PUSH20 0xFFFFFFFFFFFFFFFFFFFFFFFFFFFFFFFFFFFFFFFF AND PUSH20 0xFFFFFFFFFFFFFFFFFFFFFFFFFFFFFFFFFFFFFFFF AND CALLER PUSH20 0xFFFFFFFFFFFFFFFFFFFFFFFFFFFFFFFFFFFFFFFF AND EQ PUSH2 0x224 JUMPI PUSH1 0x40 MLOAD PUSH32 0x8C379A000000000000000000000000000000000000000000000000000000000 DUP2 MSTORE PUSH1 0x4 ADD PUSH2 0x21B SWAP1 PUSH2 0xF9A JUMP JUMPDEST PUSH1 0x40 MLOAD DUP1 SWAP2 SUB SWAP1 REVERT JUMPDEST DUP2 MLOAD DUP4 MLOAD EQ PUSH2 0x268 JUMPI PUSH1 0x40 MLOAD PUSH32 0x8C379A000000000000000000000000000000000000000000000000000000000 DUP2 MSTORE PUSH1 0x4 ADD PUSH2 0x25F SWAP1 PUSH2 0x1002 JUMP JUMPDEST PUSH1 0x40 MLOAD DUP1 SWAP2 SUB SWAP1 REVERT JUMPDEST PUSH0 PUSH1 0x2 PUSH0 DUP7 DUP2 MSTORE PUSH1 0x20 ADD SWAP1 DUP2 MSTORE PUSH1 0x20 ADD PUSH0 KECCAK256 SWAP1 POP DUP1 PUSH0 ADD PUSH0 PUSH2 0x28A SWAP2 SWAP1 PUSH2 0x84C JUMP JUMPDEST PUSH0 JUMPDEST DUP5 MLOAD DUP2 LT ISZERO PUSH2 0x328 JUMPI DUP2 PUSH0 ADD PUSH1 0x40 MLOAD DUP1 PUSH1 0x40 ADD PUSH1 0x40 MSTORE DUP1 DUP8 DUP5 DUP2 MLOAD DUP2 LT PUSH2 0x2B6 JUMPI PUSH2 0x2B5 PUSH2 0x1020 JUMP JUMPDEST JUMPDEST PUSH1 0x20 MUL PUSH1 0x20 ADD ADD MLOAD DUP2 MSTORE PUSH1 0x20 ADD DUP7 DUP5 DUP2 MLOAD DUP2 LT PUSH2 0x2D6 JUMPI PUSH2 0x2D5 PUSH2 0x1020 JUMP JUMPDEST JUMPDEST PUSH1 0x20 MUL PUSH1 0x20 ADD ADD MLOAD DUP2 MSTORE POP SWAP1 DUP1 PUSH1 0x1 DUP2 SLOAD ADD DUP1 DUP3 SSTORE DUP1 SWAP2 POP POP PUSH1 0x1 SWAP1 SUB SWAP1 PUSH0 MSTORE PUSH1 0x20 PUSH0 KECCAK256 SWAP1 PUSH1 0x2 MUL ADD PUSH0 SWAP1 SWAP2 SWAP1 SWAP2 SWAP1 SWAP2 POP PUSH0 DUP3 ADD MLOAD DUP2 PUSH0 ADD SSTORE PUSH1 0x20 DUP3 ADD MLOAD DUP2 PUSH1 0x1 ADD SSTORE POP POP DUP1 DUP1 PUSH1 0x1 ADD SWAP2 POP POP PUSH2 0x28C JUMP JUMPDEST POP DUP2 DUP2 PUSH1 0x1 ADD SWAP1 DUP2 PUSH2 0x33A SWAP2 SWAP1 PUSH2 0x1247 JUMP JUMPDEST POP POP POP POP POP POP JUMP JUMPDEST PUSH1 0x60 PUSH1 0x1 PUSH0 DUP4 PUSH20 0xFFFFFFFFFFFFFFFFFFFFFFFFFFFFFFFFFFFFFFFF AND PUSH20 0xFFFFFFFFFFFFFFFFFFFFFFFFFFFFFFFFFFFFFFFF AND DUP2 MSTORE PUSH1 0x20 ADD SWAP1 DUP2 MSTORE PUSH1 0x20 ADD PUSH0 KECCAK256 DUP1 SLOAD PUSH2 0x38C SWAP1 PUSH2 0x107A JUMP JUMPDEST DUP1 PUSH1 0x1F ADD PUSH1 0x20 DUP1 SWAP2 DIV MUL PUSH1 0x20 ADD PUSH1 0x40 MLOAD SWAP1 DUP2 ADD PUSH1 0x40 MSTORE DUP1 SWAP3 SWAP2 SWAP1 DUP2 DUP2 MSTORE PUSH1 0x20 ADD DUP3 DUP1 SLOAD PUSH2 0x3B8 SWAP1 PUSH2 0x107A JUMP JUMPDEST DUP1 ISZERO PUSH2 0x403 JUMPI DUP1 PUSH1 0x1F LT PUSH2 0x3DA JUMPI PUSH2 0x100 DUP1 DUP4 SLOAD DIV MUL DUP4 MSTORE SWAP2 PUSH1 0x20 ADD SWAP2 PUSH2 0x403 JUMP JUMPDEST DUP3 ADD SWAP2 SWAP1 PUSH0 MSTORE PUSH1 0x20 PUSH0 KECCAK256 SWAP1 JUMPDEST DUP2 SLOAD DUP2 MSTORE SWAP1 PUSH1 0x1 ADD SWAP1 PUSH1 0x20 ADD DUP1 DUP4 GT PUSH2 0x3E6 JUMPI DUP3 SWAP1 SUB PUSH1 0x1F AND DUP3 ADD SWAP2 JUMPDEST POP POP POP POP POP SWAP1 POP SWAP2 SWAP1 POP JUMP JUMPDEST PUSH0 DUP1 SLOAD SWAP1 PUSH2 0x100 EXP SWAP1 DIV PUSH20 0xFFFFFFFFFFFFFFFFFFFFFFFFFFFFFFFFFFFFFFFF AND PUSH20 0xFFFFFFFFFFFFFFFFFFFFFFFFFFFFFFFFFFFFFFFF AND CALLER PUSH20 0xFFFFFFFFFFFFFFFFFFFFFFFFFFFFFFFFFFFFFFFF AND EQ PUSH2 0x49C JUMPI PUSH1 0x40 MLOAD PUSH32 0x8C379A000000000000000000000000000000000000000000000000000000000 DUP2 MSTORE PUSH1 0x4 ADD PUSH2 0x493 SWAP1 PUSH2 0xF9A JUMP JUMPDEST PUSH1 0x40 MLOAD DUP1 SWAP2 SUB SWAP1 REVERT JUMPDEST DUP1 PUSH1 0x1 PUSH0 DUP5 PUSH20 0xFFFFFFFFFFFFFFFFFFFFFFFFFFFFFFFFFFFFFFFF AND PUSH20 0xFFFFFFFFFFFFFFFFFFFFFFFFFFFFFFFFFFFFFFFF AND DUP2 MSTORE PUSH1 0x20 ADD SWAP1 DUP2 MSTORE PUSH1 0x20 ADD PUSH0 KECCAK256 SWAP1 DUP2 PUSH2 0x4E6 SWAP2 SWAP1 PUSH2 0x136E JUMP JUMPDEST POP POP POP JUMP JUMPDEST PUSH1 0x2 PUSH1 0x20 MSTORE DUP1 PUSH0 MSTORE PUSH1 0x40 PUSH0 KECCAK256 PUSH0 SWAP2 POP SWAP1 POP DUP1 PUSH1 0x1 ADD DUP1 SLOAD PUSH2 0x50B SWAP1 PUSH2 0x107A JUMP JUMPDEST DUP1 PUSH1 0x1F ADD PUSH1 0x20 DUP1 SWAP2 DIV MUL PUSH1 0x20 ADD PUSH1 0x40 MLOAD SWAP1 DUP2 ADD PUSH1 0x40 MSTORE DUP1 SWAP3 SWAP2 SWAP1 DUP2 DUP2 MSTORE PUSH1 0x20 ADD DUP3 DUP1 SLOAD PUSH2 0x537 SWAP1 PUSH2 0x107A JUMP JUMPDEST DUP1 ISZERO PUSH2 0x582 JUMPI DUP1 PUSH1 0x1F LT PUSH2 0x559 JUMPI PUSH2 0x100 DUP1 DUP4 SLOAD DIV MUL DUP4 MSTORE SWAP2 PUSH1 0x20 ADD SWAP2 PUSH2 0x582 JUMP JUMPDEST DUP3 ADD SWAP2 SWAP1 PUSH0 MSTORE PUSH1 0x20 PUSH0 KECCAK256 SWAP1 JUMPDEST DUP2 SLOAD DUP2 MSTORE SWAP1 PUSH1 0x1 ADD SWAP1 PUSH1 0x20 ADD DUP1 DUP4 GT PUSH2 0x565 JUMPI DUP3 SWAP1 SUB PUSH1 0x1F AND DUP3 ADD SWAP2 JUMPDEST POP POP POP POP POP SWAP1 POP DUP2 JUMP JUMPDEST PUSH1 0x1 PUSH1 0x20 MSTORE DUP1 PUSH0 MSTORE PUSH1 0x40 PUSH0 KECCAK256 PUSH0 SWAP2 POP SWAP1 POP DUP1 SLOAD PUSH2 0x5A8 SWAP1 PUSH2 0x107A JUMP JUMPDEST DUP1 PUSH1 0x1F ADD PUSH1 0x20 DUP1 SWAP2 DIV MUL PUSH1 0x20 ADD PUSH1 0x40 MLOAD SWAP1 DUP2 ADD PUSH1 0x40 MSTORE DUP1 SWAP3 SWAP2 SWAP1 DUP2 DUP2 MSTORE PUSH1 0x20 ADD DUP3 DUP1 SLOAD PUSH2 0x5D4 SWAP1 PUSH2 0x107A JUMP JUMPDEST DUP1 ISZERO PUSH2 0x61F JUMPI DUP1 PUSH1 0x1F LT PUSH2 0x5F6 JUMPI PUSH2 0x100 DUP1 DUP4 SLOAD DIV MUL DUP4 MSTORE SWAP2 PUSH1 0x20 ADD SWAP2 PUSH2 0x61F JUMP JUMPDEST DUP3 ADD SWAP2 SWAP1 PUSH0 MSTORE PUSH1 0x20 PUSH0 KECCAK256 SWAP1 JUMPDEST DUP2 SLOAD DUP2 MSTORE SWAP1 PUSH1 0x1 ADD SWAP1 PUSH1 0x20 ADD DUP1 DUP4 GT PUSH2 0x602 JUMPI DUP3 SWAP1 SUB PUSH1 0x1F AND DUP3 ADD SWAP2 JUMPDEST POP POP POP POP POP DUP2 JUMP JUMPDEST PUSH0 DUP1 SLOAD SWAP1 PUSH2 0x100 EXP SWAP1 DIV PUSH20 0xFFFFFFFFFFFFFFFFFFFFFFFFFFFFFFFFFFFFFFFF AND DUP2 JUMP JUMPDEST PUSH1 0x60 DUP1 PUSH1 0x60 PUSH0 PUSH1 0x2 PUSH0 DUP7 DUP2 MSTORE PUSH1 0x20 ADD SWAP1 DUP2 MSTORE PUSH1 0x20 ADD PUSH0 KECCAK256 SWAP1 POP PUSH0 DUP2 PUSH0 ADD DUP1 SLOAD SWAP1 POP PUSH8 0xFFFFFFFFFFFFFFFF DUP2 GT ISZERO PUSH2 0x684 JUMPI PUSH2 0x683 PUSH2 0x8E9 JUMP JUMPDEST JUMPDEST PUSH1 0x40 MLOAD SWAP1 DUP1 DUP3 MSTORE DUP1 PUSH1 0x20 MUL PUSH1 0x20 ADD DUP3 ADD PUSH1 0x40 MSTORE DUP1 ISZERO PUSH2 0x6B2 JUMPI DUP2 PUSH1 0x20 ADD PUSH1 0x20 DUP3 MUL DUP1 CALLDATASIZE DUP4 CALLDATACOPY DUP1 DUP3 ADD SWAP2 POP POP SWAP1 POP JUMPDEST POP SWAP1 POP PUSH0 DUP3 PUSH0 ADD DUP1 SLOAD SWAP1 POP PUSH8 0xFFFFFFFFFFFFFFFF DUP2 GT ISZERO PUSH2 0x6D6 JUMPI PUSH2 0x6D5 PUSH2 0x8E9 JUMP JUMPDEST JUMPDEST PUSH1 0x40 MLOAD SWAP1 DUP1 DUP3 MSTORE DUP1 PUSH1 0x20 MUL PUSH1 0x20 ADD DUP3 ADD PUSH1 0x40 MSTORE DUP1 ISZERO PUSH2 0x704 JUMPI DUP2 PUSH1 0x20 ADD PUSH1 0x20 DUP3 MUL DUP1 CALLDATASIZE DUP4 CALLDATACOPY DUP1 DUP3 ADD SWAP2 POP POP SWAP1 POP JUMPDEST POP SWAP1 POP PUSH0 JUMPDEST DUP4 PUSH0 ADD DUP1 SLOAD SWAP1 POP DUP2 LT ISZERO PUSH2 0x7AB JUMPI DUP4 PUSH0 ADD DUP2 DUP2 SLOAD DUP2 LT PUSH2 0x72C JUMPI PUSH2 0x72B PUSH2 0x1020 JUMP JUMPDEST JUMPDEST SWAP1 PUSH0 MSTORE PUSH1 0x20 PUSH0 KECCAK256 SWAP1 PUSH1 0x2 MUL ADD PUSH0 ADD SLOAD DUP4 DUP3 DUP2 MLOAD DUP2 LT PUSH2 0x74E JUMPI PUSH2 0x74D PUSH2 0x1020 JUMP JUMPDEST JUMPDEST PUSH1 0x20 MUL PUSH1 0x20 ADD ADD DUP2 DUP2 MSTORE POP POP DUP4 PUSH0 ADD DUP2 DUP2 SLOAD DUP2 LT PUSH2 0x76F JUMPI PUSH2 0x76E PUSH2 0x1020 JUMP JUMPDEST JUMPDEST SWAP1 PUSH0 MSTORE PUSH1 0x20 PUSH0 KECCAK256 SWAP1 PUSH1 0x2 MUL ADD PUSH1 0x1 ADD SLOAD DUP3 DUP3 DUP2 MLOAD DUP2 LT PUSH2 0x792 JUMPI PUSH2 0x791 PUSH2 0x1020 JUMP JUMPDEST JUMPDEST PUSH1 0x20 MUL PUSH1 0x20 ADD ADD DUP2 DUP2 MSTORE POP POP DUP1 DUP1 PUSH1 0x1 ADD SWAP2 POP POP PUSH2 0x709 JUMP JUMPDEST POP DUP2 DUP2 DUP5 PUSH1 0x1 ADD DUP1 DUP1 SLOAD PUSH2 0x7BE SWAP1 PUSH2 0x107A JUMP JUMPDEST DUP1 PUSH1 0x1F ADD PUSH1 0x20 DUP1 SWAP2 DIV MUL PUSH1 0x20 ADD PUSH1 0x40 MLOAD SWAP1 DUP2 ADD PUSH1 0x40 MSTORE DUP1 SWAP3 SWAP2 SWAP1 DUP2 DUP2 MSTORE PUSH1 0x20 ADD DUP3 DUP1 SLOAD PUSH2 0x7EA SWAP1 PUSH2 0x107A JUMP JUMPDEST DUP1 ISZERO PUSH2 0x835 JUMPI DUP1 PUSH1 0x1F LT PUSH2 0x80C JUMPI PUSH2 0x100 DUP1 DUP4 SLOAD DIV MUL DUP4 MSTORE SWAP2 PUSH1 0x20 ADD SWAP2 PUSH2 0x835 JUMP JUMPDEST DUP3 ADD SWAP2 SWAP1 PUSH0 MSTORE PUSH1 0x20 PUSH0 KECCAK256 SWAP1 JUMPDEST DUP2 SLOAD DUP2 MSTORE SWAP1 PUSH1 0x1 ADD SWAP1 PUSH1 0x20 ADD DUP1 DUP4 GT PUSH2 0x818 JUMPI DUP3 SWAP1 SUB PUSH1 0x1F AND DUP3 ADD SWAP2 JUMPDEST POP POP POP POP POP SWAP1 POP SWAP6 POP SWAP6 POP SWAP6 POP POP POP POP SWAP2 SWAP4 SWAP1 SWAP3 POP JUMP JUMPDEST POP DUP1 SLOAD PUSH0 DUP3 SSTORE PUSH1 0x2 MUL SWAP1 PUSH0 MSTORE PUSH1 0x20 PUSH0 KECCAK256 SWAP1 DUP2 ADD SWAP1 PUSH2 0x86A SWAP2 SWAP1 PUSH2 0x86D JUMP JUMPDEST POP JUMP JUMPDEST JUMPDEST DUP1 DUP3 GT ISZERO PUSH2 0x88D JUMPI PUSH0 DUP1 DUP3 ADD PUSH0 SWAP1 SSTORE PUSH1 0x1 DUP3 ADD PUSH0 SWAP1 SSTORE POP PUSH1 0x2 ADD PUSH2 0x86E JUMP JUMPDEST POP SWAP1 JUMP JUMPDEST PUSH0 PUSH1 0x40 MLOAD SWAP1 POP SWAP1 JUMP JUMPDEST PUSH0 DUP1 REVERT JUMPDEST PUSH0 DUP1 REVERT JUMPDEST PUSH0 DUP2 SWAP1 POP SWAP2 SWAP1 POP JUMP JUMPDEST PUSH2 0x8B4 DUP2 PUSH2 0x8A2 JUMP JUMPDEST DUP2 EQ PUSH2 0x8BE JUMPI PUSH0 DUP1 REVERT JUMPDEST POP JUMP JUMPDEST PUSH0 DUP2 CALLDATALOAD SWAP1 POP PUSH2 0x8CF DUP2 PUSH2 0x8AB JUMP JUMPDEST SWAP3 SWAP2 POP POP JUMP JUMPDEST PUSH0 DUP1 REVERT JUMPDEST PUSH0 PUSH1 0x1F NOT PUSH1 0x1F DUP4 ADD AND SWAP1 POP SWAP2 SWAP1 POP JUMP JUMPDEST PUSH32 0x4E487B7100000000000000000000000000000000000000000000000000000000 PUSH0 MSTORE PUSH1 0x41 PUSH1 0x4 MSTORE PUSH1 0x24 PUSH0 REVERT JUMPDEST PUSH2 0x91F DUP3 PUSH2 0x8D9 JUMP JUMPDEST DUP2 ADD DUP2 DUP2 LT PUSH8 0xFFFFFFFFFFFFFFFF DUP3 GT OR ISZERO PUSH2 0x93E JUMPI PUSH2 0x93D PUSH2 0x8E9 JUMP JUMPDEST JUMPDEST DUP1 PUSH1 0x40 MSTORE POP POP POP JUMP JUMPDEST PUSH0 PUSH2 0x950 PUSH2 0x891 JUMP JUMPDEST SWAP1 POP PUSH2 0x95C DUP3 DUP3 PUSH2 0x916 JUMP JUMPDEST SWAP2 SWAP1 POP JUMP JUMPDEST PUSH0 PUSH8 0xFFFFFFFFFFFFFFFF DUP3 GT ISZERO PUSH2 0x97B JUMPI PUSH2 0x97A PUSH2 0x8E9 JUMP JUMPDEST JUMPDEST PUSH1 0x20 DUP3 MUL SWAP1 POP PUSH1 0x20 DUP2 ADD SWAP1 POP SWAP2 SWAP1 POP JUMP JUMPDEST PUSH0 DUP1 REVERT JUMPDEST PUSH0 PUSH2 0x9A2 PUSH2 0x99D DUP5 PUSH2 0x961 JUMP JUMPDEST PUSH2 0x947 JUMP JUMPDEST SWAP1 POP DUP1 DUP4 DUP3 MSTORE PUSH1 0x20 DUP3 ADD SWAP1 POP PUSH1 0x20 DUP5 MUL DUP4 ADD DUP6 DUP2 GT ISZERO PUSH2 0x9C5 JUMPI PUSH2 0x9C4 PUSH2 0x98C JUMP JUMPDEST JUMPDEST DUP4 JUMPDEST DUP2 DUP2 LT ISZERO PUSH2 0x9EE JUMPI DUP1 PUSH2 0x9DA DUP9 DUP3 PUSH2 0x8C1 JUMP JUMPDEST DUP5 MSTORE PUSH1 0x20 DUP5 ADD SWAP4 POP POP PUSH1 0x20 DUP2 ADD SWAP1 POP PUSH2 0x9C7 JUMP JUMPDEST POP POP POP SWAP4 SWAP3 POP POP POP JUMP JUMPDEST PUSH0 DUP3 PUSH1 0x1F DUP4 ADD SLT PUSH2 0xA0C JUMPI PUSH2 0xA0B PUSH2 0x8D5 JUMP JUMPDEST JUMPDEST DUP2 CALLDATALOAD PUSH2 0xA1C DUP5 DUP3 PUSH1 0x20 DUP7 ADD PUSH2 0x990 JUMP JUMPDEST SWAP2 POP POP SWAP3 SWAP2 POP POP JUMP JUMPDEST PUSH0 DUP1 REVERT JUMPDEST PUSH0 PUSH8 0xFFFFFFFFFFFFFFFF DUP3 GT ISZERO PUSH2 0xA43 JUMPI PUSH2 0xA42 PUSH2 0x8E9 JUMP JUMPDEST JUMPDEST PUSH2 0xA4C DUP3 PUSH2 0x8D9 JUMP JUMPDEST SWAP1 POP PUSH1 0x20 DUP2 ADD SWAP1 POP SWAP2 SWAP1 POP JUMP JUMPDEST DUP3 DUP2 DUP4 CALLDATACOPY PUSH0 DUP4 DUP4 ADD MSTORE POP POP POP JUMP JUMPDEST PUSH0 PUSH2 0xA79 PUSH2 0xA74 DUP5 PUSH2 0xA29 JUMP JUMPDEST PUSH2 0x947 JUMP JUMPDEST SWAP1 POP DUP3 DUP2 MSTORE PUSH1 0x20 DUP2 ADD DUP5 DUP5 DUP5 ADD GT ISZERO PUSH2 0xA95 JUMPI PUSH2 0xA94 PUSH2 0xA25 JUMP JUMPDEST JUMPDEST PUSH2 0xAA0 DUP5 DUP3 DUP6 PUSH2 0xA59 JUMP JUMPDEST POP SWAP4 SWAP3 POP POP POP JUMP JUMPDEST PUSH0 DUP3 PUSH1 0x1F DUP4 ADD SLT PUSH2 0xABC JUMPI PUSH2 0xABB PUSH2 0x8D5 JUMP JUMPDEST JUMPDEST DUP2 CALLDATALOAD PUSH2 0xACC DUP5 DUP3 PUSH1 0x20 DUP7 ADD PUSH2 0xA67 JUMP JUMPDEST SWAP2 POP POP SWAP3 SWAP2 POP POP JUMP JUMPDEST PUSH0 DUP1 PUSH0 DUP1 PUSH1 0x80 DUP6 DUP8 SUB SLT ISZERO PUSH2 0xAED JUMPI PUSH2 0xAEC PUSH2 0x89A JUMP JUMPDEST JUMPDEST PUSH0 PUSH2 0xAFA DUP8 DUP3 DUP9 ADD PUSH2 0x8C1 JUMP JUMPDEST SWAP5 POP POP PUSH1 0x20 DUP6 ADD CALLDATALOAD PUSH8 0xFFFFFFFFFFFFFFFF DUP2 GT ISZERO PUSH2 0xB1B JUMPI PUSH2 0xB1A PUSH2 0x89E JUMP JUMPDEST JUMPDEST PUSH2 0xB27 DUP8 DUP3 DUP9 ADD PUSH2 0x9F8 JUMP JUMPDEST SWAP4 POP POP PUSH1 0x40 DUP6 ADD CALLDATALOAD PUSH8 0xFFFFFFFFFFFFFFFF DUP2 GT ISZERO PUSH2 0xB48 JUMPI PUSH2 0xB47 PUSH2 0x89E JUMP JUMPDEST JUMPDEST PUSH2 0xB54 DUP8 DUP3 DUP9 ADD PUSH2 0x9F8 JUMP JUMPDEST SWAP3 POP POP PUSH1 0x60 DUP6 ADD CALLDATALOAD PUSH8 0xFFFFFFFFFFFFFFFF DUP2 GT ISZERO PUSH2 0xB75 JUMPI PUSH2 0xB74 PUSH2 0x89E JUMP JUMPDEST JUMPDEST PUSH2 0xB81 DUP8 DUP3 DUP9 ADD PUSH2 0xAA8 JUMP JUMPDEST SWAP2 POP POP SWAP3 SWAP6 SWAP2 SWAP5 POP SWAP3 POP JUMP JUMPDEST PUSH0 PUSH20 0xFFFFFFFFFFFFFFFFFFFFFFFFFFFFFFFFFFFFFFFF DUP3 AND SWAP1 POP SWAP2 SWAP1 POP JUMP JUMPDEST PUSH0 PUSH2 0xBB6 DUP3 PUSH2 0xB8D JUMP JUMPDEST SWAP1 POP SWAP2 SWAP1 POP JUMP JUMPDEST PUSH2 0xBC6 DUP2 PUSH2 0xBAC JUMP JUMPDEST DUP2 EQ PUSH2 0xBD0 JUMPI PUSH0 DUP1 REVERT JUMPDEST POP JUMP JUMPDEST PUSH0 DUP2 CALLDATALOAD SWAP1 POP PUSH2 0xBE1 DUP2 PUSH2 0xBBD JUMP JUMPDEST SWAP3 SWAP2 POP POP JUMP JUMPDEST PUSH0 PUSH1 0x20 DUP3 DUP5 SUB SLT ISZERO PUSH2 0xBFC JUMPI PUSH2 0xBFB PUSH2 0x89A JUMP JUMPDEST JUMPDEST PUSH0 PUSH2 0xC09 DUP5 DUP3 DUP6 ADD PUSH2 0xBD3 JUMP JUMPDEST SWAP2 POP POP SWAP3 SWAP2 POP POP JUMP JUMPDEST PUSH0 DUP2 MLOAD SWAP1 POP SWAP2 SWAP1 POP JUMP JUMPDEST PUSH0 DUP3 DUP3 MSTORE PUSH1 0x20 DUP3 ADD SWAP1 POP SWAP3 SWAP2 POP POP JUMP JUMPDEST DUP3 DUP2 DUP4 MCOPY PUSH0 DUP4 DUP4 ADD MSTORE POP POP POP JUMP JUMPDEST PUSH0 PUSH2 0xC44 DUP3 PUSH2 0xC12 JUMP JUMPDEST PUSH2 0xC4E DUP2 DUP6 PUSH2 0xC1C JUMP JUMPDEST SWAP4 POP PUSH2 0xC5E DUP2 DUP6 PUSH1 0x20 DUP7 ADD PUSH2 0xC2C JUMP JUMPDEST PUSH2 0xC67 DUP2 PUSH2 0x8D9 JUMP JUMPDEST DUP5 ADD SWAP2 POP POP SWAP3 SWAP2 POP POP JUMP JUMPDEST PUSH0 PUSH1 0x20 DUP3 ADD SWAP1 POP DUP2 DUP2 SUB PUSH0 DUP4 ADD MSTORE PUSH2 0xC8A DUP2 DUP5 PUSH2 0xC3A JUMP JUMPDEST SWAP1 POP SWAP3 SWAP2 POP POP JUMP JUMPDEST PUSH0 PUSH8 0xFFFFFFFFFFFFFFFF DUP3 GT ISZERO PUSH2 0xCAC JUMPI PUSH2 0xCAB PUSH2 0x8E9 JUMP JUMPDEST JUMPDEST PUSH2 0xCB5 DUP3 PUSH2 0x8D9 JUMP JUMPDEST SWAP1 POP PUSH1 0x20 DUP2 ADD SWAP1 POP SWAP2 SWAP1 POP JUMP JUMPDEST PUSH0 PUSH2 0xCD4 PUSH2 0xCCF DUP5 PUSH2 0xC92 JUMP JUMPDEST PUSH2 0x947 JUMP JUMPDEST SWAP1 POP DUP3 DUP2 MSTORE PUSH1 0x20 DUP2 ADD DUP5 DUP5 DUP5 ADD GT ISZERO PUSH2 0xCF0 JUMPI PUSH2 0xCEF PUSH2 0xA25 JUMP JUMPDEST JUMPDEST PUSH2 0xCFB DUP5 DUP3 DUP6 PUSH2 0xA59 JUMP JUMPDEST POP SWAP4 SWAP3 POP POP POP JUMP JUMPDEST PUSH0 DUP3 PUSH1 0x1F DUP4 ADD SLT PUSH2 0xD17 JUMPI PUSH2 0xD16 PUSH2 0x8D5 JUMP JUMPDEST JUMPDEST DUP2 CALLDATALOAD PUSH2 0xD27 DUP5 DUP3 PUSH1 0x20 DUP7 ADD PUSH2 0xCC2 JUMP JUMPDEST SWAP2 POP POP SWAP3 SWAP2 POP POP JUMP JUMPDEST PUSH0 DUP1 PUSH1 0x40 DUP4 DUP6 SUB SLT ISZERO PUSH2 0xD46 JUMPI PUSH2 0xD45 PUSH2 0x89A JUMP JUMPDEST JUMPDEST PUSH0 PUSH2 0xD53 DUP6 DUP3 DUP7 ADD PUSH2 0xBD3 JUMP JUMPDEST SWAP3 POP POP PUSH1 0x20 DUP4 ADD CALLDATALOAD PUSH8 0xFFFFFFFFFFFFFFFF DUP2 GT ISZERO PUSH2 0xD74 JUMPI PUSH2 0xD73 PUSH2 0x89E JUMP JUMPDEST JUMPDEST PUSH2 0xD80 DUP6 DUP3 DUP7 ADD PUSH2 0xD03 JUMP JUMPDEST SWAP2 POP POP SWAP3 POP SWAP3 SWAP1 POP JUMP JUMPDEST PUSH0 PUSH1 0x20 DUP3 DUP5 SUB SLT ISZERO PUSH2 0xD9F JUMPI PUSH2 0xD9E PUSH2 0x89A JUMP JUMPDEST JUMPDEST PUSH0 PUSH2 0xDAC DUP5 DUP3 DUP6 ADD PUSH2 0x8C1 JUMP JUMPDEST SWAP2 POP POP SWAP3 SWAP2 POP POP JUMP JUMPDEST PUSH0 DUP2 MLOAD SWAP1 POP SWAP2 SWAP1 POP JUMP JUMPDEST PUSH0 DUP3 DUP3 MSTORE PUSH1 0x20 DUP3 ADD SWAP1 POP SWAP3 SWAP2 POP POP JUMP JUMPDEST PUSH0 PUSH2 0xDD9 DUP3 PUSH2 0xDB5 JUMP JUMPDEST PUSH2 0xDE3 DUP2 DUP6 PUSH2 0xDBF JUMP JUMPDEST SWAP4 POP PUSH2 0xDF3 DUP2 DUP6 PUSH1 0x20 DUP7 ADD PUSH2 0xC2C JUMP JUMPDEST PUSH2 0xDFC DUP2 PUSH2 0x8D9 JUMP JUMPDEST DUP5 ADD SWAP2 POP POP SWAP3 SWAP2 POP POP JUMP JUMPDEST PUSH0 PUSH1 0x20 DUP3 ADD SWAP1 POP DUP2 DUP2 SUB PUSH0 DUP4 ADD MSTORE PUSH2 0xE1F DUP2 DUP5 PUSH2 0xDCF JUMP JUMPDEST SWAP1 POP SWAP3 SWAP2 POP POP JUMP JUMPDEST PUSH2 0xE30 DUP2 PUSH2 0xBAC JUMP JUMPDEST DUP3 MSTORE POP POP JUMP JUMPDEST PUSH0 PUSH1 0x20 DUP3 ADD SWAP1 POP PUSH2 0xE49 PUSH0 DUP4 ADD DUP5 PUSH2 0xE27 JUMP JUMPDEST SWAP3 SWAP2 POP POP JUMP JUMPDEST PUSH0 DUP2 MLOAD SWAP1 POP SWAP2 SWAP1 POP JUMP JUMPDEST PUSH0 DUP3 DUP3 MSTORE PUSH1 0x20 DUP3 ADD SWAP1 POP SWAP3 SWAP2 POP POP JUMP JUMPDEST PUSH0 DUP2 SWAP1 POP PUSH1 0x20 DUP3 ADD SWAP1 POP SWAP2 SWAP1 POP JUMP JUMPDEST PUSH2 0xE81 DUP2 PUSH2 0x8A2 JUMP JUMPDEST DUP3 MSTORE POP POP JUMP JUMPDEST PUSH0 PUSH2 0xE92 DUP4 DUP4 PUSH2 0xE78 JUMP JUMPDEST PUSH1 0x20 DUP4 ADD SWAP1 POP SWAP3 SWAP2 POP POP JUMP JUMPDEST PUSH0 PUSH1 0x20 DUP3 ADD SWAP1 POP SWAP2 SWAP1 POP JUMP JUMPDEST PUSH0 PUSH2 0xEB4 DUP3 PUSH2 0xE4F JUMP JUMPDEST PUSH2 0xEBE DUP2 DUP6 PUSH2 0xE59 JUMP JUMPDEST SWAP4 POP PUSH2 0xEC9 DUP4 PUSH2 0xE69 JUMP JUMPDEST DUP1 PUSH0 JUMPDEST DUP4 DUP2 LT ISZERO PUSH2 0xEF9 JUMPI DUP2 MLOAD PUSH2 0xEE0 DUP9 DUP3 PUSH2 0xE87 JUMP JUMPDEST SWAP8 POP PUSH2 0xEEB DUP4 PUSH2 0xE9E JUMP JUMPDEST SWAP3 POP POP PUSH1 0x1 DUP2 ADD SWAP1 POP PUSH2 0xECC JUMP JUMPDEST POP DUP6 SWAP4 POP POP POP POP SWAP3 SWAP2 POP POP JUMP JUMPDEST PUSH0 PUSH1 0x60 DUP3 ADD SWAP1 POP DUP2 DUP2 SUB PUSH0 DUP4 ADD MSTORE PUSH2 0xF1E DUP2 DUP7 PUSH2 0xEAA JUMP JUMPDEST SWAP1 POP DUP2 DUP2 SUB PUSH1 0x20 DUP4 ADD MSTORE PUSH2 0xF32 DUP2 DUP6 PUSH2 0xEAA JUMP JUMPDEST SWAP1 POP DUP2 DUP2 SUB PUSH1 0x40 DUP4 ADD MSTORE PUSH2 0xF46 DUP2 DUP5 PUSH2 0xDCF JUMP JUMPDEST SWAP1 POP SWAP5 SWAP4 POP POP POP POP JUMP JUMPDEST PUSH32 0x556E617574686F72697A65640000000000000000000000000000000000000000 PUSH0 DUP3 ADD MSTORE POP JUMP JUMPDEST PUSH0 PUSH2 0xF84 PUSH1 0xC DUP4 PUSH2 0xDBF JUMP JUMPDEST SWAP2 POP PUSH2 0xF8F DUP3 PUSH2 0xF50 JUMP JUMPDEST PUSH1 0x20 DUP3 ADD SWAP1 POP SWAP2 SWAP1 POP JUMP JUMPDEST PUSH0 PUSH1 0x20 DUP3 ADD SWAP1 POP DUP2 DUP2 SUB PUSH0 DUP4 ADD MSTORE PUSH2 0xFB1 DUP2 PUSH2 0xF78 JUMP JUMPDEST SWAP1 POP SWAP2 SWAP1 POP JUMP JUMPDEST PUSH32 0x436F6F7264696E617465206D69736D6174636800000000000000000000000000 PUSH0 DUP3 ADD MSTORE POP JUMP JUMPDEST PUSH0 PUSH2 0xFEC PUSH1 0x13 DUP4 PUSH2 0xDBF JUMP JUMPDEST SWAP2 POP PUSH2 0xFF7 DUP3 PUSH2 0xFB8 JUMP JUMPDEST PUSH1 0x20 DUP3 ADD SWAP1 POP SWAP2 SWAP1 POP JUMP JUMPDEST PUSH0 PUSH1 0x20 DUP3 ADD SWAP1 POP DUP2 DUP2 SUB PUSH0 DUP4 ADD MSTORE PUSH2 0x1019 DUP2 PUSH2 0xFE0 JUMP JUMPDEST SWAP1 POP SWAP2 SWAP1 POP JUMP JUMPDEST PUSH32 0x4E487B7100000000000000000000000000000000000000000000000000000000 PUSH0 MSTORE PUSH1 0x32 PUSH1 0x4 MSTORE PUSH1 0x24 PUSH0 REVERT JUMPDEST PUSH32 0x4E487B7100000000000000000000000000000000000000000000000000000000 PUSH0 MSTORE PUSH1 0x22 PUSH1 0x4 MSTORE PUSH1 0x24 PUSH0 REVERT JUMPDEST PUSH0 PUSH1 0x2 DUP3 DIV SWAP1 POP PUSH1 0x1 DUP3 AND DUP1 PUSH2 0x1091 JUMPI PUSH1 0x7F DUP3 AND SWAP2 POP JUMPDEST PUSH1 0x20 DUP3 LT DUP2 SUB PUSH2 0x10A4 JUMPI PUSH2 0x10A3 PUSH2 0x104D JUMP JUMPDEST JUMPDEST POP SWAP2 SWAP1 POP JUMP JUMPDEST PUSH0 DUP2 SWAP1 POP DUP2 PUSH0 MSTORE PUSH1 0x20 PUSH0 KECCAK256 SWAP1 POP SWAP2 SWAP1 POP JUMP JUMPDEST PUSH0 PUSH1 0x20 PUSH1 0x1F DUP4 ADD DIV SWAP1 POP SWAP2 SWAP1 POP JUMP JUMPDEST PUSH0 DUP3 DUP3 SHL SWAP1 POP SWAP3 SWAP2 POP POP JUMP JUMPDEST PUSH0 PUSH1 0x8 DUP4 MUL PUSH2 0x1106 PUSH32 0xFFFFFFFFFFFFFFFFFFFFFFFFFFFFFFFFFFFFFFFFFFFFFFFFFFFFFFFFFFFFFFFF DUP3 PUSH2 0x10CB JUMP JUMPDEST PUSH2 0x1110 DUP7 DUP4 PUSH2 0x10CB JUMP JUMPDEST SWAP6 POP DUP1 NOT DUP5 AND SWAP4 POP DUP1 DUP7 AND DUP5 OR SWAP3 POP POP POP SWAP4 SWAP3 POP POP POP JUMP JUMPDEST PUSH0 DUP2 SWAP1 POP SWAP2 SWAP1 POP JUMP JUMPDEST PUSH0 PUSH2 0x114B PUSH2 0x1146 PUSH2 0x1141 DUP5 PUSH2 0x8A2 JUMP JUMPDEST PUSH2 0x1128 JUMP JUMPDEST PUSH2 0x8A2 JUMP JUMPDEST SWAP1 POP SWAP2 SWAP1 POP JUMP JUMPDEST PUSH0 DUP2 SWAP1 POP SWAP2 SWAP1 POP JUMP JUMPDEST PUSH2 0x1164 DUP4 PUSH2 0x1131 JUMP JUMPDEST PUSH2 0x1178 PUSH2 0x1170 DUP3 PUSH2 0x1152 JUMP JUMPDEST DUP5 DUP5 SLOAD PUSH2 0x10D7 JUMP JUMPDEST DUP3 SSTORE POP POP POP POP JUMP JUMPDEST PUSH0 SWAP1 JUMP JUMPDEST PUSH2 0x118C PUSH2 0x1180 JUMP JUMPDEST PUSH2 0x1197 DUP2 DUP5 DUP5 PUSH2 0x115B JUMP JUMPDEST POP POP POP JUMP JUMPDEST JUMPDEST DUP2 DUP2 LT ISZERO PUSH2 0x11BA JUMPI PUSH2 0x11AF PUSH0 DUP3 PUSH2 0x1184 JUMP JUMPDEST PUSH1 0x1 DUP2 ADD SWAP1 POP PUSH2 0x119D JUMP JUMPDEST POP POP JUMP JUMPDEST PUSH1 0x1F DUP3 GT ISZERO PUSH2 0x11FF JUMPI PUSH2 0x11D0 DUP2 PUSH2 0x10AA JUMP JUMPDEST PUSH2 0x11D9 DUP5 PUSH2 0x10BC JUMP JUMPDEST DUP2 ADD PUSH1 0x20 DUP6 LT ISZERO PUSH2 0x11E8 JUMPI DUP2 SWAP1 POP JUMPDEST PUSH2 0x11FC PUSH2 0x11F4 DUP6 PUSH2 0x10BC JUMP JUMPDEST DUP4 ADD DUP3 PUSH2 0x119C JUMP JUMPDEST POP POP JUMPDEST POP POP POP JUMP JUMPDEST PUSH0 DUP3 DUP3 SHR SWAP1 POP SWAP3 SWAP2 POP POP JUMP JUMPDEST PUSH0 PUSH2 0x121F PUSH0 NOT DUP5 PUSH1 0x8 MUL PUSH2 0x1204 JUMP JUMPDEST NOT DUP1 DUP4 AND SWAP2 POP POP SWAP3 SWAP2 POP POP JUMP JUMPDEST PUSH0 PUSH2 0x1237 DUP4 DUP4 PUSH2 0x1210 JUMP JUMPDEST SWAP2 POP DUP3 PUSH1 0x2 MUL DUP3 OR SWAP1 POP SWAP3 SWAP2 POP POP JUMP JUMPDEST PUSH2 0x1250 DUP3 PUSH2 0xDB5 JUMP JUMPDEST PUSH8 0xFFFFFFFFFFFFFFFF DUP2 GT ISZERO PUSH2 0x1269 JUMPI PUSH2 0x1268 PUSH2 0x8E9 JUMP JUMPDEST JUMPDEST PUSH2 0x1273 DUP3 SLOAD PUSH2 0x107A JUMP JUMPDEST PUSH2 0x127E DUP3 DUP3 DUP6 PUSH2 0x11BE JUMP JUMPDEST PUSH0 PUSH1 0x20 SWAP1 POP PUSH1 0x1F DUP4 GT PUSH1 0x1 DUP2 EQ PUSH2 0x12AF JUMPI PUSH0 DUP5 ISZERO PUSH2 0x129D JUMPI DUP3 DUP8 ADD MLOAD SWAP1 POP JUMPDEST PUSH2 0x12A7 DUP6 DUP3 PUSH2 0x122C JUMP JUMPDEST DUP7 SSTORE POP PUSH2 0x130E JUMP JUMPDEST PUSH1 0x1F NOT DUP5 AND PUSH2 0x12BD DUP7 PUSH2 0x10AA JUMP JUMPDEST PUSH0 JUMPDEST DUP3 DUP2 LT ISZERO PUSH2 0x12E4 JUMPI DUP5 DUP10 ADD MLOAD DUP3 SSTORE PUSH1 0x1 DUP3 ADD SWAP2 POP PUSH1 0x20 DUP6 ADD SWAP5 POP PUSH1 0x20 DUP2 ADD SWAP1 POP PUSH2 0x12BF JUMP JUMPDEST DUP7 DUP4 LT ISZERO PUSH2 0x1301 JUMPI DUP5 DUP10 ADD MLOAD PUSH2 0x12FD PUSH1 0x1F DUP10 AND DUP3 PUSH2 0x1210 JUMP JUMPDEST DUP4 SSTORE POP JUMPDEST PUSH1 0x1 PUSH1 0x2 DUP9 MUL ADD DUP9 SSTORE POP POP POP JUMPDEST POP POP POP POP POP POP JUMP JUMPDEST PUSH0 DUP2 SWAP1 POP DUP2 PUSH0 MSTORE PUSH1 0x20 PUSH0 KECCAK256 SWAP1 POP SWAP2 SWAP1 POP JUMP JUMPDEST PUSH1 0x1F DUP3 GT ISZERO PUSH2 0x1369 JUMPI PUSH2 0x133A DUP2 PUSH2 0x1316 JUMP JUMPDEST PUSH2 0x1343 DUP5 PUSH2 0x10BC JUMP JUMPDEST DUP2 ADD PUSH1 0x20 DUP6 LT ISZERO PUSH2 0x1352 JUMPI DUP2 SWAP1 POP JUMPDEST PUSH2 0x1366 PUSH2 0x135E DUP6 PUSH2 0x10BC JUMP JUMPDEST DUP4 ADD DUP3 PUSH2 0x119C JUMP JUMPDEST POP POP JUMPDEST POP POP POP JUMP JUMPDEST PUSH2 0x1377 DUP3 PUSH2 0xC12 JUMP JUMPDEST PUSH8 0xFFFFFFFFFFFFFFFF DUP2 GT ISZERO PUSH2 0x1390 JUMPI PUSH2 0x138F PUSH2 0x8E9 JUMP JUMPDEST JUMPDEST PUSH2 0x139A DUP3 SLOAD PUSH2 0x107A JUMP JUMPDEST PUSH2 0x13A5 DUP3 DUP3 DUP6 PUSH2 0x1328 JUMP JUMPDEST PUSH0 PUSH1 0x20 SWAP1 POP PUSH1 0x1F DUP4 GT PUSH1 0x1 DUP2 EQ PUSH2 0x13D6 JUMPI PUSH0 DUP5 ISZERO PUSH2 0x13C4 JUMPI DUP3 DUP8 ADD MLOAD SWAP1 POP JUMPDEST PUSH2 0x13CE DUP6 DUP3 PUSH2 0x122C JUMP JUMPDEST DUP7 SSTORE POP PUSH2 0x1435 JUMP JUMPDEST PUSH1 0x1F NOT DUP5 AND PUSH2 0x13E4 DUP7 PUSH2 0x1316 JUMP JUMPDEST PUSH0 JUMPDEST DUP3 DUP2 LT ISZERO PUSH2 0x140B JUMPI DUP5 DUP10 ADD MLOAD DUP3 SSTORE PUSH1 0x1 DUP3 ADD SWAP2 POP PUSH1 0x20 DUP6 ADD SWAP5 POP PUSH1 0x20 DUP2 ADD SWAP1 POP PUSH2 0x13E6 JUMP JUMPDEST DUP7 DUP4 LT ISZERO PUSH2 0x1428 JUMPI DUP5 DUP10 ADD MLOAD PUSH2 0x1424 PUSH1 0x1F DUP10 AND DUP3 PUSH2 0x1210 JUMP JUMPDEST DUP4 SSTORE POP JUMPDEST PUSH1 0x1 PUSH1 0x2 DUP9 MUL ADD DUP9 SSTORE POP POP POP JUMPDEST POP POP POP POP POP POP JUMP INVALID LOG2 PUSH5 0x6970667358 0x22 SLT KECCAK256 PUSH28 0xE3529018F577539A503BA800D4C4B4DDCF81C6650057595DC92B7110 PC DUP8 MOD PUSH5 0x736F6C6343 STOP ADDMOD BYTE STOP CALLER "
				},
				"gasEstimates": {
					"creation": {
						"codeDepositCost": "1047000",
						"executionCost": "25350",
						"totalCost": "1072350"
					},
					"external": {
						"getRingPublicKeyInfo(uint256)": "infinite",
						"getUserPublicKey(address)": "infinite",
						"owner()": "2549",
						"ringPublicKeyInfo(uint256)": "infinite",
						"storeRingPublicKey(uint256,uint256[],uint256[],string)": "infinite",
						"storeUserPublicKey(address,bytes)": "infinite",
						"userPublicKey(address)": "infinite"
					}
				},
				"methodIdentifiers": {
					"getRingPublicKeyInfo(uint256)": "9eb49a4a",
					"getUserPublicKey(address)": "11231fe0",
					"owner()": "8da5cb5b",
					"ringPublicKeyInfo(uint256)": "5393c105",
					"storeRingPublicKey(uint256,uint256[],uint256[],string)": "0c84e536",
					"storeUserPublicKey(address,bytes)": "1234844a",
					"userPublicKey(address)": "5d7b7090"
				}
			},
			"storageLayout": {
				"storage": [
					{
						"astId": 3,
						"contract": "contracts/Key_management_2.sol:KeyManagementContract",
						"label": "owner",
						"offset": 0,
						"slot": "0",
						"type": "t_address"
					},
					{
						"astId": 7,
						"contract": "contracts/Key_management_2.sol:KeyManagementContract",
						"label": "userPublicKey",
						"offset": 0,
						"slot": "1",
						"type": "t_mapping(t_address,t_bytes_storage)"
					},
					{
						"astId": 24,
						"contract": "contracts/Key_management_2.sol:KeyManagementContract",
						"label": "ringPublicKeyInfo",
						"offset": 0,
						"slot": "2",
						"type": "t_mapping(t_uint256,t_struct(RingPublicKeyInfo)19_storage)"
					}
				],
				"types": {
					"t_address": {
						"encoding": "inplace",
						"label": "address",
						"numberOfBytes": "20"
					},
					"t_array(t_struct(ECPoint)12_storage)dyn_storage": {
						"base": "t_struct(ECPoint)12_storage",
						"encoding": "dynamic_array",
						"label": "struct KeyManagementContract.ECPoint[]",
						"numberOfBytes": "32"
					},
					"t_bytes_storage": {
						"encoding": "bytes",
						"label": "bytes",
						"numberOfBytes": "32"
					},
					"t_mapping(t_address,t_bytes_storage)": {
						"encoding": "mapping",
						"key": "t_address",
						"label": "mapping(address => bytes)",
						"numberOfBytes": "32",
						"value": "t_bytes_storage"
					},
					"t_mapping(t_uint256,t_struct(RingPublicKeyInfo)19_storage)": {
						"encoding": "mapping",
						"key": "t_uint256",
						"label": "mapping(uint256 => struct KeyManagementContract.RingPublicKeyInfo)",
						"numberOfBytes": "32",
						"value": "t_struct(RingPublicKeyInfo)19_storage"
					},
					"t_string_storage": {
						"encoding": "bytes",
						"label": "string",
						"numberOfBytes": "32"
					},
					"t_struct(ECPoint)12_storage": {
						"encoding": "inplace",
						"label": "struct KeyManagementContract.ECPoint",
						"members": [
							{
								"astId": 9,
								"contract": "contracts/Key_management_2.sol:KeyManagementContract",
								"label": "x",
								"offset": 0,
								"slot": "0",
								"type": "t_uint256"
							},
							{
								"astId": 11,
								"contract": "contracts/Key_management_2.sol:KeyManagementContract",
								"label": "y",
								"offset": 0,
								"slot": "1",
								"type": "t_uint256"
							}
						],
						"numberOfBytes": "64"
					},
					"t_struct(RingPublicKeyInfo)19_storage": {
						"encoding": "inplace",
						"label": "struct KeyManagementContract.RingPublicKeyInfo",
						"members": [
							{
								"astId": 16,
								"contract": "contracts/Key_management_2.sol:KeyManagementContract",
								"label": "points",
								"offset": 0,
								"slot": "0",
								"type": "t_array(t_struct(ECPoint)12_storage)dyn_storage"
							},
							{
								"astId": 18,
								"contract": "contracts/Key_management_2.sol:KeyManagementContract",
								"label": "description",
								"offset": 0,
								"slot": "1",
								"type": "t_string_storage"
							}
						],
						"numberOfBytes": "64"
					},
					"t_uint256": {
						"encoding": "inplace",
						"label": "uint256",
						"numberOfBytes": "32"
					}
				}
			},
			"userdoc": {
				"kind": "user",
				"methods": {},
				"version": 1
			}
		}
	}
}